{
  "address": "0x1D48E06d9ed284285da43fAB84190368F85238Ec",
  "abi": [
    {
      "inputs": [
        {
          "internalType": "address",
          "name": "sequencerOracle_",
          "type": "address"
        },
        {
          "internalType": "uint256",
          "name": "timeout_",
          "type": "uint256"
        },
        {
          "internalType": "uint256",
          "name": "gracePeriod_",
          "type": "uint256"
        },
        {
          "internalType": "address",
          "name": "initialOwner",
          "type": "address"
        }
      ],
      "stateMutability": "nonpayable",
      "type": "constructor"
    },
    {
      "inputs": [],
      "name": "InvalidGracePeriod",
      "type": "error"
    },
    {
      "inputs": [],
      "name": "InvalidTimeout",
      "type": "error"
    },
    {
      "inputs": [],
      "name": "LengthMismatch",
      "type": "error"
    },
    {
      "inputs": [
        {
          "internalType": "address",
          "name": "owner",
          "type": "address"
        }
      ],
      "name": "OwnableInvalidOwner",
      "type": "error"
    },
    {
      "inputs": [
        {
          "internalType": "address",
          "name": "account",
          "type": "address"
        }
      ],
      "name": "OwnableUnauthorizedAccount",
      "type": "error"
    },
    {
      "anonymous": false,
      "inputs": [
        {
          "indexed": true,
          "internalType": "address",
          "name": "previousOwner",
          "type": "address"
        },
        {
          "indexed": true,
          "internalType": "address",
          "name": "newOwner",
          "type": "address"
        }
      ],
      "name": "OwnershipTransferStarted",
      "type": "event"
    },
    {
      "anonymous": false,
      "inputs": [
        {
          "indexed": true,
          "internalType": "address",
          "name": "previousOwner",
          "type": "address"
        },
        {
          "indexed": true,
          "internalType": "address",
          "name": "newOwner",
          "type": "address"
        }
      ],
      "name": "OwnershipTransferred",
      "type": "event"
    },
    {
      "anonymous": false,
      "inputs": [
        {
          "indexed": true,
          "internalType": "address",
          "name": "newFallbackOracle",
          "type": "address"
        }
      ],
      "name": "SetFallbackOracle",
      "type": "event"
    },
    {
      "anonymous": false,
      "inputs": [
        {
          "indexed": true,
          "internalType": "address",
          "name": "asset",
          "type": "address"
        },
        {
          "indexed": false,
          "internalType": "address[]",
          "name": "feeds",
          "type": "address[]"
        }
      ],
      "name": "SetFeed",
      "type": "event"
    },
    {
      "anonymous": false,
      "inputs": [
        {
          "indexed": false,
          "internalType": "uint256",
          "name": "newGracePeriod",
          "type": "uint256"
        }
      ],
      "name": "SetGracePeriod",
      "type": "event"
    },
    {
      "anonymous": false,
      "inputs": [
        {
          "indexed": true,
          "internalType": "address",
          "name": "newSequencerOracle",
          "type": "address"
        }
      ],
      "name": "SetSequencerOracle",
      "type": "event"
    },
    {
      "anonymous": false,
      "inputs": [
        {
          "indexed": false,
          "internalType": "uint256",
          "name": "newTimeout",
          "type": "uint256"
        }
      ],
      "name": "SetTimeout",
      "type": "event"
    },
    {
      "inputs": [],
      "name": "acceptOwnership",
      "outputs": [],
      "stateMutability": "nonpayable",
      "type": "function"
    },
    {
      "inputs": [],
      "name": "decimals",
      "outputs": [
        {
          "internalType": "uint8",
          "name": "",
          "type": "uint8"
        }
      ],
      "stateMutability": "pure",
      "type": "function"
    },
    {
      "inputs": [],
      "name": "fallbackOracle",
      "outputs": [
        {
          "internalType": "address",
          "name": "",
          "type": "address"
        }
      ],
      "stateMutability": "view",
      "type": "function"
    },
    {
      "inputs": [
        {
          "internalType": "address",
          "name": "asset",
          "type": "address"
        }
      ],
      "name": "getAssetPrice",
      "outputs": [
        {
          "internalType": "uint256",
          "name": "",
          "type": "uint256"
        }
      ],
      "stateMutability": "view",
      "type": "function"
    },
    {
      "inputs": [
        {
          "internalType": "address[]",
          "name": "assets",
          "type": "address[]"
        }
      ],
      "name": "getAssetsPrices",
      "outputs": [
        {
          "internalType": "uint256[]",
          "name": "prices",
          "type": "uint256[]"
        }
      ],
      "stateMutability": "view",
      "type": "function"
    },
    {
      "inputs": [
        {
          "internalType": "address",
          "name": "asset",
          "type": "address"
        }
      ],
      "name": "getFeeds",
      "outputs": [
        {
          "internalType": "address[]",
          "name": "",
          "type": "address[]"
        }
      ],
      "stateMutability": "view",
      "type": "function"
    },
    {
      "inputs": [],
      "name": "gracePeriod",
      "outputs": [
        {
          "internalType": "uint256",
          "name": "",
          "type": "uint256"
        }
      ],
      "stateMutability": "view",
      "type": "function"
    },
    {
      "inputs": [],
      "name": "isSequencerValid",
      "outputs": [
        {
          "internalType": "bool",
          "name": "",
          "type": "bool"
        }
      ],
      "stateMutability": "view",
      "type": "function"
    },
    {
      "inputs": [],
      "name": "owner",
      "outputs": [
        {
          "internalType": "address",
          "name": "",
          "type": "address"
        }
      ],
      "stateMutability": "view",
      "type": "function"
    },
    {
      "inputs": [],
      "name": "pendingOwner",
      "outputs": [
        {
          "internalType": "address",
          "name": "",
          "type": "address"
        }
      ],
      "stateMutability": "view",
      "type": "function"
    },
    {
      "inputs": [],
      "name": "renounceOwnership",
      "outputs": [],
      "stateMutability": "nonpayable",
      "type": "function"
    },
    {
      "inputs": [],
      "name": "sequencerOracle",
      "outputs": [
        {
          "internalType": "address",
          "name": "",
          "type": "address"
        }
      ],
      "stateMutability": "view",
      "type": "function"
    },
    {
      "inputs": [
        {
          "internalType": "address",
          "name": "newFallbackOracle",
          "type": "address"
        }
      ],
      "name": "setFallbackOracle",
      "outputs": [],
      "stateMutability": "nonpayable",
      "type": "function"
    },
    {
      "inputs": [
        {
          "internalType": "address[]",
          "name": "assets",
          "type": "address[]"
        },
        {
          "internalType": "address[][]",
          "name": "feeds",
          "type": "address[][]"
        }
      ],
      "name": "setFeeds",
      "outputs": [],
      "stateMutability": "nonpayable",
      "type": "function"
    },
    {
      "inputs": [
        {
          "internalType": "uint256",
          "name": "newGracePeriod",
          "type": "uint256"
        }
      ],
      "name": "setGracePeriod",
      "outputs": [],
      "stateMutability": "nonpayable",
      "type": "function"
    },
    {
      "inputs": [
        {
          "internalType": "address",
          "name": "newSequencerOracle",
          "type": "address"
        }
      ],
      "name": "setSequencerOracle",
      "outputs": [],
      "stateMutability": "nonpayable",
      "type": "function"
    },
    {
      "inputs": [
        {
          "internalType": "uint256",
          "name": "newTimeout",
          "type": "uint256"
        }
      ],
      "name": "setTimeout",
      "outputs": [],
      "stateMutability": "nonpayable",
      "type": "function"
    },
    {
      "inputs": [],
      "name": "timeout",
      "outputs": [
        {
          "internalType": "uint256",
          "name": "",
          "type": "uint256"
        }
      ],
      "stateMutability": "view",
      "type": "function"
    },
    {
      "inputs": [
        {
          "internalType": "address",
          "name": "newOwner",
          "type": "address"
        }
      ],
      "name": "transferOwnership",
      "outputs": [],
      "stateMutability": "nonpayable",
      "type": "function"
    }
  ],
  "transactionHash": "0xff21af427aea6a8ad53a74d9f9371ce9b177e6195b557a980203bebba99fe276",
  "args": [
    "0x8B0f27aDf87E037B53eF1AADB96bE629Be37CeA8",
    86400,
    3600,
    "0x5F79EE8f8fA862E98201120d83c4eC39D9468D49"
  ],
  "numDeployments": 1,
  "solcInputHash": "5ddc16c2f322caa059d8d7c4ac5e63ce",
  "bytecode": "0x608060405234801561000f575f80fd5b506040516114ab3803806114ab83398101604081905261002e9161022a565b806001600160a01b03811661005c57604051631e4fbdf760e01b81525f600482015260240160405180910390fd5b6100658161008a565b5061006f846100a6565b610078836100ef565b6100818261015b565b5050505061026d565b600180546001600160a01b03191690556100a3816101c0565b50565b600380546001600160a01b0319166001600160a01b0383169081179091556040517f73ae4ce26eec2f4ea96b861b67192be67911288f8eb274c2fa6630e8deefab8e905f90a250565b6104b081108061010157506201518081115b1561011f57604051631ffb86f160e21b815260040160405180910390fd5b60028190556040518181527f9a3851f0de50087a4045a25c045b5b3db04b32773b44996506ff6dca26c783af906020015b60405180910390a150565b6104b081108061016d57506201518081115b1561018b5760405163d7c43e0f60e01b815260040160405180910390fd5b60048190556040518181527f848ba7852320e491d84ddc22f1f12fe48672aa22757fc4452703c9046d9982d790602001610150565b5f80546001600160a01b038381166001600160a01b0319831681178455604051919092169283917f8be0079c531659141344cd1fd0a4f28419497f9722a3daafe3b4186f6b6457e09190a35050565b80516001600160a01b0381168114610225575f80fd5b919050565b5f805f806080858703121561023d575f80fd5b6102468561020f565b935060208501519250604085015191506102626060860161020f565b905092959194509250565b6112318061027a5f395ff3fe608060405234801561000f575f80fd5b5060043610610149575f3560e01c80639d23d9f2116100c7578063c58a34cc1161007d578063f0aef31c11610063578063f0aef31c14610296578063f2f65960146102a9578063f2fde38b146102bc575f80fd5b8063c58a34cc14610272578063e30c397814610285575f80fd5b8063ac77f572116100ad578063ac77f5721461022c578063acbb4c1e1461024c578063b3596f071461025f575f80fd5b80639d23d9f214610203578063a06db7dc14610223575f80fd5b8063715018a61161011c57806379ba50971161010257806379ba5097146101d85780638da5cb5b146101e05780638fadac78146101f0575f80fd5b8063715018a6146101b85780637194ed42146101c0575f80fd5b8063170aee731461014d578063313ce56714610162578063629838e51461017657806370dea79a146101a1575b5f80fd5b61016061015b366004610d23565b6102cf565b005b604051600881526020015b60405180910390f35b600554610189906001600160a01b031681565b6040516001600160a01b03909116815260200161016d565b6101aa60025481565b60405190815260200161016d565b610160610320565b6101c8610333565b604051901515815260200161016d565b610160610341565b5f546001600160a01b0316610189565b6101606101fe366004610d84565b61038a565b610216610211366004610dff565b6105c6565b60405161016d9190610ebf565b6101aa60045481565b61023f61023a366004610d23565b610666565b60405161016d9190610f02565b600354610189906001600160a01b031681565b6101aa61026d366004610d23565b6106d9565b610160610280366004610f42565b6109d0565b6001546001600160a01b0316610189565b6101606102a4366004610d23565b6109e1565b6101606102b7366004610f42565b6109f2565b6101606102ca366004610d23565b610a03565b6102d7610a73565b600580546001600160a01b0319166001600160a01b0383169081179091556040517f9a248ffd42eb7f1580b27272ef0a5911b2835eb6fb9951d6fd1b6e3264b9e6e0905f90a250565b610328610a73565b6103315f610a9f565b565b5f61033c610ab8565b905090565b60015433906001600160a01b0316811461037e5760405163118cdaa760e01b81526001600160a01b03821660048201526024015b60405180910390fd5b61038781610a9f565b50565b610392610a73565b8281146103cb576040517fff633a3800000000000000000000000000000000000000000000000000000000815260040160405180910390fd5b5f5b838110156105bf578282828181106103e7576103e7610f59565b90506020028101906103f99190610f6d565b90505f03610433576040517fff633a3800000000000000000000000000000000000000000000000000000000815260040160405180910390fd5b5f5b83838381811061044757610447610f59565b90506020028101906104599190610f6d565b905081101561052b5760065f87878581811061047757610477610f59565b905060200201602081019061048c9190610d23565b6001600160a01b03166001600160a01b031681526020019081526020015f208484848181106104bd576104bd610f59565b90506020028101906104cf9190610f6d565b838181106104df576104df610f59565b90506020020160208101906104f49190610d23565b8154600180820184555f93845260209093200180546001600160a01b0319166001600160a01b039290921691909117905501610435565b5084848281811061053e5761053e610f59565b90506020020160208101906105539190610d23565b6001600160a01b03167fcbf64f4858c251e8a5e4b58489643fd6e0255b237e6e022318293b7fc43bb4f884848481811061058f5761058f610f59565b90506020028101906105a19190610f6d565b6040516105af929190610fb3565b60405180910390a26001016103cd565b5050505050565b6060815167ffffffffffffffff8111156105e2576105e2610deb565b60405190808252806020026020018201604052801561060b578160200160208202803683370190505b5090505f5b82518110156106605761063b83828151811061062e5761062e610f59565b60200260200101516106d9565b82828151811061064d5761064d610f59565b6020908102919091010152600101610610565b50919050565b6001600160a01b0381165f908152600660209081526040918290208054835181840281018401909452808452606093928301828280156106cd57602002820191905f5260205f20905b81546001600160a01b031681526001909101906020018083116106af575b50505050509050919050565b6001600160a01b0381165f9081526006602090815260408083208054825181850281018501909352808352849383018282801561073d57602002820191905f5260205f20905b81546001600160a01b0316815260019091019060200180831161071f575b5050505050905080515f036107bf5760055460405163b3596f0760e01b81526001600160a01b0385811660048301529091169063b3596f0790602401602060405180830381865afa158015610794573d5f803e3d5ffd5b505050506040513d601f19601f820116820180604052508101906107b89190610ffe565b9392505050565b6305f5e1005f5b82518110156109c8578281815181106107e1576107e1610f59565b60200260200101516001600160a01b031663feaf968c6040518163ffffffff1660e01b815260040160a060405180830381865afa925050508015610842575060408051601f3d908101601f1916820190925261083f9181019061102e565b60015b1561094b5769ffffffffffffffffffff85161580159061086257505f8412155b801561086e5750428211155b80156108865750600254610882908361108e565b4211155b80156108955750610895610ab8565b15610945575f8887815181106108ad576108ad610f59565b60200260200101516001600160a01b031663313ce5676040518163ffffffff1660e01b8152600401602060405180830381865afa1580156108f0573d5f803e3d5ffd5b505050506040513d601f19601f8201168201806040525081019061091491906110a7565b60ff16905061092481600a6111a7565b61092e868a6111b2565b61093891906111c9565b97505050505050506109c0565b50505050505b60055460405163b3596f0760e01b81526001600160a01b0387811660048301529091169063b3596f0790602401602060405180830381865afa158015610993573d5f803e3d5ffd5b505050506040513d601f19601f820116820180604052508101906109b79190610ffe565b95945050505050565b6001016107c6565b509392505050565b6109d8610a73565b61038781610b6d565b6109e9610a73565b61038781610bf2565b6109fa610a73565b61038781610c3b565b610a0b610a73565b600180546001600160a01b0383166001600160a01b03199091168117909155610a3b5f546001600160a01b031690565b6001600160a01b03167f38d16b8cac22d99fc7c124b9cd0de2d3fa1faef420bfe791d8c362d765e2270060405160405180910390a350565b5f546001600160a01b031633146103315760405163118cdaa760e01b8152336004820152602401610375565b600180546001600160a01b031916905561038781610cb9565b6003545f906001600160a01b0316610ad05750600190565b5f8060035f9054906101000a90046001600160a01b03166001600160a01b031663feaf968c6040518163ffffffff1660e01b815260040160a060405180830381865afa158015610b22573d5f803e3d5ffd5b505050506040513d601f19601f82011682018060405250810190610b46919061102e565b50935050925050815f148015610b665750600454610b6482426111e8565b115b9250505090565b6104b0811080610b7f57506201518081115b15610bb6576040517f7fee1bc400000000000000000000000000000000000000000000000000000000815260040160405180910390fd5b60028190556040518181527f9a3851f0de50087a4045a25c045b5b3db04b32773b44996506ff6dca26c783af906020015b60405180910390a150565b600380546001600160a01b0319166001600160a01b0383169081179091556040517f73ae4ce26eec2f4ea96b861b67192be67911288f8eb274c2fa6630e8deefab8e905f90a250565b6104b0811080610c4d57506201518081115b15610c84576040517fd7c43e0f00000000000000000000000000000000000000000000000000000000815260040160405180910390fd5b60048190556040518181527f848ba7852320e491d84ddc22f1f12fe48672aa22757fc4452703c9046d9982d790602001610be7565b5f80546001600160a01b038381166001600160a01b0319831681178455604051919092169283917f8be0079c531659141344cd1fd0a4f28419497f9722a3daafe3b4186f6b6457e09190a35050565b80356001600160a01b0381168114610d1e575f80fd5b919050565b5f60208284031215610d33575f80fd5b6107b882610d08565b5f8083601f840112610d4c575f80fd5b50813567ffffffffffffffff811115610d63575f80fd5b6020830191508360208260051b8501011115610d7d575f80fd5b9250929050565b5f805f8060408587031215610d97575f80fd5b843567ffffffffffffffff80821115610dae575f80fd5b610dba88838901610d3c565b90965094506020870135915080821115610dd2575f80fd5b50610ddf87828801610d3c565b95989497509550505050565b634e487b7160e01b5f52604160045260245ffd5b5f6020808385031215610e10575f80fd5b823567ffffffffffffffff80821115610e27575f80fd5b818501915085601f830112610e3a575f80fd5b813581811115610e4c57610e4c610deb565b8060051b604051601f19603f83011681018181108582111715610e7157610e71610deb565b604052918252848201925083810185019188831115610e8e575f80fd5b938501935b82851015610eb357610ea485610d08565b84529385019392850192610e93565b98975050505050505050565b602080825282518282018190525f9190848201906040850190845b81811015610ef657835183529284019291840191600101610eda565b50909695505050505050565b602080825282518282018190525f9190848201906040850190845b81811015610ef65783516001600160a01b031683529284019291840191600101610f1d565b5f60208284031215610f52575f80fd5b5035919050565b634e487b7160e01b5f52603260045260245ffd5b5f808335601e19843603018112610f82575f80fd5b83018035915067ffffffffffffffff821115610f9c575f80fd5b6020019150600581901b3603821315610d7d575f80fd5b60208082528181018390525f908460408401835b86811015610ff3576001600160a01b03610fe084610d08565b1682529183019190830190600101610fc7565b509695505050505050565b5f6020828403121561100e575f80fd5b5051919050565b805169ffffffffffffffffffff81168114610d1e575f80fd5b5f805f805f60a08688031215611042575f80fd5b61104b86611015565b945060208601519350604086015192506060860151915061106e60808701611015565b90509295509295909350565b634e487b7160e01b5f52601160045260245ffd5b808201808211156110a1576110a161107a565b92915050565b5f602082840312156110b7575f80fd5b815160ff811681146107b8575f80fd5b600181815b8085111561110157815f19048211156110e7576110e761107a565b808516156110f457918102915b93841c93908002906110cc565b509250929050565b5f82611117575060016110a1565b8161112357505f6110a1565b816001811461113957600281146111435761115f565b60019150506110a1565b60ff8411156111545761115461107a565b50506001821b6110a1565b5060208310610133831016604e8410600b8410161715611182575081810a6110a1565b61118c83836110c7565b805f190482111561119f5761119f61107a565b029392505050565b5f6107b88383611109565b80820281158282048414176110a1576110a161107a565b5f826111e357634e487b7160e01b5f52601260045260245ffd5b500490565b818103818111156110a1576110a161107a56fea26469706673582212203ebf276af14ec2729e9cecd4818808920ebc545607cd30af6cee900e819c938464736f6c63430008190033",
  "devdoc": {
    "errors": {
      "OwnableInvalidOwner(address)": [
        {
          "details": "The owner is not a valid owner account. (eg. `address(0)`)"
        }
      ],
      "OwnableUnauthorizedAccount(address)": [
        {
          "details": "The caller account is not authorized to perform an operation."
        }
      ]
    },
    "kind": "dev",
    "methods": {
      "acceptOwnership()": {
        "details": "The new owner accepts the ownership transfer."
      },
      "owner()": {
        "details": "Returns the address of the current owner."
      },
      "pendingOwner()": {
        "details": "Returns the address of the pending owner."
      },
      "renounceOwnership()": {
        "details": "Leaves the contract without owner. It will not be possible to call `onlyOwner` functions. Can only be called by the current owner. NOTE: Renouncing ownership will leave the contract without an owner, thereby disabling any functionality that is only available to the owner."
      },
      "transferOwnership(address)": {
        "details": "Starts the ownership transfer of the contract to a new account. Replaces the pending transfer if there is one. Can only be called by the current owner."
      }
    },
    "version": 1
  },
  "userdoc": {
    "kind": "user",
    "methods": {},
    "version": 1
  },
  "storageLayout": {
    "storage": [
      {
        "astId": 8,
        "contract": "src/Oracle.sol:Oracle",
        "label": "_owner",
        "offset": 0,
        "slot": "0",
        "type": "t_address"
      },
      {
        "astId": 156,
        "contract": "src/Oracle.sol:Oracle",
        "label": "_pendingOwner",
        "offset": 0,
        "slot": "1",
        "type": "t_address"
      },
      {
        "astId": 5409,
        "contract": "src/Oracle.sol:Oracle",
        "label": "timeout",
        "offset": 0,
        "slot": "2",
        "type": "t_uint256"
      },
      {
        "astId": 5412,
        "contract": "src/Oracle.sol:Oracle",
        "label": "sequencerOracle",
        "offset": 0,
        "slot": "3",
        "type": "t_address"
      },
      {
        "astId": 5415,
        "contract": "src/Oracle.sol:Oracle",
        "label": "gracePeriod",
        "offset": 0,
        "slot": "4",
        "type": "t_uint256"
      },
      {
        "astId": 5418,
        "contract": "src/Oracle.sol:Oracle",
        "label": "fallbackOracle",
        "offset": 0,
        "slot": "5",
        "type": "t_address"
      },
      {
        "astId": 5423,
        "contract": "src/Oracle.sol:Oracle",
        "label": "_feeds",
        "offset": 0,
        "slot": "6",
        "type": "t_mapping(t_address,t_array(t_address)dyn_storage)"
      }
    ],
    "types": {
      "t_address": {
        "encoding": "inplace",
        "label": "address",
        "numberOfBytes": "20"
      },
      "t_array(t_address)dyn_storage": {
        "base": "t_address",
        "encoding": "dynamic_array",
        "label": "address[]",
        "numberOfBytes": "32"
      },
      "t_mapping(t_address,t_array(t_address)dyn_storage)": {
        "encoding": "mapping",
        "key": "t_address",
        "label": "mapping(address => address[])",
        "numberOfBytes": "32",
        "value": "t_array(t_address)dyn_storage"
      },
      "t_uint256": {
        "encoding": "inplace",
        "label": "uint256",
        "numberOfBytes": "32"
      }
    }
  }
}