{
  "address": "0xCd92C120762Afd1ef6f50D656615203900438CDE",
  "abi": [
    {
      "inputs": [
        {
          "internalType": "contract IBookManager",
          "name": "bookManager_",
          "type": "address"
        },
        {
          "internalType": "address",
          "name": "initialOwner_",
          "type": "address"
        }
      ],
      "stateMutability": "nonpayable",
      "type": "constructor"
    },
    {
      "inputs": [],
      "name": "AlreadyOpened",
      "type": "error"
    },
    {
      "inputs": [],
      "name": "ERC20TransferFailed",
      "type": "error"
    },
    {
      "inputs": [],
      "name": "InvalidAmount",
      "type": "error"
    },
    {
      "inputs": [],
      "name": "InvalidBookPair",
      "type": "error"
    },
    {
      "inputs": [],
      "name": "InvalidHook",
      "type": "error"
    },
    {
      "inputs": [],
      "name": "InvalidLockAcquiredSender",
      "type": "error"
    },
    {
      "inputs": [],
      "name": "InvalidLockCaller",
      "type": "error"
    },
    {
      "inputs": [],
      "name": "InvalidMaker",
      "type": "error"
    },
    {
      "inputs": [],
      "name": "InvalidStrategy",
      "type": "error"
    },
    {
      "inputs": [],
      "name": "InvalidTick",
      "type": "error"
    },
    {
      "inputs": [],
      "name": "InvalidValue",
      "type": "error"
    },
    {
      "inputs": [],
      "name": "LockFailure",
      "type": "error"
    },
    {
      "inputs": [],
      "name": "NativeTransferFailed",
      "type": "error"
    },
    {
      "inputs": [],
      "name": "NotSelf",
      "type": "error"
    },
    {
      "inputs": [
        {
          "internalType": "address",
          "name": "owner",
          "type": "address"
        }
      ],
      "name": "OwnableInvalidOwner",
      "type": "error"
    },
    {
      "inputs": [
        {
          "internalType": "address",
          "name": "account",
          "type": "address"
        }
      ],
      "name": "OwnableUnauthorizedAccount",
      "type": "error"
    },
    {
      "inputs": [],
      "name": "Paused",
      "type": "error"
    },
    {
      "inputs": [
        {
          "internalType": "address",
          "name": "token",
          "type": "address"
        }
      ],
      "name": "SafeERC20FailedOperation",
      "type": "error"
    },
    {
      "inputs": [],
      "name": "Slippage",
      "type": "error"
    },
    {
      "anonymous": false,
      "inputs": [
        {
          "indexed": true,
          "internalType": "address",
          "name": "owner",
          "type": "address"
        },
        {
          "indexed": true,
          "internalType": "address",
          "name": "spender",
          "type": "address"
        },
        {
          "indexed": true,
          "internalType": "uint256",
          "name": "id",
          "type": "uint256"
        },
        {
          "indexed": false,
          "internalType": "uint256",
          "name": "amount",
          "type": "uint256"
        }
      ],
      "name": "Approval",
      "type": "event"
    },
    {
      "anonymous": false,
      "inputs": [
        {
          "indexed": true,
          "internalType": "address",
          "name": "user",
          "type": "address"
        },
        {
          "indexed": true,
          "internalType": "bytes32",
          "name": "key",
          "type": "bytes32"
        },
        {
          "indexed": false,
          "internalType": "uint256",
          "name": "amountA",
          "type": "uint256"
        },
        {
          "indexed": false,
          "internalType": "uint256",
          "name": "amountB",
          "type": "uint256"
        },
        {
          "indexed": false,
          "internalType": "uint256",
          "name": "lpAmount",
          "type": "uint256"
        }
      ],
      "name": "Burn",
      "type": "event"
    },
    {
      "anonymous": false,
      "inputs": [
        {
          "indexed": true,
          "internalType": "bytes32",
          "name": "key",
          "type": "bytes32"
        },
        {
          "indexed": false,
          "internalType": "uint256",
          "name": "canceledAmountA",
          "type": "uint256"
        },
        {
          "indexed": false,
          "internalType": "uint256",
          "name": "canceledAmountB",
          "type": "uint256"
        },
        {
          "indexed": false,
          "internalType": "uint256",
          "name": "claimedAmountA",
          "type": "uint256"
        },
        {
          "indexed": false,
          "internalType": "uint256",
          "name": "claimedAmountB",
          "type": "uint256"
        }
      ],
      "name": "Clear",
      "type": "event"
    },
    {
      "anonymous": false,
      "inputs": [
        {
          "indexed": true,
          "internalType": "address",
          "name": "user",
          "type": "address"
        },
        {
          "indexed": true,
          "internalType": "bytes32",
          "name": "key",
          "type": "bytes32"
        },
        {
          "indexed": false,
          "internalType": "uint256",
          "name": "amountA",
          "type": "uint256"
        },
        {
          "indexed": false,
          "internalType": "uint256",
          "name": "amountB",
          "type": "uint256"
        },
        {
          "indexed": false,
          "internalType": "uint256",
          "name": "lpAmount",
          "type": "uint256"
        }
      ],
      "name": "Mint",
      "type": "event"
    },
    {
      "anonymous": false,
      "inputs": [
        {
          "indexed": true,
          "internalType": "bytes32",
          "name": "key",
          "type": "bytes32"
        },
        {
          "indexed": true,
          "internalType": "BookId",
          "name": "bookIdA",
          "type": "uint192"
        },
        {
          "indexed": true,
          "internalType": "BookId",
          "name": "bookIdB",
          "type": "uint192"
        },
        {
          "indexed": false,
          "internalType": "bytes32",
          "name": "salt",
          "type": "bytes32"
        },
        {
          "indexed": false,
          "internalType": "address",
          "name": "strategy",
          "type": "address"
        }
      ],
      "name": "Open",
      "type": "event"
    },
    {
      "anonymous": false,
      "inputs": [
        {
          "indexed": true,
          "internalType": "address",
          "name": "owner",
          "type": "address"
        },
        {
          "indexed": true,
          "internalType": "address",
          "name": "operator",
          "type": "address"
        },
        {
          "indexed": false,
          "internalType": "bool",
          "name": "approved",
          "type": "bool"
        }
      ],
      "name": "OperatorSet",
      "type": "event"
    },
    {
      "anonymous": false,
      "inputs": [
        {
          "indexed": true,
          "internalType": "address",
          "name": "previousOwner",
          "type": "address"
        },
        {
          "indexed": true,
          "internalType": "address",
          "name": "newOwner",
          "type": "address"
        }
      ],
      "name": "OwnershipTransferStarted",
      "type": "event"
    },
    {
      "anonymous": false,
      "inputs": [
        {
          "indexed": true,
          "internalType": "address",
          "name": "previousOwner",
          "type": "address"
        },
        {
          "indexed": true,
          "internalType": "address",
          "name": "newOwner",
          "type": "address"
        }
      ],
      "name": "OwnershipTransferred",
      "type": "event"
    },
    {
      "anonymous": false,
      "inputs": [
        {
          "indexed": true,
          "internalType": "bytes32",
          "name": "key",
          "type": "bytes32"
        },
        {
          "indexed": false,
          "internalType": "bool",
          "name": "paused",
          "type": "bool"
        }
      ],
      "name": "Pause",
      "type": "event"
    },
    {
      "anonymous": false,
      "inputs": [
        {
          "indexed": true,
          "internalType": "bytes32",
          "name": "key",
          "type": "bytes32"
        }
      ],
      "name": "Rebalance",
      "type": "event"
    },
    {
      "anonymous": false,
      "inputs": [
        {
          "indexed": false,
          "internalType": "address",
          "name": "caller",
          "type": "address"
        },
        {
          "indexed": true,
          "internalType": "address",
          "name": "from",
          "type": "address"
        },
        {
          "indexed": true,
          "internalType": "address",
          "name": "to",
          "type": "address"
        },
        {
          "indexed": true,
          "internalType": "uint256",
          "name": "id",
          "type": "uint256"
        },
        {
          "indexed": false,
          "internalType": "uint256",
          "name": "amount",
          "type": "uint256"
        }
      ],
      "name": "Transfer",
      "type": "event"
    },
    {
      "inputs": [
        {
          "internalType": "bytes32",
          "name": "key",
          "type": "bytes32"
        },
        {
          "components": [
            {
              "internalType": "address",
              "name": "user",
              "type": "address"
            },
            {
              "internalType": "uint256",
              "name": "burnAmount",
              "type": "uint256"
            },
            {
              "internalType": "uint256",
              "name": "minAmountA",
              "type": "uint256"
            },
            {
              "internalType": "uint256",
              "name": "minAmountB",
              "type": "uint256"
            }
          ],
          "internalType": "struct Rebalancer.BurnParams",
          "name": "burnParams",
          "type": "tuple"
        }
      ],
      "name": "_burnAndRebalance",
      "outputs": [
        {
          "internalType": "uint256",
          "name": "withdrawalA",
          "type": "uint256"
        },
        {
          "internalType": "uint256",
          "name": "withdrawalB",
          "type": "uint256"
        }
      ],
      "stateMutability": "nonpayable",
      "type": "function"
    },
    {
      "inputs": [
        {
          "components": [
            {
              "internalType": "Currency",
              "name": "base",
              "type": "address"
            },
            {
              "internalType": "uint64",
              "name": "unitSize",
              "type": "uint64"
            },
            {
              "internalType": "Currency",
              "name": "quote",
              "type": "address"
            },
            {
              "internalType": "FeePolicy",
              "name": "makerPolicy",
              "type": "uint24"
            },
            {
              "internalType": "contract IHooks",
              "name": "hooks",
              "type": "address"
            },
            {
              "internalType": "FeePolicy",
              "name": "takerPolicy",
              "type": "uint24"
            }
          ],
          "internalType": "struct IBookManager.BookKey",
          "name": "bookKeyA",
          "type": "tuple"
        },
        {
          "components": [
            {
              "internalType": "Currency",
              "name": "base",
              "type": "address"
            },
            {
              "internalType": "uint64",
              "name": "unitSize",
              "type": "uint64"
            },
            {
              "internalType": "Currency",
              "name": "quote",
              "type": "address"
            },
            {
              "internalType": "FeePolicy",
              "name": "makerPolicy",
              "type": "uint24"
            },
            {
              "internalType": "contract IHooks",
              "name": "hooks",
              "type": "address"
            },
            {
              "internalType": "FeePolicy",
              "name": "takerPolicy",
              "type": "uint24"
            }
          ],
          "internalType": "struct IBookManager.BookKey",
          "name": "bookKeyB",
          "type": "tuple"
        },
        {
          "internalType": "bytes32",
          "name": "salt",
          "type": "bytes32"
        },
        {
          "internalType": "address",
          "name": "strategy",
          "type": "address"
        }
      ],
      "name": "_open",
      "outputs": [
        {
          "internalType": "bytes32",
          "name": "key",
          "type": "bytes32"
        }
      ],
      "stateMutability": "nonpayable",
      "type": "function"
    },
    {
      "inputs": [],
      "name": "acceptOwnership",
      "outputs": [],
      "stateMutability": "nonpayable",
      "type": "function"
    },
    {
      "inputs": [
        {
          "internalType": "address",
          "name": "",
          "type": "address"
        },
        {
          "internalType": "address",
          "name": "",
          "type": "address"
        },
        {
          "internalType": "uint256",
          "name": "",
          "type": "uint256"
        }
      ],
      "name": "allowance",
      "outputs": [
        {
          "internalType": "uint256",
          "name": "",
          "type": "uint256"
        }
      ],
      "stateMutability": "view",
      "type": "function"
    },
    {
      "inputs": [
        {
          "internalType": "address",
          "name": "spender",
          "type": "address"
        },
        {
          "internalType": "uint256",
          "name": "id",
          "type": "uint256"
        },
        {
          "internalType": "uint256",
          "name": "amount",
          "type": "uint256"
        }
      ],
      "name": "approve",
      "outputs": [
        {
          "internalType": "bool",
          "name": "",
          "type": "bool"
        }
      ],
      "stateMutability": "nonpayable",
      "type": "function"
    },
    {
      "inputs": [
        {
          "internalType": "address",
          "name": "",
          "type": "address"
        },
        {
          "internalType": "uint256",
          "name": "",
          "type": "uint256"
        }
      ],
      "name": "balanceOf",
      "outputs": [
        {
          "internalType": "uint256",
          "name": "",
          "type": "uint256"
        }
      ],
      "stateMutability": "view",
      "type": "function"
    },
    {
      "inputs": [],
      "name": "bookManager",
      "outputs": [
        {
          "internalType": "contract IBookManager",
          "name": "",
          "type": "address"
        }
      ],
      "stateMutability": "view",
      "type": "function"
    },
    {
      "inputs": [
        {
          "internalType": "BookId",
          "name": "",
          "type": "uint192"
        }
      ],
      "name": "bookPair",
      "outputs": [
        {
          "internalType": "BookId",
          "name": "",
          "type": "uint192"
        }
      ],
      "stateMutability": "view",
      "type": "function"
    },
    {
      "inputs": [
        {
          "internalType": "bytes32",
          "name": "key",
          "type": "bytes32"
        },
        {
          "internalType": "uint256",
          "name": "amount",
          "type": "uint256"
        },
        {
          "internalType": "uint256",
          "name": "minAmountA",
          "type": "uint256"
        },
        {
          "internalType": "uint256",
          "name": "minAmountB",
          "type": "uint256"
        }
      ],
      "name": "burn",
      "outputs": [
        {
          "internalType": "uint256",
          "name": "",
          "type": "uint256"
        },
        {
          "internalType": "uint256",
          "name": "",
          "type": "uint256"
        }
      ],
      "stateMutability": "nonpayable",
      "type": "function"
    },
    {
      "inputs": [
        {
          "internalType": "uint256",
          "name": "",
          "type": "uint256"
        }
      ],
      "name": "decimals",
      "outputs": [
        {
          "internalType": "uint8",
          "name": "",
          "type": "uint8"
        }
      ],
      "stateMutability": "pure",
      "type": "function"
    },
    {
      "inputs": [
        {
          "internalType": "bytes32",
          "name": "key",
          "type": "bytes32"
        }
      ],
      "name": "getBookPairs",
      "outputs": [
        {
          "internalType": "BookId",
          "name": "",
          "type": "uint192"
        },
        {
          "internalType": "BookId",
          "name": "",
          "type": "uint192"
        }
      ],
      "stateMutability": "view",
      "type": "function"
    },
    {
      "inputs": [
        {
          "internalType": "bytes32",
          "name": "key",
          "type": "bytes32"
        }
      ],
      "name": "getLiquidity",
      "outputs": [
        {
          "components": [
            {
              "internalType": "uint256",
              "name": "reserve",
              "type": "uint256"
            },
            {
              "internalType": "uint256",
              "name": "claimable",
              "type": "uint256"
            },
            {
              "internalType": "uint256",
              "name": "cancelable",
              "type": "uint256"
            }
          ],
          "internalType": "struct IRebalancer.Liquidity",
          "name": "liquidityA",
          "type": "tuple"
        },
        {
          "components": [
            {
              "internalType": "uint256",
              "name": "reserve",
              "type": "uint256"
            },
            {
              "internalType": "uint256",
              "name": "claimable",
              "type": "uint256"
            },
            {
              "internalType": "uint256",
              "name": "cancelable",
              "type": "uint256"
            }
          ],
          "internalType": "struct IRebalancer.Liquidity",
          "name": "liquidityB",
          "type": "tuple"
        }
      ],
      "stateMutability": "view",
      "type": "function"
    },
    {
      "inputs": [
        {
          "internalType": "bytes32",
          "name": "key",
          "type": "bytes32"
        }
      ],
      "name": "getPool",
      "outputs": [
        {
          "components": [
            {
              "internalType": "BookId",
              "name": "bookIdA",
              "type": "uint192"
            },
            {
              "internalType": "BookId",
              "name": "bookIdB",
              "type": "uint192"
            },
            {
              "internalType": "contract IStrategy",
              "name": "strategy",
              "type": "address"
            },
            {
              "internalType": "bool",
              "name": "paused",
              "type": "bool"
            },
            {
              "internalType": "uint256",
              "name": "reserveA",
              "type": "uint256"
            },
            {
              "internalType": "uint256",
              "name": "reserveB",
              "type": "uint256"
            },
            {
              "internalType": "OrderId[]",
              "name": "orderListA",
              "type": "uint256[]"
            },
            {
              "internalType": "OrderId[]",
              "name": "orderListB",
              "type": "uint256[]"
            }
          ],
          "internalType": "struct IPoolStorage.Pool",
          "name": "",
          "type": "tuple"
        }
      ],
      "stateMutability": "view",
      "type": "function"
    },
    {
      "inputs": [
        {
          "internalType": "address",
          "name": "",
          "type": "address"
        },
        {
          "internalType": "address",
          "name": "",
          "type": "address"
        }
      ],
      "name": "isOperator",
      "outputs": [
        {
          "internalType": "bool",
          "name": "",
          "type": "bool"
        }
      ],
      "stateMutability": "view",
      "type": "function"
    },
    {
      "inputs": [
        {
          "internalType": "address",
          "name": "lockCaller",
          "type": "address"
        },
        {
          "internalType": "bytes",
          "name": "data",
          "type": "bytes"
        }
      ],
      "name": "lockAcquired",
      "outputs": [
        {
          "internalType": "bytes",
          "name": "",
          "type": "bytes"
        }
      ],
      "stateMutability": "nonpayable",
      "type": "function"
    },
    {
      "inputs": [
        {
          "internalType": "bytes32",
          "name": "key",
          "type": "bytes32"
        },
        {
          "internalType": "uint256",
          "name": "amountA",
          "type": "uint256"
        },
        {
          "internalType": "uint256",
          "name": "amountB",
          "type": "uint256"
        },
        {
          "internalType": "uint256",
          "name": "minLpAmount",
          "type": "uint256"
        }
      ],
      "name": "mint",
      "outputs": [
        {
          "internalType": "uint256",
          "name": "mintAmount",
          "type": "uint256"
        }
      ],
      "stateMutability": "payable",
      "type": "function"
    },
    {
      "inputs": [
        {
          "components": [
            {
              "internalType": "Currency",
              "name": "base",
              "type": "address"
            },
            {
              "internalType": "uint64",
              "name": "unitSize",
              "type": "uint64"
            },
            {
              "internalType": "Currency",
              "name": "quote",
              "type": "address"
            },
            {
              "internalType": "FeePolicy",
              "name": "makerPolicy",
              "type": "uint24"
            },
            {
              "internalType": "contract IHooks",
              "name": "hooks",
              "type": "address"
            },
            {
              "internalType": "FeePolicy",
              "name": "takerPolicy",
              "type": "uint24"
            }
          ],
          "internalType": "struct IBookManager.BookKey",
          "name": "bookKeyA",
          "type": "tuple"
        },
        {
          "components": [
            {
              "internalType": "Currency",
              "name": "base",
              "type": "address"
            },
            {
              "internalType": "uint64",
              "name": "unitSize",
              "type": "uint64"
            },
            {
              "internalType": "Currency",
              "name": "quote",
              "type": "address"
            },
            {
              "internalType": "FeePolicy",
              "name": "makerPolicy",
              "type": "uint24"
            },
            {
              "internalType": "contract IHooks",
              "name": "hooks",
              "type": "address"
            },
            {
              "internalType": "FeePolicy",
              "name": "takerPolicy",
              "type": "uint24"
            }
          ],
          "internalType": "struct IBookManager.BookKey",
          "name": "bookKeyB",
          "type": "tuple"
        },
        {
          "internalType": "bytes32",
          "name": "salt",
          "type": "bytes32"
        },
        {
          "internalType": "address",
          "name": "strategy",
          "type": "address"
        }
      ],
      "name": "open",
      "outputs": [
        {
          "internalType": "bytes32",
          "name": "",
          "type": "bytes32"
        }
      ],
      "stateMutability": "nonpayable",
      "type": "function"
    },
    {
      "inputs": [],
      "name": "owner",
      "outputs": [
        {
          "internalType": "address",
          "name": "",
          "type": "address"
        }
      ],
      "stateMutability": "view",
      "type": "function"
    },
    {
      "inputs": [
        {
          "internalType": "bytes32",
          "name": "key",
          "type": "bytes32"
        }
      ],
      "name": "pause",
      "outputs": [],
      "stateMutability": "nonpayable",
      "type": "function"
    },
    {
      "inputs": [],
      "name": "pendingOwner",
      "outputs": [
        {
          "internalType": "address",
          "name": "",
          "type": "address"
        }
      ],
      "stateMutability": "view",
      "type": "function"
    },
    {
      "inputs": [
        {
          "internalType": "bytes32",
          "name": "key",
          "type": "bytes32"
        }
      ],
      "name": "rebalance",
      "outputs": [],
      "stateMutability": "nonpayable",
      "type": "function"
    },
    {
      "inputs": [],
      "name": "renounceOwnership",
      "outputs": [],
      "stateMutability": "nonpayable",
      "type": "function"
    },
    {
      "inputs": [
        {
          "internalType": "bytes32",
          "name": "key",
          "type": "bytes32"
        }
      ],
      "name": "resume",
      "outputs": [],
      "stateMutability": "nonpayable",
      "type": "function"
    },
    {
      "inputs": [
        {
          "internalType": "address",
          "name": "operator",
          "type": "address"
        },
        {
          "internalType": "bool",
          "name": "approved",
          "type": "bool"
        }
      ],
      "name": "setOperator",
      "outputs": [
        {
          "internalType": "bool",
          "name": "",
          "type": "bool"
        }
      ],
      "stateMutability": "nonpayable",
      "type": "function"
    },
    {
      "inputs": [
        {
          "internalType": "bytes32",
          "name": "key",
          "type": "bytes32"
        },
        {
          "internalType": "address",
          "name": "strategy",
          "type": "address"
        }
      ],
      "name": "setStrategy",
      "outputs": [],
      "stateMutability": "nonpayable",
      "type": "function"
    },
    {
      "inputs": [
        {
          "internalType": "bytes4",
          "name": "interfaceId",
          "type": "bytes4"
        }
      ],
      "name": "supportsInterface",
      "outputs": [
        {
          "internalType": "bool",
          "name": "",
          "type": "bool"
        }
      ],
      "stateMutability": "view",
      "type": "function"
    },
    {
      "inputs": [
        {
          "internalType": "uint256",
          "name": "",
          "type": "uint256"
        }
      ],
      "name": "totalSupply",
      "outputs": [
        {
          "internalType": "uint256",
          "name": "",
          "type": "uint256"
        }
      ],
      "stateMutability": "view",
      "type": "function"
    },
    {
      "inputs": [
        {
          "internalType": "address",
          "name": "receiver",
          "type": "address"
        },
        {
          "internalType": "uint256",
          "name": "id",
          "type": "uint256"
        },
        {
          "internalType": "uint256",
          "name": "amount",
          "type": "uint256"
        }
      ],
      "name": "transfer",
      "outputs": [
        {
          "internalType": "bool",
          "name": "",
          "type": "bool"
        }
      ],
      "stateMutability": "nonpayable",
      "type": "function"
    },
    {
      "inputs": [
        {
          "internalType": "address",
          "name": "sender",
          "type": "address"
        },
        {
          "internalType": "address",
          "name": "receiver",
          "type": "address"
        },
        {
          "internalType": "uint256",
          "name": "id",
          "type": "uint256"
        },
        {
          "internalType": "uint256",
          "name": "amount",
          "type": "uint256"
        }
      ],
      "name": "transferFrom",
      "outputs": [
        {
          "internalType": "bool",
          "name": "",
          "type": "bool"
        }
      ],
      "stateMutability": "nonpayable",
      "type": "function"
    },
    {
      "inputs": [
        {
          "internalType": "address",
          "name": "newOwner",
          "type": "address"
        }
      ],
      "name": "transferOwnership",
      "outputs": [],
      "stateMutability": "nonpayable",
      "type": "function"
    },
    {
      "stateMutability": "payable",
      "type": "receive"
    }
  ],
  "transactionHash": "0x0014ab07f2f75a285315040f483f09ca3c8e0661085853b1e12ff97eef8a6874",
  "args": [
    "0xAA9575d63dFC224b9583fC303dB3188C08d5C85A",
    "0x5F79EE8f8fA862E98201120d83c4eC39D9468D49"
  ],
  "numDeployments": 1,
  "solcInputHash": "9c453429365283a670b308c4ff266c35",
  "bytecode": "0x60a060405234801561000f575f80fd5b506040516144c73803806144c783398101604081905261002e916100f7565b806001600160a01b03811661005c57604051631e4fbdf760e01b81525f600482015260240160405180910390fd5b61006581610078565b50506001600160a01b031660805261012f565b600180546001600160a01b031916905561009181610094565b50565b5f80546001600160a01b038381166001600160a01b0319831681178455604051919092169283917f8be0079c531659141344cd1fd0a4f28419497f9722a3daafe3b4186f6b6457e09190a35050565b6001600160a01b0381168114610091575f80fd5b5f8060408385031215610108575f80fd5b8251610113816100e3565b6020840151909250610124816100e3565b809150509250929050565b6080516142df6101e85f395f818161030e0152818161080901528181610d3101528181610dd80152818161101b015281816111850152818161121f015281816117e00152818161186c015281816118ed0152818161197901528181611c3b01528181611fd8015281816120ee01528181612681015281816127b7015281816128640152818161291e0152818161298d015281816129e501528181612b5f01528181612e4101528181612f21015261301601526142df5ff3fe6080604052600436106101c7575f3560e01c80638da5cb5b116100f2578063e30c397811610092578063f6c0092711610062578063f6c009271461061f578063fa6793d51461064b578063fa7a296214610678578063fe99049a14610697575f80fd5b8063e30c3978146105a5578063ed56531a146105c2578063f2fde38b146105e1578063f3cbc88c14610600575f80fd5b8063a1d5f131116100cd578063a1d5f131146104c2578063b6363cf2146104e1578063bd85b0391461051a578063c630ed7d14610545575f80fd5b80638da5cb5b1461043b578063998ff4ef14610457578063a14cbb12146104a3575f80fd5b80633f322bc911610168578063558a729711610138578063558a7297146103b8578063598af9e7146103d7578063715018a61461041357806379ba509714610427575f80fd5b80633f322bc9146102fd5780633f47e66214610348578063426a84931461037a57806350d506e514610399575f80fd5b806309cb66c4116101a357806309cb66c4146102695780630a31b9531461027c57806315c7afb4146102b05780631b022ec8146102dc575f80fd5b8062fdd58e146101d257806301ffc9a71461021b578063095bcdb61461024a575f80fd5b366101ce57005b5f80fd5b3480156101dd575f80fd5b506102086101ec366004613555565b600360209081525f928352604080842090915290825290205481565b6040519081526020015b60405180910390f35b348015610226575f80fd5b5061023a61023536600461357f565b6106b6565b6040519015158152602001610212565b348015610255575f80fd5b5061023a6102643660046135a6565b61071e565b6102086102773660046135d8565b6107d8565b348015610287575f80fd5b5061029b6102963660046135d8565b610ca0565b60408051928352602083019190915201610212565b3480156102bb575f80fd5b506102cf6102ca366004613607565b610dcb565b60405161021291906136b3565b3480156102e7575f80fd5b506102fb6102f63660046136c5565b610f21565b005b348015610308575f80fd5b506103307f000000000000000000000000000000000000000000000000000000000000000081565b6040516001600160a01b039091168152602001610212565b348015610353575f80fd5b506103686103623660046136c5565b50601290565b60405160ff9091168152602001610212565b348015610385575f80fd5b5061023a6103943660046135a6565b61109b565b3480156103a4575f80fd5b5061029b6103b33660046136dc565b6110ff565b3480156103c3575f80fd5b5061023a6103d236600461371e565b61152a565b3480156103e2575f80fd5b506102086103f1366004613755565b600460209081525f938452604080852082529284528284209052825290205481565b34801561041e575f80fd5b506102fb611599565b348015610432575f80fd5b506102fb6115ac565b348015610446575f80fd5b505f546001600160a01b0316610330565b348015610462575f80fd5b5061048b610471366004613793565b60076020525f90815260409020546001600160c01b031681565b6040516001600160c01b039091168152602001610212565b3480156104ae575f80fd5b506102fb6104bd3660046137b9565b6115f5565b3480156104cd575f80fd5b506102086104dc3660046137f2565b61162d565b3480156104ec575f80fd5b5061023a6104fb366004613843565b600260209081525f928352604080842090915290825290205460ff1681565b348015610525575f80fd5b506102086105343660046136c5565b60056020525f908152604090205481565b348015610550575f80fd5b5061058561055f3660046136c5565b5f90815260066020526040902080546001909101546001600160c01b0391821692911690565b604080516001600160c01b03938416815292909116602083015201610212565b3480156105b0575f80fd5b506001546001600160a01b0316610330565b3480156105cd575f80fd5b506102fb6105dc3660046136c5565b611b19565b3480156105ec575f80fd5b506102fb6105fb36600461386f565b611bc0565b34801561060b575f80fd5b5061020861061a3660046137f2565b611c30565b34801561062a575f80fd5b5061063e6106393660046136c5565b611d2c565b60405161021291906138c4565b348015610656575f80fd5b5061066a6106653660046136c5565b611ea9565b60405161021292919061396d565b348015610683575f80fd5b506102fb6106923660046136c5565b6121d2565b3480156106a2575f80fd5b5061023a6106b13660046139a6565b61222c565b5f7f01ffc9a7000000000000000000000000000000000000000000000000000000006001600160e01b03198316148061071857507f0f632fb3000000000000000000000000000000000000000000000000000000006001600160e01b03198316145b92915050565b335f9081526003602090815260408083208584529091528120805483919083906107499084906139fd565b90915550506001600160a01b0384165f90815260036020908152604080832086845290915281208054849290610780908490613a10565b909155505060408051338082526020820185905285926001600160a01b038816927f1b3d7edb2e9c0b0e7c525b20aaaef0f5940d2ed71663c7d39266ecafac72885991015b60405180910390a45060015b9392505050565b5f8481526006602052604080822080549151639b22917d60e01b81526001600160c01b0390921660048301529082907f00000000000000000000000000000000000000000000000000000000000000006001600160a01b031690639b22917d9060240160c060405180830381865afa158015610856573d5f803e3d5ffd5b505050506040513d601f19601f8201168201806040525081019061087a9190613ad9565b5f88815260056020526040812054919250819003610a375786158061089d575085155b156108d4576040517f2c5211c600000000000000000000000000000000000000000000000000000000815260040160405180910390fd5b60408201515f906001600160a01b0316156109685782604001516001600160a01b031663313ce5676040518163ffffffff1660e01b8152600401602060405180830381865afa158015610929573d5f803e3d5ffd5b505050506040513d601f19601f8201168201806040525081019061094d9190613b64565b610958906012613b84565b61096390600a613c7d565b61096b565b60015b83519091505f906001600160a01b0316156109fe57835f01516001600160a01b031663313ce5676040518163ffffffff1660e01b8152600401602060405180830381865afa1580156109bf573d5f803e3d5ffd5b505050506040513d601f19601f820116820180604052508101906109e39190613b64565b6109ee906012613b84565b6109f990600a613c7d565b610a01565b60015b90505f610a0e838b613c8b565b90505f610a1b838b613c8b565b9050808211610a2a5780610a2c565b815b975050505050610b39565b5f80610a428a611ea9565b915091505f82604001518360200151845f0151610a5f9190613a10565b610a699190613a10565b90505f82604001518360200151845f0151610a849190613a10565b610a8e9190613a10565b905081158015610a9c575080155b15610aaf575f9950899a508a9750610b34565b815f03610acb57610ac18a868361239d565b97505f9a50610b34565b805f03610ae757610add8b868461239d565b97505f9950610b34565b5f610af38c878561239d565b90505f610b018c888561239d565b905080821115610b2057809950610b19848b896123b8565b9c50610b31565b819950610b2e838b896123b8565b9b505b50505b505050505b84841015610b5a576040516307dd37f760e41b815260040160405180910390fd5b604082015134906001600160a01b0316610b975787341015610b8f57604051632a9ffab760e21b815260040160405180910390fd5b879003610bb1565b6040830151610bb1906001600160a01b031633308b6123db565b82516001600160a01b0316610be95786341015610be157604051632a9ffab760e21b815260040160405180910390fd5b869003610c00565b8251610c00906001600160a01b031633308a6123db565b87846003015f828254610c139190613a10565b9250508190555086846004015f828254610c2d9190613a10565b90915550610c3e9050338a8761244e565b6040805189815260208101899052908101869052899033907f1d43dbd7e59f8c9371169f5c49c01e100227d9ee5f5fe54665cf10e35042bb729060600160405180910390a38015610c9457610c945f3383612480565b50505050949350505050565b604080516080810182523381526020808201868152828401868152606084018681528551602481018b905294516001600160a01b03908116604487015292516064860152905160848501525160a4808501919091528451808503909101815260c4909301845290820180516001600160e01b03166350d506e560e01b17905291516313942f3360e31b81525f9283927f000000000000000000000000000000000000000000000000000000000000000090911691639ca1799891610d6991309190600401613ca2565b5f604051808303815f875af1158015610d84573d5f803e3d5ffd5b505050506040513d5f823e601f3d908101601f19168201604052610dab9190810190613cc3565b806020019051810190610dbe9190613d52565b9150915094509492505050565b6060336001600160a01b037f00000000000000000000000000000000000000000000000000000000000000001614610e2f576040517f4bd37f4300000000000000000000000000000000000000000000000000000000815260040160405180910390fd5b6001600160a01b0384163014610e71576040517f66a7598c00000000000000000000000000000000000000000000000000000000815260040160405180910390fd5b5f80306001600160a01b03168585604051610e8d929190613d74565b5f604051808303815f865af19150503d805f8114610ec6576040519150601f19603f3d011682016040523d82523d5f602084013e610ecb565b606091505b50915091508115610edf5791506107d19050565b80515f03610f19576040517fa40afa3800000000000000000000000000000000000000000000000000000000815260040160405180910390fd5b805160208201fd5b5f818152600660205260409020600201548190600160a01b900460ff1615610f75576040517f9e87fac800000000000000000000000000000000000000000000000000000000815260040160405180910390fd5b610fa560405180608001604052805f6001600160a01b031681526020015f81526020015f81526020015f81525090565b604080516024810185905282516001600160a01b0390811660448301526020808501516064840152848401516084840152606085015160a4808501919091528451808503909101815260c49093018452820180516001600160e01b03166350d506e560e01b17905291516313942f3360e31b81527f000000000000000000000000000000000000000000000000000000000000000090921691639ca179989161105391309190600401613ca2565b5f604051808303815f875af115801561106e573d5f803e3d5ffd5b505050506040513d5f823e601f3d908101601f191682016040526110959190810190613cc3565b50505050565b335f8181526004602090815260408083206001600160a01b03881680855290835281842087855290925280832085905551919285927fb3fd5071835887567a0671151121894ddccc2842f1d10bedad13e0d17cace9a7906107c59087815260200190565b5f80333014611121576040516314e1dbf760e11b815260040160405180910390fd5b5f848152600660205260408120908061113987612562565b9150915082600301548261114d9190613a10565b915082600401548161115f9190613a10565b8354604051639b22917d60e01b81526001600160c01b0390911660048201529091505f907f00000000000000000000000000000000000000000000000000000000000000006001600160a01b031690639b22917d9060240160c060405180830381865afa1580156111d2573d5f803e3d5ffd5b505050506040513d601f19601f820116820180604052508101906111f69190613ad9565b6001850154604051639b22917d60e01b81526001600160c01b0390911660048201529091505f907f00000000000000000000000000000000000000000000000000000000000000006001600160a01b031690639b22917d9060240160c060405180830381865afa15801561126c573d5f803e3d5ffd5b505050506040513d601f19601f820116820180604052508101906112909190613ad9565b905060208801351561139f575f89815260056020908152604090912054906112c9906112be908b018b61386f565b8b60208c013561261c565b6112d8858a602001358361239d565b97506112e9848a602001358361239d565b965088604001358810806113005750886060013587105b1561131e576040516307dd37f760e41b815260040160405180910390fd5b61132888866139fd565b945061133487856139fd565b93508961134460208b018b61386f565b6001600160a01b03167f974da0fadf774cec6d550cb40d607dc3a0b7dee97aa1cd03a2fa3f6603b943ab8a8a8d60200135604051611395939291909283526020830191909152604082015260600190565b60405180910390a3505b60028501546040517f1dc90f6d000000000000000000000000000000000000000000000000000000008152600481018b9052602481018690526044810185905260609182916001600160a01b0390911690631dc90f6d906064015f60405180830381865afa92505050801561143557506040513d5f823e601f3d908101601f191682016040526114329190810190613e39565b60015b156114405790925090505b61144e848389600501612644565b61145c838289600601612644565b8861146f85604001518960030154612796565b61147991906139fd565b600388015583516004880154899161149091612796565b61149a91906139fd565b600488015588156114ca576114ca6114b560208c018c61386f565b60408601516001600160a01b0316908b612480565b87156114f2576114f26114e060208c018c61386f565b85516001600160a01b0316908a612480565b6040518b907f37f8042257f6b4d65b9614deb7792e5b374db2fdcd1983bf8a1247a8a788af5c905f90a2505050505050509250929050565b335f8181526002602090815260408083206001600160a01b038716808552908352818420805460ff191687151590811790915591519182529293917fceb576d9f15e4e200fdb5096d64d5dfd667e16def20c1eefd14256d8e3faa267910160405180910390a350600192915050565b6115a1612a6e565b6115aa5f612a9a565b565b60015433906001600160a01b031681146115e95760405163118cdaa760e01b81526001600160a01b03821660048201526024015b60405180910390fd5b6115f281612a9a565b50565b6115fd612a6e565b5f9182526006602052604090912060020180546001600160a01b0319166001600160a01b03909216919091179055565b5f33301461164e576040516314e1dbf760e11b815260040160405180910390fd5b61167f61165e602086018661386f565b61166e606088016040890161386f565b6001600160a01b0391821691161490565b80156116a657506116a6611699606086016040870161386f565b61166e602088018861386f565b6116dc576040517f27a4015200000000000000000000000000000000000000000000000000000000815260040160405180910390fd5b5f6116ed60a087016080880161386f565b6001600160a01b031614158061171b57505f61170f60a086016080870161386f565b6001600160a01b031614155b15611752576040517f9c9d882300000000000000000000000000000000000000000000000000000000815260040160405180910390fd5b6001600160a01b038216611792576040517f4e236e9a00000000000000000000000000000000000000000000000000000000815260040160405180910390fd5b5f6117aa6117a536889003880188613e99565b612ab3565b90505f6117bf6117a536889003880188613e99565b604051632ad7b51960e11b81526001600160c01b03841660048201529091507f00000000000000000000000000000000000000000000000000000000000000006001600160a01b0316906355af6a3290602401602060405180830381865afa15801561182d573d5f803e3d5ffd5b505050506040513d601f19601f820116820180604052508101906118519190613f18565b6118cf5760405163fefc7c5160e01b81526001600160a01b037f0000000000000000000000000000000000000000000000000000000000000000169063fefc7c51906118a1908a90600401613fd2565b5f604051808303815f87803b1580156118b8575f80fd5b505af11580156118ca573d5f803e3d5ffd5b505050505b604051632ad7b51960e11b81526001600160c01b03821660048201527f00000000000000000000000000000000000000000000000000000000000000006001600160a01b0316906355af6a3290602401602060405180830381865afa15801561193a573d5f803e3d5ffd5b505050506040513d601f19601f8201168201806040525081019061195e9190613f18565b6119dc5760405163fefc7c5160e01b81526001600160a01b037f0000000000000000000000000000000000000000000000000000000000000000169063fefc7c51906119ae908990600401613fd2565b5f604051808303815f87803b1580156119c5575f80fd5b505af11580156119d7573d5f803e3d5ffd5b505050505b6119e7828287612aee565b5f818152600660205260409020600201549093506001600160a01b031615611a3b576040517f1da42b2600000000000000000000000000000000000000000000000000000000815260040160405180910390fd5b5f83815260066020908152604080832080546001600160c01b038781167fffffffffffffffff0000000000000000000000000000000000000000000000009283168117845560018401805492891692841683179055600290930180546001600160a01b038c166001600160a01b03199091168117909155838752600786528487208054841683179055818752958490208054909216831790915582518a8152938401949094529186917f66d8f0c63665a9bd1357e5d422d5f538805b225f260974cb408a66635040ec6c910160405180910390a45050949350505050565b611b21612a6e565b5f8181526006602052604081209080611b3984612562565b9150915081836003015f828254611b509190613a10565b9250508190555080836004015f828254611b6a9190613a10565b909155505060028301805460ff60a01b1916600160a01b1790556040516001815284907f7b28113e89c91a053d5a882b35e6538a40a9a286d71e232085b8290dc5aa85c79060200160405180910390a250505050565b611bc8612a6e565b600180546001600160a01b0383166001600160a01b03199091168117909155611bf85f546001600160a01b031690565b6001600160a01b03167f38d16b8cac22d99fc7c124b9cd0de2d3fa1faef420bfe791d8c362d765e2270060405160405180910390a350565b5f611c39612a6e565b7f00000000000000000000000000000000000000000000000000000000000000006001600160a01b0316639ca179983063a1d5f13160e01b88888888604051602401611c889493929190613ff3565b60408051601f198184030181529181526020820180516001600160e01b03166001600160e01b03199485161790525160e085901b9092168252611cce9291600401613ca2565b5f604051808303815f875af1158015611ce9573d5f803e3d5ffd5b505050506040513d5f823e601f3d908101601f19168201604052611d109190810190613cc3565b806020019051810190611d23919061402f565b95945050505050565b611d8b6040518061010001604052805f6001600160c01b031681526020015f6001600160c01b031681526020015f6001600160a01b031681526020015f151581526020015f81526020015f815260200160608152602001606081525090565b5f8281526006602090815260409182902082516101008101845281546001600160c01b0390811682526001830154168184015260028201546001600160a01b03811682860152600160a01b900460ff161515606082015260038201546080820152600482015460a08201526005820180548551818602810186019096528086529194929360c08601939290830182828015611e4357602002820191905f5260205f20905b815481526020019060010190808311611e2f575b5050505050815260200160068201805480602002602001604051908101604052809291908181526020018280548015611e9957602002820191905f5260205f20905b815481526020019060010190808311611e85575b5050505050815250509050919050565b611eca60405180606001604052805f81526020015f81526020015f81525090565b611eeb60405180606001604052805f81526020015f81526020015f81525090565b5f8381526006602090815260408083206003810154865260048101548552600581018054835181860281018601909452808452919493909190830182828015611f5157602002820191905f5260205f20905b815481526020019060010190808311611f3d575b505050505090505f82600601805480602002602001604051908101604052809291908181526020018280548015611fa557602002820191905f5260205f20905b815481526020019060010190808311611f91575b505050505090505f825111156120c1578254604051639b22917d60e01b81526001600160c01b0390911660048201525f907f00000000000000000000000000000000000000000000000000000000000000006001600160a01b031690639b22917d9060240160c060405180830381865afa158015612025573d5f803e3d5ffd5b505050506040513d601f19601f820116820180604052508101906120499190613ad9565b90505f5b83518110156120be575f806120848460600151856020015188868151811061207757612077614046565b6020026020010151612b5a565b91509150818960400181815161209a9190613a10565b9052506020880180518291906120b1908390613a10565b905250505060010161204d565b50505b8051156121ca576001830154604051639b22917d60e01b81526001600160c01b0390911660048201525f907f00000000000000000000000000000000000000000000000000000000000000006001600160a01b031690639b22917d9060240160c060405180830381865afa15801561213b573d5f803e3d5ffd5b505050506040513d601f19601f8201168201806040525081019061215f9190613ad9565b90505f5b82518110156121c7575f8061218d8460600151856020015187868151811061207757612077614046565b9150915080896020018181516121a39190613a10565b9052506040880180518391906121ba908390613a10565b9052505050600101612163565b50505b505050915091565b6121da612a6e565b5f818152600660209081526040808320600201805460ff60a01b191690555191825282917f7b28113e89c91a053d5a882b35e6538a40a9a286d71e232085b8290dc5aa85c7910160405180910390a250565b5f336001600160a01b0386161480159061226957506001600160a01b0385165f90815260026020908152604080832033845290915290205460ff16155b156122d9576001600160a01b0385165f90815260046020908152604080832033845282528083208684529091529020545f1981146122d7576122ab83826139fd565b6001600160a01b0387165f90815260046020908152604080832033845282528083208884529091529020555b505b6001600160a01b0385165f9081526003602090815260408083208684529091528120805484929061230b9084906139fd565b90915550506001600160a01b0384165f90815260036020908152604080832086845290915281208054849290612342908490613a10565b9091555050604080513381526020810184905284916001600160a01b0380881692908916917f1b3d7edb2e9c0b0e7c525b20aaaef0f5940d2ed71663c7d39266ecafac728859910160405180910390a4506001949350505050565b5f825f1904841183021582026123b1575f80fd5b5091020490565b5f825f1904841183021582026123cc575f80fd5b50910281810615159190040190565b604080516001600160a01b0385811660248301528416604482015260648082018490528251808303909101815260849091019091526020810180516001600160e01b03167f23b872dd00000000000000000000000000000000000000000000000000000000179052611095908590612cb9565b612459838383612d3e565b5f8281526005602052604081208054839290612476908490613a10565b9091555050505050565b5f6001600160a01b0384166124d5575f805f8085875af19050806124d0576040517ff4b3b1bc00000000000000000000000000000000000000000000000000000000815260040160405180910390fd5b611095565b6040517fa9059cbb0000000000000000000000000000000000000000000000000000000081526001600160a01b038416600482015282602482015260205f6044835f895af13d15601f3d1160015f511416171691505080611095576040517ff27f64e400000000000000000000000000000000000000000000000000000000815260040160405180910390fd5b5f8181526006602052604081208190818061257f60058401612dc3565b909250905061258e8286613a10565b945061259a8185613a10565b93505f806125aa85600601612dc3565b90925090506125b98188613a10565b96506125c58287613a10565b60408051868152602081018590529081018390526060810185905290965088907fd9137e1ddf69f5d656819d4d4cd86f4d3cffdc670f36537fcca9501253f4e25b9060800160405180910390a25050505050915091565b6126278383836130a8565b5f82815260056020526040812080548392906124769084906139fd565b5f5b82518110156110955782818151811061266157612661614046565b60200260200101516020015167ffffffffffffffff165f031561278e575f7f00000000000000000000000000000000000000000000000000000000000000006001600160a01b0316631dbef48860405180608001604052808881526020018786815181106126d1576126d1614046565b60200260200101515f015160020b81526020018786815181106126f6576126f6614046565b60200260200101516020015167ffffffffffffffff1681526020015f6001600160a01b03168152506040518263ffffffff1660e01b815260040161273a919061405a565b60408051808303815f875af1158015612755573d5f803e3d5ffd5b505050506040513d601f19601f820116820180604052508101906127799190613d52565b5083546001810185555f858152602090200155505b600101612646565b604051636a256b2960e01b81526001600160a01b0383811660048301525f917f000000000000000000000000000000000000000000000000000000000000000090911690636a256b29906024016020604051808303815f875af11580156127ff573d5f803e3d5ffd5b505050506040513d601f19601f82011682018060405250810190612823919061402f565b506040517f9611cf6c0000000000000000000000000000000000000000000000000000000081523060048201526001600160a01b0384811660248301525f917f000000000000000000000000000000000000000000000000000000000000000090911690639611cf6c90604401602060405180830381865afa1580156128ab573d5f803e3d5ffd5b505050506040513d601f19601f820116820180604052508101906128cf919061402f565b90505f811315612988576040517fd9caed120000000000000000000000000000000000000000000000000000000081526001600160a01b038581166004830152306024830152604482018390527f0000000000000000000000000000000000000000000000000000000000000000169063d9caed12906064015f604051808303815f87803b15801561295f575f80fd5b505af1158015612971573d5f803e3d5ffd5b5050505080836129819190613a10565b9250612a66565b6129c67f00000000000000000000000000000000000000000000000000000000000000006129b583614110565b6001600160a01b0387169190612480565b604051636a256b2960e01b81526001600160a01b0385811660048301527f00000000000000000000000000000000000000000000000000000000000000001690636a256b29906024016020604051808303815f875af1158015612a2b573d5f803e3d5ffd5b505050506040513d601f19601f82011682018060405250810190612a4f919061402f565b50612a5981614110565b612a6390846139fd565b92505b509092915050565b5f546001600160a01b031633146115aa5760405163118cdaa760e01b81523360048201526024016115e0565b600180546001600160a01b03191690556115f281613124565b5f8082604051602001612ac69190614146565b60408051601f1981840301815291905280516020909101206001600160c01b03169392505050565b5f826001600160c01b0316846001600160c01b03161115612b0d579192915b6040805167ffffffffffffffff1986831b811660208301529185901b9091166038820152605081018390526070016040516020818303038152906040528051906020012090509392505050565b5f805f7f00000000000000000000000000000000000000000000000000000000000000006001600160a01b031663d09ef241856040518263ffffffff1660e01b8152600401612bab91815260200190565b606060405180830381865afa158015612bc6573d5f803e3d5ffd5b505050506040513d601f19601f82011682018060405250810190612bea91906141ad565b90508467ffffffffffffffff16816020015167ffffffffffffffff16612c109190613c8b565b9250612c538567ffffffffffffffff16826040015167ffffffffffffffff16612c399190613c8b565b5f612c498760281c62ffffff1690565b60020b9190613173565b9150612c648662ffffff1660171c90565b15612c8f575f612c7b62ffffff881685600161319d565b9050612c87818561421d565b935050612cb0565b5f612ca062ffffff8816848361319d565b9050612cac8184614244565b9250505b50935093915050565b5f8060205f8451602086015f885af180612cd8576040513d5f823e3d81fd5b50505f513d91508115612cef578060011415612cfc565b6001600160a01b0384163b155b15611095576040517f5274afe70000000000000000000000000000000000000000000000000000000081526001600160a01b03851660048201526024016115e0565b6001600160a01b0383165f90815260036020908152604080832085845290915281208054839290612d70908490613a10565b9091555050604080513381526020810183905283916001600160a01b038616915f917f1b3d7edb2e9c0b0e7c525b20aaaef0f5940d2ed71663c7d39266ecafac72885991015b60405180910390a4505050565b5f805f83805480602002602001604051908101604052809291908181526020018280548015612e0f57602002820191905f5260205f20905b815481526020019060010190808311612dfb575b505050505090505f5b815181101561309f575f828281518110612e3457612e34614046565b602002602001015190505f7f00000000000000000000000000000000000000000000000000000000000000006001600160a01b031663d09ef241836040518263ffffffff1660e01b8152600401612e8d91815260200190565b606060405180830381865afa158015612ea8573d5f803e3d5ffd5b505050506040513d601f19601f82011682018060405250810190612ecc91906141ad565b604081015190915067ffffffffffffffff1615612fa057604080517f38926b6d0000000000000000000000000000000000000000000000000000000081526004810184905260248101919091525f60448201527f00000000000000000000000000000000000000000000000000000000000000006001600160a01b0316906338926b6d906064016020604051808303815f875af1158015612f6f573d5f803e3d5ffd5b505050506040513d601f19601f82011682018060405250810190612f93919061402f565b612f9d9086613a10565b94505b602081015167ffffffffffffffff1615613095576040805180820182528381525f6020820181815292517f14d6a9eb00000000000000000000000000000000000000000000000000000000815291516004830152915167ffffffffffffffff1660248201526060604482015260648101919091527f00000000000000000000000000000000000000000000000000000000000000006001600160a01b0316906314d6a9eb906084016020604051808303815f875af1158015613064573d5f803e3d5ffd5b505050506040513d601f19601f82011682018060405250810190613088919061402f565b6130929087613a10565b95505b5050600101612e18565b50505f90925591565b6001600160a01b0383165f908152600360209081526040808320858452909152812080548392906130da9084906139fd565b9091555050604080513381526020810183905283915f916001600160a01b038716917f1b3d7edb2e9c0b0e7c525b20aaaef0f5940d2ed71663c7d39266ecafac7288599101612db6565b5f80546001600160a01b038381166001600160a01b0319831681178455604051919092169283917f8be0079c531659141344cd1fd0a4f28419497f9722a3daafe3b4186f6b6457e09190a35050565b5f613195606084901b6131888660020b61321d565b8082061515851691040190565b949350505050565b5f6207a11f19627fffff851601600281900b821282816131bf57825f036131c1565b825b62ffffff1690505f6131fa6131d68389613c8b565b620f4240886131ec578581830615151691040190565b808206151586151691040190565b90508261320f5761320a81614110565b613211565b805b98975050505050505050565b5f613227826134e5565b815f600282900b811361323a5781613243565b6132438261426a565b62ffffff8116915060011615613267576bfff97272373d413259a469909250613278565b6c0100000000000000000000000092505b60028116156132975760606bfff2e50f5f656932ef12357c8402901c92505b60048116156132b65760606bffe5caca7e10e4e61c3624ea8402901c92505b60088116156132d55760606bffcb9843d60f6159c9db58838402901c92505b60108116156132f45760606bff973b41fa98c081472e68968402901c92505b60208116156133135760606bff2ea16466c96a3843ec78b38402901c92505b60408116156133325760606bfe5dee046a99a2a811c461f18402901c92505b60808116156133515760606bfcbe86c7900a88aedcffc83b8402901c92505b6101008116156133715760606bf987a7253ac413176f2b074c8402901c92505b6102008116156133915760606bf3392b0822b70005940c7a398402901c92505b6104008116156133b15760606be7159475a2c29b7443b29c7f8402901c92505b6108008116156133d15760606bd097f3bdfd2022b8845ad8f78402901c92505b6110008116156133f15760606ba9f746462d870fdf8a65dc1f8402901c92505b6120008116156134115760606b70d869a156d2a1b890bb3df68402901c92505b6140008116156134315760606b31be135f97d08fd9812315058402901c92505b6180008116156134515760606b09aa508b5b7a84e1c677de548402901c92505b620100008116156134715760606a5d6af8dedb81196699c3298402901c92505b62020000811615613490576060692216e584f5fa1ea926048402901c92505b620400008116156134ad57606067048a170391f7dc428402901c92505b5f8260020b13156134de576134db83780100000000000000000000000000000000000000000000000061428a565b92505b5050919050565b6207ffff600282900b138061350a57506135016207ffff61426a565b60020b8160020b125b156115f2576040517fce8ef7fc00000000000000000000000000000000000000000000000000000000815260040160405180910390fd5b6001600160a01b03811681146115f2575f80fd5b5f8060408385031215613566575f80fd5b823561357181613541565b946020939093013593505050565b5f6020828403121561358f575f80fd5b81356001600160e01b0319811681146107d1575f80fd5b5f805f606084860312156135b8575f80fd5b83356135c381613541565b95602085013595506040909401359392505050565b5f805f80608085870312156135eb575f80fd5b5050823594602084013594506040840135936060013592509050565b5f805f60408486031215613619575f80fd5b833561362481613541565b9250602084013567ffffffffffffffff80821115613640575f80fd5b818601915086601f830112613653575f80fd5b813581811115613661575f80fd5b876020828501011115613672575f80fd5b6020830194508093505050509250925092565b5f81518084528060208401602086015e5f602082860101526020601f19601f83011685010191505092915050565b602081525f6107d16020830184613685565b5f602082840312156136d5575f80fd5b5035919050565b5f8082840360a08112156136ee575f80fd5b833592506080601f1982011215613703575f80fd5b506020830190509250929050565b80151581146115f2575f80fd5b5f806040838503121561372f575f80fd5b823561373a81613541565b9150602083013561374a81613711565b809150509250929050565b5f805f60608486031215613767575f80fd5b833561377281613541565b9250602084013561378281613541565b929592945050506040919091013590565b5f602082840312156137a3575f80fd5b81356001600160c01b03811681146107d1575f80fd5b5f80604083850312156137ca575f80fd5b82359150602083013561374a81613541565b5f60c082840312156137ec575f80fd5b50919050565b5f805f806101c08587031215613806575f80fd5b61381086866137dc565b935061381f8660c087016137dc565b925061018085013591506101a085013561383881613541565b939692955090935050565b5f8060408385031215613854575f80fd5b823561385f81613541565b9150602083013561374a81613541565b5f6020828403121561387f575f80fd5b81356107d181613541565b5f815180845260208085019450602084015f5b838110156138b95781518752958201959082019060010161389d565b509495945050505050565b602081526001600160c01b0382511660208201525f60208301516138f360408401826001600160c01b03169052565b5060408301516001600160a01b0381166060840152506060830151801515608084015250608083015160a083015260a083015160c083015260c08301516101008060e085015261394761012085018361388a565b915060e0850151601f198584030182860152613963838261388a565b9695505050505050565b8251815260208084015181830152604080850151818401528351606084015290830151608083015282015160a082015260c081016107d1565b5f805f80608085870312156139b9575f80fd5b84356139c481613541565b935060208501356139d481613541565b93969395505050506040820135916060013590565b634e487b7160e01b5f52601160045260245ffd5b81810381811115610718576107186139e9565b80820180821115610718576107186139e9565b634e487b7160e01b5f52604160045260245ffd5b60405160c0810167ffffffffffffffff81118282101715613a5a57613a5a613a23565b60405290565b6040805190810167ffffffffffffffff81118282101715613a5a57613a5a613a23565b604051601f8201601f1916810167ffffffffffffffff81118282101715613aac57613aac613a23565b604052919050565b67ffffffffffffffff811681146115f2575f80fd5b62ffffff811681146115f2575f80fd5b5f60c08284031215613ae9575f80fd5b613af1613a37565b8251613afc81613541565b81526020830151613b0c81613ab4565b60208201526040830151613b1f81613541565b60408201526060830151613b3281613ac9565b60608201526080830151613b4581613541565b608082015260a0830151613b5881613ac9565b60a08201529392505050565b5f60208284031215613b74575f80fd5b815160ff811681146107d1575f80fd5b60ff8281168282160390811115610718576107186139e9565b600181815b80851115613bd757815f1904821115613bbd57613bbd6139e9565b80851615613bca57918102915b93841c9390800290613ba2565b509250929050565b5f82613bed57506001610718565b81613bf957505f610718565b8160018114613c0f5760028114613c1957613c35565b6001915050610718565b60ff841115613c2a57613c2a6139e9565b50506001821b610718565b5060208310610133831016604e8410600b8410161715613c58575081810a610718565b613c628383613b9d565b805f1904821115613c7557613c756139e9565b029392505050565b5f6107d160ff841683613bdf565b8082028115828204841417610718576107186139e9565b6001600160a01b0383168152604060208201525f6131956040830184613685565b5f6020808385031215613cd4575f80fd5b825167ffffffffffffffff80821115613ceb575f80fd5b818501915085601f830112613cfe575f80fd5b815181811115613d1057613d10613a23565b613d22601f8201601f19168501613a83565b91508082528684828501011115613d37575f80fd5b808484018584015e5f90820190930192909252509392505050565b5f8060408385031215613d63575f80fd5b505080516020909101519092909150565b818382375f9101908152919050565b5f82601f830112613d92575f80fd5b8151602067ffffffffffffffff821115613dae57613dae613a23565b613dbc818360051b01613a83565b82815260069290921b84018101918181019086841115613dda575f80fd5b8286015b84811015613e2e5760408189031215613df5575f80fd5b613dfd613a60565b81518060020b8114613e0d575f80fd5b815281850151613e1c81613ab4565b81860152835291830191604001613dde565b509695505050505050565b5f8060408385031215613e4a575f80fd5b825167ffffffffffffffff80821115613e61575f80fd5b613e6d86838701613d83565b93506020850151915080821115613e82575f80fd5b50613e8f85828601613d83565b9150509250929050565b5f60c08284031215613ea9575f80fd5b613eb1613a37565b8235613ebc81613541565b81526020830135613ecc81613ab4565b60208201526040830135613edf81613541565b60408201526060830135613ef281613ac9565b60608201526080830135613f0581613541565b608082015260a0830135613b5881613ac9565b5f60208284031215613f28575f80fd5b81516107d181613711565b8035613f3e81613541565b6001600160a01b039081168352602082013590613f5a82613ab4565b67ffffffffffffffff8216602085015260408301359150613f7a82613541565b9081166040840152606082013590613f9182613ac9565b62ffffff9182166060850152608083013591613fac83613541565b918116608085015260a083013591613fc383613ac9565b80831660a08601525050505050565b613fdc8183613f33565b60e060c082018190525f9082015261010001919050565b6101c081016140028287613f33565b61400f60c0830186613f33565b836101808301526001600160a01b0383166101a083015295945050505050565b5f6020828403121561403f575f80fd5b5051919050565b634e487b7160e01b5f52603260045260245ffd5b5f6101406140c28385516001600160a01b0380825116835267ffffffffffffffff6020830151166020840152806040830151166040840152606082015162ffffff80821660608601528260808501511660808601528060a08501511660a08601525050505050565b602084015160020b60c0840152604084015167ffffffffffffffff1660e08401526060909301516001600160a01b03166101008301525061012081018290525f918101919091526101600190565b5f7f80000000000000000000000000000000000000000000000000000000000000008203614140576141406139e9565b505f0390565b60c0810161071882846001600160a01b0380825116835267ffffffffffffffff6020830151166020840152806040830151166040840152606082015162ffffff80821660608601528260808501511660808601528060a08501511660a08601525050505050565b5f606082840312156141bd575f80fd5b6040516060810181811067ffffffffffffffff821117156141e0576141e0613a23565b60405282516141ee81613541565b815260208301516141fe81613ab4565b6020820152604083015161421181613ab4565b60408201529392505050565b8082018281125f83128015821682158216171561423c5761423c6139e9565b505092915050565b8181035f831280158383131683831282161715614263576142636139e9565b5092915050565b5f8160020b627fffff198103614282576142826139e9565b5f0392915050565b5f826142a457634e487b7160e01b5f52601260045260245ffd5b50049056fea2646970667358221220e39fae9c877743d44ee98bb375d342c8b41fa09d69f77663f5e1fd281ca4fa1a64736f6c63430008190033",
  "devdoc": {
    "errors": {
      "OwnableInvalidOwner(address)": [
        {
          "details": "The owner is not a valid owner account. (eg. `address(0)`)"
        }
      ],
      "OwnableUnauthorizedAccount(address)": [
        {
          "details": "The caller account is not authorized to perform an operation."
        }
      ],
      "SafeERC20FailedOperation(address)": [
        {
          "details": "An operation with an ERC-20 token failed."
        }
      ]
    },
    "kind": "dev",
    "methods": {
      "acceptOwnership()": {
        "details": "The new owner accepts the ownership transfer."
      },
      "lockAcquired(address,bytes)": {
        "params": {
          "data": "The data that was passed to the call to lock"
        },
        "returns": {
          "_0": "Any data that you want to be returned from the lock call"
        }
      },
      "owner()": {
        "details": "Returns the address of the current owner."
      },
      "pendingOwner()": {
        "details": "Returns the address of the pending owner."
      },
      "renounceOwnership()": {
        "details": "Leaves the contract without owner. It will not be possible to call `onlyOwner` functions. Can only be called by the current owner. NOTE: Renouncing ownership will leave the contract without an owner, thereby disabling any functionality that is only available to the owner."
      },
      "transferOwnership(address)": {
        "details": "Starts the ownership transfer of the contract to a new account. Replaces the pending transfer if there is one. Can only be called by the current owner. Setting `newOwner` to the zero address is allowed; this can be used to cancel an initiated ownership transfer."
      }
    },
    "version": 1
  },
  "userdoc": {
    "errors": {
      "ERC20TransferFailed()": [
        {
          "notice": "Thrown when an ERC20 transfer fails"
        }
      ],
      "NativeTransferFailed()": [
        {
          "notice": "Thrown when a native transfer fails"
        }
      ]
    },
    "kind": "user",
    "methods": {
      "lockAcquired(address,bytes)": {
        "notice": "Called by the book manager on `msg.sender` when a lock is acquired"
      }
    },
    "version": 1
  },
  "storageLayout": {
    "storage": [
      {
        "astId": 8,
        "contract": "src/Rebalancer.sol:Rebalancer",
        "label": "_owner",
        "offset": 0,
        "slot": "0",
        "type": "t_address"
      },
      {
        "astId": 156,
        "contract": "src/Rebalancer.sol:Rebalancer",
        "label": "_pendingOwner",
        "offset": 0,
        "slot": "1",
        "type": "t_address"
      },
      {
        "astId": 3198,
        "contract": "src/Rebalancer.sol:Rebalancer",
        "label": "isOperator",
        "offset": 0,
        "slot": "2",
        "type": "t_mapping(t_address,t_mapping(t_address,t_bool))"
      },
      {
        "astId": 3204,
        "contract": "src/Rebalancer.sol:Rebalancer",
        "label": "balanceOf",
        "offset": 0,
        "slot": "3",
        "type": "t_mapping(t_address,t_mapping(t_uint256,t_uint256))"
      },
      {
        "astId": 3212,
        "contract": "src/Rebalancer.sol:Rebalancer",
        "label": "allowance",
        "offset": 0,
        "slot": "4",
        "type": "t_mapping(t_address,t_mapping(t_address,t_mapping(t_uint256,t_uint256)))"
      },
      {
        "astId": 6250,
        "contract": "src/Rebalancer.sol:Rebalancer",
        "label": "totalSupply",
        "offset": 0,
        "slot": "5",
        "type": "t_mapping(t_uint256,t_uint256)"
      },
      {
        "astId": 4129,
        "contract": "src/Rebalancer.sol:Rebalancer",
        "label": "_pools",
        "offset": 0,
        "slot": "6",
        "type": "t_mapping(t_bytes32,t_struct(Pool)6005_storage)"
      },
      {
        "astId": 4135,
        "contract": "src/Rebalancer.sol:Rebalancer",
        "label": "bookPair",
        "offset": 0,
        "slot": "7",
        "type": "t_mapping(t_userDefinedValueType(BookId)2052,t_userDefinedValueType(BookId)2052)"
      }
    ],
    "types": {
      "t_address": {
        "encoding": "inplace",
        "label": "address",
        "numberOfBytes": "20"
      },
      "t_array(t_userDefinedValueType(OrderId)2487)dyn_storage": {
        "base": "t_userDefinedValueType(OrderId)2487",
        "encoding": "dynamic_array",
        "label": "OrderId[]",
        "numberOfBytes": "32"
      },
      "t_bool": {
        "encoding": "inplace",
        "label": "bool",
        "numberOfBytes": "1"
      },
      "t_bytes32": {
        "encoding": "inplace",
        "label": "bytes32",
        "numberOfBytes": "32"
      },
      "t_contract(IStrategy)6240": {
        "encoding": "inplace",
        "label": "contract IStrategy",
        "numberOfBytes": "20"
      },
      "t_mapping(t_address,t_bool)": {
        "encoding": "mapping",
        "key": "t_address",
        "label": "mapping(address => bool)",
        "numberOfBytes": "32",
        "value": "t_bool"
      },
      "t_mapping(t_address,t_mapping(t_address,t_bool))": {
        "encoding": "mapping",
        "key": "t_address",
        "label": "mapping(address => mapping(address => bool))",
        "numberOfBytes": "32",
        "value": "t_mapping(t_address,t_bool)"
      },
      "t_mapping(t_address,t_mapping(t_address,t_mapping(t_uint256,t_uint256)))": {
        "encoding": "mapping",
        "key": "t_address",
        "label": "mapping(address => mapping(address => mapping(uint256 => uint256)))",
        "numberOfBytes": "32",
        "value": "t_mapping(t_address,t_mapping(t_uint256,t_uint256))"
      },
      "t_mapping(t_address,t_mapping(t_uint256,t_uint256))": {
        "encoding": "mapping",
        "key": "t_address",
        "label": "mapping(address => mapping(uint256 => uint256))",
        "numberOfBytes": "32",
        "value": "t_mapping(t_uint256,t_uint256)"
      },
      "t_mapping(t_bytes32,t_struct(Pool)6005_storage)": {
        "encoding": "mapping",
        "key": "t_bytes32",
        "label": "mapping(bytes32 => struct IPoolStorage.Pool)",
        "numberOfBytes": "32",
        "value": "t_struct(Pool)6005_storage"
      },
      "t_mapping(t_uint256,t_uint256)": {
        "encoding": "mapping",
        "key": "t_uint256",
        "label": "mapping(uint256 => uint256)",
        "numberOfBytes": "32",
        "value": "t_uint256"
      },
      "t_mapping(t_userDefinedValueType(BookId)2052,t_userDefinedValueType(BookId)2052)": {
        "encoding": "mapping",
        "key": "t_userDefinedValueType(BookId)2052",
        "label": "mapping(BookId => BookId)",
        "numberOfBytes": "32",
        "value": "t_userDefinedValueType(BookId)2052"
      },
      "t_struct(Pool)6005_storage": {
        "encoding": "inplace",
        "label": "struct IPoolStorage.Pool",
        "members": [
          {
            "astId": 5984,
            "contract": "src/Rebalancer.sol:Rebalancer",
            "label": "bookIdA",
            "offset": 0,
            "slot": "0",
            "type": "t_userDefinedValueType(BookId)2052"
          },
          {
            "astId": 5987,
            "contract": "src/Rebalancer.sol:Rebalancer",
            "label": "bookIdB",
            "offset": 0,
            "slot": "1",
            "type": "t_userDefinedValueType(BookId)2052"
          },
          {
            "astId": 5990,
            "contract": "src/Rebalancer.sol:Rebalancer",
            "label": "strategy",
            "offset": 0,
            "slot": "2",
            "type": "t_contract(IStrategy)6240"
          },
          {
            "astId": 5992,
            "contract": "src/Rebalancer.sol:Rebalancer",
            "label": "paused",
            "offset": 20,
            "slot": "2",
            "type": "t_bool"
          },
          {
            "astId": 5994,
            "contract": "src/Rebalancer.sol:Rebalancer",
            "label": "reserveA",
            "offset": 0,
            "slot": "3",
            "type": "t_uint256"
          },
          {
            "astId": 5996,
            "contract": "src/Rebalancer.sol:Rebalancer",
            "label": "reserveB",
            "offset": 0,
            "slot": "4",
            "type": "t_uint256"
          },
          {
            "astId": 6000,
            "contract": "src/Rebalancer.sol:Rebalancer",
            "label": "orderListA",
            "offset": 0,
            "slot": "5",
            "type": "t_array(t_userDefinedValueType(OrderId)2487)dyn_storage"
          },
          {
            "astId": 6004,
            "contract": "src/Rebalancer.sol:Rebalancer",
            "label": "orderListB",
            "offset": 0,
            "slot": "6",
            "type": "t_array(t_userDefinedValueType(OrderId)2487)dyn_storage"
          }
        ],
        "numberOfBytes": "224"
      },
      "t_uint256": {
        "encoding": "inplace",
        "label": "uint256",
        "numberOfBytes": "32"
      },
      "t_userDefinedValueType(BookId)2052": {
        "encoding": "inplace",
        "label": "BookId",
        "numberOfBytes": "24"
      },
      "t_userDefinedValueType(OrderId)2487": {
        "encoding": "inplace",
        "label": "OrderId",
        "numberOfBytes": "32"
      }
    }
  }
}