{
  "address": "0x9Bf501b12978167157cf8a228AF7D40E8E9db621",
  "abi": [
    {
      "inputs": [
        {
          "internalType": "contract IBookManager",
          "name": "bookManager_",
          "type": "address"
        },
        {
          "internalType": "address",
          "name": "initialOwner_",
          "type": "address"
        }
      ],
      "stateMutability": "nonpayable",
      "type": "constructor"
    },
    {
      "inputs": [],
      "name": "AlreadyOpened",
      "type": "error"
    },
    {
      "inputs": [],
      "name": "ERC20TransferFailed",
      "type": "error"
    },
    {
      "inputs": [],
      "name": "InvalidAmount",
      "type": "error"
    },
    {
      "inputs": [],
      "name": "InvalidBookPair",
      "type": "error"
    },
    {
      "inputs": [],
      "name": "InvalidHook",
      "type": "error"
    },
    {
      "inputs": [],
      "name": "InvalidLockAcquiredSender",
      "type": "error"
    },
    {
      "inputs": [],
      "name": "InvalidLockCaller",
      "type": "error"
    },
    {
      "inputs": [],
      "name": "InvalidMaker",
      "type": "error"
    },
    {
      "inputs": [],
      "name": "InvalidStrategy",
      "type": "error"
    },
    {
      "inputs": [],
      "name": "InvalidTick",
      "type": "error"
    },
    {
      "inputs": [],
      "name": "InvalidValue",
      "type": "error"
    },
    {
      "inputs": [],
      "name": "LockFailure",
      "type": "error"
    },
    {
      "inputs": [],
      "name": "NativeTransferFailed",
      "type": "error"
    },
    {
      "inputs": [],
      "name": "NotSelf",
      "type": "error"
    },
    {
      "inputs": [
        {
          "internalType": "address",
          "name": "owner",
          "type": "address"
        }
      ],
      "name": "OwnableInvalidOwner",
      "type": "error"
    },
    {
      "inputs": [
        {
          "internalType": "address",
          "name": "account",
          "type": "address"
        }
      ],
      "name": "OwnableUnauthorizedAccount",
      "type": "error"
    },
    {
      "inputs": [
        {
          "internalType": "address",
          "name": "token",
          "type": "address"
        }
      ],
      "name": "SafeERC20FailedOperation",
      "type": "error"
    },
    {
      "inputs": [],
      "name": "Slippage",
      "type": "error"
    },
    {
      "anonymous": false,
      "inputs": [
        {
          "indexed": true,
          "internalType": "address",
          "name": "owner",
          "type": "address"
        },
        {
          "indexed": true,
          "internalType": "address",
          "name": "spender",
          "type": "address"
        },
        {
          "indexed": true,
          "internalType": "uint256",
          "name": "id",
          "type": "uint256"
        },
        {
          "indexed": false,
          "internalType": "uint256",
          "name": "amount",
          "type": "uint256"
        }
      ],
      "name": "Approval",
      "type": "event"
    },
    {
      "anonymous": false,
      "inputs": [
        {
          "indexed": true,
          "internalType": "address",
          "name": "user",
          "type": "address"
        },
        {
          "indexed": true,
          "internalType": "bytes32",
          "name": "key",
          "type": "bytes32"
        },
        {
          "indexed": false,
          "internalType": "uint256",
          "name": "amountA",
          "type": "uint256"
        },
        {
          "indexed": false,
          "internalType": "uint256",
          "name": "amountB",
          "type": "uint256"
        },
        {
          "indexed": false,
          "internalType": "uint256",
          "name": "lpAmount",
          "type": "uint256"
        }
      ],
      "name": "Burn",
      "type": "event"
    },
    {
      "anonymous": false,
      "inputs": [
        {
          "indexed": true,
          "internalType": "address",
          "name": "user",
          "type": "address"
        },
        {
          "indexed": true,
          "internalType": "bytes32",
          "name": "key",
          "type": "bytes32"
        },
        {
          "indexed": false,
          "internalType": "uint256",
          "name": "amountA",
          "type": "uint256"
        },
        {
          "indexed": false,
          "internalType": "uint256",
          "name": "amountB",
          "type": "uint256"
        },
        {
          "indexed": false,
          "internalType": "uint256",
          "name": "lpAmount",
          "type": "uint256"
        }
      ],
      "name": "Mint",
      "type": "event"
    },
    {
      "anonymous": false,
      "inputs": [
        {
          "indexed": true,
          "internalType": "bytes32",
          "name": "key",
          "type": "bytes32"
        },
        {
          "indexed": true,
          "internalType": "BookId",
          "name": "bookIdA",
          "type": "uint192"
        },
        {
          "indexed": true,
          "internalType": "BookId",
          "name": "bookIdB",
          "type": "uint192"
        },
        {
          "indexed": false,
          "internalType": "bytes32",
          "name": "salt",
          "type": "bytes32"
        },
        {
          "indexed": false,
          "internalType": "address",
          "name": "strategy",
          "type": "address"
        }
      ],
      "name": "Open",
      "type": "event"
    },
    {
      "anonymous": false,
      "inputs": [
        {
          "indexed": true,
          "internalType": "address",
          "name": "owner",
          "type": "address"
        },
        {
          "indexed": true,
          "internalType": "address",
          "name": "operator",
          "type": "address"
        },
        {
          "indexed": false,
          "internalType": "bool",
          "name": "approved",
          "type": "bool"
        }
      ],
      "name": "OperatorSet",
      "type": "event"
    },
    {
      "anonymous": false,
      "inputs": [
        {
          "indexed": true,
          "internalType": "address",
          "name": "previousOwner",
          "type": "address"
        },
        {
          "indexed": true,
          "internalType": "address",
          "name": "newOwner",
          "type": "address"
        }
      ],
      "name": "OwnershipTransferStarted",
      "type": "event"
    },
    {
      "anonymous": false,
      "inputs": [
        {
          "indexed": true,
          "internalType": "address",
          "name": "previousOwner",
          "type": "address"
        },
        {
          "indexed": true,
          "internalType": "address",
          "name": "newOwner",
          "type": "address"
        }
      ],
      "name": "OwnershipTransferred",
      "type": "event"
    },
    {
      "anonymous": false,
      "inputs": [
        {
          "indexed": true,
          "internalType": "bytes32",
          "name": "key",
          "type": "bytes32"
        },
        {
          "indexed": false,
          "internalType": "uint64",
          "name": "alpha",
          "type": "uint64"
        }
      ],
      "name": "Rebalance",
      "type": "event"
    },
    {
      "anonymous": false,
      "inputs": [
        {
          "indexed": false,
          "internalType": "address",
          "name": "caller",
          "type": "address"
        },
        {
          "indexed": true,
          "internalType": "address",
          "name": "from",
          "type": "address"
        },
        {
          "indexed": true,
          "internalType": "address",
          "name": "to",
          "type": "address"
        },
        {
          "indexed": true,
          "internalType": "uint256",
          "name": "id",
          "type": "uint256"
        },
        {
          "indexed": false,
          "internalType": "uint256",
          "name": "amount",
          "type": "uint256"
        }
      ],
      "name": "Transfer",
      "type": "event"
    },
    {
      "inputs": [
        {
          "internalType": "bytes32",
          "name": "key",
          "type": "bytes32"
        },
        {
          "components": [
            {
              "internalType": "address",
              "name": "user",
              "type": "address"
            },
            {
              "internalType": "uint256",
              "name": "burnAmount",
              "type": "uint256"
            },
            {
              "internalType": "uint256",
              "name": "minAmountA",
              "type": "uint256"
            },
            {
              "internalType": "uint256",
              "name": "minAmountB",
              "type": "uint256"
            }
          ],
          "internalType": "struct Rebalancer.BurnParams",
          "name": "burnParams",
          "type": "tuple"
        }
      ],
      "name": "_burnAndRebalance",
      "outputs": [
        {
          "internalType": "uint256",
          "name": "withdrawalA",
          "type": "uint256"
        },
        {
          "internalType": "uint256",
          "name": "withdrawalB",
          "type": "uint256"
        }
      ],
      "stateMutability": "nonpayable",
      "type": "function"
    },
    {
      "inputs": [
        {
          "components": [
            {
              "internalType": "Currency",
              "name": "base",
              "type": "address"
            },
            {
              "internalType": "uint64",
              "name": "unitSize",
              "type": "uint64"
            },
            {
              "internalType": "Currency",
              "name": "quote",
              "type": "address"
            },
            {
              "internalType": "FeePolicy",
              "name": "makerPolicy",
              "type": "uint24"
            },
            {
              "internalType": "contract IHooks",
              "name": "hooks",
              "type": "address"
            },
            {
              "internalType": "FeePolicy",
              "name": "takerPolicy",
              "type": "uint24"
            }
          ],
          "internalType": "struct IBookManager.BookKey",
          "name": "bookKeyA",
          "type": "tuple"
        },
        {
          "components": [
            {
              "internalType": "Currency",
              "name": "base",
              "type": "address"
            },
            {
              "internalType": "uint64",
              "name": "unitSize",
              "type": "uint64"
            },
            {
              "internalType": "Currency",
              "name": "quote",
              "type": "address"
            },
            {
              "internalType": "FeePolicy",
              "name": "makerPolicy",
              "type": "uint24"
            },
            {
              "internalType": "contract IHooks",
              "name": "hooks",
              "type": "address"
            },
            {
              "internalType": "FeePolicy",
              "name": "takerPolicy",
              "type": "uint24"
            }
          ],
          "internalType": "struct IBookManager.BookKey",
          "name": "bookKeyB",
          "type": "tuple"
        },
        {
          "internalType": "bytes32",
          "name": "salt",
          "type": "bytes32"
        },
        {
          "internalType": "address",
          "name": "strategy",
          "type": "address"
        }
      ],
      "name": "_open",
      "outputs": [
        {
          "internalType": "bytes32",
          "name": "key",
          "type": "bytes32"
        }
      ],
      "stateMutability": "nonpayable",
      "type": "function"
    },
    {
      "inputs": [],
      "name": "acceptOwnership",
      "outputs": [],
      "stateMutability": "nonpayable",
      "type": "function"
    },
    {
      "inputs": [
        {
          "internalType": "address",
          "name": "",
          "type": "address"
        },
        {
          "internalType": "address",
          "name": "",
          "type": "address"
        },
        {
          "internalType": "uint256",
          "name": "",
          "type": "uint256"
        }
      ],
      "name": "allowance",
      "outputs": [
        {
          "internalType": "uint256",
          "name": "",
          "type": "uint256"
        }
      ],
      "stateMutability": "view",
      "type": "function"
    },
    {
      "inputs": [],
      "name": "alpha",
      "outputs": [
        {
          "internalType": "uint64",
          "name": "",
          "type": "uint64"
        }
      ],
      "stateMutability": "view",
      "type": "function"
    },
    {
      "inputs": [
        {
          "internalType": "address",
          "name": "spender",
          "type": "address"
        },
        {
          "internalType": "uint256",
          "name": "id",
          "type": "uint256"
        },
        {
          "internalType": "uint256",
          "name": "amount",
          "type": "uint256"
        }
      ],
      "name": "approve",
      "outputs": [
        {
          "internalType": "bool",
          "name": "",
          "type": "bool"
        }
      ],
      "stateMutability": "nonpayable",
      "type": "function"
    },
    {
      "inputs": [
        {
          "internalType": "address",
          "name": "",
          "type": "address"
        },
        {
          "internalType": "uint256",
          "name": "",
          "type": "uint256"
        }
      ],
      "name": "balanceOf",
      "outputs": [
        {
          "internalType": "uint256",
          "name": "",
          "type": "uint256"
        }
      ],
      "stateMutability": "view",
      "type": "function"
    },
    {
      "inputs": [],
      "name": "bookManager",
      "outputs": [
        {
          "internalType": "contract IBookManager",
          "name": "",
          "type": "address"
        }
      ],
      "stateMutability": "view",
      "type": "function"
    },
    {
      "inputs": [
        {
          "internalType": "BookId",
          "name": "",
          "type": "uint192"
        }
      ],
      "name": "bookPair",
      "outputs": [
        {
          "internalType": "BookId",
          "name": "",
          "type": "uint192"
        }
      ],
      "stateMutability": "view",
      "type": "function"
    },
    {
      "inputs": [
        {
          "internalType": "bytes32",
          "name": "key",
          "type": "bytes32"
        },
        {
          "internalType": "uint256",
          "name": "amount",
          "type": "uint256"
        },
        {
          "internalType": "uint256",
          "name": "minAmountA",
          "type": "uint256"
        },
        {
          "internalType": "uint256",
          "name": "minAmountB",
          "type": "uint256"
        }
      ],
      "name": "burn",
      "outputs": [
        {
          "internalType": "uint256",
          "name": "",
          "type": "uint256"
        },
        {
          "internalType": "uint256",
          "name": "",
          "type": "uint256"
        }
      ],
      "stateMutability": "nonpayable",
      "type": "function"
    },
    {
      "inputs": [
        {
          "internalType": "uint256",
          "name": "",
          "type": "uint256"
        }
      ],
      "name": "decimals",
      "outputs": [
        {
          "internalType": "uint8",
          "name": "",
          "type": "uint8"
        }
      ],
      "stateMutability": "pure",
      "type": "function"
    },
    {
      "inputs": [
        {
          "internalType": "bytes32",
          "name": "key",
          "type": "bytes32"
        }
      ],
      "name": "getBookPairs",
      "outputs": [
        {
          "internalType": "BookId",
          "name": "",
          "type": "uint192"
        },
        {
          "internalType": "BookId",
          "name": "",
          "type": "uint192"
        }
      ],
      "stateMutability": "view",
      "type": "function"
    },
    {
      "inputs": [
        {
          "internalType": "bytes32",
          "name": "key",
          "type": "bytes32"
        }
      ],
      "name": "getLiquidity",
      "outputs": [
        {
          "internalType": "uint256",
          "name": "liquidityA",
          "type": "uint256"
        },
        {
          "internalType": "uint256",
          "name": "liquidityB",
          "type": "uint256"
        }
      ],
      "stateMutability": "view",
      "type": "function"
    },
    {
      "inputs": [
        {
          "internalType": "bytes32",
          "name": "key",
          "type": "bytes32"
        }
      ],
      "name": "getPool",
      "outputs": [
        {
          "components": [
            {
              "internalType": "BookId",
              "name": "bookIdA",
              "type": "uint192"
            },
            {
              "internalType": "BookId",
              "name": "bookIdB",
              "type": "uint192"
            },
            {
              "internalType": "contract IStrategy",
              "name": "strategy",
              "type": "address"
            },
            {
              "internalType": "uint256",
              "name": "reserveA",
              "type": "uint256"
            },
            {
              "internalType": "uint256",
              "name": "reserveB",
              "type": "uint256"
            },
            {
              "internalType": "OrderId[]",
              "name": "orderListA",
              "type": "uint256[]"
            },
            {
              "internalType": "OrderId[]",
              "name": "orderListB",
              "type": "uint256[]"
            }
          ],
          "internalType": "struct IPoolStorage.Pool",
          "name": "",
          "type": "tuple"
        }
      ],
      "stateMutability": "view",
      "type": "function"
    },
    {
      "inputs": [
        {
          "internalType": "address",
          "name": "",
          "type": "address"
        },
        {
          "internalType": "address",
          "name": "",
          "type": "address"
        }
      ],
      "name": "isOperator",
      "outputs": [
        {
          "internalType": "bool",
          "name": "",
          "type": "bool"
        }
      ],
      "stateMutability": "view",
      "type": "function"
    },
    {
      "inputs": [
        {
          "internalType": "address",
          "name": "lockCaller",
          "type": "address"
        },
        {
          "internalType": "bytes",
          "name": "data",
          "type": "bytes"
        }
      ],
      "name": "lockAcquired",
      "outputs": [
        {
          "internalType": "bytes",
          "name": "",
          "type": "bytes"
        }
      ],
      "stateMutability": "nonpayable",
      "type": "function"
    },
    {
      "inputs": [
        {
          "internalType": "bytes32",
          "name": "key",
          "type": "bytes32"
        },
        {
          "internalType": "uint256",
          "name": "amountA",
          "type": "uint256"
        },
        {
          "internalType": "uint256",
          "name": "amountB",
          "type": "uint256"
        },
        {
          "internalType": "uint256",
          "name": "minLpAmount",
          "type": "uint256"
        }
      ],
      "name": "mint",
      "outputs": [
        {
          "internalType": "uint256",
          "name": "mintAmount",
          "type": "uint256"
        }
      ],
      "stateMutability": "payable",
      "type": "function"
    },
    {
      "inputs": [
        {
          "components": [
            {
              "internalType": "Currency",
              "name": "base",
              "type": "address"
            },
            {
              "internalType": "uint64",
              "name": "unitSize",
              "type": "uint64"
            },
            {
              "internalType": "Currency",
              "name": "quote",
              "type": "address"
            },
            {
              "internalType": "FeePolicy",
              "name": "makerPolicy",
              "type": "uint24"
            },
            {
              "internalType": "contract IHooks",
              "name": "hooks",
              "type": "address"
            },
            {
              "internalType": "FeePolicy",
              "name": "takerPolicy",
              "type": "uint24"
            }
          ],
          "internalType": "struct IBookManager.BookKey",
          "name": "bookKeyA",
          "type": "tuple"
        },
        {
          "components": [
            {
              "internalType": "Currency",
              "name": "base",
              "type": "address"
            },
            {
              "internalType": "uint64",
              "name": "unitSize",
              "type": "uint64"
            },
            {
              "internalType": "Currency",
              "name": "quote",
              "type": "address"
            },
            {
              "internalType": "FeePolicy",
              "name": "makerPolicy",
              "type": "uint24"
            },
            {
              "internalType": "contract IHooks",
              "name": "hooks",
              "type": "address"
            },
            {
              "internalType": "FeePolicy",
              "name": "takerPolicy",
              "type": "uint24"
            }
          ],
          "internalType": "struct IBookManager.BookKey",
          "name": "bookKeyB",
          "type": "tuple"
        },
        {
          "internalType": "bytes32",
          "name": "salt",
          "type": "bytes32"
        },
        {
          "internalType": "address",
          "name": "strategy",
          "type": "address"
        }
      ],
      "name": "open",
      "outputs": [
        {
          "internalType": "bytes32",
          "name": "",
          "type": "bytes32"
        }
      ],
      "stateMutability": "nonpayable",
      "type": "function"
    },
    {
      "inputs": [],
      "name": "owner",
      "outputs": [
        {
          "internalType": "address",
          "name": "",
          "type": "address"
        }
      ],
      "stateMutability": "view",
      "type": "function"
    },
    {
      "inputs": [],
      "name": "pendingOwner",
      "outputs": [
        {
          "internalType": "address",
          "name": "",
          "type": "address"
        }
      ],
      "stateMutability": "view",
      "type": "function"
    },
    {
      "inputs": [
        {
          "internalType": "bytes32",
          "name": "key",
          "type": "bytes32"
        },
        {
          "internalType": "uint64",
          "name": "alpha_",
          "type": "uint64"
        }
      ],
      "name": "rebalance",
      "outputs": [],
      "stateMutability": "nonpayable",
      "type": "function"
    },
    {
      "inputs": [],
      "name": "renounceOwnership",
      "outputs": [],
      "stateMutability": "nonpayable",
      "type": "function"
    },
    {
      "inputs": [
        {
          "internalType": "address",
          "name": "operator",
          "type": "address"
        },
        {
          "internalType": "bool",
          "name": "approved",
          "type": "bool"
        }
      ],
      "name": "setOperator",
      "outputs": [
        {
          "internalType": "bool",
          "name": "",
          "type": "bool"
        }
      ],
      "stateMutability": "nonpayable",
      "type": "function"
    },
    {
      "inputs": [
        {
          "internalType": "bytes32",
          "name": "key",
          "type": "bytes32"
        },
        {
          "internalType": "address",
          "name": "strategy",
          "type": "address"
        }
      ],
      "name": "setStrategy",
      "outputs": [],
      "stateMutability": "nonpayable",
      "type": "function"
    },
    {
      "inputs": [
        {
          "internalType": "bytes4",
          "name": "interfaceId",
          "type": "bytes4"
        }
      ],
      "name": "supportsInterface",
      "outputs": [
        {
          "internalType": "bool",
          "name": "",
          "type": "bool"
        }
      ],
      "stateMutability": "view",
      "type": "function"
    },
    {
      "inputs": [
        {
          "internalType": "uint256",
          "name": "",
          "type": "uint256"
        }
      ],
      "name": "totalSupply",
      "outputs": [
        {
          "internalType": "uint256",
          "name": "",
          "type": "uint256"
        }
      ],
      "stateMutability": "view",
      "type": "function"
    },
    {
      "inputs": [
        {
          "internalType": "address",
          "name": "receiver",
          "type": "address"
        },
        {
          "internalType": "uint256",
          "name": "id",
          "type": "uint256"
        },
        {
          "internalType": "uint256",
          "name": "amount",
          "type": "uint256"
        }
      ],
      "name": "transfer",
      "outputs": [
        {
          "internalType": "bool",
          "name": "",
          "type": "bool"
        }
      ],
      "stateMutability": "nonpayable",
      "type": "function"
    },
    {
      "inputs": [
        {
          "internalType": "address",
          "name": "sender",
          "type": "address"
        },
        {
          "internalType": "address",
          "name": "receiver",
          "type": "address"
        },
        {
          "internalType": "uint256",
          "name": "id",
          "type": "uint256"
        },
        {
          "internalType": "uint256",
          "name": "amount",
          "type": "uint256"
        }
      ],
      "name": "transferFrom",
      "outputs": [
        {
          "internalType": "bool",
          "name": "",
          "type": "bool"
        }
      ],
      "stateMutability": "nonpayable",
      "type": "function"
    },
    {
      "inputs": [
        {
          "internalType": "address",
          "name": "newOwner",
          "type": "address"
        }
      ],
      "name": "transferOwnership",
      "outputs": [],
      "stateMutability": "nonpayable",
      "type": "function"
    },
    {
      "stateMutability": "payable",
      "type": "receive"
    }
  ],
  "transactionHash": "0x361cc679ede7453da682c0aa6bf478f372cd5ae3e6c8636c59c9b1ccd20d3760",
  "args": [
    "0xC528b9ED5d56d1D0d3C18A2342954CE1069138a4",
    "0x5F79EE8f8fA862E98201120d83c4eC39D9468D49"
  ],
  "numDeployments": 1,
  "solcInputHash": "424e3d390ea5d77ee53c6cd18cd36b8a",
  "bytecode": "0x60a060405234801561000f575f80fd5b5060405161427e38038061427e83398101604081905261002e916100f7565b806001600160a01b03811661005c57604051631e4fbdf760e01b81525f600482015260240160405180910390fd5b61006581610078565b50506001600160a01b031660805261012f565b600180546001600160a01b031916905561009181610094565b50565b5f80546001600160a01b038381166001600160a01b0319831681178455604051919092169283917f8be0079c531659141344cd1fd0a4f28419497f9722a3daafe3b4186f6b6457e09190a35050565b6001600160a01b0381168114610091575f80fd5b5f8060408385031215610108575f80fd5b8251610113816100e3565b6020840151909250610124816100e3565b809150509250929050565b6080516140966101e85f395f81816102e2015281816107eb01528181610cc801528181610d6f01528181610fd10152818161106b01528181611653015281816116df01528181611760015281816117ec01528181611a6801528181611b6101528181611ea201528181611fa80152818161243001528181612510015281816126050152818161271e0152818161283f015281816128ec015281816129a601528181612a1501528181612a6d0152612be701526140965ff3fe6080604052600436106101bc575f3560e01c80638da5cb5b116100f2578063c630ed7d11610092578063f3cbc88c11610062578063f3cbc88c1461060f578063f6c009271461062e578063fa6793d51461065a578063fe99049a14610679575f80fd5b8063c630ed7d1461053a578063db1d0fd51461059a578063e30c3978146105d3578063f2fde38b146105f0575f80fd5b8063a1d5f131116100cd578063a1d5f13114610498578063a45b3926146104b7578063b6363cf2146104d6578063bd85b0391461050f575f80fd5b80638da5cb5b14610411578063998ff4ef1461042d578063a14cbb1214610479575f80fd5b80633f47e6621161015d578063558a729711610138578063558a72971461038c578063598af9e7146103ab578063715018a6146103e757806379ba5097146103fd575f80fd5b80633f47e6621461031c578063426a84931461034e57806350d506e51461036d575f80fd5b806309cb66c41161019857806309cb66c41461025e5780630a31b9531461027157806315c7afb4146102a55780633f322bc9146102d1575f80fd5b8062fdd58e146101c757806301ffc9a714610210578063095bcdb61461023f575f80fd5b366101c357005b5f80fd5b3480156101d2575f80fd5b506101fd6101e13660046132f8565b600360209081525f928352604080842090915290825290205481565b6040519081526020015b60405180910390f35b34801561021b575f80fd5b5061022f61022a366004613322565b610698565b6040519015158152602001610207565b34801561024a575f80fd5b5061022f610259366004613349565b610700565b6101fd61026c36600461337b565b6107ba565b34801561027c575f80fd5b5061029061028b36600461337b565b610c37565b60408051928352602083019190915201610207565b3480156102b0575f80fd5b506102c46102bf3660046133aa565b610d62565b6040516102079190613456565b3480156102dc575f80fd5b506103047f000000000000000000000000000000000000000000000000000000000000000081565b6040516001600160a01b039091168152602001610207565b348015610327575f80fd5b5061033c610336366004613468565b50601290565b60405160ff9091168152602001610207565b348015610359575f80fd5b5061022f610368366004613349565b610eb8565b348015610378575f80fd5b5061029061038736600461347f565b610f1c565b348015610397575f80fd5b5061022f6103a63660046134c1565b61139d565b3480156103b6575f80fd5b506101fd6103c53660046134f8565b600460209081525f938452604080852082529284528284209052825290205481565b3480156103f2575f80fd5b506103fb61140c565b005b348015610408575f80fd5b506103fb61141f565b34801561041c575f80fd5b505f546001600160a01b0316610304565b348015610438575f80fd5b50610461610447366004613536565b60076020525f90815260409020546001600160c01b031681565b6040516001600160c01b039091168152602001610207565b348015610484575f80fd5b506103fb61049336600461355c565b611468565b3480156104a3575f80fd5b506101fd6104b2366004613595565b6114a0565b3480156104c2575f80fd5b506103fb6104d13660046135fb565b61198c565b3480156104e1575f80fd5b5061022f6104f036600461361e565b600260209081525f928352604080842090915290825290205460ff1681565b34801561051a575f80fd5b506101fd610529366004613468565b60056020525f908152604090205481565b348015610545575f80fd5b5061057a610554366004613468565b5f90815260066020526040902080546001909101546001600160c01b0391821692911690565b604080516001600160c01b03938416815292909116602083015201610207565b3480156105a5575f80fd5b506008546105ba9067ffffffffffffffff1681565b60405167ffffffffffffffff9091168152602001610207565b3480156105de575f80fd5b506001546001600160a01b0316610304565b3480156105fb575f80fd5b506103fb61060a36600461364a565b611ae6565b34801561061a575f80fd5b506101fd610629366004613595565b611b56565b348015610639575f80fd5b5061064d610648366004613468565b611c52565b604051610207919061369f565b348015610665575f80fd5b50610290610674366004613468565b611db3565b348015610684575f80fd5b5061022f610693366004613720565b61207c565b5f7f01ffc9a7000000000000000000000000000000000000000000000000000000006001600160e01b0319831614806106fa57507f0f632fb3000000000000000000000000000000000000000000000000000000006001600160e01b03198316145b92915050565b335f90815260036020908152604080832085845290915281208054839190839061072b908490613777565b90915550506001600160a01b0384165f9081526003602090815260408083208684529091528120805484929061076290849061378a565b909155505060408051338082526020820185905285926001600160a01b038816927f1b3d7edb2e9c0b0e7c525b20aaaef0f5940d2ed71663c7d39266ecafac72885991015b60405180910390a45060015b9392505050565b5f8481526006602052604080822080549151639b22917d60e01b81526001600160c01b0390921660048301529082907f00000000000000000000000000000000000000000000000000000000000000006001600160a01b031690639b22917d9060240160c060405180830381865afa158015610838573d5f803e3d5ffd5b505050506040513d601f19601f8201168201806040525081019061085c919061383e565b5f88815260056020526040812054919250819003610a195786158061087f575085155b156108b6576040517f2c5211c600000000000000000000000000000000000000000000000000000000815260040160405180910390fd5b60408201515f906001600160a01b03161561094a5782604001516001600160a01b031663313ce5676040518163ffffffff1660e01b8152600401602060405180830381865afa15801561090b573d5f803e3d5ffd5b505050506040513d601f19601f8201168201806040525081019061092f91906138c9565b61093a9060126138e9565b61094590600a6139e2565b61094d565b60015b83519091505f906001600160a01b0316156109e057835f01516001600160a01b031663313ce5676040518163ffffffff1660e01b8152600401602060405180830381865afa1580156109a1573d5f803e3d5ffd5b505050506040513d601f19601f820116820180604052508101906109c591906138c9565b6109d09060126138e9565b6109db90600a6139e2565b6109e3565b60015b90505f6109f0838b6139f0565b90505f6109fd838b6139f0565b9050808211610a0c5780610a0e565b815b975050505050610ad0565b5f80610a248a611db3565b91509150815f148015610a35575080155b15610a48575f9750879850889550610acd565b815f03610a6457610a5a8884836121ed565b95505f9850610acd565b805f03610a8057610a768984846121ed565b95505f9750610acd565b5f610a8c8a85856121ed565b90505f610a9a8a86856121ed565b905080821115610ab957809750610ab2848987612208565b9a50610aca565b819750610ac7838987612208565b99505b50505b50505b84841015610af1576040516307dd37f760e41b815260040160405180910390fd5b604082015134906001600160a01b0316610b2e5787341015610b2657604051632a9ffab760e21b815260040160405180910390fd5b879003610b48565b6040830151610b48906001600160a01b031633308b61222b565b82516001600160a01b0316610b805786341015610b7857604051632a9ffab760e21b815260040160405180910390fd5b869003610b97565b8251610b97906001600160a01b031633308a61222b565b87846003015f828254610baa919061378a565b9250508190555086846004015f828254610bc4919061378a565b90915550610bd59050338a8761229e565b6040805189815260208101899052908101869052899033907f1d43dbd7e59f8c9371169f5c49c01e100227d9ee5f5fe54665cf10e35042bb729060600160405180910390a38015610c2b57610c2b5f33836122d0565b50505050949350505050565b604080516080810182523381526020808201868152828401868152606084018681528551602481018b905294516001600160a01b03908116604487015292516064860152905160848501525160a4808501919091528451808503909101815260c4909301845290820180516001600160e01b03166350d506e560e01b17905291516313942f3360e31b81525f9283927f000000000000000000000000000000000000000000000000000000000000000090911691639ca1799891610d0091309190600401613a07565b5f604051808303815f875af1158015610d1b573d5f803e3d5ffd5b505050506040513d5f823e601f3d908101601f19168201604052610d429190810190613a28565b806020019051810190610d559190613ab7565b9150915094509492505050565b6060336001600160a01b037f00000000000000000000000000000000000000000000000000000000000000001614610dc6576040517f4bd37f4300000000000000000000000000000000000000000000000000000000815260040160405180910390fd5b6001600160a01b0384163014610e08576040517f66a7598c00000000000000000000000000000000000000000000000000000000815260040160405180910390fd5b5f80306001600160a01b03168585604051610e24929190613ad9565b5f604051808303815f865af19150503d805f8114610e5d576040519150601f19603f3d011682016040523d82523d5f602084013e610e62565b606091505b50915091508115610e765791506107b39050565b80515f03610eb0576040517fa40afa3800000000000000000000000000000000000000000000000000000000815260040160405180910390fd5b805160208201fd5b335f8181526004602090815260408083206001600160a01b03881680855290835281842087855290925280832085905551919285927fb3fd5071835887567a0671151121894ddccc2842f1d10bedad13e0d17cace9a7906107a79087815260200190565b5f80333014610f3e576040516314e1dbf760e11b815260040160405180910390fd5b5f84815260066020526040812060038101546004820154919290919080610f67600586016123b2565b9092509050610f76828561378a565b9350610f82818461378a565b9250610f90856006016123b2565b9092509050610f9f818561378a565b9350610fab828461378a565b8554604051639b22917d60e01b81526001600160c01b0390911660048201529093505f907f00000000000000000000000000000000000000000000000000000000000000006001600160a01b031690639b22917d9060240160c060405180830381865afa15801561101e573d5f803e3d5ffd5b505050506040513d601f19601f82011682018060405250810190611042919061383e565b6001870154604051639b22917d60e01b81526001600160c01b0390911660048201529091505f907f00000000000000000000000000000000000000000000000000000000000000006001600160a01b031690639b22917d9060240160c060405180830381865afa1580156110b8573d5f803e3d5ffd5b505050506040513d601f19601f820116820180604052508101906110dc919061383e565b905060208a0135156111eb575f8b815260056020908152604090912054906111159061110a908d018d61364a565b8d60208e0135612697565b611124878c60200135836121ed565b9950611135868c60200135836121ed565b98508a604001358a108061114c57508a6060013589105b1561116a576040516307dd37f760e41b815260040160405180910390fd5b6111748a88613777565b96506111808987613777565b95508b61119060208d018d61364a565b6001600160a01b03167f974da0fadf774cec6d550cb40d607dc3a0b7dee97aa1cd03a2fa3f6603b943ab8c8c8f602001356040516111e1939291909283526020830191909152604082015260600190565b60405180910390a3505b60028701546040517f1dc90f6d000000000000000000000000000000000000000000000000000000008152600481018d9052602481018890526044810187905260609182916001600160a01b0390911690631dc90f6d906064015f60405180830381865afa92505050801561128157506040513d5f823e601f3d908101601f1916820160405261127e9190810190613b9e565b60015b1561128c5790925090505b60085467ffffffffffffffff166112a8858460058d01846126bf565b6112b784838c600601846126bf565b8b6112ca86604001518c6003015461281e565b6112d49190613777565b60038b0155845160048b01548c916112eb9161281e565b6112f59190613777565b60048b01558b156113255761132561131060208f018f61364a565b60408701516001600160a01b0316908e6122d0565b8a1561134d5761134d61133b60208f018f61364a565b86516001600160a01b0316908d6122d0565b60405167ffffffffffffffff821681528e907f0430abb24cfc9fd87d9901bf1af2ff50b5933d9080aa003d593d8ab1b27b38e69060200160405180910390a2505050505050505050509250929050565b335f8181526002602090815260408083206001600160a01b038716808552908352818420805460ff191687151590811790915591519182529293917fceb576d9f15e4e200fdb5096d64d5dfd667e16def20c1eefd14256d8e3faa267910160405180910390a350600192915050565b611414612af6565b61141d5f612b22565b565b60015433906001600160a01b0316811461145c5760405163118cdaa760e01b81526001600160a01b03821660048201526024015b60405180910390fd5b61146581612b22565b50565b611470612af6565b5f9182526006602052604090912060020180546001600160a01b0319166001600160a01b03909216919091179055565b5f3330146114c1576040516314e1dbf760e11b815260040160405180910390fd5b6114f26114d1602086018661364a565b6114e1606088016040890161364a565b6001600160a01b0391821691161490565b8015611519575061151961150c606086016040870161364a565b6114e1602088018861364a565b61154f576040517f27a4015200000000000000000000000000000000000000000000000000000000815260040160405180910390fd5b5f61156060a087016080880161364a565b6001600160a01b031614158061158e57505f61158260a086016080870161364a565b6001600160a01b031614155b156115c5576040517f9c9d882300000000000000000000000000000000000000000000000000000000815260040160405180910390fd5b6001600160a01b038216611605576040517f4e236e9a00000000000000000000000000000000000000000000000000000000815260040160405180910390fd5b5f61161d61161836889003880188613bfe565b612b3b565b90505f61163261161836889003880188613bfe565b604051632ad7b51960e11b81526001600160c01b03841660048201529091507f00000000000000000000000000000000000000000000000000000000000000006001600160a01b0316906355af6a3290602401602060405180830381865afa1580156116a0573d5f803e3d5ffd5b505050506040513d601f19601f820116820180604052508101906116c49190613c7d565b6117425760405163fefc7c5160e01b81526001600160a01b037f0000000000000000000000000000000000000000000000000000000000000000169063fefc7c5190611714908a90600401613d37565b5f604051808303815f87803b15801561172b575f80fd5b505af115801561173d573d5f803e3d5ffd5b505050505b604051632ad7b51960e11b81526001600160c01b03821660048201527f00000000000000000000000000000000000000000000000000000000000000006001600160a01b0316906355af6a3290602401602060405180830381865afa1580156117ad573d5f803e3d5ffd5b505050506040513d601f19601f820116820180604052508101906117d19190613c7d565b61184f5760405163fefc7c5160e01b81526001600160a01b037f0000000000000000000000000000000000000000000000000000000000000000169063fefc7c5190611821908990600401613d37565b5f604051808303815f87803b158015611838575f80fd5b505af115801561184a573d5f803e3d5ffd5b505050505b61185a828287612b76565b5f818152600660205260409020600201549093506001600160a01b0316156118ae576040517f1da42b2600000000000000000000000000000000000000000000000000000000815260040160405180910390fd5b5f83815260066020908152604080832080546001600160c01b038781167fffffffffffffffff0000000000000000000000000000000000000000000000009283168117845560018401805492891692841683179055600290930180546001600160a01b038c166001600160a01b03199091168117909155838752600786528487208054841683179055818752958490208054909216831790915582518a8152938401949094529186917f66d8f0c63665a9bd1357e5d422d5f538805b225f260974cb408a66635040ec6c910160405180910390a45050949350505050565b620f424067ffffffffffffffff821611156119ba57604051632a9ffab760e21b815260040160405180910390fd5b6008805467ffffffffffffffff191667ffffffffffffffff8316179055604080516080810182525f80825260208083018281528385018381526060850193845285516024810189905285516001600160a01b0390811660448301529251606482015290516084820152925160a4808501919091528551808503909101815260c4909301855290820180516001600160e01b03166350d506e560e01b17905292516313942f3360e31b815291927f00000000000000000000000000000000000000000000000000000000000000001691639ca1799891611a9e91309190600401613a07565b5f604051808303815f875af1158015611ab9573d5f803e3d5ffd5b505050506040513d5f823e601f3d908101601f19168201604052611ae09190810190613a28565b50505050565b611aee612af6565b600180546001600160a01b0383166001600160a01b03199091168117909155611b1e5f546001600160a01b031690565b6001600160a01b03167f38d16b8cac22d99fc7c124b9cd0de2d3fa1faef420bfe791d8c362d765e2270060405160405180910390a350565b5f611b5f612af6565b7f00000000000000000000000000000000000000000000000000000000000000006001600160a01b0316639ca179983063a1d5f13160e01b88888888604051602401611bae9493929190613d58565b60408051601f198184030181529181526020820180516001600160e01b03166001600160e01b03199485161790525160e085901b9092168252611bf49291600401613a07565b5f604051808303815f875af1158015611c0f573d5f803e3d5ffd5b505050506040513d5f823e601f3d908101601f19168201604052611c369190810190613a28565b806020019051810190611c499190613d94565b95945050505050565b611ca86040518060e001604052805f6001600160c01b031681526020015f6001600160c01b031681526020015f6001600160a01b031681526020015f81526020015f815260200160608152602001606081525090565b5f82815260066020908152604091829020825160e08101845281546001600160c01b0390811682526001830154168184015260028201546001600160a01b03168185015260038201546060820152600482015460808201526005820180548551818602810186019096528086529194929360a08601939290830182828015611d4d57602002820191905f5260205f20905b815481526020019060010190808311611d39575b5050505050815260200160068201805480602002602001604051908101604052809291908181526020018280548015611da357602002820191905f5260205f20905b815481526020019060010190808311611d8f575b5050505050815250509050919050565b5f81815260066020908152604080832060038101546004820154600583018054855181880281018801909652808652929691959394919391929091830182828015611e1b57602002820191905f5260205f20905b815481526020019060010190808311611e07575b505050505090505f82600601805480602002602001604051908101604052809291908181526020018280548015611e6f57602002820191905f5260205f20905b815481526020019060010190808311611e5b575b505050505090505f82511115611f7b578254604051639b22917d60e01b81526001600160c01b0390911660048201525f907f00000000000000000000000000000000000000000000000000000000000000006001600160a01b031690639b22917d9060240160c060405180830381865afa158015611eef573d5f803e3d5ffd5b505050506040513d601f19601f82011682018060405250810190611f13919061383e565b90505f5b8351811015611f78575f80611f4e84606001518560200151888681518110611f4157611f41613dab565b6020026020010151612be2565b9092509050611f5d828a61378a565b9850611f69818961378a565b97505050806001019050611f17565b50505b805115612074576001830154604051639b22917d60e01b81526001600160c01b0390911660048201525f907f00000000000000000000000000000000000000000000000000000000000000006001600160a01b031690639b22917d9060240160c060405180830381865afa158015611ff5573d5f803e3d5ffd5b505050506040513d601f19601f82011682018060405250810190612019919061383e565b90505f5b8251811015612071575f8061204784606001518560200151878681518110611f4157611f41613dab565b9092509050612056818a61378a565b9850612062828961378a565b9750505080600101905061201d565b50505b505050915091565b5f336001600160a01b038616148015906120b957506001600160a01b0385165f90815260026020908152604080832033845290915290205460ff16155b15612129576001600160a01b0385165f90815260046020908152604080832033845282528083208684529091529020545f198114612127576120fb8382613777565b6001600160a01b0387165f90815260046020908152604080832033845282528083208884529091529020555b505b6001600160a01b0385165f9081526003602090815260408083208684529091528120805484929061215b908490613777565b90915550506001600160a01b0384165f9081526003602090815260408083208684529091528120805484929061219290849061378a565b9091555050604080513381526020810184905284916001600160a01b0380881692908916917f1b3d7edb2e9c0b0e7c525b20aaaef0f5940d2ed71663c7d39266ecafac728859910160405180910390a4506001949350505050565b5f825f190484118302158202612201575f80fd5b5091020490565b5f825f19048411830215820261221c575f80fd5b50910281810615159190040190565b604080516001600160a01b0385811660248301528416604482015260648082018490528251808303909101815260849091019091526020810180516001600160e01b03167f23b872dd00000000000000000000000000000000000000000000000000000000179052611ae0908590612d41565b6122a9838383612dc6565b5f82815260056020526040812080548392906122c690849061378a565b9091555050505050565b5f6001600160a01b038416612325575f805f8085875af1905080612320576040517ff4b3b1bc00000000000000000000000000000000000000000000000000000000815260040160405180910390fd5b611ae0565b6040517fa9059cbb0000000000000000000000000000000000000000000000000000000081526001600160a01b038416600482015282602482015260205f6044835f895af13d15601f3d1160015f511416171691505080611ae0576040517ff27f64e400000000000000000000000000000000000000000000000000000000815260040160405180910390fd5b5f805f838054806020026020016040519081016040528092919081815260200182805480156123fe57602002820191905f5260205f20905b8154815260200190600101908083116123ea575b505050505090505f5b815181101561268e575f82828151811061242357612423613dab565b602002602001015190505f7f00000000000000000000000000000000000000000000000000000000000000006001600160a01b031663d09ef241836040518263ffffffff1660e01b815260040161247c91815260200190565b606060405180830381865afa158015612497573d5f803e3d5ffd5b505050506040513d601f19601f820116820180604052508101906124bb9190613dbf565b604081015190915067ffffffffffffffff161561258f57604080517f38926b6d0000000000000000000000000000000000000000000000000000000081526004810184905260248101919091525f60448201527f00000000000000000000000000000000000000000000000000000000000000006001600160a01b0316906338926b6d906064016020604051808303815f875af115801561255e573d5f803e3d5ffd5b505050506040513d601f19601f820116820180604052508101906125829190613d94565b61258c908661378a565b94505b602081015167ffffffffffffffff1615612684576040805180820182528381525f6020820181815292517f14d6a9eb00000000000000000000000000000000000000000000000000000000815291516004830152915167ffffffffffffffff1660248201526060604482015260648101919091527f00000000000000000000000000000000000000000000000000000000000000006001600160a01b0316906314d6a9eb906084016020604051808303815f875af1158015612653573d5f803e3d5ffd5b505050506040513d601f19601f820116820180604052508101906126779190613d94565b612681908761378a565b95505b5050600101612407565b50505f90925591565b6126a2838383612e4b565b5f82815260056020526040812080548392906122c6908490613777565b5f5b8351811015612817575f620f4240838684815181106126e2576126e2613dab565b6020026020010151602001516126f89190613e2f565b6127029190613e6f565b90508067ffffffffffffffff165f0361271b575061280f565b5f7f00000000000000000000000000000000000000000000000000000000000000006001600160a01b0316631dbef48860405180608001604052808a815260200189878151811061276e5761276e613dab565b60200260200101515f015160020b81526020018567ffffffffffffffff1681526020015f6001600160a01b03168152506040518263ffffffff1660e01b81526004016127ba9190613e95565b60408051808303815f875af11580156127d5573d5f803e3d5ffd5b505050506040513d601f19601f820116820180604052508101906127f99190613ab7565b5085546001810187555f87815260209020015550505b6001016126c1565b5050505050565b604051636a256b2960e01b81526001600160a01b0383811660048301525f917f000000000000000000000000000000000000000000000000000000000000000090911690636a256b29906024016020604051808303815f875af1158015612887573d5f803e3d5ffd5b505050506040513d601f19601f820116820180604052508101906128ab9190613d94565b506040517f9611cf6c0000000000000000000000000000000000000000000000000000000081523060048201526001600160a01b0384811660248301525f917f000000000000000000000000000000000000000000000000000000000000000090911690639611cf6c90604401602060405180830381865afa158015612933573d5f803e3d5ffd5b505050506040513d601f19601f820116820180604052508101906129579190613d94565b90505f811315612a10576040517fd9caed120000000000000000000000000000000000000000000000000000000081526001600160a01b038581166004830152306024830152604482018390527f0000000000000000000000000000000000000000000000000000000000000000169063d9caed12906064015f604051808303815f87803b1580156129e7575f80fd5b505af11580156129f9573d5f803e3d5ffd5b505050508083612a09919061378a565b9250612aee565b612a4e7f0000000000000000000000000000000000000000000000000000000000000000612a3d83613f4b565b6001600160a01b03871691906122d0565b604051636a256b2960e01b81526001600160a01b0385811660048301527f00000000000000000000000000000000000000000000000000000000000000001690636a256b29906024016020604051808303815f875af1158015612ab3573d5f803e3d5ffd5b505050506040513d601f19601f82011682018060405250810190612ad79190613d94565b50612ae181613f4b565b612aeb9084613777565b92505b509092915050565b5f546001600160a01b0316331461141d5760405163118cdaa760e01b8152336004820152602401611453565b600180546001600160a01b031916905561146581612ec7565b5f8082604051602001612b4e9190613f81565b60408051601f1981840301815291905280516020909101206001600160c01b03169392505050565b5f826001600160c01b0316846001600160c01b03161115612b95579192915b6040805167ffffffffffffffff1986831b811660208301529185901b9091166038820152605081018390526070016040516020818303038152906040528051906020012090509392505050565b5f805f7f00000000000000000000000000000000000000000000000000000000000000006001600160a01b031663d09ef241856040518263ffffffff1660e01b8152600401612c3391815260200190565b606060405180830381865afa158015612c4e573d5f803e3d5ffd5b505050506040513d601f19601f82011682018060405250810190612c729190613dbf565b90508467ffffffffffffffff16816020015167ffffffffffffffff16612c9891906139f0565b9250612cdb8567ffffffffffffffff16826040015167ffffffffffffffff16612cc191906139f0565b5f612cd18760281c62ffffff1690565b60020b9190612f16565b9150612cec8662ffffff1660171c90565b15612d17575f612d0362ffffff8816856001612f40565b9050612d0f8185613fe8565b935050612d38565b5f612d2862ffffff88168483612f40565b9050612d348184614007565b9250505b50935093915050565b5f8060205f8451602086015f885af180612d60576040513d5f823e3d81fd5b50505f513d91508115612d77578060011415612d84565b6001600160a01b0384163b155b15611ae0576040517f5274afe70000000000000000000000000000000000000000000000000000000081526001600160a01b0385166004820152602401611453565b6001600160a01b0383165f90815260036020908152604080832085845290915281208054839290612df890849061378a565b9091555050604080513381526020810183905283916001600160a01b038616915f917f1b3d7edb2e9c0b0e7c525b20aaaef0f5940d2ed71663c7d39266ecafac72885991015b60405180910390a4505050565b6001600160a01b0383165f90815260036020908152604080832085845290915281208054839290612e7d908490613777565b9091555050604080513381526020810183905283915f916001600160a01b038716917f1b3d7edb2e9c0b0e7c525b20aaaef0f5940d2ed71663c7d39266ecafac7288599101612e3e565b5f80546001600160a01b038381166001600160a01b0319831681178455604051919092169283917f8be0079c531659141344cd1fd0a4f28419497f9722a3daafe3b4186f6b6457e09190a35050565b5f612f38606084901b612f2b8660020b612fc0565b8082061515851691040190565b949350505050565b5f6207a11f19627fffff851601600281900b82128281612f6257825f03612f64565b825b62ffffff1690505f612f9d612f7983896139f0565b620f424088612f8f578581830615151691040190565b808206151586151691040190565b905082612fb257612fad81613f4b565b612fb4565b805b98975050505050505050565b5f612fca82613288565b815f600282900b8113612fdd5781612fe6565b612fe68261402d565b62ffffff811691506001161561300a576bfff97272373d413259a46990925061301b565b6c0100000000000000000000000092505b600281161561303a5760606bfff2e50f5f656932ef12357c8402901c92505b60048116156130595760606bffe5caca7e10e4e61c3624ea8402901c92505b60088116156130785760606bffcb9843d60f6159c9db58838402901c92505b60108116156130975760606bff973b41fa98c081472e68968402901c92505b60208116156130b65760606bff2ea16466c96a3843ec78b38402901c92505b60408116156130d55760606bfe5dee046a99a2a811c461f18402901c92505b60808116156130f45760606bfcbe86c7900a88aedcffc83b8402901c92505b6101008116156131145760606bf987a7253ac413176f2b074c8402901c92505b6102008116156131345760606bf3392b0822b70005940c7a398402901c92505b6104008116156131545760606be7159475a2c29b7443b29c7f8402901c92505b6108008116156131745760606bd097f3bdfd2022b8845ad8f78402901c92505b6110008116156131945760606ba9f746462d870fdf8a65dc1f8402901c92505b6120008116156131b45760606b70d869a156d2a1b890bb3df68402901c92505b6140008116156131d45760606b31be135f97d08fd9812315058402901c92505b6180008116156131f45760606b09aa508b5b7a84e1c677de548402901c92505b620100008116156132145760606a5d6af8dedb81196699c3298402901c92505b62020000811615613233576060692216e584f5fa1ea926048402901c92505b6204000081161561325057606067048a170391f7dc428402901c92505b5f8260020b13156132815761327e83780100000000000000000000000000000000000000000000000061404d565b92505b5050919050565b6207ffff600282900b13806132ad57506132a46207ffff61402d565b60020b8160020b125b15611465576040517fce8ef7fc00000000000000000000000000000000000000000000000000000000815260040160405180910390fd5b6001600160a01b0381168114611465575f80fd5b5f8060408385031215613309575f80fd5b8235613314816132e4565b946020939093013593505050565b5f60208284031215613332575f80fd5b81356001600160e01b0319811681146107b3575f80fd5b5f805f6060848603121561335b575f80fd5b8335613366816132e4565b95602085013595506040909401359392505050565b5f805f806080858703121561338e575f80fd5b5050823594602084013594506040840135936060013592509050565b5f805f604084860312156133bc575f80fd5b83356133c7816132e4565b9250602084013567ffffffffffffffff808211156133e3575f80fd5b818601915086601f8301126133f6575f80fd5b813581811115613404575f80fd5b876020828501011115613415575f80fd5b6020830194508093505050509250925092565b5f81518084528060208401602086015e5f602082860101526020601f19601f83011685010191505092915050565b602081525f6107b36020830184613428565b5f60208284031215613478575f80fd5b5035919050565b5f8082840360a0811215613491575f80fd5b833592506080601f19820112156134a6575f80fd5b506020830190509250929050565b8015158114611465575f80fd5b5f80604083850312156134d2575f80fd5b82356134dd816132e4565b915060208301356134ed816134b4565b809150509250929050565b5f805f6060848603121561350a575f80fd5b8335613515816132e4565b92506020840135613525816132e4565b929592945050506040919091013590565b5f60208284031215613546575f80fd5b81356001600160c01b03811681146107b3575f80fd5b5f806040838503121561356d575f80fd5b8235915060208301356134ed816132e4565b5f60c0828403121561358f575f80fd5b50919050565b5f805f806101c085870312156135a9575f80fd5b6135b3868661357f565b93506135c28660c0870161357f565b925061018085013591506101a08501356135db816132e4565b939692955090935050565b67ffffffffffffffff81168114611465575f80fd5b5f806040838503121561360c575f80fd5b8235915060208301356134ed816135e6565b5f806040838503121561362f575f80fd5b823561363a816132e4565b915060208301356134ed816132e4565b5f6020828403121561365a575f80fd5b81356107b3816132e4565b5f815180845260208085019450602084015f5b8381101561369457815187529582019590820190600101613678565b509495945050505050565b602081525f6001600160c01b03808451166020840152806020850151166040840152506001600160a01b03604084015116606083015260608301516080830152608083015160a083015260a083015160e060c0840152613703610100840182613665565b905060c0840151601f198483030160e0850152611c498282613665565b5f805f8060808587031215613733575f80fd5b843561373e816132e4565b9350602085013561374e816132e4565b93969395505050506040820135916060013590565b634e487b7160e01b5f52601160045260245ffd5b818103818111156106fa576106fa613763565b808201808211156106fa576106fa613763565b634e487b7160e01b5f52604160045260245ffd5b60405160c0810167ffffffffffffffff811182821017156137d4576137d461379d565b60405290565b6040805190810167ffffffffffffffff811182821017156137d4576137d461379d565b604051601f8201601f1916810167ffffffffffffffff811182821017156138265761382661379d565b604052919050565b62ffffff81168114611465575f80fd5b5f60c0828403121561384e575f80fd5b6138566137b1565b8251613861816132e4565b81526020830151613871816135e6565b60208201526040830151613884816132e4565b604082015260608301516138978161382e565b606082015260808301516138aa816132e4565b608082015260a08301516138bd8161382e565b60a08201529392505050565b5f602082840312156138d9575f80fd5b815160ff811681146107b3575f80fd5b60ff82811682821603908111156106fa576106fa613763565b600181815b8085111561393c57815f190482111561392257613922613763565b8085161561392f57918102915b93841c9390800290613907565b509250929050565b5f82613952575060016106fa565b8161395e57505f6106fa565b8160018114613974576002811461397e5761399a565b60019150506106fa565b60ff84111561398f5761398f613763565b50506001821b6106fa565b5060208310610133831016604e8410600b84101617156139bd575081810a6106fa565b6139c78383613902565b805f19048211156139da576139da613763565b029392505050565b5f6107b360ff841683613944565b80820281158282048414176106fa576106fa613763565b6001600160a01b0383168152604060208201525f612f386040830184613428565b5f6020808385031215613a39575f80fd5b825167ffffffffffffffff80821115613a50575f80fd5b818501915085601f830112613a63575f80fd5b815181811115613a7557613a7561379d565b613a87601f8201601f191685016137fd565b91508082528684828501011115613a9c575f80fd5b808484018584015e5f90820190930192909252509392505050565b5f8060408385031215613ac8575f80fd5b505080516020909101519092909150565b818382375f9101908152919050565b5f82601f830112613af7575f80fd5b8151602067ffffffffffffffff821115613b1357613b1361379d565b613b21818360051b016137fd565b82815260069290921b84018101918181019086841115613b3f575f80fd5b8286015b84811015613b935760408189031215613b5a575f80fd5b613b626137da565b81518060020b8114613b72575f80fd5b815281850151613b81816135e6565b81860152835291830191604001613b43565b509695505050505050565b5f8060408385031215613baf575f80fd5b825167ffffffffffffffff80821115613bc6575f80fd5b613bd286838701613ae8565b93506020850151915080821115613be7575f80fd5b50613bf485828601613ae8565b9150509250929050565b5f60c08284031215613c0e575f80fd5b613c166137b1565b8235613c21816132e4565b81526020830135613c31816135e6565b60208201526040830135613c44816132e4565b60408201526060830135613c578161382e565b60608201526080830135613c6a816132e4565b608082015260a08301356138bd8161382e565b5f60208284031215613c8d575f80fd5b81516107b3816134b4565b8035613ca3816132e4565b6001600160a01b039081168352602082013590613cbf826135e6565b67ffffffffffffffff8216602085015260408301359150613cdf826132e4565b9081166040840152606082013590613cf68261382e565b62ffffff9182166060850152608083013591613d11836132e4565b918116608085015260a083013591613d288361382e565b80831660a08601525050505050565b613d418183613c98565b60e060c082018190525f9082015261010001919050565b6101c08101613d678287613c98565b613d7460c0830186613c98565b836101808301526001600160a01b0383166101a083015295945050505050565b5f60208284031215613da4575f80fd5b5051919050565b634e487b7160e01b5f52603260045260245ffd5b5f60608284031215613dcf575f80fd5b6040516060810181811067ffffffffffffffff82111715613df257613df261379d565b6040528251613e00816132e4565b81526020830151613e10816135e6565b60208201526040830151613e23816135e6565b60408201529392505050565b67ffffffffffffffff818116838216028082169190828114613e5357613e53613763565b505092915050565b634e487b7160e01b5f52601260045260245ffd5b5f67ffffffffffffffff80841680613e8957613e89613e5b565b92169190910492915050565b5f610140613efd8385516001600160a01b0380825116835267ffffffffffffffff6020830151166020840152806040830151166040840152606082015162ffffff80821660608601528260808501511660808601528060a08501511660a08601525050505050565b602084015160020b60c0840152604084015167ffffffffffffffff1660e08401526060909301516001600160a01b03166101008301525061012081018290525f918101919091526101600190565b5f7f80000000000000000000000000000000000000000000000000000000000000008203613f7b57613f7b613763565b505f0390565b60c081016106fa82846001600160a01b0380825116835267ffffffffffffffff6020830151166020840152806040830151166040840152606082015162ffffff80821660608601528260808501511660808601528060a08501511660a08601525050505050565b8082018281125f831280158216821582161715613e5357613e53613763565b8181035f83128015838313168383128216171561402657614026613763565b5092915050565b5f8160020b627fffff19810361404557614045613763565b5f0392915050565b5f8261405b5761405b613e5b565b50049056fea264697066735822122052738452e70197325f7afe93ec6ca31164e2d4fb78cf58791cf837e80551f43564736f6c63430008190033",
  "devdoc": {
    "errors": {
      "OwnableInvalidOwner(address)": [
        {
          "details": "The owner is not a valid owner account. (eg. `address(0)`)"
        }
      ],
      "OwnableUnauthorizedAccount(address)": [
        {
          "details": "The caller account is not authorized to perform an operation."
        }
      ],
      "SafeERC20FailedOperation(address)": [
        {
          "details": "An operation with an ERC-20 token failed."
        }
      ]
    },
    "kind": "dev",
    "methods": {
      "acceptOwnership()": {
        "details": "The new owner accepts the ownership transfer."
      },
      "lockAcquired(address,bytes)": {
        "params": {
          "data": "The data that was passed to the call to lock"
        },
        "returns": {
          "_0": "Any data that you want to be returned from the lock call"
        }
      },
      "owner()": {
        "details": "Returns the address of the current owner."
      },
      "pendingOwner()": {
        "details": "Returns the address of the pending owner."
      },
      "renounceOwnership()": {
        "details": "Leaves the contract without owner. It will not be possible to call `onlyOwner` functions. Can only be called by the current owner. NOTE: Renouncing ownership will leave the contract without an owner, thereby disabling any functionality that is only available to the owner."
      },
      "transferOwnership(address)": {
        "details": "Starts the ownership transfer of the contract to a new account. Replaces the pending transfer if there is one. Can only be called by the current owner."
      }
    },
    "version": 1
  },
  "userdoc": {
    "errors": {
      "ERC20TransferFailed()": [
        {
          "notice": "Thrown when an ERC20 transfer fails"
        }
      ],
      "NativeTransferFailed()": [
        {
          "notice": "Thrown when a native transfer fails"
        }
      ]
    },
    "kind": "user",
    "methods": {
      "lockAcquired(address,bytes)": {
        "notice": "Called by the book manager on `msg.sender` when a lock is acquired"
      }
    },
    "version": 1
  },
  "storageLayout": {
    "storage": [
      {
        "astId": 8,
        "contract": "src/Rebalancer.sol:Rebalancer",
        "label": "_owner",
        "offset": 0,
        "slot": "0",
        "type": "t_address"
      },
      {
        "astId": 156,
        "contract": "src/Rebalancer.sol:Rebalancer",
        "label": "_pendingOwner",
        "offset": 0,
        "slot": "1",
        "type": "t_address"
      },
      {
        "astId": 4272,
        "contract": "src/Rebalancer.sol:Rebalancer",
        "label": "isOperator",
        "offset": 0,
        "slot": "2",
        "type": "t_mapping(t_address,t_mapping(t_address,t_bool))"
      },
      {
        "astId": 4278,
        "contract": "src/Rebalancer.sol:Rebalancer",
        "label": "balanceOf",
        "offset": 0,
        "slot": "3",
        "type": "t_mapping(t_address,t_mapping(t_uint256,t_uint256))"
      },
      {
        "astId": 4286,
        "contract": "src/Rebalancer.sol:Rebalancer",
        "label": "allowance",
        "offset": 0,
        "slot": "4",
        "type": "t_mapping(t_address,t_mapping(t_address,t_mapping(t_uint256,t_uint256)))"
      },
      {
        "astId": 7535,
        "contract": "src/Rebalancer.sol:Rebalancer",
        "label": "totalSupply",
        "offset": 0,
        "slot": "5",
        "type": "t_mapping(t_uint256,t_uint256)"
      },
      {
        "astId": 5307,
        "contract": "src/Rebalancer.sol:Rebalancer",
        "label": "_pools",
        "offset": 0,
        "slot": "6",
        "type": "t_mapping(t_bytes32,t_struct(Pool)7172_storage)"
      },
      {
        "astId": 5313,
        "contract": "src/Rebalancer.sol:Rebalancer",
        "label": "bookPair",
        "offset": 0,
        "slot": "7",
        "type": "t_mapping(t_userDefinedValueType(BookId)3126,t_userDefinedValueType(BookId)3126)"
      },
      {
        "astId": 5315,
        "contract": "src/Rebalancer.sol:Rebalancer",
        "label": "alpha",
        "offset": 0,
        "slot": "8",
        "type": "t_uint64"
      }
    ],
    "types": {
      "t_address": {
        "encoding": "inplace",
        "label": "address",
        "numberOfBytes": "20"
      },
      "t_array(t_userDefinedValueType(OrderId)3561)dyn_storage": {
        "base": "t_userDefinedValueType(OrderId)3561",
        "encoding": "dynamic_array",
        "label": "OrderId[]",
        "numberOfBytes": "32"
      },
      "t_bool": {
        "encoding": "inplace",
        "label": "bool",
        "numberOfBytes": "1"
      },
      "t_bytes32": {
        "encoding": "inplace",
        "label": "bytes32",
        "numberOfBytes": "32"
      },
      "t_contract(IStrategy)7525": {
        "encoding": "inplace",
        "label": "contract IStrategy",
        "numberOfBytes": "20"
      },
      "t_mapping(t_address,t_bool)": {
        "encoding": "mapping",
        "key": "t_address",
        "label": "mapping(address => bool)",
        "numberOfBytes": "32",
        "value": "t_bool"
      },
      "t_mapping(t_address,t_mapping(t_address,t_bool))": {
        "encoding": "mapping",
        "key": "t_address",
        "label": "mapping(address => mapping(address => bool))",
        "numberOfBytes": "32",
        "value": "t_mapping(t_address,t_bool)"
      },
      "t_mapping(t_address,t_mapping(t_address,t_mapping(t_uint256,t_uint256)))": {
        "encoding": "mapping",
        "key": "t_address",
        "label": "mapping(address => mapping(address => mapping(uint256 => uint256)))",
        "numberOfBytes": "32",
        "value": "t_mapping(t_address,t_mapping(t_uint256,t_uint256))"
      },
      "t_mapping(t_address,t_mapping(t_uint256,t_uint256))": {
        "encoding": "mapping",
        "key": "t_address",
        "label": "mapping(address => mapping(uint256 => uint256))",
        "numberOfBytes": "32",
        "value": "t_mapping(t_uint256,t_uint256)"
      },
      "t_mapping(t_bytes32,t_struct(Pool)7172_storage)": {
        "encoding": "mapping",
        "key": "t_bytes32",
        "label": "mapping(bytes32 => struct IPoolStorage.Pool)",
        "numberOfBytes": "32",
        "value": "t_struct(Pool)7172_storage"
      },
      "t_mapping(t_uint256,t_uint256)": {
        "encoding": "mapping",
        "key": "t_uint256",
        "label": "mapping(uint256 => uint256)",
        "numberOfBytes": "32",
        "value": "t_uint256"
      },
      "t_mapping(t_userDefinedValueType(BookId)3126,t_userDefinedValueType(BookId)3126)": {
        "encoding": "mapping",
        "key": "t_userDefinedValueType(BookId)3126",
        "label": "mapping(BookId => BookId)",
        "numberOfBytes": "32",
        "value": "t_userDefinedValueType(BookId)3126"
      },
      "t_struct(Pool)7172_storage": {
        "encoding": "inplace",
        "label": "struct IPoolStorage.Pool",
        "members": [
          {
            "astId": 7153,
            "contract": "src/Rebalancer.sol:Rebalancer",
            "label": "bookIdA",
            "offset": 0,
            "slot": "0",
            "type": "t_userDefinedValueType(BookId)3126"
          },
          {
            "astId": 7156,
            "contract": "src/Rebalancer.sol:Rebalancer",
            "label": "bookIdB",
            "offset": 0,
            "slot": "1",
            "type": "t_userDefinedValueType(BookId)3126"
          },
          {
            "astId": 7159,
            "contract": "src/Rebalancer.sol:Rebalancer",
            "label": "strategy",
            "offset": 0,
            "slot": "2",
            "type": "t_contract(IStrategy)7525"
          },
          {
            "astId": 7161,
            "contract": "src/Rebalancer.sol:Rebalancer",
            "label": "reserveA",
            "offset": 0,
            "slot": "3",
            "type": "t_uint256"
          },
          {
            "astId": 7163,
            "contract": "src/Rebalancer.sol:Rebalancer",
            "label": "reserveB",
            "offset": 0,
            "slot": "4",
            "type": "t_uint256"
          },
          {
            "astId": 7167,
            "contract": "src/Rebalancer.sol:Rebalancer",
            "label": "orderListA",
            "offset": 0,
            "slot": "5",
            "type": "t_array(t_userDefinedValueType(OrderId)3561)dyn_storage"
          },
          {
            "astId": 7171,
            "contract": "src/Rebalancer.sol:Rebalancer",
            "label": "orderListB",
            "offset": 0,
            "slot": "6",
            "type": "t_array(t_userDefinedValueType(OrderId)3561)dyn_storage"
          }
        ],
        "numberOfBytes": "224"
      },
      "t_uint256": {
        "encoding": "inplace",
        "label": "uint256",
        "numberOfBytes": "32"
      },
      "t_uint64": {
        "encoding": "inplace",
        "label": "uint64",
        "numberOfBytes": "8"
      },
      "t_userDefinedValueType(BookId)3126": {
        "encoding": "inplace",
        "label": "BookId",
        "numberOfBytes": "24"
      },
      "t_userDefinedValueType(OrderId)3561": {
        "encoding": "inplace",
        "label": "OrderId",
        "numberOfBytes": "32"
      }
    }
  }
}