{
  "address": "0xa5A1A5E13B874F0d855327E89E53222808cf531b",
  "abi": [
    {
      "inputs": [
        {
          "internalType": "contract IBookManager",
          "name": "bookManager_",
          "type": "address"
        },
        {
          "internalType": "address",
          "name": "initialOwner_",
          "type": "address"
        }
      ],
      "stateMutability": "nonpayable",
      "type": "constructor"
    },
    {
      "inputs": [
        {
          "internalType": "address",
          "name": "target",
          "type": "address"
        }
      ],
      "name": "AddressEmptyCode",
      "type": "error"
    },
    {
      "inputs": [],
      "name": "AlreadyOpened",
      "type": "error"
    },
    {
      "inputs": [],
      "name": "ERC20TransferFailed",
      "type": "error"
    },
    {
      "inputs": [],
      "name": "FailedCall",
      "type": "error"
    },
    {
      "inputs": [
        {
          "internalType": "uint256",
          "name": "balance",
          "type": "uint256"
        },
        {
          "internalType": "uint256",
          "name": "needed",
          "type": "uint256"
        }
      ],
      "name": "InsufficientBalance",
      "type": "error"
    },
    {
      "inputs": [],
      "name": "InvalidAmount",
      "type": "error"
    },
    {
      "inputs": [],
      "name": "InvalidBookPair",
      "type": "error"
    },
    {
      "inputs": [],
      "name": "InvalidHook",
      "type": "error"
    },
    {
      "inputs": [],
      "name": "InvalidLockAcquiredSender",
      "type": "error"
    },
    {
      "inputs": [],
      "name": "InvalidLockCaller",
      "type": "error"
    },
    {
      "inputs": [],
      "name": "InvalidMaker",
      "type": "error"
    },
    {
      "inputs": [],
      "name": "InvalidStrategy",
      "type": "error"
    },
    {
      "inputs": [],
      "name": "InvalidTick",
      "type": "error"
    },
    {
      "inputs": [],
      "name": "InvalidValue",
      "type": "error"
    },
    {
      "inputs": [],
      "name": "LockFailure",
      "type": "error"
    },
    {
      "inputs": [],
      "name": "NativeTransferFailed",
      "type": "error"
    },
    {
      "inputs": [],
      "name": "NotSelf",
      "type": "error"
    },
    {
      "inputs": [
        {
          "internalType": "address",
          "name": "owner",
          "type": "address"
        }
      ],
      "name": "OwnableInvalidOwner",
      "type": "error"
    },
    {
      "inputs": [
        {
          "internalType": "address",
          "name": "account",
          "type": "address"
        }
      ],
      "name": "OwnableUnauthorizedAccount",
      "type": "error"
    },
    {
      "inputs": [
        {
          "internalType": "address",
          "name": "token",
          "type": "address"
        }
      ],
      "name": "SafeERC20FailedOperation",
      "type": "error"
    },
    {
      "inputs": [],
      "name": "Slippage",
      "type": "error"
    },
    {
      "anonymous": false,
      "inputs": [
        {
          "indexed": true,
          "internalType": "address",
          "name": "owner",
          "type": "address"
        },
        {
          "indexed": true,
          "internalType": "address",
          "name": "spender",
          "type": "address"
        },
        {
          "indexed": true,
          "internalType": "uint256",
          "name": "id",
          "type": "uint256"
        },
        {
          "indexed": false,
          "internalType": "uint256",
          "name": "amount",
          "type": "uint256"
        }
      ],
      "name": "Approval",
      "type": "event"
    },
    {
      "anonymous": false,
      "inputs": [
        {
          "indexed": true,
          "internalType": "address",
          "name": "user",
          "type": "address"
        },
        {
          "indexed": true,
          "internalType": "bytes32",
          "name": "key",
          "type": "bytes32"
        },
        {
          "indexed": false,
          "internalType": "uint256",
          "name": "amountA",
          "type": "uint256"
        },
        {
          "indexed": false,
          "internalType": "uint256",
          "name": "amountB",
          "type": "uint256"
        },
        {
          "indexed": false,
          "internalType": "uint256",
          "name": "lpAmount",
          "type": "uint256"
        }
      ],
      "name": "Burn",
      "type": "event"
    },
    {
      "anonymous": false,
      "inputs": [
        {
          "indexed": true,
          "internalType": "bytes32",
          "name": "key",
          "type": "bytes32"
        },
        {
          "indexed": false,
          "internalType": "uint256",
          "name": "canceledAmountA",
          "type": "uint256"
        },
        {
          "indexed": false,
          "internalType": "uint256",
          "name": "canceledAmountB",
          "type": "uint256"
        },
        {
          "indexed": false,
          "internalType": "uint256",
          "name": "claimedAmountA",
          "type": "uint256"
        },
        {
          "indexed": false,
          "internalType": "uint256",
          "name": "claimedAmountB",
          "type": "uint256"
        }
      ],
      "name": "Clear",
      "type": "event"
    },
    {
      "anonymous": false,
      "inputs": [
        {
          "indexed": true,
          "internalType": "address",
          "name": "user",
          "type": "address"
        },
        {
          "indexed": true,
          "internalType": "bytes32",
          "name": "key",
          "type": "bytes32"
        },
        {
          "indexed": false,
          "internalType": "uint256",
          "name": "amountA",
          "type": "uint256"
        },
        {
          "indexed": false,
          "internalType": "uint256",
          "name": "amountB",
          "type": "uint256"
        },
        {
          "indexed": false,
          "internalType": "uint256",
          "name": "lpAmount",
          "type": "uint256"
        }
      ],
      "name": "Mint",
      "type": "event"
    },
    {
      "anonymous": false,
      "inputs": [
        {
          "indexed": true,
          "internalType": "bytes32",
          "name": "key",
          "type": "bytes32"
        },
        {
          "indexed": true,
          "internalType": "BookId",
          "name": "bookIdA",
          "type": "uint192"
        },
        {
          "indexed": true,
          "internalType": "BookId",
          "name": "bookIdB",
          "type": "uint192"
        },
        {
          "indexed": false,
          "internalType": "bytes32",
          "name": "salt",
          "type": "bytes32"
        },
        {
          "indexed": false,
          "internalType": "address",
          "name": "strategy",
          "type": "address"
        }
      ],
      "name": "Open",
      "type": "event"
    },
    {
      "anonymous": false,
      "inputs": [
        {
          "indexed": true,
          "internalType": "address",
          "name": "owner",
          "type": "address"
        },
        {
          "indexed": true,
          "internalType": "address",
          "name": "operator",
          "type": "address"
        },
        {
          "indexed": false,
          "internalType": "bool",
          "name": "approved",
          "type": "bool"
        }
      ],
      "name": "OperatorSet",
      "type": "event"
    },
    {
      "anonymous": false,
      "inputs": [
        {
          "indexed": true,
          "internalType": "address",
          "name": "previousOwner",
          "type": "address"
        },
        {
          "indexed": true,
          "internalType": "address",
          "name": "newOwner",
          "type": "address"
        }
      ],
      "name": "OwnershipTransferStarted",
      "type": "event"
    },
    {
      "anonymous": false,
      "inputs": [
        {
          "indexed": true,
          "internalType": "address",
          "name": "previousOwner",
          "type": "address"
        },
        {
          "indexed": true,
          "internalType": "address",
          "name": "newOwner",
          "type": "address"
        }
      ],
      "name": "OwnershipTransferred",
      "type": "event"
    },
    {
      "anonymous": false,
      "inputs": [
        {
          "indexed": true,
          "internalType": "bytes32",
          "name": "key",
          "type": "bytes32"
        }
      ],
      "name": "Rebalance",
      "type": "event"
    },
    {
      "anonymous": false,
      "inputs": [
        {
          "indexed": false,
          "internalType": "address",
          "name": "caller",
          "type": "address"
        },
        {
          "indexed": true,
          "internalType": "address",
          "name": "from",
          "type": "address"
        },
        {
          "indexed": true,
          "internalType": "address",
          "name": "to",
          "type": "address"
        },
        {
          "indexed": true,
          "internalType": "uint256",
          "name": "id",
          "type": "uint256"
        },
        {
          "indexed": false,
          "internalType": "uint256",
          "name": "amount",
          "type": "uint256"
        }
      ],
      "name": "Transfer",
      "type": "event"
    },
    {
      "inputs": [
        {
          "internalType": "bytes32",
          "name": "key",
          "type": "bytes32"
        },
        {
          "components": [
            {
              "internalType": "address",
              "name": "user",
              "type": "address"
            },
            {
              "internalType": "uint256",
              "name": "burnAmount",
              "type": "uint256"
            },
            {
              "internalType": "uint256",
              "name": "minAmountA",
              "type": "uint256"
            },
            {
              "internalType": "uint256",
              "name": "minAmountB",
              "type": "uint256"
            }
          ],
          "internalType": "struct Rebalancer.BurnParams",
          "name": "burnParams",
          "type": "tuple"
        }
      ],
      "name": "_burnAndRebalance",
      "outputs": [
        {
          "internalType": "uint256",
          "name": "withdrawalA",
          "type": "uint256"
        },
        {
          "internalType": "uint256",
          "name": "withdrawalB",
          "type": "uint256"
        }
      ],
      "stateMutability": "nonpayable",
      "type": "function"
    },
    {
      "inputs": [
        {
          "components": [
            {
              "internalType": "Currency",
              "name": "base",
              "type": "address"
            },
            {
              "internalType": "uint64",
              "name": "unitSize",
              "type": "uint64"
            },
            {
              "internalType": "Currency",
              "name": "quote",
              "type": "address"
            },
            {
              "internalType": "FeePolicy",
              "name": "makerPolicy",
              "type": "uint24"
            },
            {
              "internalType": "contract IHooks",
              "name": "hooks",
              "type": "address"
            },
            {
              "internalType": "FeePolicy",
              "name": "takerPolicy",
              "type": "uint24"
            }
          ],
          "internalType": "struct IBookManager.BookKey",
          "name": "bookKeyA",
          "type": "tuple"
        },
        {
          "components": [
            {
              "internalType": "Currency",
              "name": "base",
              "type": "address"
            },
            {
              "internalType": "uint64",
              "name": "unitSize",
              "type": "uint64"
            },
            {
              "internalType": "Currency",
              "name": "quote",
              "type": "address"
            },
            {
              "internalType": "FeePolicy",
              "name": "makerPolicy",
              "type": "uint24"
            },
            {
              "internalType": "contract IHooks",
              "name": "hooks",
              "type": "address"
            },
            {
              "internalType": "FeePolicy",
              "name": "takerPolicy",
              "type": "uint24"
            }
          ],
          "internalType": "struct IBookManager.BookKey",
          "name": "bookKeyB",
          "type": "tuple"
        },
        {
          "internalType": "bytes32",
          "name": "salt",
          "type": "bytes32"
        },
        {
          "internalType": "address",
          "name": "strategy",
          "type": "address"
        }
      ],
      "name": "_open",
      "outputs": [
        {
          "internalType": "bytes32",
          "name": "key",
          "type": "bytes32"
        }
      ],
      "stateMutability": "nonpayable",
      "type": "function"
    },
    {
      "inputs": [],
      "name": "acceptOwnership",
      "outputs": [],
      "stateMutability": "nonpayable",
      "type": "function"
    },
    {
      "inputs": [
        {
          "internalType": "address",
          "name": "",
          "type": "address"
        },
        {
          "internalType": "address",
          "name": "",
          "type": "address"
        },
        {
          "internalType": "uint256",
          "name": "",
          "type": "uint256"
        }
      ],
      "name": "allowance",
      "outputs": [
        {
          "internalType": "uint256",
          "name": "",
          "type": "uint256"
        }
      ],
      "stateMutability": "view",
      "type": "function"
    },
    {
      "inputs": [
        {
          "internalType": "address",
          "name": "spender",
          "type": "address"
        },
        {
          "internalType": "uint256",
          "name": "id",
          "type": "uint256"
        },
        {
          "internalType": "uint256",
          "name": "amount",
          "type": "uint256"
        }
      ],
      "name": "approve",
      "outputs": [
        {
          "internalType": "bool",
          "name": "",
          "type": "bool"
        }
      ],
      "stateMutability": "nonpayable",
      "type": "function"
    },
    {
      "inputs": [
        {
          "internalType": "address",
          "name": "",
          "type": "address"
        },
        {
          "internalType": "uint256",
          "name": "",
          "type": "uint256"
        }
      ],
      "name": "balanceOf",
      "outputs": [
        {
          "internalType": "uint256",
          "name": "",
          "type": "uint256"
        }
      ],
      "stateMutability": "view",
      "type": "function"
    },
    {
      "inputs": [],
      "name": "bookManager",
      "outputs": [
        {
          "internalType": "contract IBookManager",
          "name": "",
          "type": "address"
        }
      ],
      "stateMutability": "view",
      "type": "function"
    },
    {
      "inputs": [
        {
          "internalType": "BookId",
          "name": "",
          "type": "uint192"
        }
      ],
      "name": "bookPair",
      "outputs": [
        {
          "internalType": "BookId",
          "name": "",
          "type": "uint192"
        }
      ],
      "stateMutability": "view",
      "type": "function"
    },
    {
      "inputs": [
        {
          "internalType": "bytes32",
          "name": "key",
          "type": "bytes32"
        },
        {
          "internalType": "uint256",
          "name": "amount",
          "type": "uint256"
        },
        {
          "internalType": "uint256",
          "name": "minAmountA",
          "type": "uint256"
        },
        {
          "internalType": "uint256",
          "name": "minAmountB",
          "type": "uint256"
        }
      ],
      "name": "burn",
      "outputs": [
        {
          "internalType": "uint256",
          "name": "",
          "type": "uint256"
        },
        {
          "internalType": "uint256",
          "name": "",
          "type": "uint256"
        }
      ],
      "stateMutability": "nonpayable",
      "type": "function"
    },
    {
      "inputs": [
        {
          "internalType": "uint256",
          "name": "",
          "type": "uint256"
        }
      ],
      "name": "decimals",
      "outputs": [
        {
          "internalType": "uint8",
          "name": "",
          "type": "uint8"
        }
      ],
      "stateMutability": "pure",
      "type": "function"
    },
    {
      "inputs": [
        {
          "internalType": "bytes32",
          "name": "key",
          "type": "bytes32"
        }
      ],
      "name": "getBookPairs",
      "outputs": [
        {
          "internalType": "BookId",
          "name": "",
          "type": "uint192"
        },
        {
          "internalType": "BookId",
          "name": "",
          "type": "uint192"
        }
      ],
      "stateMutability": "view",
      "type": "function"
    },
    {
      "inputs": [
        {
          "internalType": "bytes32",
          "name": "key",
          "type": "bytes32"
        }
      ],
      "name": "getLiquidity",
      "outputs": [
        {
          "components": [
            {
              "internalType": "uint256",
              "name": "reserve",
              "type": "uint256"
            },
            {
              "internalType": "uint256",
              "name": "claimable",
              "type": "uint256"
            },
            {
              "internalType": "uint256",
              "name": "cancelable",
              "type": "uint256"
            }
          ],
          "internalType": "struct IRebalancer.Liquidity",
          "name": "liquidityA",
          "type": "tuple"
        },
        {
          "components": [
            {
              "internalType": "uint256",
              "name": "reserve",
              "type": "uint256"
            },
            {
              "internalType": "uint256",
              "name": "claimable",
              "type": "uint256"
            },
            {
              "internalType": "uint256",
              "name": "cancelable",
              "type": "uint256"
            }
          ],
          "internalType": "struct IRebalancer.Liquidity",
          "name": "liquidityB",
          "type": "tuple"
        }
      ],
      "stateMutability": "view",
      "type": "function"
    },
    {
      "inputs": [
        {
          "internalType": "bytes32",
          "name": "key",
          "type": "bytes32"
        }
      ],
      "name": "getPool",
      "outputs": [
        {
          "components": [
            {
              "internalType": "BookId",
              "name": "bookIdA",
              "type": "uint192"
            },
            {
              "internalType": "BookId",
              "name": "bookIdB",
              "type": "uint192"
            },
            {
              "internalType": "contract IStrategy",
              "name": "strategy",
              "type": "address"
            },
            {
              "internalType": "uint256",
              "name": "reserveA",
              "type": "uint256"
            },
            {
              "internalType": "uint256",
              "name": "reserveB",
              "type": "uint256"
            },
            {
              "internalType": "OrderId[]",
              "name": "orderListA",
              "type": "uint256[]"
            },
            {
              "internalType": "OrderId[]",
              "name": "orderListB",
              "type": "uint256[]"
            }
          ],
          "internalType": "struct IPoolStorage.Pool",
          "name": "",
          "type": "tuple"
        }
      ],
      "stateMutability": "view",
      "type": "function"
    },
    {
      "inputs": [
        {
          "internalType": "address",
          "name": "",
          "type": "address"
        },
        {
          "internalType": "address",
          "name": "",
          "type": "address"
        }
      ],
      "name": "isOperator",
      "outputs": [
        {
          "internalType": "bool",
          "name": "",
          "type": "bool"
        }
      ],
      "stateMutability": "view",
      "type": "function"
    },
    {
      "inputs": [
        {
          "internalType": "address",
          "name": "lockCaller",
          "type": "address"
        },
        {
          "internalType": "bytes",
          "name": "data",
          "type": "bytes"
        }
      ],
      "name": "lockAcquired",
      "outputs": [
        {
          "internalType": "bytes",
          "name": "",
          "type": "bytes"
        }
      ],
      "stateMutability": "nonpayable",
      "type": "function"
    },
    {
      "inputs": [
        {
          "internalType": "bytes32",
          "name": "key",
          "type": "bytes32"
        },
        {
          "internalType": "uint256",
          "name": "amountA",
          "type": "uint256"
        },
        {
          "internalType": "uint256",
          "name": "amountB",
          "type": "uint256"
        },
        {
          "internalType": "uint256",
          "name": "minLpAmount",
          "type": "uint256"
        }
      ],
      "name": "mint",
      "outputs": [
        {
          "internalType": "uint256",
          "name": "mintAmount",
          "type": "uint256"
        }
      ],
      "stateMutability": "payable",
      "type": "function"
    },
    {
      "inputs": [
        {
          "components": [
            {
              "internalType": "Currency",
              "name": "base",
              "type": "address"
            },
            {
              "internalType": "uint64",
              "name": "unitSize",
              "type": "uint64"
            },
            {
              "internalType": "Currency",
              "name": "quote",
              "type": "address"
            },
            {
              "internalType": "FeePolicy",
              "name": "makerPolicy",
              "type": "uint24"
            },
            {
              "internalType": "contract IHooks",
              "name": "hooks",
              "type": "address"
            },
            {
              "internalType": "FeePolicy",
              "name": "takerPolicy",
              "type": "uint24"
            }
          ],
          "internalType": "struct IBookManager.BookKey",
          "name": "bookKeyA",
          "type": "tuple"
        },
        {
          "components": [
            {
              "internalType": "Currency",
              "name": "base",
              "type": "address"
            },
            {
              "internalType": "uint64",
              "name": "unitSize",
              "type": "uint64"
            },
            {
              "internalType": "Currency",
              "name": "quote",
              "type": "address"
            },
            {
              "internalType": "FeePolicy",
              "name": "makerPolicy",
              "type": "uint24"
            },
            {
              "internalType": "contract IHooks",
              "name": "hooks",
              "type": "address"
            },
            {
              "internalType": "FeePolicy",
              "name": "takerPolicy",
              "type": "uint24"
            }
          ],
          "internalType": "struct IBookManager.BookKey",
          "name": "bookKeyB",
          "type": "tuple"
        },
        {
          "internalType": "bytes32",
          "name": "salt",
          "type": "bytes32"
        },
        {
          "internalType": "address",
          "name": "strategy",
          "type": "address"
        }
      ],
      "name": "open",
      "outputs": [
        {
          "internalType": "bytes32",
          "name": "",
          "type": "bytes32"
        }
      ],
      "stateMutability": "nonpayable",
      "type": "function"
    },
    {
      "inputs": [],
      "name": "owner",
      "outputs": [
        {
          "internalType": "address",
          "name": "",
          "type": "address"
        }
      ],
      "stateMutability": "view",
      "type": "function"
    },
    {
      "inputs": [],
      "name": "pendingOwner",
      "outputs": [
        {
          "internalType": "address",
          "name": "",
          "type": "address"
        }
      ],
      "stateMutability": "view",
      "type": "function"
    },
    {
      "inputs": [
        {
          "internalType": "bytes32",
          "name": "key",
          "type": "bytes32"
        }
      ],
      "name": "rebalance",
      "outputs": [],
      "stateMutability": "nonpayable",
      "type": "function"
    },
    {
      "inputs": [],
      "name": "renounceOwnership",
      "outputs": [],
      "stateMutability": "nonpayable",
      "type": "function"
    },
    {
      "inputs": [
        {
          "internalType": "address",
          "name": "operator",
          "type": "address"
        },
        {
          "internalType": "bool",
          "name": "approved",
          "type": "bool"
        }
      ],
      "name": "setOperator",
      "outputs": [
        {
          "internalType": "bool",
          "name": "",
          "type": "bool"
        }
      ],
      "stateMutability": "nonpayable",
      "type": "function"
    },
    {
      "inputs": [
        {
          "internalType": "bytes32",
          "name": "key",
          "type": "bytes32"
        },
        {
          "internalType": "address",
          "name": "strategy",
          "type": "address"
        }
      ],
      "name": "setStrategy",
      "outputs": [],
      "stateMutability": "nonpayable",
      "type": "function"
    },
    {
      "inputs": [
        {
          "internalType": "bytes4",
          "name": "interfaceId",
          "type": "bytes4"
        }
      ],
      "name": "supportsInterface",
      "outputs": [
        {
          "internalType": "bool",
          "name": "",
          "type": "bool"
        }
      ],
      "stateMutability": "view",
      "type": "function"
    },
    {
      "inputs": [
        {
          "internalType": "uint256",
          "name": "",
          "type": "uint256"
        }
      ],
      "name": "totalSupply",
      "outputs": [
        {
          "internalType": "uint256",
          "name": "",
          "type": "uint256"
        }
      ],
      "stateMutability": "view",
      "type": "function"
    },
    {
      "inputs": [
        {
          "internalType": "address",
          "name": "receiver",
          "type": "address"
        },
        {
          "internalType": "uint256",
          "name": "id",
          "type": "uint256"
        },
        {
          "internalType": "uint256",
          "name": "amount",
          "type": "uint256"
        }
      ],
      "name": "transfer",
      "outputs": [
        {
          "internalType": "bool",
          "name": "",
          "type": "bool"
        }
      ],
      "stateMutability": "nonpayable",
      "type": "function"
    },
    {
      "inputs": [
        {
          "internalType": "address",
          "name": "sender",
          "type": "address"
        },
        {
          "internalType": "address",
          "name": "receiver",
          "type": "address"
        },
        {
          "internalType": "uint256",
          "name": "id",
          "type": "uint256"
        },
        {
          "internalType": "uint256",
          "name": "amount",
          "type": "uint256"
        }
      ],
      "name": "transferFrom",
      "outputs": [
        {
          "internalType": "bool",
          "name": "",
          "type": "bool"
        }
      ],
      "stateMutability": "nonpayable",
      "type": "function"
    },
    {
      "inputs": [
        {
          "internalType": "address",
          "name": "newOwner",
          "type": "address"
        }
      ],
      "name": "transferOwnership",
      "outputs": [],
      "stateMutability": "nonpayable",
      "type": "function"
    },
    {
      "stateMutability": "payable",
      "type": "receive"
    }
  ],
  "transactionHash": "0x11622f234dc83f7d42a636ed77eb18c5b4a15a70974432e78de9e9d47288f91a",
  "args": [
    "0xC528b9ED5d56d1D0d3C18A2342954CE1069138a4",
    "0x5F79EE8f8fA862E98201120d83c4eC39D9468D49"
  ],
  "numDeployments": 1,
  "solcInputHash": "b1fa4965a040e21f5454e8dc1e5d3ec8",
  "bytecode": "0x60a060405234801561000f575f80fd5b5060405161446738038061446783398101604081905261002e916100f7565b806001600160a01b03811661005c57604051631e4fbdf760e01b81525f600482015260240160405180910390fd5b61006581610078565b50506001600160a01b031660805261012f565b600180546001600160a01b031916905561009181610094565b50565b5f80546001600160a01b038381166001600160a01b0319831681178455604051919092169283917f8be0079c531659141344cd1fd0a4f28419497f9722a3daafe3b4186f6b6457e09190a35050565b6001600160a01b0381168114610091575f80fd5b5f8060408385031215610108575f80fd5b8251610113816100e3565b6020840151909250610124816100e3565b809150509250929050565b60805161427f6101e85f395f81816102f8015281816107b501528181610cdd01528181610d8401528181610f73015281816110dc0152818161117601528181611737015281816117c301528181611844015281816118d001528181611aeb01528181611e6c01528181611f82015281816124c1015281816125f7015281816126a40152818161275e015281816127cd015281816128250152818161299f01528181612c7601528181612d560152612e4b015261427f5ff3fe6080604052600436106101b1575f3560e01c806379ba5097116100e7578063c630ed7d11610087578063f3cbc88c11610062578063f3cbc88c146105cb578063f6c00927146105ea578063fa6793d514610616578063fe99049a14610643575f80fd5b8063c630ed7d1461052f578063e30c39781461058f578063f2fde38b146105ac575f80fd5b8063a14cbb12116100c2578063a14cbb121461048d578063a1d5f131146104ac578063b6363cf2146104cb578063bd85b03914610504575f80fd5b806379ba5097146104115780638da5cb5b14610425578063998ff4ef14610441575f80fd5b80633f322bc91161015257806350d506e51161012d57806350d506e514610383578063558a7297146103a2578063598af9e7146103c1578063715018a6146103fd575f80fd5b80633f322bc9146102e75780633f47e66214610332578063426a849314610364575f80fd5b806309cb66c41161018d57806309cb66c4146102535780630a31b9531461026657806315c7afb41461029a5780631b022ec8146102c6575f80fd5b8062fdd58e146101bc57806301ffc9a714610205578063095bcdb614610234575f80fd5b366101b857005b5f80fd5b3480156101c7575f80fd5b506101f26101d6366004613507565b600360209081525f928352604080842090915290825290205481565b6040519081526020015b60405180910390f35b348015610210575f80fd5b5061022461021f366004613531565b610662565b60405190151581526020016101fc565b34801561023f575f80fd5b5061022461024e366004613558565b6106ca565b6101f261026136600461358a565b610784565b348015610271575f80fd5b5061028561028036600461358a565b610c4c565b604080519283526020830191909152016101fc565b3480156102a5575f80fd5b506102b96102b43660046135b9565b610d77565b6040516101fc9190613665565b3480156102d1575f80fd5b506102e56102e0366004613677565b610ecd565b005b3480156102f2575f80fd5b5061031a7f000000000000000000000000000000000000000000000000000000000000000081565b6040516001600160a01b0390911681526020016101fc565b34801561033d575f80fd5b5061035261034c366004613677565b50601290565b60405160ff90911681526020016101fc565b34801561036f575f80fd5b5061022461037e366004613558565b610ff2565b34801561038e575f80fd5b5061028561039d36600461368e565b611056565b3480156103ad575f80fd5b506102246103bc3660046136d0565b611481565b3480156103cc575f80fd5b506101f26103db366004613707565b600460209081525f938452604080852082529284528284209052825290205481565b348015610408575f80fd5b506102e56114f0565b34801561041c575f80fd5b506102e5611503565b348015610430575f80fd5b505f546001600160a01b031661031a565b34801561044c575f80fd5b5061047561045b366004613745565b60076020525f90815260409020546001600160c01b031681565b6040516001600160c01b0390911681526020016101fc565b348015610498575f80fd5b506102e56104a736600461376b565b61154c565b3480156104b7575f80fd5b506101f26104c63660046137a4565b611584565b3480156104d6575f80fd5b506102246104e53660046137f5565b600260209081525f928352604080842090915290825290205460ff1681565b34801561050f575f80fd5b506101f261051e366004613677565b60056020525f908152604090205481565b34801561053a575f80fd5b5061056f610549366004613677565b5f90815260066020526040902080546001909101546001600160c01b0391821692911690565b604080516001600160c01b039384168152929091166020830152016101fc565b34801561059a575f80fd5b506001546001600160a01b031661031a565b3480156105b7575f80fd5b506102e56105c6366004613821565b611a70565b3480156105d6575f80fd5b506101f26105e53660046137a4565b611ae0565b3480156105f5575f80fd5b50610609610604366004613677565b611bdc565b6040516101fc9190613876565b348015610621575f80fd5b50610635610630366004613677565b611d3d565b6040516101fc9291906138f7565b34801561064e575f80fd5b5061022461065d366004613930565b612066565b5f7f01ffc9a7000000000000000000000000000000000000000000000000000000006001600160e01b0319831614806106c457507f0f632fb3000000000000000000000000000000000000000000000000000000006001600160e01b03198316145b92915050565b335f9081526003602090815260408083208584529091528120805483919083906106f5908490613987565b90915550506001600160a01b0384165f9081526003602090815260408083208684529091528120805484929061072c90849061399a565b909155505060408051338082526020820185905285926001600160a01b038816927f1b3d7edb2e9c0b0e7c525b20aaaef0f5940d2ed71663c7d39266ecafac72885991015b60405180910390a45060015b9392505050565b5f8481526006602052604080822080549151639b22917d60e01b81526001600160c01b0390921660048301529082907f00000000000000000000000000000000000000000000000000000000000000006001600160a01b031690639b22917d9060240160c060405180830381865afa158015610802573d5f803e3d5ffd5b505050506040513d601f19601f820116820180604052508101906108269190613a63565b5f888152600560205260408120549192508190036109e357861580610849575085155b15610880576040517f2c5211c600000000000000000000000000000000000000000000000000000000815260040160405180910390fd5b60408201515f906001600160a01b0316156109145782604001516001600160a01b031663313ce5676040518163ffffffff1660e01b8152600401602060405180830381865afa1580156108d5573d5f803e3d5ffd5b505050506040513d601f19601f820116820180604052508101906108f99190613aee565b610904906012613b0e565b61090f90600a613c07565b610917565b60015b83519091505f906001600160a01b0316156109aa57835f01516001600160a01b031663313ce5676040518163ffffffff1660e01b8152600401602060405180830381865afa15801561096b573d5f803e3d5ffd5b505050506040513d601f19601f8201168201806040525081019061098f9190613aee565b61099a906012613b0e565b6109a590600a613c07565b6109ad565b60015b90505f6109ba838b613c15565b90505f6109c7838b613c15565b90508082116109d657806109d8565b815b975050505050610ae5565b5f806109ee8a611d3d565b915091505f82604001518360200151845f0151610a0b919061399a565b610a15919061399a565b90505f82604001518360200151845f0151610a30919061399a565b610a3a919061399a565b905081158015610a48575080155b15610a5b575f9950899a508a9750610ae0565b815f03610a7757610a6d8a86836121d7565b97505f9a50610ae0565b805f03610a9357610a898b86846121d7565b97505f9950610ae0565b5f610a9f8c87856121d7565b90505f610aad8c88856121d7565b905080821115610acc57809950610ac5848b896121f2565b9c50610add565b819950610ada838b896121f2565b9b505b50505b505050505b84841015610b06576040516307dd37f760e41b815260040160405180910390fd5b604082015134906001600160a01b0316610b435787341015610b3b57604051632a9ffab760e21b815260040160405180910390fd5b879003610b5d565b6040830151610b5d906001600160a01b031633308b612215565b82516001600160a01b0316610b955786341015610b8d57604051632a9ffab760e21b815260040160405180910390fd5b869003610bac565b8251610bac906001600160a01b031633308a612215565b87846003015f828254610bbf919061399a565b9250508190555086846004015f828254610bd9919061399a565b90915550610bea9050338a8761228e565b6040805189815260208101899052908101869052899033907f1d43dbd7e59f8c9371169f5c49c01e100227d9ee5f5fe54665cf10e35042bb729060600160405180910390a38015610c4057610c405f33836122c0565b50505050949350505050565b604080516080810182523381526020808201868152828401868152606084018681528551602481018b905294516001600160a01b03908116604487015292516064860152905160848501525160a4808501919091528451808503909101815260c4909301845290820180516001600160e01b03166350d506e560e01b17905291516313942f3360e31b81525f9283927f000000000000000000000000000000000000000000000000000000000000000090911691639ca1799891610d1591309190600401613c2c565b5f604051808303815f875af1158015610d30573d5f803e3d5ffd5b505050506040513d5f823e601f3d908101601f19168201604052610d579190810190613c4d565b806020019051810190610d6a9190613cdc565b9150915094509492505050565b6060336001600160a01b037f00000000000000000000000000000000000000000000000000000000000000001614610ddb576040517f4bd37f4300000000000000000000000000000000000000000000000000000000815260040160405180910390fd5b6001600160a01b0384163014610e1d576040517f66a7598c00000000000000000000000000000000000000000000000000000000815260040160405180910390fd5b5f80306001600160a01b03168585604051610e39929190613cfe565b5f604051808303815f865af19150503d805f8114610e72576040519150601f19603f3d011682016040523d82523d5f602084013e610e77565b606091505b50915091508115610e8b57915061077d9050565b80515f03610ec5576040517fa40afa3800000000000000000000000000000000000000000000000000000000815260040160405180910390fd5b805160208201fd5b610efd60405180608001604052805f6001600160a01b031681526020015f81526020015f81526020015f81525090565b604080516024810184905282516001600160a01b0390811660448301526020808501516064840152848401516084840152606085015160a4808501919091528451808503909101815260c49093018452820180516001600160e01b03166350d506e560e01b17905291516313942f3360e31b81527f000000000000000000000000000000000000000000000000000000000000000090921691639ca1799891610fab91309190600401613c2c565b5f604051808303815f875af1158015610fc6573d5f803e3d5ffd5b505050506040513d5f823e601f3d908101601f19168201604052610fed9190810190613c4d565b505050565b335f8181526004602090815260408083206001600160a01b03881680855290835281842087855290925280832085905551919285927fb3fd5071835887567a0671151121894ddccc2842f1d10bedad13e0d17cace9a7906107719087815260200190565b5f80333014611078576040516314e1dbf760e11b815260040160405180910390fd5b5f8481526006602052604081209080611090876123a2565b915091508260030154826110a4919061399a565b91508260040154816110b6919061399a565b8354604051639b22917d60e01b81526001600160c01b0390911660048201529091505f907f00000000000000000000000000000000000000000000000000000000000000006001600160a01b031690639b22917d9060240160c060405180830381865afa158015611129573d5f803e3d5ffd5b505050506040513d601f19601f8201168201806040525081019061114d9190613a63565b6001850154604051639b22917d60e01b81526001600160c01b0390911660048201529091505f907f00000000000000000000000000000000000000000000000000000000000000006001600160a01b031690639b22917d9060240160c060405180830381865afa1580156111c3573d5f803e3d5ffd5b505050506040513d601f19601f820116820180604052508101906111e79190613a63565b90506020880135156112f6575f898152600560209081526040909120549061122090611215908b018b613821565b8b60208c013561245c565b61122f858a60200135836121d7565b9750611240848a60200135836121d7565b965088604001358810806112575750886060013587105b15611275576040516307dd37f760e41b815260040160405180910390fd5b61127f8886613987565b945061128b8785613987565b93508961129b60208b018b613821565b6001600160a01b03167f974da0fadf774cec6d550cb40d607dc3a0b7dee97aa1cd03a2fa3f6603b943ab8a8a8d602001356040516112ec939291909283526020830191909152604082015260600190565b60405180910390a3505b60028501546040517f1dc90f6d000000000000000000000000000000000000000000000000000000008152600481018b9052602481018690526044810185905260609182916001600160a01b0390911690631dc90f6d906064015f60405180830381865afa92505050801561138c57506040513d5f823e601f3d908101601f191682016040526113899190810190613dc3565b60015b156113975790925090505b6113a5848389600501612484565b6113b3838289600601612484565b886113c6856040015189600301546125d6565b6113d09190613987565b60038801558351600488015489916113e7916125d6565b6113f19190613987565b600488015588156114215761142161140c60208c018c613821565b60408601516001600160a01b0316908b6122c0565b87156114495761144961143760208c018c613821565b85516001600160a01b0316908a6122c0565b6040518b907f37f8042257f6b4d65b9614deb7792e5b374db2fdcd1983bf8a1247a8a788af5c905f90a2505050505050509250929050565b335f8181526002602090815260408083206001600160a01b038716808552908352818420805460ff191687151590811790915591519182529293917fceb576d9f15e4e200fdb5096d64d5dfd667e16def20c1eefd14256d8e3faa267910160405180910390a350600192915050565b6114f86128ae565b6115015f6128da565b565b60015433906001600160a01b031681146115405760405163118cdaa760e01b81526001600160a01b03821660048201526024015b60405180910390fd5b611549816128da565b50565b6115546128ae565b5f9182526006602052604090912060020180546001600160a01b0319166001600160a01b03909216919091179055565b5f3330146115a5576040516314e1dbf760e11b815260040160405180910390fd5b6115d66115b56020860186613821565b6115c56060880160408901613821565b6001600160a01b0391821691161490565b80156115fd57506115fd6115f06060860160408701613821565b6115c56020880188613821565b611633576040517f27a4015200000000000000000000000000000000000000000000000000000000815260040160405180910390fd5b5f61164460a0870160808801613821565b6001600160a01b031614158061167257505f61166660a0860160808701613821565b6001600160a01b031614155b156116a9576040517f9c9d882300000000000000000000000000000000000000000000000000000000815260040160405180910390fd5b6001600160a01b0382166116e9576040517f4e236e9a00000000000000000000000000000000000000000000000000000000815260040160405180910390fd5b5f6117016116fc36889003880188613e23565b6128f3565b90505f6117166116fc36889003880188613e23565b604051632ad7b51960e11b81526001600160c01b03841660048201529091507f00000000000000000000000000000000000000000000000000000000000000006001600160a01b0316906355af6a3290602401602060405180830381865afa158015611784573d5f803e3d5ffd5b505050506040513d601f19601f820116820180604052508101906117a89190613ea2565b6118265760405163fefc7c5160e01b81526001600160a01b037f0000000000000000000000000000000000000000000000000000000000000000169063fefc7c51906117f8908a90600401613f5c565b5f604051808303815f87803b15801561180f575f80fd5b505af1158015611821573d5f803e3d5ffd5b505050505b604051632ad7b51960e11b81526001600160c01b03821660048201527f00000000000000000000000000000000000000000000000000000000000000006001600160a01b0316906355af6a3290602401602060405180830381865afa158015611891573d5f803e3d5ffd5b505050506040513d601f19601f820116820180604052508101906118b59190613ea2565b6119335760405163fefc7c5160e01b81526001600160a01b037f0000000000000000000000000000000000000000000000000000000000000000169063fefc7c5190611905908990600401613f5c565b5f604051808303815f87803b15801561191c575f80fd5b505af115801561192e573d5f803e3d5ffd5b505050505b61193e82828761292e565b5f818152600660205260409020600201549093506001600160a01b031615611992576040517f1da42b2600000000000000000000000000000000000000000000000000000000815260040160405180910390fd5b5f83815260066020908152604080832080546001600160c01b038781167fffffffffffffffff0000000000000000000000000000000000000000000000009283168117845560018401805492891692841683179055600290930180546001600160a01b038c166001600160a01b03199091168117909155838752600786528487208054841683179055818752958490208054909216831790915582518a8152938401949094529186917f66d8f0c63665a9bd1357e5d422d5f538805b225f260974cb408a66635040ec6c910160405180910390a45050949350505050565b611a786128ae565b600180546001600160a01b0383166001600160a01b03199091168117909155611aa85f546001600160a01b031690565b6001600160a01b03167f38d16b8cac22d99fc7c124b9cd0de2d3fa1faef420bfe791d8c362d765e2270060405160405180910390a350565b5f611ae96128ae565b7f00000000000000000000000000000000000000000000000000000000000000006001600160a01b0316639ca179983063a1d5f13160e01b88888888604051602401611b389493929190613f7d565b60408051601f198184030181529181526020820180516001600160e01b03166001600160e01b03199485161790525160e085901b9092168252611b7e9291600401613c2c565b5f604051808303815f875af1158015611b99573d5f803e3d5ffd5b505050506040513d5f823e601f3d908101601f19168201604052611bc09190810190613c4d565b806020019051810190611bd39190613fb9565b95945050505050565b611c326040518060e001604052805f6001600160c01b031681526020015f6001600160c01b031681526020015f6001600160a01b031681526020015f81526020015f815260200160608152602001606081525090565b5f82815260066020908152604091829020825160e08101845281546001600160c01b0390811682526001830154168184015260028201546001600160a01b03168185015260038201546060820152600482015460808201526005820180548551818602810186019096528086529194929360a08601939290830182828015611cd757602002820191905f5260205f20905b815481526020019060010190808311611cc3575b5050505050815260200160068201805480602002602001604051908101604052809291908181526020018280548015611d2d57602002820191905f5260205f20905b815481526020019060010190808311611d19575b5050505050815250509050919050565b611d5e60405180606001604052805f81526020015f81526020015f81525090565b611d7f60405180606001604052805f81526020015f81526020015f81525090565b5f8381526006602090815260408083206003810154865260048101548552600581018054835181860281018601909452808452919493909190830182828015611de557602002820191905f5260205f20905b815481526020019060010190808311611dd1575b505050505090505f82600601805480602002602001604051908101604052809291908181526020018280548015611e3957602002820191905f5260205f20905b815481526020019060010190808311611e25575b505050505090505f82511115611f55578254604051639b22917d60e01b81526001600160c01b0390911660048201525f907f00000000000000000000000000000000000000000000000000000000000000006001600160a01b031690639b22917d9060240160c060405180830381865afa158015611eb9573d5f803e3d5ffd5b505050506040513d601f19601f82011682018060405250810190611edd9190613a63565b90505f5b8351811015611f52575f80611f1884606001518560200151888681518110611f0b57611f0b613fd0565b602002602001015161299a565b915091508189604001818151611f2e919061399a565b905250602088018051829190611f4590839061399a565b9052505050600101611ee1565b50505b80511561205e576001830154604051639b22917d60e01b81526001600160c01b0390911660048201525f907f00000000000000000000000000000000000000000000000000000000000000006001600160a01b031690639b22917d9060240160c060405180830381865afa158015611fcf573d5f803e3d5ffd5b505050506040513d601f19601f82011682018060405250810190611ff39190613a63565b90505f5b825181101561205b575f8061202184606001518560200151878681518110611f0b57611f0b613fd0565b915091508089602001818151612037919061399a565b90525060408801805183919061204e90839061399a565b9052505050600101611ff7565b50505b505050915091565b5f336001600160a01b038616148015906120a357506001600160a01b0385165f90815260026020908152604080832033845290915290205460ff16155b15612113576001600160a01b0385165f90815260046020908152604080832033845282528083208684529091529020545f198114612111576120e58382613987565b6001600160a01b0387165f90815260046020908152604080832033845282528083208884529091529020555b505b6001600160a01b0385165f90815260036020908152604080832086845290915281208054849290612145908490613987565b90915550506001600160a01b0384165f9081526003602090815260408083208684529091528120805484929061217c90849061399a565b9091555050604080513381526020810184905284916001600160a01b0380881692908916917f1b3d7edb2e9c0b0e7c525b20aaaef0f5940d2ed71663c7d39266ecafac728859910160405180910390a4506001949350505050565b5f825f1904841183021582026121eb575f80fd5b5091020490565b5f825f190484118302158202612206575f80fd5b50910281810615159190040190565b604080516001600160a01b0385811660248301528416604482015260648082018490528251808303909101815260849091019091526020810180516001600160e01b03167f23b872dd00000000000000000000000000000000000000000000000000000000179052612288908590612af9565b50505050565b612299838383612b73565b5f82815260056020526040812080548392906122b690849061399a565b9091555050505050565b5f6001600160a01b038416612315575f805f8085875af1905080612310576040517ff4b3b1bc00000000000000000000000000000000000000000000000000000000815260040160405180910390fd5b612288565b6040517fa9059cbb0000000000000000000000000000000000000000000000000000000081526001600160a01b038416600482015282602482015260205f6044835f895af13d15601f3d1160015f511416171691505080612288576040517ff27f64e400000000000000000000000000000000000000000000000000000000815260040160405180910390fd5b5f818152600660205260408120819081806123bf60058401612bf8565b90925090506123ce828661399a565b94506123da818561399a565b93505f806123ea85600601612bf8565b90925090506123f9818861399a565b9650612405828761399a565b60408051868152602081018590529081018390526060810185905290965088907fd9137e1ddf69f5d656819d4d4cd86f4d3cffdc670f36537fcca9501253f4e25b9060800160405180910390a25050505050915091565b612467838383612edd565b5f82815260056020526040812080548392906122b6908490613987565b5f5b8251811015612288578281815181106124a1576124a1613fd0565b60200260200101516020015167ffffffffffffffff165f03156125ce575f7f00000000000000000000000000000000000000000000000000000000000000006001600160a01b0316631dbef488604051806080016040528088815260200187868151811061251157612511613fd0565b60200260200101515f015160020b815260200187868151811061253657612536613fd0565b60200260200101516020015167ffffffffffffffff1681526020015f6001600160a01b03168152506040518263ffffffff1660e01b815260040161257a9190613fe4565b60408051808303815f875af1158015612595573d5f803e3d5ffd5b505050506040513d601f19601f820116820180604052508101906125b99190613cdc565b5083546001810185555f858152602090200155505b600101612486565b604051636a256b2960e01b81526001600160a01b0383811660048301525f917f000000000000000000000000000000000000000000000000000000000000000090911690636a256b29906024016020604051808303815f875af115801561263f573d5f803e3d5ffd5b505050506040513d601f19601f820116820180604052508101906126639190613fb9565b506040517f9611cf6c0000000000000000000000000000000000000000000000000000000081523060048201526001600160a01b0384811660248301525f917f000000000000000000000000000000000000000000000000000000000000000090911690639611cf6c90604401602060405180830381865afa1580156126eb573d5f803e3d5ffd5b505050506040513d601f19601f8201168201806040525081019061270f9190613fb9565b90505f8113156127c8576040517fd9caed120000000000000000000000000000000000000000000000000000000081526001600160a01b038581166004830152306024830152604482018390527f0000000000000000000000000000000000000000000000000000000000000000169063d9caed12906064015f604051808303815f87803b15801561279f575f80fd5b505af11580156127b1573d5f803e3d5ffd5b5050505080836127c1919061399a565b92506128a6565b6128067f00000000000000000000000000000000000000000000000000000000000000006127f58361409a565b6001600160a01b03871691906122c0565b604051636a256b2960e01b81526001600160a01b0385811660048301527f00000000000000000000000000000000000000000000000000000000000000001690636a256b29906024016020604051808303815f875af115801561286b573d5f803e3d5ffd5b505050506040513d601f19601f8201168201806040525081019061288f9190613fb9565b506128998161409a565b6128a39084613987565b92505b509092915050565b5f546001600160a01b031633146115015760405163118cdaa760e01b8152336004820152602401611537565b600180546001600160a01b031916905561154981612f59565b5f808260405160200161290691906140d0565b60408051601f1981840301815291905280516020909101206001600160c01b03169392505050565b5f826001600160c01b0316846001600160c01b0316111561294d579192915b6040805167ffffffffffffffff1986831b811660208301529185901b9091166038820152605081018390526070016040516020818303038152906040528051906020012090509392505050565b5f805f7f00000000000000000000000000000000000000000000000000000000000000006001600160a01b031663d09ef241856040518263ffffffff1660e01b81526004016129eb91815260200190565b606060405180830381865afa158015612a06573d5f803e3d5ffd5b505050506040513d601f19601f82011682018060405250810190612a2a9190614137565b90508467ffffffffffffffff16816020015167ffffffffffffffff16612a509190613c15565b9250612a938567ffffffffffffffff16826040015167ffffffffffffffff16612a799190613c15565b5f612a898760281c62ffffff1690565b60020b9190612fa8565b9150612aa48662ffffff1660171c90565b15612acf575f612abb62ffffff8816856001612fd2565b9050612ac781856141a7565b935050612af0565b5f612ae062ffffff88168483612fd2565b9050612aec81846141ce565b9250505b50935093915050565b5f612b0d6001600160a01b03841683613052565b905080515f14158015612b31575080806020019051810190612b2f9190613ea2565b155b15610fed576040517f5274afe70000000000000000000000000000000000000000000000000000000081526001600160a01b0384166004820152602401611537565b6001600160a01b0383165f90815260036020908152604080832085845290915281208054839290612ba590849061399a565b9091555050604080513381526020810183905283916001600160a01b038616915f917f1b3d7edb2e9c0b0e7c525b20aaaef0f5940d2ed71663c7d39266ecafac72885991015b60405180910390a4505050565b5f805f83805480602002602001604051908101604052809291908181526020018280548015612c4457602002820191905f5260205f20905b815481526020019060010190808311612c30575b505050505090505f5b8151811015612ed4575f828281518110612c6957612c69613fd0565b602002602001015190505f7f00000000000000000000000000000000000000000000000000000000000000006001600160a01b031663d09ef241836040518263ffffffff1660e01b8152600401612cc291815260200190565b606060405180830381865afa158015612cdd573d5f803e3d5ffd5b505050506040513d601f19601f82011682018060405250810190612d019190614137565b604081015190915067ffffffffffffffff1615612dd557604080517f38926b6d0000000000000000000000000000000000000000000000000000000081526004810184905260248101919091525f60448201527f00000000000000000000000000000000000000000000000000000000000000006001600160a01b0316906338926b6d906064016020604051808303815f875af1158015612da4573d5f803e3d5ffd5b505050506040513d601f19601f82011682018060405250810190612dc89190613fb9565b612dd2908661399a565b94505b602081015167ffffffffffffffff1615612eca576040805180820182528381525f6020820181815292517f14d6a9eb00000000000000000000000000000000000000000000000000000000815291516004830152915167ffffffffffffffff1660248201526060604482015260648101919091527f00000000000000000000000000000000000000000000000000000000000000006001600160a01b0316906314d6a9eb906084016020604051808303815f875af1158015612e99573d5f803e3d5ffd5b505050506040513d601f19601f82011682018060405250810190612ebd9190613fb9565b612ec7908761399a565b95505b5050600101612c4d565b50505f90925591565b6001600160a01b0383165f90815260036020908152604080832085845290915281208054839290612f0f908490613987565b9091555050604080513381526020810183905283915f916001600160a01b038716917f1b3d7edb2e9c0b0e7c525b20aaaef0f5940d2ed71663c7d39266ecafac7288599101612beb565b5f80546001600160a01b038381166001600160a01b0319831681178455604051919092169283917f8be0079c531659141344cd1fd0a4f28419497f9722a3daafe3b4186f6b6457e09190a35050565b5f612fca606084901b612fbd8660020b61305f565b8082061515851691040190565b949350505050565b5f6207a11f19627fffff851601600281900b82128281612ff457825f03612ff6565b825b62ffffff1690505f61302f61300b8389613c15565b620f424088613021578581830615151691040190565b808206151586151691040190565b9050826130445761303f8161409a565b613046565b805b98975050505050505050565b606061077d83835f613327565b5f613069826133e0565b815f600282900b811361307c5781613085565b613085826141f4565b62ffffff81169150600116156130a9576bfff97272373d413259a4699092506130ba565b6c0100000000000000000000000092505b60028116156130d95760606bfff2e50f5f656932ef12357c8402901c92505b60048116156130f85760606bffe5caca7e10e4e61c3624ea8402901c92505b60088116156131175760606bffcb9843d60f6159c9db58838402901c92505b60108116156131365760606bff973b41fa98c081472e68968402901c92505b60208116156131555760606bff2ea16466c96a3843ec78b38402901c92505b60408116156131745760606bfe5dee046a99a2a811c461f18402901c92505b60808116156131935760606bfcbe86c7900a88aedcffc83b8402901c92505b6101008116156131b35760606bf987a7253ac413176f2b074c8402901c92505b6102008116156131d35760606bf3392b0822b70005940c7a398402901c92505b6104008116156131f35760606be7159475a2c29b7443b29c7f8402901c92505b6108008116156132135760606bd097f3bdfd2022b8845ad8f78402901c92505b6110008116156132335760606ba9f746462d870fdf8a65dc1f8402901c92505b6120008116156132535760606b70d869a156d2a1b890bb3df68402901c92505b6140008116156132735760606b31be135f97d08fd9812315058402901c92505b6180008116156132935760606b09aa508b5b7a84e1c677de548402901c92505b620100008116156132b35760606a5d6af8dedb81196699c3298402901c92505b620200008116156132d2576060692216e584f5fa1ea926048402901c92505b620400008116156132ef57606067048a170391f7dc428402901c92505b5f8260020b13156133205761331d837801000000000000000000000000000000000000000000000000614214565b92505b5050919050565b60608147101561336c576040517fcf47918100000000000000000000000000000000000000000000000000000000815247600482015260248101839052604401611537565b5f80856001600160a01b031684866040516133879190614233565b5f6040518083038185875af1925050503d805f81146133c1576040519150601f19603f3d011682016040523d82523d5f602084013e6133c6565b606091505b50915091506133d686838361343c565b9695505050505050565b6207ffff600282900b138061340557506133fc6207ffff6141f4565b60020b8160020b125b15611549576040517fce8ef7fc00000000000000000000000000000000000000000000000000000000815260040160405180910390fd5b6060826134515761344c826134b1565b61077d565b815115801561346857506001600160a01b0384163b155b156134aa576040517f9996b3150000000000000000000000000000000000000000000000000000000081526001600160a01b0385166004820152602401611537565b508061077d565b8051156134c15780518082602001fd5b6040517fd6bda27500000000000000000000000000000000000000000000000000000000815260040160405180910390fd5b6001600160a01b0381168114611549575f80fd5b5f8060408385031215613518575f80fd5b8235613523816134f3565b946020939093013593505050565b5f60208284031215613541575f80fd5b81356001600160e01b03198116811461077d575f80fd5b5f805f6060848603121561356a575f80fd5b8335613575816134f3565b95602085013595506040909401359392505050565b5f805f806080858703121561359d575f80fd5b5050823594602084013594506040840135936060013592509050565b5f805f604084860312156135cb575f80fd5b83356135d6816134f3565b9250602084013567ffffffffffffffff808211156135f2575f80fd5b818601915086601f830112613605575f80fd5b813581811115613613575f80fd5b876020828501011115613624575f80fd5b6020830194508093505050509250925092565b5f81518084528060208401602086015e5f602082860101526020601f19601f83011685010191505092915050565b602081525f61077d6020830184613637565b5f60208284031215613687575f80fd5b5035919050565b5f8082840360a08112156136a0575f80fd5b833592506080601f19820112156136b5575f80fd5b506020830190509250929050565b8015158114611549575f80fd5b5f80604083850312156136e1575f80fd5b82356136ec816134f3565b915060208301356136fc816136c3565b809150509250929050565b5f805f60608486031215613719575f80fd5b8335613724816134f3565b92506020840135613734816134f3565b929592945050506040919091013590565b5f60208284031215613755575f80fd5b81356001600160c01b038116811461077d575f80fd5b5f806040838503121561377c575f80fd5b8235915060208301356136fc816134f3565b5f60c0828403121561379e575f80fd5b50919050565b5f805f806101c085870312156137b8575f80fd5b6137c2868661378e565b93506137d18660c0870161378e565b925061018085013591506101a08501356137ea816134f3565b939692955090935050565b5f8060408385031215613806575f80fd5b8235613811816134f3565b915060208301356136fc816134f3565b5f60208284031215613831575f80fd5b813561077d816134f3565b5f815180845260208085019450602084015f5b8381101561386b5781518752958201959082019060010161384f565b509495945050505050565b602081525f6001600160c01b03808451166020840152806020850151166040840152506001600160a01b03604084015116606083015260608301516080830152608083015160a083015260a083015160e060c08401526138da61010084018261383c565b905060c0840151601f198483030160e0850152611bd3828261383c565b8251815260208084015181830152604080850151818401528351606084015290830151608083015282015160a082015260c0810161077d565b5f805f8060808587031215613943575f80fd5b843561394e816134f3565b9350602085013561395e816134f3565b93969395505050506040820135916060013590565b634e487b7160e01b5f52601160045260245ffd5b818103818111156106c4576106c4613973565b808201808211156106c4576106c4613973565b634e487b7160e01b5f52604160045260245ffd5b60405160c0810167ffffffffffffffff811182821017156139e4576139e46139ad565b60405290565b6040805190810167ffffffffffffffff811182821017156139e4576139e46139ad565b604051601f8201601f1916810167ffffffffffffffff81118282101715613a3657613a366139ad565b604052919050565b67ffffffffffffffff81168114611549575f80fd5b62ffffff81168114611549575f80fd5b5f60c08284031215613a73575f80fd5b613a7b6139c1565b8251613a86816134f3565b81526020830151613a9681613a3e565b60208201526040830151613aa9816134f3565b60408201526060830151613abc81613a53565b60608201526080830151613acf816134f3565b608082015260a0830151613ae281613a53565b60a08201529392505050565b5f60208284031215613afe575f80fd5b815160ff8116811461077d575f80fd5b60ff82811682821603908111156106c4576106c4613973565b600181815b80851115613b6157815f1904821115613b4757613b47613973565b80851615613b5457918102915b93841c9390800290613b2c565b509250929050565b5f82613b77575060016106c4565b81613b8357505f6106c4565b8160018114613b995760028114613ba357613bbf565b60019150506106c4565b60ff841115613bb457613bb4613973565b50506001821b6106c4565b5060208310610133831016604e8410600b8410161715613be2575081810a6106c4565b613bec8383613b27565b805f1904821115613bff57613bff613973565b029392505050565b5f61077d60ff841683613b69565b80820281158282048414176106c4576106c4613973565b6001600160a01b0383168152604060208201525f612fca6040830184613637565b5f6020808385031215613c5e575f80fd5b825167ffffffffffffffff80821115613c75575f80fd5b818501915085601f830112613c88575f80fd5b815181811115613c9a57613c9a6139ad565b613cac601f8201601f19168501613a0d565b91508082528684828501011115613cc1575f80fd5b808484018584015e5f90820190930192909252509392505050565b5f8060408385031215613ced575f80fd5b505080516020909101519092909150565b818382375f9101908152919050565b5f82601f830112613d1c575f80fd5b8151602067ffffffffffffffff821115613d3857613d386139ad565b613d46818360051b01613a0d565b82815260069290921b84018101918181019086841115613d64575f80fd5b8286015b84811015613db85760408189031215613d7f575f80fd5b613d876139ea565b81518060020b8114613d97575f80fd5b815281850151613da681613a3e565b81860152835291830191604001613d68565b509695505050505050565b5f8060408385031215613dd4575f80fd5b825167ffffffffffffffff80821115613deb575f80fd5b613df786838701613d0d565b93506020850151915080821115613e0c575f80fd5b50613e1985828601613d0d565b9150509250929050565b5f60c08284031215613e33575f80fd5b613e3b6139c1565b8235613e46816134f3565b81526020830135613e5681613a3e565b60208201526040830135613e69816134f3565b60408201526060830135613e7c81613a53565b60608201526080830135613e8f816134f3565b608082015260a0830135613ae281613a53565b5f60208284031215613eb2575f80fd5b815161077d816136c3565b8035613ec8816134f3565b6001600160a01b039081168352602082013590613ee482613a3e565b67ffffffffffffffff8216602085015260408301359150613f04826134f3565b9081166040840152606082013590613f1b82613a53565b62ffffff9182166060850152608083013591613f36836134f3565b918116608085015260a083013591613f4d83613a53565b80831660a08601525050505050565b613f668183613ebd565b60e060c082018190525f9082015261010001919050565b6101c08101613f8c8287613ebd565b613f9960c0830186613ebd565b836101808301526001600160a01b0383166101a083015295945050505050565b5f60208284031215613fc9575f80fd5b5051919050565b634e487b7160e01b5f52603260045260245ffd5b5f61014061404c8385516001600160a01b0380825116835267ffffffffffffffff6020830151166020840152806040830151166040840152606082015162ffffff80821660608601528260808501511660808601528060a08501511660a08601525050505050565b602084015160020b60c0840152604084015167ffffffffffffffff1660e08401526060909301516001600160a01b03166101008301525061012081018290525f918101919091526101600190565b5f7f800000000000000000000000000000000000000000000000000000000000000082036140ca576140ca613973565b505f0390565b60c081016106c482846001600160a01b0380825116835267ffffffffffffffff6020830151166020840152806040830151166040840152606082015162ffffff80821660608601528260808501511660808601528060a08501511660a08601525050505050565b5f60608284031215614147575f80fd5b6040516060810181811067ffffffffffffffff8211171561416a5761416a6139ad565b6040528251614178816134f3565b8152602083015161418881613a3e565b6020820152604083015161419b81613a3e565b60408201529392505050565b8082018281125f8312801582168215821617156141c6576141c6613973565b505092915050565b8181035f8312801583831316838312821617156141ed576141ed613973565b5092915050565b5f8160020b627fffff19810361420c5761420c613973565b5f0392915050565b5f8261422e57634e487b7160e01b5f52601260045260245ffd5b500490565b5f82518060208501845e5f92019182525091905056fea26469706673582212209c2e300bbfaf88a851f99d0060cc89b890a11c779c246302f49929a98a64034f64736f6c63430008190033",
  "devdoc": {
    "errors": {
      "AddressEmptyCode(address)": [
        {
          "details": "There's no code at `target` (it is not a contract)."
        }
      ],
      "FailedCall()": [
        {
          "details": "A call to an address target failed. The target may have reverted."
        }
      ],
      "InsufficientBalance(uint256,uint256)": [
        {
          "details": "The ETH balance of the account is not enough to perform the operation."
        }
      ],
      "OwnableInvalidOwner(address)": [
        {
          "details": "The owner is not a valid owner account. (eg. `address(0)`)"
        }
      ],
      "OwnableUnauthorizedAccount(address)": [
        {
          "details": "The caller account is not authorized to perform an operation."
        }
      ],
      "SafeERC20FailedOperation(address)": [
        {
          "details": "An operation with an ERC-20 token failed."
        }
      ]
    },
    "kind": "dev",
    "methods": {
      "acceptOwnership()": {
        "details": "The new owner accepts the ownership transfer."
      },
      "lockAcquired(address,bytes)": {
        "params": {
          "data": "The data that was passed to the call to lock"
        },
        "returns": {
          "_0": "Any data that you want to be returned from the lock call"
        }
      },
      "owner()": {
        "details": "Returns the address of the current owner."
      },
      "pendingOwner()": {
        "details": "Returns the address of the pending owner."
      },
      "renounceOwnership()": {
        "details": "Leaves the contract without owner. It will not be possible to call `onlyOwner` functions. Can only be called by the current owner. NOTE: Renouncing ownership will leave the contract without an owner, thereby disabling any functionality that is only available to the owner."
      },
      "transferOwnership(address)": {
        "details": "Starts the ownership transfer of the contract to a new account. Replaces the pending transfer if there is one. Can only be called by the current owner."
      }
    },
    "version": 1
  },
  "userdoc": {
    "errors": {
      "ERC20TransferFailed()": [
        {
          "notice": "Thrown when an ERC20 transfer fails"
        }
      ],
      "NativeTransferFailed()": [
        {
          "notice": "Thrown when a native transfer fails"
        }
      ]
    },
    "kind": "user",
    "methods": {
      "lockAcquired(address,bytes)": {
        "notice": "Called by the book manager on `msg.sender` when a lock is acquired"
      }
    },
    "version": 1
  },
  "storageLayout": {
    "storage": [
      {
        "astId": 8,
        "contract": "src/Rebalancer.sol:Rebalancer",
        "label": "_owner",
        "offset": 0,
        "slot": "0",
        "type": "t_address"
      },
      {
        "astId": 156,
        "contract": "src/Rebalancer.sol:Rebalancer",
        "label": "_pendingOwner",
        "offset": 0,
        "slot": "1",
        "type": "t_address"
      },
      {
        "astId": 6044,
        "contract": "src/Rebalancer.sol:Rebalancer",
        "label": "isOperator",
        "offset": 0,
        "slot": "2",
        "type": "t_mapping(t_address,t_mapping(t_address,t_bool))"
      },
      {
        "astId": 6050,
        "contract": "src/Rebalancer.sol:Rebalancer",
        "label": "balanceOf",
        "offset": 0,
        "slot": "3",
        "type": "t_mapping(t_address,t_mapping(t_uint256,t_uint256))"
      },
      {
        "astId": 6058,
        "contract": "src/Rebalancer.sol:Rebalancer",
        "label": "allowance",
        "offset": 0,
        "slot": "4",
        "type": "t_mapping(t_address,t_mapping(t_address,t_mapping(t_uint256,t_uint256)))"
      },
      {
        "astId": 10385,
        "contract": "src/Rebalancer.sol:Rebalancer",
        "label": "totalSupply",
        "offset": 0,
        "slot": "5",
        "type": "t_mapping(t_uint256,t_uint256)"
      },
      {
        "astId": 7076,
        "contract": "src/Rebalancer.sol:Rebalancer",
        "label": "_pools",
        "offset": 0,
        "slot": "6",
        "type": "t_mapping(t_bytes32,t_struct(Pool)9999_storage)"
      },
      {
        "astId": 7082,
        "contract": "src/Rebalancer.sol:Rebalancer",
        "label": "bookPair",
        "offset": 0,
        "slot": "7",
        "type": "t_mapping(t_userDefinedValueType(BookId)4898,t_userDefinedValueType(BookId)4898)"
      }
    ],
    "types": {
      "t_address": {
        "encoding": "inplace",
        "label": "address",
        "numberOfBytes": "20"
      },
      "t_array(t_userDefinedValueType(OrderId)5333)dyn_storage": {
        "base": "t_userDefinedValueType(OrderId)5333",
        "encoding": "dynamic_array",
        "label": "OrderId[]",
        "numberOfBytes": "32"
      },
      "t_bool": {
        "encoding": "inplace",
        "label": "bool",
        "numberOfBytes": "1"
      },
      "t_bytes32": {
        "encoding": "inplace",
        "label": "bytes32",
        "numberOfBytes": "32"
      },
      "t_contract(IStrategy)10375": {
        "encoding": "inplace",
        "label": "contract IStrategy",
        "numberOfBytes": "20"
      },
      "t_mapping(t_address,t_bool)": {
        "encoding": "mapping",
        "key": "t_address",
        "label": "mapping(address => bool)",
        "numberOfBytes": "32",
        "value": "t_bool"
      },
      "t_mapping(t_address,t_mapping(t_address,t_bool))": {
        "encoding": "mapping",
        "key": "t_address",
        "label": "mapping(address => mapping(address => bool))",
        "numberOfBytes": "32",
        "value": "t_mapping(t_address,t_bool)"
      },
      "t_mapping(t_address,t_mapping(t_address,t_mapping(t_uint256,t_uint256)))": {
        "encoding": "mapping",
        "key": "t_address",
        "label": "mapping(address => mapping(address => mapping(uint256 => uint256)))",
        "numberOfBytes": "32",
        "value": "t_mapping(t_address,t_mapping(t_uint256,t_uint256))"
      },
      "t_mapping(t_address,t_mapping(t_uint256,t_uint256))": {
        "encoding": "mapping",
        "key": "t_address",
        "label": "mapping(address => mapping(uint256 => uint256))",
        "numberOfBytes": "32",
        "value": "t_mapping(t_uint256,t_uint256)"
      },
      "t_mapping(t_bytes32,t_struct(Pool)9999_storage)": {
        "encoding": "mapping",
        "key": "t_bytes32",
        "label": "mapping(bytes32 => struct IPoolStorage.Pool)",
        "numberOfBytes": "32",
        "value": "t_struct(Pool)9999_storage"
      },
      "t_mapping(t_uint256,t_uint256)": {
        "encoding": "mapping",
        "key": "t_uint256",
        "label": "mapping(uint256 => uint256)",
        "numberOfBytes": "32",
        "value": "t_uint256"
      },
      "t_mapping(t_userDefinedValueType(BookId)4898,t_userDefinedValueType(BookId)4898)": {
        "encoding": "mapping",
        "key": "t_userDefinedValueType(BookId)4898",
        "label": "mapping(BookId => BookId)",
        "numberOfBytes": "32",
        "value": "t_userDefinedValueType(BookId)4898"
      },
      "t_struct(Pool)9999_storage": {
        "encoding": "inplace",
        "label": "struct IPoolStorage.Pool",
        "members": [
          {
            "astId": 9980,
            "contract": "src/Rebalancer.sol:Rebalancer",
            "label": "bookIdA",
            "offset": 0,
            "slot": "0",
            "type": "t_userDefinedValueType(BookId)4898"
          },
          {
            "astId": 9983,
            "contract": "src/Rebalancer.sol:Rebalancer",
            "label": "bookIdB",
            "offset": 0,
            "slot": "1",
            "type": "t_userDefinedValueType(BookId)4898"
          },
          {
            "astId": 9986,
            "contract": "src/Rebalancer.sol:Rebalancer",
            "label": "strategy",
            "offset": 0,
            "slot": "2",
            "type": "t_contract(IStrategy)10375"
          },
          {
            "astId": 9988,
            "contract": "src/Rebalancer.sol:Rebalancer",
            "label": "reserveA",
            "offset": 0,
            "slot": "3",
            "type": "t_uint256"
          },
          {
            "astId": 9990,
            "contract": "src/Rebalancer.sol:Rebalancer",
            "label": "reserveB",
            "offset": 0,
            "slot": "4",
            "type": "t_uint256"
          },
          {
            "astId": 9994,
            "contract": "src/Rebalancer.sol:Rebalancer",
            "label": "orderListA",
            "offset": 0,
            "slot": "5",
            "type": "t_array(t_userDefinedValueType(OrderId)5333)dyn_storage"
          },
          {
            "astId": 9998,
            "contract": "src/Rebalancer.sol:Rebalancer",
            "label": "orderListB",
            "offset": 0,
            "slot": "6",
            "type": "t_array(t_userDefinedValueType(OrderId)5333)dyn_storage"
          }
        ],
        "numberOfBytes": "224"
      },
      "t_uint256": {
        "encoding": "inplace",
        "label": "uint256",
        "numberOfBytes": "32"
      },
      "t_userDefinedValueType(BookId)4898": {
        "encoding": "inplace",
        "label": "BookId",
        "numberOfBytes": "24"
      },
      "t_userDefinedValueType(OrderId)5333": {
        "encoding": "inplace",
        "label": "OrderId",
        "numberOfBytes": "32"
      }
    }
  }
}