{
  "address": "0x2ff23716b1CB9D414EFeFBDB4f4c711345035B6E",
  "abi": [
    {
      "inputs": [
        {
          "internalType": "contract IBookManager",
          "name": "bookManager_",
          "type": "address"
        },
        {
          "internalType": "address",
          "name": "initialOwner_",
          "type": "address"
        }
      ],
      "stateMutability": "nonpayable",
      "type": "constructor"
    },
    {
      "inputs": [
        {
          "internalType": "address",
          "name": "target",
          "type": "address"
        }
      ],
      "name": "AddressEmptyCode",
      "type": "error"
    },
    {
      "inputs": [],
      "name": "ERC20TransferFailed",
      "type": "error"
    },
    {
      "inputs": [],
      "name": "FailedCall",
      "type": "error"
    },
    {
      "inputs": [
        {
          "internalType": "uint256",
          "name": "balance",
          "type": "uint256"
        },
        {
          "internalType": "uint256",
          "name": "needed",
          "type": "uint256"
        }
      ],
      "name": "InsufficientBalance",
      "type": "error"
    },
    {
      "inputs": [],
      "name": "InvalidAmount",
      "type": "error"
    },
    {
      "inputs": [],
      "name": "InvalidBookPair",
      "type": "error"
    },
    {
      "inputs": [],
      "name": "InvalidHook",
      "type": "error"
    },
    {
      "inputs": [],
      "name": "InvalidLockAcquiredSender",
      "type": "error"
    },
    {
      "inputs": [],
      "name": "InvalidLockCaller",
      "type": "error"
    },
    {
      "inputs": [],
      "name": "InvalidMaker",
      "type": "error"
    },
    {
      "inputs": [],
      "name": "InvalidTick",
      "type": "error"
    },
    {
      "inputs": [],
      "name": "InvalidValue",
      "type": "error"
    },
    {
      "inputs": [],
      "name": "LockFailure",
      "type": "error"
    },
    {
      "inputs": [],
      "name": "NativeTransferFailed",
      "type": "error"
    },
    {
      "inputs": [],
      "name": "NotSelf",
      "type": "error"
    },
    {
      "inputs": [
        {
          "internalType": "address",
          "name": "owner",
          "type": "address"
        }
      ],
      "name": "OwnableInvalidOwner",
      "type": "error"
    },
    {
      "inputs": [
        {
          "internalType": "address",
          "name": "account",
          "type": "address"
        }
      ],
      "name": "OwnableUnauthorizedAccount",
      "type": "error"
    },
    {
      "inputs": [
        {
          "internalType": "address",
          "name": "token",
          "type": "address"
        }
      ],
      "name": "SafeERC20FailedOperation",
      "type": "error"
    },
    {
      "anonymous": false,
      "inputs": [
        {
          "indexed": true,
          "internalType": "address",
          "name": "owner",
          "type": "address"
        },
        {
          "indexed": true,
          "internalType": "address",
          "name": "spender",
          "type": "address"
        },
        {
          "indexed": true,
          "internalType": "uint256",
          "name": "id",
          "type": "uint256"
        },
        {
          "indexed": false,
          "internalType": "uint256",
          "name": "amount",
          "type": "uint256"
        }
      ],
      "name": "Approval",
      "type": "event"
    },
    {
      "anonymous": false,
      "inputs": [
        {
          "indexed": true,
          "internalType": "address",
          "name": "user",
          "type": "address"
        },
        {
          "indexed": true,
          "internalType": "bytes32",
          "name": "key",
          "type": "bytes32"
        },
        {
          "indexed": false,
          "internalType": "uint256",
          "name": "amountA",
          "type": "uint256"
        },
        {
          "indexed": false,
          "internalType": "uint256",
          "name": "amountB",
          "type": "uint256"
        },
        {
          "indexed": false,
          "internalType": "uint256",
          "name": "lpAmount",
          "type": "uint256"
        }
      ],
      "name": "Burn",
      "type": "event"
    },
    {
      "anonymous": false,
      "inputs": [
        {
          "indexed": true,
          "internalType": "address",
          "name": "user",
          "type": "address"
        },
        {
          "indexed": true,
          "internalType": "bytes32",
          "name": "key",
          "type": "bytes32"
        },
        {
          "indexed": false,
          "internalType": "uint256",
          "name": "amountA",
          "type": "uint256"
        },
        {
          "indexed": false,
          "internalType": "uint256",
          "name": "amountB",
          "type": "uint256"
        },
        {
          "indexed": false,
          "internalType": "uint256",
          "name": "lpAmount",
          "type": "uint256"
        }
      ],
      "name": "Mint",
      "type": "event"
    },
    {
      "anonymous": false,
      "inputs": [
        {
          "indexed": true,
          "internalType": "bytes32",
          "name": "key",
          "type": "bytes32"
        },
        {
          "indexed": true,
          "internalType": "BookId",
          "name": "bookIdA",
          "type": "uint192"
        },
        {
          "indexed": true,
          "internalType": "BookId",
          "name": "bookIdB",
          "type": "uint192"
        },
        {
          "indexed": false,
          "internalType": "address",
          "name": "strategy",
          "type": "address"
        }
      ],
      "name": "Open",
      "type": "event"
    },
    {
      "anonymous": false,
      "inputs": [
        {
          "indexed": true,
          "internalType": "address",
          "name": "owner",
          "type": "address"
        },
        {
          "indexed": true,
          "internalType": "address",
          "name": "operator",
          "type": "address"
        },
        {
          "indexed": false,
          "internalType": "bool",
          "name": "approved",
          "type": "bool"
        }
      ],
      "name": "OperatorSet",
      "type": "event"
    },
    {
      "anonymous": false,
      "inputs": [
        {
          "indexed": true,
          "internalType": "address",
          "name": "previousOwner",
          "type": "address"
        },
        {
          "indexed": true,
          "internalType": "address",
          "name": "newOwner",
          "type": "address"
        }
      ],
      "name": "OwnershipTransferStarted",
      "type": "event"
    },
    {
      "anonymous": false,
      "inputs": [
        {
          "indexed": true,
          "internalType": "address",
          "name": "previousOwner",
          "type": "address"
        },
        {
          "indexed": true,
          "internalType": "address",
          "name": "newOwner",
          "type": "address"
        }
      ],
      "name": "OwnershipTransferred",
      "type": "event"
    },
    {
      "anonymous": false,
      "inputs": [
        {
          "indexed": true,
          "internalType": "bytes32",
          "name": "key",
          "type": "bytes32"
        }
      ],
      "name": "Rebalance",
      "type": "event"
    },
    {
      "anonymous": false,
      "inputs": [
        {
          "indexed": false,
          "internalType": "address",
          "name": "caller",
          "type": "address"
        },
        {
          "indexed": true,
          "internalType": "address",
          "name": "from",
          "type": "address"
        },
        {
          "indexed": true,
          "internalType": "address",
          "name": "to",
          "type": "address"
        },
        {
          "indexed": true,
          "internalType": "uint256",
          "name": "id",
          "type": "uint256"
        },
        {
          "indexed": false,
          "internalType": "uint256",
          "name": "amount",
          "type": "uint256"
        }
      ],
      "name": "Transfer",
      "type": "event"
    },
    {
      "inputs": [
        {
          "internalType": "bytes32",
          "name": "key",
          "type": "bytes32"
        },
        {
          "internalType": "address",
          "name": "user",
          "type": "address"
        },
        {
          "internalType": "uint256",
          "name": "burnAmount",
          "type": "uint256"
        }
      ],
      "name": "_burnAndRebalance",
      "outputs": [
        {
          "internalType": "uint256",
          "name": "withdrawalA",
          "type": "uint256"
        },
        {
          "internalType": "uint256",
          "name": "withdrawalB",
          "type": "uint256"
        }
      ],
      "stateMutability": "nonpayable",
      "type": "function"
    },
    {
      "inputs": [
        {
          "components": [
            {
              "internalType": "Currency",
              "name": "base",
              "type": "address"
            },
            {
              "internalType": "uint64",
              "name": "unitSize",
              "type": "uint64"
            },
            {
              "internalType": "Currency",
              "name": "quote",
              "type": "address"
            },
            {
              "internalType": "FeePolicy",
              "name": "makerPolicy",
              "type": "uint24"
            },
            {
              "internalType": "contract IHooks",
              "name": "hooks",
              "type": "address"
            },
            {
              "internalType": "FeePolicy",
              "name": "takerPolicy",
              "type": "uint24"
            }
          ],
          "internalType": "struct IBookManager.BookKey",
          "name": "bookKeyA",
          "type": "tuple"
        },
        {
          "components": [
            {
              "internalType": "Currency",
              "name": "base",
              "type": "address"
            },
            {
              "internalType": "uint64",
              "name": "unitSize",
              "type": "uint64"
            },
            {
              "internalType": "Currency",
              "name": "quote",
              "type": "address"
            },
            {
              "internalType": "FeePolicy",
              "name": "makerPolicy",
              "type": "uint24"
            },
            {
              "internalType": "contract IHooks",
              "name": "hooks",
              "type": "address"
            },
            {
              "internalType": "FeePolicy",
              "name": "takerPolicy",
              "type": "uint24"
            }
          ],
          "internalType": "struct IBookManager.BookKey",
          "name": "bookKeyB",
          "type": "tuple"
        },
        {
          "internalType": "address",
          "name": "strategy",
          "type": "address"
        }
      ],
      "name": "_open",
      "outputs": [
        {
          "internalType": "bytes32",
          "name": "key",
          "type": "bytes32"
        }
      ],
      "stateMutability": "nonpayable",
      "type": "function"
    },
    {
      "inputs": [],
      "name": "acceptOwnership",
      "outputs": [],
      "stateMutability": "nonpayable",
      "type": "function"
    },
    {
      "inputs": [
        {
          "internalType": "address",
          "name": "",
          "type": "address"
        },
        {
          "internalType": "address",
          "name": "",
          "type": "address"
        },
        {
          "internalType": "uint256",
          "name": "",
          "type": "uint256"
        }
      ],
      "name": "allowance",
      "outputs": [
        {
          "internalType": "uint256",
          "name": "",
          "type": "uint256"
        }
      ],
      "stateMutability": "view",
      "type": "function"
    },
    {
      "inputs": [
        {
          "internalType": "address",
          "name": "spender",
          "type": "address"
        },
        {
          "internalType": "uint256",
          "name": "id",
          "type": "uint256"
        },
        {
          "internalType": "uint256",
          "name": "amount",
          "type": "uint256"
        }
      ],
      "name": "approve",
      "outputs": [
        {
          "internalType": "bool",
          "name": "",
          "type": "bool"
        }
      ],
      "stateMutability": "nonpayable",
      "type": "function"
    },
    {
      "inputs": [
        {
          "internalType": "address",
          "name": "",
          "type": "address"
        },
        {
          "internalType": "uint256",
          "name": "",
          "type": "uint256"
        }
      ],
      "name": "balanceOf",
      "outputs": [
        {
          "internalType": "uint256",
          "name": "",
          "type": "uint256"
        }
      ],
      "stateMutability": "view",
      "type": "function"
    },
    {
      "inputs": [],
      "name": "bookManager",
      "outputs": [
        {
          "internalType": "contract IBookManager",
          "name": "",
          "type": "address"
        }
      ],
      "stateMutability": "view",
      "type": "function"
    },
    {
      "inputs": [
        {
          "internalType": "BookId",
          "name": "",
          "type": "uint192"
        }
      ],
      "name": "bookPair",
      "outputs": [
        {
          "internalType": "BookId",
          "name": "",
          "type": "uint192"
        }
      ],
      "stateMutability": "view",
      "type": "function"
    },
    {
      "inputs": [
        {
          "internalType": "bytes32",
          "name": "key",
          "type": "bytes32"
        },
        {
          "internalType": "uint256",
          "name": "amount",
          "type": "uint256"
        }
      ],
      "name": "burn",
      "outputs": [
        {
          "internalType": "uint256",
          "name": "",
          "type": "uint256"
        },
        {
          "internalType": "uint256",
          "name": "",
          "type": "uint256"
        }
      ],
      "stateMutability": "nonpayable",
      "type": "function"
    },
    {
      "inputs": [
        {
          "internalType": "bytes32",
          "name": "key",
          "type": "bytes32"
        }
      ],
      "name": "getBookPairs",
      "outputs": [
        {
          "internalType": "BookId",
          "name": "",
          "type": "uint192"
        },
        {
          "internalType": "BookId",
          "name": "",
          "type": "uint192"
        }
      ],
      "stateMutability": "view",
      "type": "function"
    },
    {
      "inputs": [
        {
          "internalType": "bytes32",
          "name": "key",
          "type": "bytes32"
        }
      ],
      "name": "getLiquidity",
      "outputs": [
        {
          "internalType": "uint256",
          "name": "liquidityA",
          "type": "uint256"
        },
        {
          "internalType": "uint256",
          "name": "liquidityB",
          "type": "uint256"
        }
      ],
      "stateMutability": "view",
      "type": "function"
    },
    {
      "inputs": [
        {
          "internalType": "bytes32",
          "name": "key",
          "type": "bytes32"
        }
      ],
      "name": "getPool",
      "outputs": [
        {
          "components": [
            {
              "internalType": "BookId",
              "name": "bookIdA",
              "type": "uint192"
            },
            {
              "internalType": "BookId",
              "name": "bookIdB",
              "type": "uint192"
            },
            {
              "internalType": "contract IStrategy",
              "name": "strategy",
              "type": "address"
            },
            {
              "internalType": "uint256",
              "name": "reserveA",
              "type": "uint256"
            },
            {
              "internalType": "uint256",
              "name": "reserveB",
              "type": "uint256"
            },
            {
              "internalType": "OrderId[]",
              "name": "orderListA",
              "type": "uint256[]"
            },
            {
              "internalType": "OrderId[]",
              "name": "orderListB",
              "type": "uint256[]"
            }
          ],
          "internalType": "struct IRebalancer.Pool",
          "name": "",
          "type": "tuple"
        }
      ],
      "stateMutability": "view",
      "type": "function"
    },
    {
      "inputs": [
        {
          "internalType": "address",
          "name": "",
          "type": "address"
        },
        {
          "internalType": "address",
          "name": "",
          "type": "address"
        }
      ],
      "name": "isOperator",
      "outputs": [
        {
          "internalType": "bool",
          "name": "",
          "type": "bool"
        }
      ],
      "stateMutability": "view",
      "type": "function"
    },
    {
      "inputs": [
        {
          "internalType": "address",
          "name": "lockCaller",
          "type": "address"
        },
        {
          "internalType": "bytes",
          "name": "data",
          "type": "bytes"
        }
      ],
      "name": "lockAcquired",
      "outputs": [
        {
          "internalType": "bytes",
          "name": "",
          "type": "bytes"
        }
      ],
      "stateMutability": "nonpayable",
      "type": "function"
    },
    {
      "inputs": [
        {
          "internalType": "bytes32",
          "name": "key",
          "type": "bytes32"
        },
        {
          "internalType": "uint256",
          "name": "amountA",
          "type": "uint256"
        },
        {
          "internalType": "uint256",
          "name": "amountB",
          "type": "uint256"
        }
      ],
      "name": "mint",
      "outputs": [
        {
          "internalType": "uint256",
          "name": "mintAmount",
          "type": "uint256"
        }
      ],
      "stateMutability": "payable",
      "type": "function"
    },
    {
      "inputs": [
        {
          "components": [
            {
              "internalType": "Currency",
              "name": "base",
              "type": "address"
            },
            {
              "internalType": "uint64",
              "name": "unitSize",
              "type": "uint64"
            },
            {
              "internalType": "Currency",
              "name": "quote",
              "type": "address"
            },
            {
              "internalType": "FeePolicy",
              "name": "makerPolicy",
              "type": "uint24"
            },
            {
              "internalType": "contract IHooks",
              "name": "hooks",
              "type": "address"
            },
            {
              "internalType": "FeePolicy",
              "name": "takerPolicy",
              "type": "uint24"
            }
          ],
          "internalType": "struct IBookManager.BookKey",
          "name": "bookKeyA",
          "type": "tuple"
        },
        {
          "components": [
            {
              "internalType": "Currency",
              "name": "base",
              "type": "address"
            },
            {
              "internalType": "uint64",
              "name": "unitSize",
              "type": "uint64"
            },
            {
              "internalType": "Currency",
              "name": "quote",
              "type": "address"
            },
            {
              "internalType": "FeePolicy",
              "name": "makerPolicy",
              "type": "uint24"
            },
            {
              "internalType": "contract IHooks",
              "name": "hooks",
              "type": "address"
            },
            {
              "internalType": "FeePolicy",
              "name": "takerPolicy",
              "type": "uint24"
            }
          ],
          "internalType": "struct IBookManager.BookKey",
          "name": "bookKeyB",
          "type": "tuple"
        },
        {
          "internalType": "address",
          "name": "strategy",
          "type": "address"
        }
      ],
      "name": "open",
      "outputs": [
        {
          "internalType": "bytes32",
          "name": "",
          "type": "bytes32"
        }
      ],
      "stateMutability": "nonpayable",
      "type": "function"
    },
    {
      "inputs": [],
      "name": "owner",
      "outputs": [
        {
          "internalType": "address",
          "name": "",
          "type": "address"
        }
      ],
      "stateMutability": "view",
      "type": "function"
    },
    {
      "inputs": [],
      "name": "pendingOwner",
      "outputs": [
        {
          "internalType": "address",
          "name": "",
          "type": "address"
        }
      ],
      "stateMutability": "view",
      "type": "function"
    },
    {
      "inputs": [
        {
          "internalType": "bytes32",
          "name": "key",
          "type": "bytes32"
        }
      ],
      "name": "rebalance",
      "outputs": [],
      "stateMutability": "nonpayable",
      "type": "function"
    },
    {
      "inputs": [],
      "name": "renounceOwnership",
      "outputs": [],
      "stateMutability": "nonpayable",
      "type": "function"
    },
    {
      "inputs": [
        {
          "internalType": "address",
          "name": "operator",
          "type": "address"
        },
        {
          "internalType": "bool",
          "name": "approved",
          "type": "bool"
        }
      ],
      "name": "setOperator",
      "outputs": [
        {
          "internalType": "bool",
          "name": "",
          "type": "bool"
        }
      ],
      "stateMutability": "nonpayable",
      "type": "function"
    },
    {
      "inputs": [
        {
          "internalType": "bytes32",
          "name": "key",
          "type": "bytes32"
        },
        {
          "internalType": "address",
          "name": "strategy",
          "type": "address"
        }
      ],
      "name": "setStrategy",
      "outputs": [],
      "stateMutability": "nonpayable",
      "type": "function"
    },
    {
      "inputs": [
        {
          "internalType": "bytes4",
          "name": "interfaceId",
          "type": "bytes4"
        }
      ],
      "name": "supportsInterface",
      "outputs": [
        {
          "internalType": "bool",
          "name": "",
          "type": "bool"
        }
      ],
      "stateMutability": "view",
      "type": "function"
    },
    {
      "inputs": [
        {
          "internalType": "uint256",
          "name": "",
          "type": "uint256"
        }
      ],
      "name": "totalSupply",
      "outputs": [
        {
          "internalType": "uint256",
          "name": "",
          "type": "uint256"
        }
      ],
      "stateMutability": "view",
      "type": "function"
    },
    {
      "inputs": [
        {
          "internalType": "address",
          "name": "receiver",
          "type": "address"
        },
        {
          "internalType": "uint256",
          "name": "id",
          "type": "uint256"
        },
        {
          "internalType": "uint256",
          "name": "amount",
          "type": "uint256"
        }
      ],
      "name": "transfer",
      "outputs": [
        {
          "internalType": "bool",
          "name": "",
          "type": "bool"
        }
      ],
      "stateMutability": "nonpayable",
      "type": "function"
    },
    {
      "inputs": [
        {
          "internalType": "address",
          "name": "sender",
          "type": "address"
        },
        {
          "internalType": "address",
          "name": "receiver",
          "type": "address"
        },
        {
          "internalType": "uint256",
          "name": "id",
          "type": "uint256"
        },
        {
          "internalType": "uint256",
          "name": "amount",
          "type": "uint256"
        }
      ],
      "name": "transferFrom",
      "outputs": [
        {
          "internalType": "bool",
          "name": "",
          "type": "bool"
        }
      ],
      "stateMutability": "nonpayable",
      "type": "function"
    },
    {
      "inputs": [
        {
          "internalType": "address",
          "name": "newOwner",
          "type": "address"
        }
      ],
      "name": "transferOwnership",
      "outputs": [],
      "stateMutability": "nonpayable",
      "type": "function"
    },
    {
      "stateMutability": "payable",
      "type": "receive"
    }
  ],
  "transactionHash": "0x8349c998edf06eb9df47667342f5a0e1181c91195b4cfb17fa04029f99d830e4",
  "args": [
    "0xC528b9ED5d56d1D0d3C18A2342954CE1069138a4",
    "0x5F79EE8f8fA862E98201120d83c4eC39D9468D49"
  ],
  "numDeployments": 1,
  "solcInputHash": "5ddc16c2f322caa059d8d7c4ac5e63ce",
  "bytecode": "0x60a060405234801561000f575f80fd5b50604051613e41380380613e4183398101604081905261002e916100f7565b806001600160a01b03811661005c57604051631e4fbdf760e01b81525f600482015260240160405180910390fd5b61006581610078565b50506001600160a01b031660805261012f565b600180546001600160a01b031916905561009181610094565b50565b5f80546001600160a01b038381166001600160a01b0319831681178455604051919092169283917f8be0079c531659141344cd1fd0a4f28419497f9722a3daafe3b4186f6b6457e09190a35050565b6001600160a01b0381168114610091575f80fd5b5f8060408385031215610108575f80fd5b8251610113816100e3565b6020840151909250610124816100e3565b809150509250929050565b608051613c596101e85f395f818161030c015281816106f30152818161078d01528181610b6001528181610cfd01528181610eda01528181610f6601528181610fe701528181611073015281816111ea015281816114ec015281816116fa01528181611a8f01528181611b9501528181611e5801528181611f380152818161202d015281816121490152818161228501528181612332015281816123ec0152818161245b015281816124b301526127c00152613c595ff3fe6080604052600436106101a6575f3560e01c8063715018a6116100e7578063bd85b03911610087578063f2fde38b11610062578063f2fde38b1461058e578063f6c00927146105ad578063fa6793d5146105d9578063fe99049a146105f8575f80fd5b8063bd85b039146104e6578063c630ed7d14610511578063e30c397814610571575f80fd5b80638da5cb5b116100c25780638da5cb5b14610426578063998ff4ef14610442578063a14cbb121461048e578063b6363cf2146104ad575f80fd5b8063715018a6146103df57806379ba5097146103f35780637a40845414610407575f80fd5b80632bc8893c11610152578063426a84931161012d578063426a8493146103465780634f0b55ba14610365578063558a729714610384578063598af9e7146103a3575f80fd5b80632bc8893c146102c9578063375a54ab146102e85780633f322bc9146102fb575f80fd5b8063095bcdb611610182578063095bcdb61461025d57806315c7afb41461027c5780631b022ec8146102a8575f80fd5b8062fdd58e146101b157806301e7f064146101fa57806301ffc9a71461022e575f80fd5b366101ad57005b5f80fd5b3480156101bc575f80fd5b506101e76101cb366004613040565b600360209081525f928352604080842090915290825290205481565b6040519081526020015b60405180910390f35b348015610205575f80fd5b5061021961021436600461306a565b610617565b604080519283526020830191909152016101f1565b348015610239575f80fd5b5061024d61024836600461309f565b610a31565b60405190151581526020016101f1565b348015610268575f80fd5b5061024d6102773660046130c6565b610a99565b348015610287575f80fd5b5061029b6102963660046130f8565b610b53565b6040516101f191906131a4565b3480156102b3575f80fd5b506102c76102c23660046131b6565b610ca9565b005b3480156102d4575f80fd5b506101e76102e33660046131e3565b610d80565b6101e76102f636600461322b565b6111b9565b348015610306575f80fd5b5061032e7f000000000000000000000000000000000000000000000000000000000000000081565b6040516001600160a01b0390911681526020016101f1565b348015610351575f80fd5b5061024d6103603660046130c6565b61147d565b348015610370575f80fd5b506101e761037f3660046131e3565b6114e1565b34801561038f575f80fd5b5061024d61039e366004613261565b6115da565b3480156103ae575f80fd5b506101e76103bd366004613298565b600460209081525f938452604080852082529284528284209052825290205481565b3480156103ea575f80fd5b506102c7611649565b3480156103fe575f80fd5b506102c761165c565b348015610412575f80fd5b506102196104213660046132c5565b6116a5565b348015610431575f80fd5b505f546001600160a01b031661032e565b34801561044d575f80fd5b5061047661045c3660046132e5565b60076020525f90815260409020546001600160c01b031681565b6040516001600160c01b0390911681526020016101f1565b348015610499575f80fd5b506102c76104a836600461330b565b611797565b3480156104b8575f80fd5b5061024d6104c736600461332e565b600260209081525f928352604080842090915290825290205460ff1681565b3480156104f1575f80fd5b506101e76105003660046131b6565b60056020525f908152604090205481565b34801561051c575f80fd5b5061055161052b3660046131b6565b5f90815260066020526040902080546001909101546001600160c01b0391821692911690565b604080516001600160c01b039384168152929091166020830152016101f1565b34801561057c575f80fd5b506001546001600160a01b031661032e565b348015610599575f80fd5b506102c76105a836600461335a565b6117cf565b3480156105b8575f80fd5b506105cc6105c73660046131b6565b61183f565b6040516101f191906133af565b3480156105e4575f80fd5b506102196105f33660046131b6565b6119a0565b348015610603575f80fd5b5061024d610612366004613439565b611c69565b5f80333014610639576040516314e1dbf760e11b815260040160405180910390fd5b5f85815260066020526040902060028101546001600160a01b0316610671576040516313d200a960e11b815260040160405180910390fd5b600381015460048201545f8061068960058601611dda565b90925090506106988285613490565b93506106a48184613490565b92506106b285600601611dda565b90925090506106c18185613490565b93506106cd8284613490565b8554604051639b22917d60e01b81526001600160c01b0390911660048201529093505f907f00000000000000000000000000000000000000000000000000000000000000006001600160a01b031690639b22917d9060240160c060405180830381865afa158015610740573d5f803e3d5ffd5b505050506040513d601f19601f820116820180604052508101906107649190613559565b6001870154604051639b22917d60e01b81526001600160c01b0390911660048201529091505f907f00000000000000000000000000000000000000000000000000000000000000006001600160a01b031690639b22917d9060240160c060405180830381865afa1580156107da573d5f803e3d5ffd5b505050506040513d601f19601f820116820180604052508101906107fe9190613559565b905089156108a2575f8c81526005602052604090205461081f8c8e8d6120bf565b61082a878c836120f1565b9950610837868c836120f1565b98506108438a886135e4565b965061084f89876135e4565b604080518c8152602081018c90529081018d90529096508d906001600160a01b038e16907f974da0fadf774cec6d550cb40d607dc3a0b7dee97aa1cd03a2fa3f6603b943ab9060600160405180910390a3505b60028701546040517f1dc90f6d000000000000000000000000000000000000000000000000000000008152600481018e905260248101889052604481018790525f9182916001600160a01b0390911690631dc90f6d906064015f60405180830381865afa158015610915573d5f803e3d5ffd5b505050506040513d5f823e601f3d908101601f1916820160405261093c91908101906136ad565b9150915061094e84838b60050161210c565b61095c83828b60060161210c565b61096e84604001518a60030154612264565b60038a0155835160048a01546109849190612264565b60048a01558a156109c15760408401516109a8906001600160a01b03168e8d61253c565b8a896003015f8282546109bb91906135e4565b90915550505b89156109f65783516109dd906001600160a01b03168e8c61253c565b89896004015f8282546109f091906135e4565b90915550505b6040518e907f37f8042257f6b4d65b9614deb7792e5b374db2fdcd1983bf8a1247a8a788af5c905f90a2505050505050505050935093915050565b5f7f01ffc9a7000000000000000000000000000000000000000000000000000000006001600160e01b031983161480610a9357507f0f632fb3000000000000000000000000000000000000000000000000000000006001600160e01b03198316145b92915050565b335f908152600360209081526040808320858452909152812080548391908390610ac49084906135e4565b90915550506001600160a01b0384165f90815260036020908152604080832086845290915281208054849290610afb908490613490565b909155505060408051338082526020820185905285926001600160a01b038816927f1b3d7edb2e9c0b0e7c525b20aaaef0f5940d2ed71663c7d39266ecafac72885991015b60405180910390a45060015b9392505050565b6060336001600160a01b037f00000000000000000000000000000000000000000000000000000000000000001614610bb7576040517f4bd37f4300000000000000000000000000000000000000000000000000000000815260040160405180910390fd5b6001600160a01b0384163014610bf9576040517f66a7598c00000000000000000000000000000000000000000000000000000000815260040160405180910390fd5b5f80306001600160a01b03168585604051610c1592919061370d565b5f604051808303815f865af19150503d805f8114610c4e576040519150601f19603f3d011682016040523d82523d5f602084013e610c53565b606091505b50915091508115610c67579150610b4c9050565b80515f03610ca1576040517fa40afa3800000000000000000000000000000000000000000000000000000000815260040160405180910390fd5b805160208201fd5b60408051602481018390525f6044820181905260648083019190915282518083039091018152608490910182526020810180516001600160e01b03166279fc1960e21b17905290516313942f3360e31b81527f00000000000000000000000000000000000000000000000000000000000000006001600160a01b031691639ca1799891610d3a91309160040161371c565b5f604051808303815f875af1158015610d55573d5f803e3d5ffd5b505050506040513d5f823e601f3d908101601f19168201604052610d7c919081019061373d565b5050565b5f333014610da1576040516314e1dbf760e11b815260040160405180910390fd5b610dd2610db1602085018561335a565b610dc1606087016040880161335a565b6001600160a01b0391821691161490565b8015610df95750610df9610dec606085016040860161335a565b610dc1602087018761335a565b610e16576040516313d200a960e11b815260040160405180910390fd5b5f610e2760a086016080870161335a565b6001600160a01b0316141580610e5557505f610e4960a085016080860161335a565b6001600160a01b031614155b15610e8c576040517f9c9d882300000000000000000000000000000000000000000000000000000000815260040160405180910390fd5b5f610ea4610e9f368790038701876137cc565b61261e565b90505f610eb9610e9f368790038701876137cc565b604051632ad7b51960e11b81526001600160c01b03841660048201529091507f00000000000000000000000000000000000000000000000000000000000000006001600160a01b0316906355af6a3290602401602060405180830381865afa158015610f27573d5f803e3d5ffd5b505050506040513d601f19601f82011682018060405250810190610f4b919061384b565b610fc95760405163fefc7c5160e01b81526001600160a01b037f0000000000000000000000000000000000000000000000000000000000000000169063fefc7c5190610f9b908990600401613905565b5f604051808303815f87803b158015610fb2575f80fd5b505af1158015610fc4573d5f803e3d5ffd5b505050505b604051632ad7b51960e11b81526001600160c01b03821660048201527f00000000000000000000000000000000000000000000000000000000000000006001600160a01b0316906355af6a3290602401602060405180830381865afa158015611034573d5f803e3d5ffd5b505050506040513d601f19601f82011682018060405250810190611058919061384b565b6110d65760405163fefc7c5160e01b81526001600160a01b037f0000000000000000000000000000000000000000000000000000000000000000169063fefc7c51906110a8908890600401613905565b5f604051808303815f87803b1580156110bf575f80fd5b505af11580156110d1573d5f803e3d5ffd5b505050505b6110e08282612659565b5f81815260066020908152604080832080547fffffffffffffffff0000000000000000000000000000000000000000000000009081166001600160c01b0389811691821784556001840180548416918a169182179055600290930180546001600160a01b0319166001600160a01b038d16908117909155818752600786528487208054841685179055838752958490208054909216811790915591519384529396509186917fa51eb8bfbd78395d25a84438b321fa70c63e99bfcb3ed2455805e255b1d25ac6910160405180910390a450509392505050565b5f8381526006602052604080822080549151639b22917d60e01b81526001600160c01b0390921660048301529082907f00000000000000000000000000000000000000000000000000000000000000006001600160a01b031690639b22917d9060240160c060405180830381865afa158015611237573d5f803e3d5ffd5b505050506040513d601f19601f8201168201806040525081019061125b9190613559565b5f878152600560205260408120549192508190036112cb5785158061127e575084155b156112b5576040517f2c5211c600000000000000000000000000000000000000000000000000000000815260040160405180910390fd5b8486116112c257846112c4565b855b9350611349565b5f805f806112d88b6119a0565b91509150815f036112eb575f99506112f9565b6112f68a86846120f1565b93505b805f03611308575f9850611316565b6113138986836120f1565b92505b828411156113335782975061132c8289876126b8565b9950611344565b8397506113418189876126b8565b98505b505050505b604082015134906001600160a01b0316611386578634101561137e57604051632a9ffab760e21b815260040160405180910390fd5b8690036113a0565b60408301516113a0906001600160a01b031633308a6126db565b82516001600160a01b03166113d857853410156113d057604051632a9ffab760e21b815260040160405180910390fd5b8590036113ef565b82516113ef906001600160a01b03163330896126db565b86846003015f8282546114029190613490565b9250508190555085846004015f82825461141c9190613490565b9091555061142d905033898761274e565b6040805188815260208101889052908101869052889033907f1d43dbd7e59f8c9371169f5c49c01e100227d9ee5f5fe54665cf10e35042bb729060600160405180910390a3505050509392505050565b335f8181526004602090815260408083206001600160a01b03881680855290835281842087855290925280832085905551919285927fb3fd5071835887567a0671151121894ddccc2842f1d10bedad13e0d17cace9a790610b409087815260200190565b5f6114ea612776565b7f00000000000000000000000000000000000000000000000000000000000000006001600160a01b0316639ca1799830632bc8893c60e01b87878760405160240161153793929190613926565b60408051601f198184030181529181526020820180516001600160e01b03166001600160e01b03199485161790525160e085901b909216825261157d929160040161371c565b5f604051808303815f875af1158015611598573d5f803e3d5ffd5b505050506040513d5f823e601f3d908101601f191682016040526115bf919081019061373d565b8060200190518101906115d2919061395a565b949350505050565b335f8181526002602090815260408083206001600160a01b038716808552908352818420805460ff191687151590811790915591519182529293917fceb576d9f15e4e200fdb5096d64d5dfd667e16def20c1eefd14256d8e3faa267910160405180910390a350600192915050565b611651612776565b61165a5f6127a2565b565b60015433906001600160a01b031681146116995760405163118cdaa760e01b81526001600160a01b03821660048201526024015b60405180910390fd5b6116a2816127a2565b50565b6040805160248101849052336044820152606480820184905282518083039091018152608490910182526020810180516001600160e01b03166279fc1960e21b17905290516313942f3360e31b81525f9182917f00000000000000000000000000000000000000000000000000000000000000006001600160a01b031691639ca179989161173791309160040161371c565b5f604051808303815f875af1158015611752573d5f803e3d5ffd5b505050506040513d5f823e601f3d908101601f19168201604052611779919081019061373d565b80602001905181019061178c9190613971565b915091509250929050565b61179f612776565b5f9182526006602052604090912060020180546001600160a01b0319166001600160a01b03909216919091179055565b6117d7612776565b600180546001600160a01b0383166001600160a01b031990911681179091556118075f546001600160a01b031690565b6001600160a01b03167f38d16b8cac22d99fc7c124b9cd0de2d3fa1faef420bfe791d8c362d765e2270060405160405180910390a350565b6118956040518060e001604052805f6001600160c01b031681526020015f6001600160c01b031681526020015f6001600160a01b031681526020015f81526020015f815260200160608152602001606081525090565b5f82815260066020908152604091829020825160e08101845281546001600160c01b0390811682526001830154168184015260028201546001600160a01b03168185015260038201546060820152600482015460808201526005820180548551818602810186019096528086529194929360a0860193929083018282801561193a57602002820191905f5260205f20905b815481526020019060010190808311611926575b505050505081526020016006820180548060200260200160405190810160405280929190818152602001828054801561199057602002820191905f5260205f20905b81548152602001906001019080831161197c575b5050505050815250509050919050565b5f81815260066020908152604080832060038101546004820154600583018054855181880281018801909652808652929691959394919391929091830182828015611a0857602002820191905f5260205f20905b8154815260200190600101908083116119f4575b505050505090505f82600601805480602002602001604051908101604052809291908181526020018280548015611a5c57602002820191905f5260205f20905b815481526020019060010190808311611a48575b505050505090505f82511115611b68578254604051639b22917d60e01b81526001600160c01b0390911660048201525f907f00000000000000000000000000000000000000000000000000000000000000006001600160a01b031690639b22917d9060240160c060405180830381865afa158015611adc573d5f803e3d5ffd5b505050506040513d601f19601f82011682018060405250810190611b009190613559565b90505f5b8351811015611b65575f80611b3b84606001518560200151888681518110611b2e57611b2e613993565b60200260200101516127bb565b9092509050611b4a828a613490565b9850611b568189613490565b97505050806001019050611b04565b50505b805115611c61576001830154604051639b22917d60e01b81526001600160c01b0390911660048201525f907f00000000000000000000000000000000000000000000000000000000000000006001600160a01b031690639b22917d9060240160c060405180830381865afa158015611be2573d5f803e3d5ffd5b505050506040513d601f19601f82011682018060405250810190611c069190613559565b90505f5b8251811015611c5e575f80611c3484606001518560200151878681518110611b2e57611b2e613993565b9092509050611c43818a613490565b9850611c4f8289613490565b97505050806001019050611c0a565b50505b505050915091565b5f336001600160a01b03861614801590611ca657506001600160a01b0385165f90815260026020908152604080832033845290915290205460ff16155b15611d16576001600160a01b0385165f90815260046020908152604080832033845282528083208684529091529020545f198114611d1457611ce883826135e4565b6001600160a01b0387165f90815260046020908152604080832033845282528083208884529091529020555b505b6001600160a01b0385165f90815260036020908152604080832086845290915281208054849290611d489084906135e4565b90915550506001600160a01b0384165f90815260036020908152604080832086845290915281208054849290611d7f908490613490565b9091555050604080513381526020810184905284916001600160a01b0380881692908916917f1b3d7edb2e9c0b0e7c525b20aaaef0f5940d2ed71663c7d39266ecafac728859910160405180910390a4506001949350505050565b5f805f83805480602002602001604051908101604052809291908181526020018280548015611e2657602002820191905f5260205f20905b815481526020019060010190808311611e12575b505050505090505f5b81518110156120b6575f828281518110611e4b57611e4b613993565b602002602001015190505f7f00000000000000000000000000000000000000000000000000000000000000006001600160a01b031663d09ef241836040518263ffffffff1660e01b8152600401611ea491815260200190565b606060405180830381865afa158015611ebf573d5f803e3d5ffd5b505050506040513d601f19601f82011682018060405250810190611ee391906139a7565b604081015190915067ffffffffffffffff1615611fb757604080517f38926b6d0000000000000000000000000000000000000000000000000000000081526004810184905260248101919091525f60448201527f00000000000000000000000000000000000000000000000000000000000000006001600160a01b0316906338926b6d906064016020604051808303815f875af1158015611f86573d5f803e3d5ffd5b505050506040513d601f19601f82011682018060405250810190611faa919061395a565b611fb49086613490565b94505b602081015167ffffffffffffffff16156120ac576040805180820182528381525f6020820181815292517f14d6a9eb00000000000000000000000000000000000000000000000000000000815291516004830152915167ffffffffffffffff1660248201526060604482015260648101919091527f00000000000000000000000000000000000000000000000000000000000000006001600160a01b0316906314d6a9eb906084016020604051808303815f875af115801561207b573d5f803e3d5ffd5b505050506040513d601f19601f8201168201806040525081019061209f919061395a565b6120a99087613490565b95505b5050600101611e2f565b50505f90925591565b6120ca83838361291a565b5f82815260056020526040812080548392906120e79084906135e4565b9091555050505050565b5f825f190484118302158202612105575f80fd5b5091020490565b5f5b825181101561225e5782818151811061212957612129613993565b60200260200101516020015167ffffffffffffffff165f0315612256575f7f00000000000000000000000000000000000000000000000000000000000000006001600160a01b0316631dbef488604051806080016040528088815260200187868151811061219957612199613993565b60200260200101515f015160020b81526020018786815181106121be576121be613993565b60200260200101516020015167ffffffffffffffff1681526020015f6001600160a01b03168152506040518263ffffffff1660e01b81526004016122029190613a17565b60408051808303815f875af115801561221d573d5f803e3d5ffd5b505050506040513d601f19601f820116820180604052508101906122419190613971565b5083546001810185555f858152602090200155505b60010161210e565b50505050565b604051636a256b2960e01b81526001600160a01b0383811660048301525f917f000000000000000000000000000000000000000000000000000000000000000090911690636a256b29906024016020604051808303815f875af11580156122cd573d5f803e3d5ffd5b505050506040513d601f19601f820116820180604052508101906122f1919061395a565b506040517f9611cf6c0000000000000000000000000000000000000000000000000000000081523060048201526001600160a01b0384811660248301525f917f000000000000000000000000000000000000000000000000000000000000000090911690639611cf6c90604401602060405180830381865afa158015612379573d5f803e3d5ffd5b505050506040513d601f19601f8201168201806040525081019061239d919061395a565b90505f811315612456576040517fd9caed120000000000000000000000000000000000000000000000000000000081526001600160a01b038581166004830152306024830152604482018390527f0000000000000000000000000000000000000000000000000000000000000000169063d9caed12906064015f604051808303815f87803b15801561242d575f80fd5b505af115801561243f573d5f803e3d5ffd5b50505050808361244f9190613490565b9250612534565b6124947f000000000000000000000000000000000000000000000000000000000000000061248383613acd565b6001600160a01b038716919061253c565b604051636a256b2960e01b81526001600160a01b0385811660048301527f00000000000000000000000000000000000000000000000000000000000000001690636a256b29906024016020604051808303815f875af11580156124f9573d5f803e3d5ffd5b505050506040513d601f19601f8201168201806040525081019061251d919061395a565b5061252781613acd565b61253190846135e4565b92505b509092915050565b5f6001600160a01b038416612591575f805f8085875af190508061258c576040517ff4b3b1bc00000000000000000000000000000000000000000000000000000000815260040160405180910390fd5b61225e565b6040517fa9059cbb0000000000000000000000000000000000000000000000000000000081526001600160a01b038416600482015282602482015260205f6044835f895af13d15601f3d1160015f51141617169150508061225e576040517ff27f64e400000000000000000000000000000000000000000000000000000000815260040160405180910390fd5b5f80826040516020016126319190613b03565b60408051601f1981840301815291905280516020909101206001600160c01b03169392505050565b5f816001600160c01b0316836001600160c01b03161115612678579091905b506040805192811b67ffffffffffffffff1990811660208086019190915292821b1660388401528051603081850301815260509093019052815191012090565b5f825f1904841183021582026126cc575f80fd5b50910281810615159190040190565b604080516001600160a01b0385811660248301528416604482015260648082018490528251808303909101815260849091019091526020810180516001600160e01b03167f23b872dd0000000000000000000000000000000000000000000000000000000017905261225e90859061299f565b612759838383612a1e565b5f82815260056020526040812080548392906120e7908490613490565b5f546001600160a01b0316331461165a5760405163118cdaa760e01b8152336004820152602401611690565b600180546001600160a01b03191690556116a281612a9a565b5f805f7f00000000000000000000000000000000000000000000000000000000000000006001600160a01b031663d09ef241856040518263ffffffff1660e01b815260040161280c91815260200190565b606060405180830381865afa158015612827573d5f803e3d5ffd5b505050506040513d601f19601f8201168201806040525081019061284b91906139a7565b90508467ffffffffffffffff16816020015167ffffffffffffffff166128719190613b6a565b92506128b48567ffffffffffffffff16826040015167ffffffffffffffff1661289a9190613b6a565b5f6128aa8760281c62ffffff1690565b60020b9190612ae9565b91506128c58662ffffff1660171c90565b156128f0575f6128dc62ffffff8816856001612b0b565b90506128e88185613b81565b935050612911565b5f61290162ffffff88168483612b0b565b905061290d8184613ba8565b9250505b50935093915050565b6001600160a01b0383165f9081526003602090815260408083208584529091528120805483929061294c9084906135e4565b9091555050604080513381526020810183905283915f916001600160a01b038716917f1b3d7edb2e9c0b0e7c525b20aaaef0f5940d2ed71663c7d39266ecafac72885991015b60405180910390a4505050565b5f6129b36001600160a01b03841683612b8b565b905080515f141580156129d75750808060200190518101906129d5919061384b565b155b15612a19576040517f5274afe70000000000000000000000000000000000000000000000000000000081526001600160a01b0384166004820152602401611690565b505050565b6001600160a01b0383165f90815260036020908152604080832085845290915281208054839290612a50908490613490565b9091555050604080513381526020810183905283916001600160a01b038616915f917f1b3d7edb2e9c0b0e7c525b20aaaef0f5940d2ed71663c7d39266ecafac7288599101612992565b5f80546001600160a01b038381166001600160a01b0319831681178455604051919092169283917f8be0079c531659141344cd1fd0a4f28419497f9722a3daafe3b4186f6b6457e09190a35050565b5f6115d2606084901b612afe8660020b612b98565b8082061515851691040190565b5f6207a11f19627fffff851601600281900b82128281612b2d57825f03612b2f565b825b62ffffff1690505f612b68612b448389613b6a565b620f424088612b5a578581830615151691040190565b808206151586151691040190565b905082612b7d57612b7881613acd565b612b7f565b805b98975050505050505050565b6060610b4c83835f612e60565b5f612ba282612f19565b815f600282900b8113612bb55781612bbe565b612bbe82613bce565b62ffffff8116915060011615612be2576bfff97272373d413259a469909250612bf3565b6c0100000000000000000000000092505b6002811615612c125760606bfff2e50f5f656932ef12357c8402901c92505b6004811615612c315760606bffe5caca7e10e4e61c3624ea8402901c92505b6008811615612c505760606bffcb9843d60f6159c9db58838402901c92505b6010811615612c6f5760606bff973b41fa98c081472e68968402901c92505b6020811615612c8e5760606bff2ea16466c96a3843ec78b38402901c92505b6040811615612cad5760606bfe5dee046a99a2a811c461f18402901c92505b6080811615612ccc5760606bfcbe86c7900a88aedcffc83b8402901c92505b610100811615612cec5760606bf987a7253ac413176f2b074c8402901c92505b610200811615612d0c5760606bf3392b0822b70005940c7a398402901c92505b610400811615612d2c5760606be7159475a2c29b7443b29c7f8402901c92505b610800811615612d4c5760606bd097f3bdfd2022b8845ad8f78402901c92505b611000811615612d6c5760606ba9f746462d870fdf8a65dc1f8402901c92505b612000811615612d8c5760606b70d869a156d2a1b890bb3df68402901c92505b614000811615612dac5760606b31be135f97d08fd9812315058402901c92505b618000811615612dcc5760606b09aa508b5b7a84e1c677de548402901c92505b62010000811615612dec5760606a5d6af8dedb81196699c3298402901c92505b62020000811615612e0b576060692216e584f5fa1ea926048402901c92505b62040000811615612e2857606067048a170391f7dc428402901c92505b5f8260020b1315612e5957612e56837801000000000000000000000000000000000000000000000000613bee565b92505b5050919050565b606081471015612ea5576040517fcf47918100000000000000000000000000000000000000000000000000000000815247600482015260248101839052604401611690565b5f80856001600160a01b03168486604051612ec09190613c0d565b5f6040518083038185875af1925050503d805f8114612efa576040519150601f19603f3d011682016040523d82523d5f602084013e612eff565b606091505b5091509150612f0f868383612f75565b9695505050505050565b6207ffff600282900b1380612f3e5750612f356207ffff613bce565b60020b8160020b125b156116a2576040517fce8ef7fc00000000000000000000000000000000000000000000000000000000815260040160405180910390fd5b606082612f8a57612f8582612fea565b610b4c565b8151158015612fa157506001600160a01b0384163b155b15612fe3576040517f9996b3150000000000000000000000000000000000000000000000000000000081526001600160a01b0385166004820152602401611690565b5080610b4c565b805115612ffa5780518082602001fd5b6040517fd6bda27500000000000000000000000000000000000000000000000000000000815260040160405180910390fd5b6001600160a01b03811681146116a2575f80fd5b5f8060408385031215613051575f80fd5b823561305c8161302c565b946020939093013593505050565b5f805f6060848603121561307c575f80fd5b83359250602084013561308e8161302c565b929592945050506040919091013590565b5f602082840312156130af575f80fd5b81356001600160e01b031981168114610b4c575f80fd5b5f805f606084860312156130d8575f80fd5b83356130e38161302c565b95602085013595506040909401359392505050565b5f805f6040848603121561310a575f80fd5b83356131158161302c565b9250602084013567ffffffffffffffff80821115613131575f80fd5b818601915086601f830112613144575f80fd5b813581811115613152575f80fd5b876020828501011115613163575f80fd5b6020830194508093505050509250925092565b5f81518084528060208401602086015e5f602082860101526020601f19601f83011685010191505092915050565b602081525f610b4c6020830184613176565b5f602082840312156131c6575f80fd5b5035919050565b5f60c082840312156131dd575f80fd5b50919050565b5f805f6101a084860312156131f6575f80fd5b61320085856131cd565b925061320f8560c086016131cd565b91506101808401356132208161302c565b809150509250925092565b5f805f6060848603121561323d575f80fd5b505081359360208301359350604090920135919050565b80151581146116a2575f80fd5b5f8060408385031215613272575f80fd5b823561327d8161302c565b9150602083013561328d81613254565b809150509250929050565b5f805f606084860312156132aa575f80fd5b83356132b58161302c565b9250602084013561308e8161302c565b5f80604083850312156132d6575f80fd5b50508035926020909101359150565b5f602082840312156132f5575f80fd5b81356001600160c01b0381168114610b4c575f80fd5b5f806040838503121561331c575f80fd5b82359150602083013561328d8161302c565b5f806040838503121561333f575f80fd5b823561334a8161302c565b9150602083013561328d8161302c565b5f6020828403121561336a575f80fd5b8135610b4c8161302c565b5f815180845260208085019450602084015f5b838110156133a457815187529582019590820190600101613388565b509495945050505050565b602081525f6001600160c01b03808451166020840152806020850151166040840152506001600160a01b03604084015116606083015260608301516080830152608083015160a083015260a083015160e060c0840152613413610100840182613375565b905060c0840151601f198483030160e08501526134308282613375565b95945050505050565b5f805f806080858703121561344c575f80fd5b84356134578161302c565b935060208501356134678161302c565b93969395505050506040820135916060013590565b634e487b7160e01b5f52601160045260245ffd5b80820180821115610a9357610a9361347c565b634e487b7160e01b5f52604160045260245ffd5b60405160c0810167ffffffffffffffff811182821017156134da576134da6134a3565b60405290565b6040805190810167ffffffffffffffff811182821017156134da576134da6134a3565b604051601f8201601f1916810167ffffffffffffffff8111828210171561352c5761352c6134a3565b604052919050565b67ffffffffffffffff811681146116a2575f80fd5b62ffffff811681146116a2575f80fd5b5f60c08284031215613569575f80fd5b6135716134b7565b825161357c8161302c565b8152602083015161358c81613534565b6020820152604083015161359f8161302c565b604082015260608301516135b281613549565b606082015260808301516135c58161302c565b608082015260a08301516135d881613549565b60a08201529392505050565b81810381811115610a9357610a9361347c565b5f82601f830112613606575f80fd5b8151602067ffffffffffffffff821115613622576136226134a3565b613630818360051b01613503565b82815260069290921b8401810191818101908684111561364e575f80fd5b8286015b848110156136a25760408189031215613669575f80fd5b6136716134e0565b81518060020b8114613681575f80fd5b81528185015161369081613534565b81860152835291830191604001613652565b509695505050505050565b5f80604083850312156136be575f80fd5b825167ffffffffffffffff808211156136d5575f80fd5b6136e1868387016135f7565b935060208501519150808211156136f6575f80fd5b50613703858286016135f7565b9150509250929050565b818382375f9101908152919050565b6001600160a01b0383168152604060208201525f6115d26040830184613176565b5f602080838503121561374e575f80fd5b825167ffffffffffffffff80821115613765575f80fd5b818501915085601f830112613778575f80fd5b81518181111561378a5761378a6134a3565b61379c601f8201601f19168501613503565b915080825286848285010111156137b1575f80fd5b808484018584015e5f90820190930192909252509392505050565b5f60c082840312156137dc575f80fd5b6137e46134b7565b82356137ef8161302c565b815260208301356137ff81613534565b602082015260408301356138128161302c565b6040820152606083013561382581613549565b606082015260808301356138388161302c565b608082015260a08301356135d881613549565b5f6020828403121561385b575f80fd5b8151610b4c81613254565b80356138718161302c565b6001600160a01b03908116835260208201359061388d82613534565b67ffffffffffffffff82166020850152604083013591506138ad8261302c565b90811660408401526060820135906138c482613549565b62ffffff91821660608501526080830135916138df8361302c565b918116608085015260a0830135916138f683613549565b80831660a08601525050505050565b61390f8183613866565b60e060c082018190525f9082015261010001919050565b6101a081016139358286613866565b61394260c0830185613866565b6001600160a01b038316610180830152949350505050565b5f6020828403121561396a575f80fd5b5051919050565b5f8060408385031215613982575f80fd5b505080516020909101519092909150565b634e487b7160e01b5f52603260045260245ffd5b5f606082840312156139b7575f80fd5b6040516060810181811067ffffffffffffffff821117156139da576139da6134a3565b60405282516139e88161302c565b815260208301516139f881613534565b60208201526040830151613a0b81613534565b60408201529392505050565b5f610140613a7f8385516001600160a01b0380825116835267ffffffffffffffff6020830151166020840152806040830151166040840152606082015162ffffff80821660608601528260808501511660808601528060a08501511660a08601525050505050565b602084015160020b60c0840152604084015167ffffffffffffffff1660e08401526060909301516001600160a01b03166101008301525061012081018290525f918101919091526101600190565b5f7f80000000000000000000000000000000000000000000000000000000000000008203613afd57613afd61347c565b505f0390565b60c08101610a9382846001600160a01b0380825116835267ffffffffffffffff6020830151166020840152806040830151166040840152606082015162ffffff80821660608601528260808501511660808601528060a08501511660a08601525050505050565b8082028115828204841417610a9357610a9361347c565b8082018281125f831280158216821582161715613ba057613ba061347c565b505092915050565b8181035f831280158383131683831282161715613bc757613bc761347c565b5092915050565b5f8160020b627fffff198103613be657613be661347c565b5f0392915050565b5f82613c0857634e487b7160e01b5f52601260045260245ffd5b500490565b5f82518060208501845e5f92019182525091905056fea26469706673582212207a4415265707ad36c44a0233a660210ce0ccb1645a0ae4db87f19db5a06206f564736f6c63430008190033",
  "devdoc": {
    "errors": {
      "AddressEmptyCode(address)": [
        {
          "details": "There's no code at `target` (it is not a contract)."
        }
      ],
      "FailedCall()": [
        {
          "details": "A call to an address target failed. The target may have reverted."
        }
      ],
      "InsufficientBalance(uint256,uint256)": [
        {
          "details": "The ETH balance of the account is not enough to perform the operation."
        }
      ],
      "OwnableInvalidOwner(address)": [
        {
          "details": "The owner is not a valid owner account. (eg. `address(0)`)"
        }
      ],
      "OwnableUnauthorizedAccount(address)": [
        {
          "details": "The caller account is not authorized to perform an operation."
        }
      ],
      "SafeERC20FailedOperation(address)": [
        {
          "details": "An operation with an ERC-20 token failed."
        }
      ]
    },
    "kind": "dev",
    "methods": {
      "acceptOwnership()": {
        "details": "The new owner accepts the ownership transfer."
      },
      "lockAcquired(address,bytes)": {
        "params": {
          "data": "The data that was passed to the call to lock"
        },
        "returns": {
          "_0": "Any data that you want to be returned from the lock call"
        }
      },
      "owner()": {
        "details": "Returns the address of the current owner."
      },
      "pendingOwner()": {
        "details": "Returns the address of the pending owner."
      },
      "renounceOwnership()": {
        "details": "Leaves the contract without owner. It will not be possible to call `onlyOwner` functions. Can only be called by the current owner. NOTE: Renouncing ownership will leave the contract without an owner, thereby disabling any functionality that is only available to the owner."
      },
      "transferOwnership(address)": {
        "details": "Starts the ownership transfer of the contract to a new account. Replaces the pending transfer if there is one. Can only be called by the current owner."
      }
    },
    "version": 1
  },
  "userdoc": {
    "errors": {
      "ERC20TransferFailed()": [
        {
          "notice": "Thrown when an ERC20 transfer fails"
        }
      ],
      "NativeTransferFailed()": [
        {
          "notice": "Thrown when a native transfer fails"
        }
      ]
    },
    "kind": "user",
    "methods": {
      "lockAcquired(address,bytes)": {
        "notice": "Called by the book manager on `msg.sender` when a lock is acquired"
      }
    },
    "version": 1
  },
  "storageLayout": {
    "storage": [
      {
        "astId": 8,
        "contract": "src/Rebalancer.sol:Rebalancer",
        "label": "_owner",
        "offset": 0,
        "slot": "0",
        "type": "t_address"
      },
      {
        "astId": 156,
        "contract": "src/Rebalancer.sol:Rebalancer",
        "label": "_pendingOwner",
        "offset": 0,
        "slot": "1",
        "type": "t_address"
      },
      {
        "astId": 4940,
        "contract": "src/Rebalancer.sol:Rebalancer",
        "label": "isOperator",
        "offset": 0,
        "slot": "2",
        "type": "t_mapping(t_address,t_mapping(t_address,t_bool))"
      },
      {
        "astId": 4946,
        "contract": "src/Rebalancer.sol:Rebalancer",
        "label": "balanceOf",
        "offset": 0,
        "slot": "3",
        "type": "t_mapping(t_address,t_mapping(t_uint256,t_uint256))"
      },
      {
        "astId": 4954,
        "contract": "src/Rebalancer.sol:Rebalancer",
        "label": "allowance",
        "offset": 0,
        "slot": "4",
        "type": "t_mapping(t_address,t_mapping(t_address,t_mapping(t_uint256,t_uint256)))"
      },
      {
        "astId": 9860,
        "contract": "src/Rebalancer.sol:Rebalancer",
        "label": "totalSupply",
        "offset": 0,
        "slot": "5",
        "type": "t_mapping(t_uint256,t_uint256)"
      },
      {
        "astId": 5931,
        "contract": "src/Rebalancer.sol:Rebalancer",
        "label": "_pools",
        "offset": 0,
        "slot": "6",
        "type": "t_mapping(t_bytes32,t_struct(Pool)9571_storage)"
      },
      {
        "astId": 5937,
        "contract": "src/Rebalancer.sol:Rebalancer",
        "label": "bookPair",
        "offset": 0,
        "slot": "7",
        "type": "t_mapping(t_userDefinedValueType(BookId)3788,t_userDefinedValueType(BookId)3788)"
      }
    ],
    "types": {
      "t_address": {
        "encoding": "inplace",
        "label": "address",
        "numberOfBytes": "20"
      },
      "t_array(t_userDefinedValueType(OrderId)4229)dyn_storage": {
        "base": "t_userDefinedValueType(OrderId)4229",
        "encoding": "dynamic_array",
        "label": "OrderId[]",
        "numberOfBytes": "32"
      },
      "t_bool": {
        "encoding": "inplace",
        "label": "bool",
        "numberOfBytes": "1"
      },
      "t_bytes32": {
        "encoding": "inplace",
        "label": "bytes32",
        "numberOfBytes": "32"
      },
      "t_contract(IStrategy)9850": {
        "encoding": "inplace",
        "label": "contract IStrategy",
        "numberOfBytes": "20"
      },
      "t_mapping(t_address,t_bool)": {
        "encoding": "mapping",
        "key": "t_address",
        "label": "mapping(address => bool)",
        "numberOfBytes": "32",
        "value": "t_bool"
      },
      "t_mapping(t_address,t_mapping(t_address,t_bool))": {
        "encoding": "mapping",
        "key": "t_address",
        "label": "mapping(address => mapping(address => bool))",
        "numberOfBytes": "32",
        "value": "t_mapping(t_address,t_bool)"
      },
      "t_mapping(t_address,t_mapping(t_address,t_mapping(t_uint256,t_uint256)))": {
        "encoding": "mapping",
        "key": "t_address",
        "label": "mapping(address => mapping(address => mapping(uint256 => uint256)))",
        "numberOfBytes": "32",
        "value": "t_mapping(t_address,t_mapping(t_uint256,t_uint256))"
      },
      "t_mapping(t_address,t_mapping(t_uint256,t_uint256))": {
        "encoding": "mapping",
        "key": "t_address",
        "label": "mapping(address => mapping(uint256 => uint256))",
        "numberOfBytes": "32",
        "value": "t_mapping(t_uint256,t_uint256)"
      },
      "t_mapping(t_bytes32,t_struct(Pool)9571_storage)": {
        "encoding": "mapping",
        "key": "t_bytes32",
        "label": "mapping(bytes32 => struct IRebalancer.Pool)",
        "numberOfBytes": "32",
        "value": "t_struct(Pool)9571_storage"
      },
      "t_mapping(t_uint256,t_uint256)": {
        "encoding": "mapping",
        "key": "t_uint256",
        "label": "mapping(uint256 => uint256)",
        "numberOfBytes": "32",
        "value": "t_uint256"
      },
      "t_mapping(t_userDefinedValueType(BookId)3788,t_userDefinedValueType(BookId)3788)": {
        "encoding": "mapping",
        "key": "t_userDefinedValueType(BookId)3788",
        "label": "mapping(BookId => BookId)",
        "numberOfBytes": "32",
        "value": "t_userDefinedValueType(BookId)3788"
      },
      "t_struct(Pool)9571_storage": {
        "encoding": "inplace",
        "label": "struct IRebalancer.Pool",
        "members": [
          {
            "astId": 9552,
            "contract": "src/Rebalancer.sol:Rebalancer",
            "label": "bookIdA",
            "offset": 0,
            "slot": "0",
            "type": "t_userDefinedValueType(BookId)3788"
          },
          {
            "astId": 9555,
            "contract": "src/Rebalancer.sol:Rebalancer",
            "label": "bookIdB",
            "offset": 0,
            "slot": "1",
            "type": "t_userDefinedValueType(BookId)3788"
          },
          {
            "astId": 9558,
            "contract": "src/Rebalancer.sol:Rebalancer",
            "label": "strategy",
            "offset": 0,
            "slot": "2",
            "type": "t_contract(IStrategy)9850"
          },
          {
            "astId": 9560,
            "contract": "src/Rebalancer.sol:Rebalancer",
            "label": "reserveA",
            "offset": 0,
            "slot": "3",
            "type": "t_uint256"
          },
          {
            "astId": 9562,
            "contract": "src/Rebalancer.sol:Rebalancer",
            "label": "reserveB",
            "offset": 0,
            "slot": "4",
            "type": "t_uint256"
          },
          {
            "astId": 9566,
            "contract": "src/Rebalancer.sol:Rebalancer",
            "label": "orderListA",
            "offset": 0,
            "slot": "5",
            "type": "t_array(t_userDefinedValueType(OrderId)4229)dyn_storage"
          },
          {
            "astId": 9570,
            "contract": "src/Rebalancer.sol:Rebalancer",
            "label": "orderListB",
            "offset": 0,
            "slot": "6",
            "type": "t_array(t_userDefinedValueType(OrderId)4229)dyn_storage"
          }
        ],
        "numberOfBytes": "224"
      },
      "t_uint256": {
        "encoding": "inplace",
        "label": "uint256",
        "numberOfBytes": "32"
      },
      "t_userDefinedValueType(BookId)3788": {
        "encoding": "inplace",
        "label": "BookId",
        "numberOfBytes": "24"
      },
      "t_userDefinedValueType(OrderId)4229": {
        "encoding": "inplace",
        "label": "OrderId",
        "numberOfBytes": "32"
      }
    }
  }
}