{
  "address": "0x6A35651C455898021492d236149Afb7bF354bE1F",
  "abi": [
    {
      "inputs": [
        {
          "internalType": "contract IBookManager",
          "name": "bookManager_",
          "type": "address"
        },
        {
          "internalType": "address",
          "name": "initialOwner_",
          "type": "address"
        }
      ],
      "stateMutability": "nonpayable",
      "type": "constructor"
    },
    {
      "inputs": [],
      "name": "AlreadyOpened",
      "type": "error"
    },
    {
      "inputs": [],
      "name": "ERC20TransferFailed",
      "type": "error"
    },
    {
      "inputs": [],
      "name": "InvalidAmount",
      "type": "error"
    },
    {
      "inputs": [],
      "name": "InvalidBookPair",
      "type": "error"
    },
    {
      "inputs": [],
      "name": "InvalidHook",
      "type": "error"
    },
    {
      "inputs": [],
      "name": "InvalidLockAcquiredSender",
      "type": "error"
    },
    {
      "inputs": [],
      "name": "InvalidLockCaller",
      "type": "error"
    },
    {
      "inputs": [],
      "name": "InvalidMaker",
      "type": "error"
    },
    {
      "inputs": [],
      "name": "InvalidStrategy",
      "type": "error"
    },
    {
      "inputs": [],
      "name": "InvalidTick",
      "type": "error"
    },
    {
      "inputs": [],
      "name": "InvalidValue",
      "type": "error"
    },
    {
      "inputs": [],
      "name": "LockFailure",
      "type": "error"
    },
    {
      "inputs": [],
      "name": "NativeTransferFailed",
      "type": "error"
    },
    {
      "inputs": [],
      "name": "NotSelf",
      "type": "error"
    },
    {
      "inputs": [
        {
          "internalType": "address",
          "name": "owner",
          "type": "address"
        }
      ],
      "name": "OwnableInvalidOwner",
      "type": "error"
    },
    {
      "inputs": [
        {
          "internalType": "address",
          "name": "account",
          "type": "address"
        }
      ],
      "name": "OwnableUnauthorizedAccount",
      "type": "error"
    },
    {
      "inputs": [],
      "name": "Paused",
      "type": "error"
    },
    {
      "inputs": [
        {
          "internalType": "uint8",
          "name": "bits",
          "type": "uint8"
        },
        {
          "internalType": "uint256",
          "name": "value",
          "type": "uint256"
        }
      ],
      "name": "SafeCastOverflowedUintDowncast",
      "type": "error"
    },
    {
      "inputs": [
        {
          "internalType": "address",
          "name": "token",
          "type": "address"
        }
      ],
      "name": "SafeERC20FailedOperation",
      "type": "error"
    },
    {
      "inputs": [],
      "name": "Slippage",
      "type": "error"
    },
    {
      "anonymous": false,
      "inputs": [
        {
          "indexed": true,
          "internalType": "address",
          "name": "owner",
          "type": "address"
        },
        {
          "indexed": true,
          "internalType": "address",
          "name": "spender",
          "type": "address"
        },
        {
          "indexed": true,
          "internalType": "uint256",
          "name": "id",
          "type": "uint256"
        },
        {
          "indexed": false,
          "internalType": "uint256",
          "name": "amount",
          "type": "uint256"
        }
      ],
      "name": "Approval",
      "type": "event"
    },
    {
      "anonymous": false,
      "inputs": [
        {
          "indexed": true,
          "internalType": "address",
          "name": "user",
          "type": "address"
        },
        {
          "indexed": true,
          "internalType": "bytes32",
          "name": "key",
          "type": "bytes32"
        },
        {
          "indexed": false,
          "internalType": "uint256",
          "name": "amountA",
          "type": "uint256"
        },
        {
          "indexed": false,
          "internalType": "uint256",
          "name": "amountB",
          "type": "uint256"
        },
        {
          "indexed": false,
          "internalType": "uint256",
          "name": "lpAmount",
          "type": "uint256"
        }
      ],
      "name": "Burn",
      "type": "event"
    },
    {
      "anonymous": false,
      "inputs": [
        {
          "indexed": true,
          "internalType": "bytes32",
          "name": "key",
          "type": "bytes32"
        },
        {
          "indexed": false,
          "internalType": "uint256",
          "name": "canceledAmountA",
          "type": "uint256"
        },
        {
          "indexed": false,
          "internalType": "uint256",
          "name": "canceledAmountB",
          "type": "uint256"
        }
      ],
      "name": "Cancel",
      "type": "event"
    },
    {
      "anonymous": false,
      "inputs": [
        {
          "indexed": true,
          "internalType": "bytes32",
          "name": "key",
          "type": "bytes32"
        },
        {
          "indexed": false,
          "internalType": "uint256",
          "name": "claimedAmountA",
          "type": "uint256"
        },
        {
          "indexed": false,
          "internalType": "uint256",
          "name": "claimedAmountB",
          "type": "uint256"
        }
      ],
      "name": "Claim",
      "type": "event"
    },
    {
      "anonymous": false,
      "inputs": [
        {
          "indexed": true,
          "internalType": "address",
          "name": "user",
          "type": "address"
        },
        {
          "indexed": true,
          "internalType": "bytes32",
          "name": "key",
          "type": "bytes32"
        },
        {
          "indexed": false,
          "internalType": "uint256",
          "name": "amountA",
          "type": "uint256"
        },
        {
          "indexed": false,
          "internalType": "uint256",
          "name": "amountB",
          "type": "uint256"
        },
        {
          "indexed": false,
          "internalType": "uint256",
          "name": "lpAmount",
          "type": "uint256"
        }
      ],
      "name": "Mint",
      "type": "event"
    },
    {
      "anonymous": false,
      "inputs": [
        {
          "indexed": true,
          "internalType": "bytes32",
          "name": "key",
          "type": "bytes32"
        },
        {
          "indexed": true,
          "internalType": "BookId",
          "name": "bookIdA",
          "type": "uint192"
        },
        {
          "indexed": true,
          "internalType": "BookId",
          "name": "bookIdB",
          "type": "uint192"
        },
        {
          "indexed": false,
          "internalType": "bytes32",
          "name": "salt",
          "type": "bytes32"
        },
        {
          "indexed": false,
          "internalType": "address",
          "name": "strategy",
          "type": "address"
        }
      ],
      "name": "Open",
      "type": "event"
    },
    {
      "anonymous": false,
      "inputs": [
        {
          "indexed": true,
          "internalType": "address",
          "name": "owner",
          "type": "address"
        },
        {
          "indexed": true,
          "internalType": "address",
          "name": "operator",
          "type": "address"
        },
        {
          "indexed": false,
          "internalType": "bool",
          "name": "approved",
          "type": "bool"
        }
      ],
      "name": "OperatorSet",
      "type": "event"
    },
    {
      "anonymous": false,
      "inputs": [
        {
          "indexed": true,
          "internalType": "address",
          "name": "previousOwner",
          "type": "address"
        },
        {
          "indexed": true,
          "internalType": "address",
          "name": "newOwner",
          "type": "address"
        }
      ],
      "name": "OwnershipTransferStarted",
      "type": "event"
    },
    {
      "anonymous": false,
      "inputs": [
        {
          "indexed": true,
          "internalType": "address",
          "name": "previousOwner",
          "type": "address"
        },
        {
          "indexed": true,
          "internalType": "address",
          "name": "newOwner",
          "type": "address"
        }
      ],
      "name": "OwnershipTransferred",
      "type": "event"
    },
    {
      "anonymous": false,
      "inputs": [
        {
          "indexed": true,
          "internalType": "bytes32",
          "name": "key",
          "type": "bytes32"
        },
        {
          "indexed": false,
          "internalType": "bool",
          "name": "paused",
          "type": "bool"
        }
      ],
      "name": "Pause",
      "type": "event"
    },
    {
      "anonymous": false,
      "inputs": [
        {
          "indexed": true,
          "internalType": "bytes32",
          "name": "key",
          "type": "bytes32"
        }
      ],
      "name": "Rebalance",
      "type": "event"
    },
    {
      "anonymous": false,
      "inputs": [
        {
          "indexed": false,
          "internalType": "address",
          "name": "caller",
          "type": "address"
        },
        {
          "indexed": true,
          "internalType": "address",
          "name": "from",
          "type": "address"
        },
        {
          "indexed": true,
          "internalType": "address",
          "name": "to",
          "type": "address"
        },
        {
          "indexed": true,
          "internalType": "uint256",
          "name": "id",
          "type": "uint256"
        },
        {
          "indexed": false,
          "internalType": "uint256",
          "name": "amount",
          "type": "uint256"
        }
      ],
      "name": "Transfer",
      "type": "event"
    },
    {
      "inputs": [],
      "name": "RATE_PRECISION",
      "outputs": [
        {
          "internalType": "uint256",
          "name": "",
          "type": "uint256"
        }
      ],
      "stateMutability": "view",
      "type": "function"
    },
    {
      "inputs": [
        {
          "internalType": "bytes32",
          "name": "key",
          "type": "bytes32"
        },
        {
          "internalType": "address",
          "name": "user",
          "type": "address"
        },
        {
          "internalType": "uint256",
          "name": "burnAmount",
          "type": "uint256"
        }
      ],
      "name": "_burn",
      "outputs": [
        {
          "internalType": "uint256",
          "name": "withdrawalA",
          "type": "uint256"
        },
        {
          "internalType": "uint256",
          "name": "withdrawalB",
          "type": "uint256"
        }
      ],
      "stateMutability": "nonpayable",
      "type": "function"
    },
    {
      "inputs": [
        {
          "components": [
            {
              "internalType": "Currency",
              "name": "base",
              "type": "address"
            },
            {
              "internalType": "uint64",
              "name": "unitSize",
              "type": "uint64"
            },
            {
              "internalType": "Currency",
              "name": "quote",
              "type": "address"
            },
            {
              "internalType": "FeePolicy",
              "name": "makerPolicy",
              "type": "uint24"
            },
            {
              "internalType": "contract IHooks",
              "name": "hooks",
              "type": "address"
            },
            {
              "internalType": "FeePolicy",
              "name": "takerPolicy",
              "type": "uint24"
            }
          ],
          "internalType": "struct IBookManager.BookKey",
          "name": "bookKeyA",
          "type": "tuple"
        },
        {
          "components": [
            {
              "internalType": "Currency",
              "name": "base",
              "type": "address"
            },
            {
              "internalType": "uint64",
              "name": "unitSize",
              "type": "uint64"
            },
            {
              "internalType": "Currency",
              "name": "quote",
              "type": "address"
            },
            {
              "internalType": "FeePolicy",
              "name": "makerPolicy",
              "type": "uint24"
            },
            {
              "internalType": "contract IHooks",
              "name": "hooks",
              "type": "address"
            },
            {
              "internalType": "FeePolicy",
              "name": "takerPolicy",
              "type": "uint24"
            }
          ],
          "internalType": "struct IBookManager.BookKey",
          "name": "bookKeyB",
          "type": "tuple"
        },
        {
          "internalType": "bytes32",
          "name": "salt",
          "type": "bytes32"
        },
        {
          "internalType": "address",
          "name": "strategy",
          "type": "address"
        }
      ],
      "name": "_open",
      "outputs": [
        {
          "internalType": "bytes32",
          "name": "key",
          "type": "bytes32"
        }
      ],
      "stateMutability": "nonpayable",
      "type": "function"
    },
    {
      "inputs": [
        {
          "internalType": "bytes32",
          "name": "key",
          "type": "bytes32"
        }
      ],
      "name": "_rebalance",
      "outputs": [],
      "stateMutability": "nonpayable",
      "type": "function"
    },
    {
      "inputs": [],
      "name": "acceptOwnership",
      "outputs": [],
      "stateMutability": "nonpayable",
      "type": "function"
    },
    {
      "inputs": [
        {
          "internalType": "address",
          "name": "",
          "type": "address"
        },
        {
          "internalType": "address",
          "name": "",
          "type": "address"
        },
        {
          "internalType": "uint256",
          "name": "",
          "type": "uint256"
        }
      ],
      "name": "allowance",
      "outputs": [
        {
          "internalType": "uint256",
          "name": "",
          "type": "uint256"
        }
      ],
      "stateMutability": "view",
      "type": "function"
    },
    {
      "inputs": [
        {
          "internalType": "address",
          "name": "spender",
          "type": "address"
        },
        {
          "internalType": "uint256",
          "name": "id",
          "type": "uint256"
        },
        {
          "internalType": "uint256",
          "name": "amount",
          "type": "uint256"
        }
      ],
      "name": "approve",
      "outputs": [
        {
          "internalType": "bool",
          "name": "",
          "type": "bool"
        }
      ],
      "stateMutability": "nonpayable",
      "type": "function"
    },
    {
      "inputs": [
        {
          "internalType": "address",
          "name": "",
          "type": "address"
        },
        {
          "internalType": "uint256",
          "name": "",
          "type": "uint256"
        }
      ],
      "name": "balanceOf",
      "outputs": [
        {
          "internalType": "uint256",
          "name": "",
          "type": "uint256"
        }
      ],
      "stateMutability": "view",
      "type": "function"
    },
    {
      "inputs": [],
      "name": "bookManager",
      "outputs": [
        {
          "internalType": "contract IBookManager",
          "name": "",
          "type": "address"
        }
      ],
      "stateMutability": "view",
      "type": "function"
    },
    {
      "inputs": [
        {
          "internalType": "BookId",
          "name": "",
          "type": "uint192"
        }
      ],
      "name": "bookPair",
      "outputs": [
        {
          "internalType": "BookId",
          "name": "",
          "type": "uint192"
        }
      ],
      "stateMutability": "view",
      "type": "function"
    },
    {
      "inputs": [
        {
          "internalType": "bytes32",
          "name": "key",
          "type": "bytes32"
        },
        {
          "internalType": "uint256",
          "name": "amount",
          "type": "uint256"
        },
        {
          "internalType": "uint256",
          "name": "minAmountA",
          "type": "uint256"
        },
        {
          "internalType": "uint256",
          "name": "minAmountB",
          "type": "uint256"
        }
      ],
      "name": "burn",
      "outputs": [
        {
          "internalType": "uint256",
          "name": "withdrawalA",
          "type": "uint256"
        },
        {
          "internalType": "uint256",
          "name": "withdrawalB",
          "type": "uint256"
        }
      ],
      "stateMutability": "nonpayable",
      "type": "function"
    },
    {
      "inputs": [
        {
          "internalType": "uint256",
          "name": "",
          "type": "uint256"
        }
      ],
      "name": "decimals",
      "outputs": [
        {
          "internalType": "uint8",
          "name": "",
          "type": "uint8"
        }
      ],
      "stateMutability": "pure",
      "type": "function"
    },
    {
      "inputs": [
        {
          "internalType": "bytes32",
          "name": "key",
          "type": "bytes32"
        }
      ],
      "name": "getBookPairs",
      "outputs": [
        {
          "internalType": "BookId",
          "name": "",
          "type": "uint192"
        },
        {
          "internalType": "BookId",
          "name": "",
          "type": "uint192"
        }
      ],
      "stateMutability": "view",
      "type": "function"
    },
    {
      "inputs": [
        {
          "internalType": "bytes32",
          "name": "key",
          "type": "bytes32"
        }
      ],
      "name": "getLiquidity",
      "outputs": [
        {
          "components": [
            {
              "internalType": "uint256",
              "name": "reserve",
              "type": "uint256"
            },
            {
              "internalType": "uint256",
              "name": "claimable",
              "type": "uint256"
            },
            {
              "internalType": "uint256",
              "name": "cancelable",
              "type": "uint256"
            }
          ],
          "internalType": "struct IRebalancer.Liquidity",
          "name": "liquidityA",
          "type": "tuple"
        },
        {
          "components": [
            {
              "internalType": "uint256",
              "name": "reserve",
              "type": "uint256"
            },
            {
              "internalType": "uint256",
              "name": "claimable",
              "type": "uint256"
            },
            {
              "internalType": "uint256",
              "name": "cancelable",
              "type": "uint256"
            }
          ],
          "internalType": "struct IRebalancer.Liquidity",
          "name": "liquidityB",
          "type": "tuple"
        }
      ],
      "stateMutability": "view",
      "type": "function"
    },
    {
      "inputs": [
        {
          "internalType": "bytes32",
          "name": "key",
          "type": "bytes32"
        }
      ],
      "name": "getPool",
      "outputs": [
        {
          "components": [
            {
              "internalType": "BookId",
              "name": "bookIdA",
              "type": "uint192"
            },
            {
              "internalType": "BookId",
              "name": "bookIdB",
              "type": "uint192"
            },
            {
              "internalType": "contract IStrategy",
              "name": "strategy",
              "type": "address"
            },
            {
              "internalType": "bool",
              "name": "paused",
              "type": "bool"
            },
            {
              "internalType": "uint256",
              "name": "reserveA",
              "type": "uint256"
            },
            {
              "internalType": "uint256",
              "name": "reserveB",
              "type": "uint256"
            },
            {
              "internalType": "OrderId[]",
              "name": "orderListA",
              "type": "uint256[]"
            },
            {
              "internalType": "OrderId[]",
              "name": "orderListB",
              "type": "uint256[]"
            }
          ],
          "internalType": "struct IRebalancer.Pool",
          "name": "",
          "type": "tuple"
        }
      ],
      "stateMutability": "view",
      "type": "function"
    },
    {
      "inputs": [
        {
          "internalType": "address",
          "name": "",
          "type": "address"
        },
        {
          "internalType": "address",
          "name": "",
          "type": "address"
        }
      ],
      "name": "isOperator",
      "outputs": [
        {
          "internalType": "bool",
          "name": "",
          "type": "bool"
        }
      ],
      "stateMutability": "view",
      "type": "function"
    },
    {
      "inputs": [
        {
          "internalType": "address",
          "name": "lockCaller",
          "type": "address"
        },
        {
          "internalType": "bytes",
          "name": "data",
          "type": "bytes"
        }
      ],
      "name": "lockAcquired",
      "outputs": [
        {
          "internalType": "bytes",
          "name": "",
          "type": "bytes"
        }
      ],
      "stateMutability": "nonpayable",
      "type": "function"
    },
    {
      "inputs": [
        {
          "internalType": "bytes32",
          "name": "key",
          "type": "bytes32"
        },
        {
          "internalType": "uint256",
          "name": "amountA",
          "type": "uint256"
        },
        {
          "internalType": "uint256",
          "name": "amountB",
          "type": "uint256"
        },
        {
          "internalType": "uint256",
          "name": "minLpAmount",
          "type": "uint256"
        }
      ],
      "name": "mint",
      "outputs": [
        {
          "internalType": "uint256",
          "name": "mintAmount",
          "type": "uint256"
        }
      ],
      "stateMutability": "payable",
      "type": "function"
    },
    {
      "inputs": [
        {
          "components": [
            {
              "internalType": "Currency",
              "name": "base",
              "type": "address"
            },
            {
              "internalType": "uint64",
              "name": "unitSize",
              "type": "uint64"
            },
            {
              "internalType": "Currency",
              "name": "quote",
              "type": "address"
            },
            {
              "internalType": "FeePolicy",
              "name": "makerPolicy",
              "type": "uint24"
            },
            {
              "internalType": "contract IHooks",
              "name": "hooks",
              "type": "address"
            },
            {
              "internalType": "FeePolicy",
              "name": "takerPolicy",
              "type": "uint24"
            }
          ],
          "internalType": "struct IBookManager.BookKey",
          "name": "bookKeyA",
          "type": "tuple"
        },
        {
          "components": [
            {
              "internalType": "Currency",
              "name": "base",
              "type": "address"
            },
            {
              "internalType": "uint64",
              "name": "unitSize",
              "type": "uint64"
            },
            {
              "internalType": "Currency",
              "name": "quote",
              "type": "address"
            },
            {
              "internalType": "FeePolicy",
              "name": "makerPolicy",
              "type": "uint24"
            },
            {
              "internalType": "contract IHooks",
              "name": "hooks",
              "type": "address"
            },
            {
              "internalType": "FeePolicy",
              "name": "takerPolicy",
              "type": "uint24"
            }
          ],
          "internalType": "struct IBookManager.BookKey",
          "name": "bookKeyB",
          "type": "tuple"
        },
        {
          "internalType": "bytes32",
          "name": "salt",
          "type": "bytes32"
        },
        {
          "internalType": "address",
          "name": "strategy",
          "type": "address"
        }
      ],
      "name": "open",
      "outputs": [
        {
          "internalType": "bytes32",
          "name": "",
          "type": "bytes32"
        }
      ],
      "stateMutability": "nonpayable",
      "type": "function"
    },
    {
      "inputs": [],
      "name": "owner",
      "outputs": [
        {
          "internalType": "address",
          "name": "",
          "type": "address"
        }
      ],
      "stateMutability": "view",
      "type": "function"
    },
    {
      "inputs": [
        {
          "internalType": "bytes32",
          "name": "key",
          "type": "bytes32"
        }
      ],
      "name": "pause",
      "outputs": [],
      "stateMutability": "nonpayable",
      "type": "function"
    },
    {
      "inputs": [],
      "name": "pendingOwner",
      "outputs": [
        {
          "internalType": "address",
          "name": "",
          "type": "address"
        }
      ],
      "stateMutability": "view",
      "type": "function"
    },
    {
      "inputs": [
        {
          "internalType": "bytes32",
          "name": "key",
          "type": "bytes32"
        }
      ],
      "name": "rebalance",
      "outputs": [],
      "stateMutability": "nonpayable",
      "type": "function"
    },
    {
      "inputs": [],
      "name": "renounceOwnership",
      "outputs": [],
      "stateMutability": "nonpayable",
      "type": "function"
    },
    {
      "inputs": [
        {
          "internalType": "bytes32",
          "name": "key",
          "type": "bytes32"
        }
      ],
      "name": "resume",
      "outputs": [],
      "stateMutability": "nonpayable",
      "type": "function"
    },
    {
      "inputs": [
        {
          "internalType": "address",
          "name": "operator",
          "type": "address"
        },
        {
          "internalType": "bool",
          "name": "approved",
          "type": "bool"
        }
      ],
      "name": "setOperator",
      "outputs": [
        {
          "internalType": "bool",
          "name": "",
          "type": "bool"
        }
      ],
      "stateMutability": "nonpayable",
      "type": "function"
    },
    {
      "inputs": [
        {
          "internalType": "bytes32",
          "name": "key",
          "type": "bytes32"
        },
        {
          "internalType": "address",
          "name": "strategy",
          "type": "address"
        }
      ],
      "name": "setStrategy",
      "outputs": [],
      "stateMutability": "nonpayable",
      "type": "function"
    },
    {
      "inputs": [
        {
          "internalType": "bytes4",
          "name": "interfaceId",
          "type": "bytes4"
        }
      ],
      "name": "supportsInterface",
      "outputs": [
        {
          "internalType": "bool",
          "name": "",
          "type": "bool"
        }
      ],
      "stateMutability": "view",
      "type": "function"
    },
    {
      "inputs": [
        {
          "internalType": "uint256",
          "name": "",
          "type": "uint256"
        }
      ],
      "name": "totalSupply",
      "outputs": [
        {
          "internalType": "uint256",
          "name": "",
          "type": "uint256"
        }
      ],
      "stateMutability": "view",
      "type": "function"
    },
    {
      "inputs": [
        {
          "internalType": "address",
          "name": "receiver",
          "type": "address"
        },
        {
          "internalType": "uint256",
          "name": "id",
          "type": "uint256"
        },
        {
          "internalType": "uint256",
          "name": "amount",
          "type": "uint256"
        }
      ],
      "name": "transfer",
      "outputs": [
        {
          "internalType": "bool",
          "name": "",
          "type": "bool"
        }
      ],
      "stateMutability": "nonpayable",
      "type": "function"
    },
    {
      "inputs": [
        {
          "internalType": "address",
          "name": "sender",
          "type": "address"
        },
        {
          "internalType": "address",
          "name": "receiver",
          "type": "address"
        },
        {
          "internalType": "uint256",
          "name": "id",
          "type": "uint256"
        },
        {
          "internalType": "uint256",
          "name": "amount",
          "type": "uint256"
        }
      ],
      "name": "transferFrom",
      "outputs": [
        {
          "internalType": "bool",
          "name": "",
          "type": "bool"
        }
      ],
      "stateMutability": "nonpayable",
      "type": "function"
    },
    {
      "inputs": [
        {
          "internalType": "address",
          "name": "newOwner",
          "type": "address"
        }
      ],
      "name": "transferOwnership",
      "outputs": [],
      "stateMutability": "nonpayable",
      "type": "function"
    },
    {
      "stateMutability": "payable",
      "type": "receive"
    }
  ],
  "transactionHash": "0x86ae5d878b911e3265680d855da7f77b36159aed13869aaae487bb7217b7bf66",
  "args": [
    "0xAA9575d63dFC224b9583fC303dB3188C08d5C85A",
    "0x5F79EE8f8fA862E98201120d83c4eC39D9468D49"
  ],
  "numDeployments": 1,
  "solcInputHash": "1da1a4946730beb3f295a0d09b7f08b8",
  "bytecode": "0x60a060405234801561000f575f80fd5b5060405161482c38038061482c83398101604081905261002e916100f7565b806001600160a01b03811661005c57604051631e4fbdf760e01b81525f600482015260240160405180910390fd5b61006581610078565b50506001600160a01b031660805261012f565b600180546001600160a01b031916905561009181610094565b50565b5f80546001600160a01b038381166001600160a01b0319831681178455604051919092169283917f8be0079c531659141344cd1fd0a4f28419497f9722a3daafe3b4186f6b6457e09190a35050565b6001600160a01b0381168114610091575f80fd5b5f8060408385031215610108575f80fd5b8251610113816100e3565b6020840151909250610124816100e3565b809150509250929050565b60805161463d6101ef5f395f8181610359015281816107c80152818161086201528181610b4e015281816110f5015281816111cd0152818161136c0152818161175c015281816117e801528181611869015281816118f501528181611c5401528181611e920152818161222f01528181612345015281816126dd01528181612819015281816128c601528181612980015281816129ef01528181612a4701528181612dae01528181612f860152818161306601526130fb015261463d5ff3fe6080604052600436106101dd575f3560e01c80638da5cb5b116100fd578063e30c397811610092578063f6c0092711610062578063f6c009271461066a578063fa6793d514610696578063fa7a2962146106c3578063fe99049a146106e2575f80fd5b8063e30c3978146105f0578063ed56531a1461060d578063f2fde38b1461062c578063f3cbc88c1461064b575f80fd5b8063b6363cf2116100cd578063b6363cf21461050d578063bd85b03914610546578063c630ed7d14610571578063e27ff0ad146105d1575f80fd5b80638da5cb5b14610467578063998ff4ef14610483578063a14cbb12146104cf578063a1d5f131146104ee575f80fd5b80632b3ba68111610173578063558a729711610143578063558a7297146103e4578063598af9e714610403578063715018a61461043f57806379ba509714610453575f80fd5b80632b3ba681146103325780633f322bc9146103485780633f47e66214610393578063426a8493146103c5575f80fd5b806309cb66c4116101ae57806309cb66c4146102a05780630a31b953146102b357806315c7afb4146102e75780631b022ec814610313575f80fd5b8062fdd58e146101e857806301ffc9a714610231578063022dd4ef14610260578063095bcdb614610281575f80fd5b366101e457005b5f80fd5b3480156101f3575f80fd5b5061021e610202366004613839565b600360209081525f928352604080842090915290825290205481565b6040519081526020015b60405180910390f35b34801561023c575f80fd5b5061025061024b366004613863565b610701565b6040519015158152602001610228565b34801561026b575f80fd5b5061027f61027a36600461388a565b610769565b005b34801561028c575f80fd5b5061025061029b3660046138a1565b610a63565b61021e6102ae3660046138d3565b610b1d565b3480156102be575f80fd5b506102d26102cd3660046138d3565b61106d565b60408051928352602083019190915201610228565b3480156102f2575f80fd5b50610306610301366004613902565b6111c0565b60405161022891906139ae565b34801561031e575f80fd5b5061027f61032d36600461388a565b611316565b34801561033d575f80fd5b5061021e620f424081565b348015610353575f80fd5b5061037b7f000000000000000000000000000000000000000000000000000000000000000081565b6040516001600160a01b039091168152602001610228565b34801561039e575f80fd5b506103b36103ad36600461388a565b50601290565b60405160ff9091168152602001610228565b3480156103d0575f80fd5b506102506103df3660046138a1565b611442565b3480156103ef575f80fd5b506102506103fe3660046139cd565b6114a6565b34801561040e575f80fd5b5061021e61041d366004613a04565b600460209081525f938452604080852082529284528284209052825290205481565b34801561044a575f80fd5b5061027f611515565b34801561045e575f80fd5b5061027f611528565b348015610472575f80fd5b505f546001600160a01b031661037b565b34801561048e575f80fd5b506104b761049d366004613a42565b60076020525f90815260409020546001600160c01b031681565b6040516001600160c01b039091168152602001610228565b3480156104da575f80fd5b5061027f6104e9366004613a68565b611571565b3480156104f9575f80fd5b5061021e610508366004613aa1565b6115a9565b348015610518575f80fd5b50610250610527366004613af2565b600260209081525f928352604080842090915290825290205460ff1681565b348015610551575f80fd5b5061021e61056036600461388a565b60056020525f908152604090205481565b34801561057c575f80fd5b506105b161058b36600461388a565b5f90815260066020526040902080546001909101546001600160c01b0391821692911690565b604080516001600160c01b03938416815292909116602083015201610228565b3480156105dc575f80fd5b506102d26105eb366004613b1e565b611a95565b3480156105fb575f80fd5b506001546001600160a01b031661037b565b348015610618575f80fd5b5061027f61062736600461388a565b611d51565b348015610637575f80fd5b5061027f610646366004613b42565b611e17565b348015610656575f80fd5b5061021e610665366004613aa1565b611e87565b348015610675575f80fd5b5061068961068436600461388a565b611f83565b6040516102289190613b97565b3480156106a1575f80fd5b506106b56106b036600461388a565b612100565b604051610228929190613c40565b3480156106ce575f80fd5b5061027f6106dd36600461388a565b612429565b3480156106ed575f80fd5b506102506106fc366004613c79565b612483565b5f7f01ffc9a7000000000000000000000000000000000000000000000000000000006001600160e01b03198316148061076357507f0f632fb3000000000000000000000000000000000000000000000000000000006001600160e01b03198316145b92915050565b333014610789576040516314e1dbf760e11b815260040160405180910390fd5b5f81815260066020526040808220600381015460048083015483549451639b22917d60e01b81526001600160c01b0390951691850191909152919390927f00000000000000000000000000000000000000000000000000000000000000006001600160a01b031690639b22917d9060240160c060405180830381865afa158015610815573d5f803e3d5ffd5b505050506040513d601f19601f820116820180604052508101906108399190613d72565b6001850154604051639b22917d60e01b81526001600160c01b0390911660048201529091505f907f00000000000000000000000000000000000000000000000000000000000000006001600160a01b031690639b22917d9060240160c060405180830381865afa1580156108af573d5f803e3d5ffd5b505050506040513d601f19601f820116820180604052508101906108d39190613d72565b60028601546040517f3b93fabc000000000000000000000000000000000000000000000000000000008152600481018990529192506001600160a01b031690633b93fabc906024015f60405180830381865afa92505050801561095757506040513d5f823e601f3d908101601f191682016040526109549190810190613eb3565b60015b15610a345761096988886001806125f4565b5050505061097b8483896005016126a0565b6109898382896006016126a0565b60028701546040517fedffdaaf0000000000000000000000000000000000000000000000000000000081526001600160a01b039091169063edffdaaf906109da9033908c9087908790600401613f5a565b5f604051808303815f87803b1580156109f1575f80fd5b505af1158015610a03573d5f803e3d5ffd5b50506040518a92507f37f8042257f6b4d65b9614deb7792e5b374db2fdcd1983bf8a1247a8a788af5c91505f90a250505b610a428260400151856127f8565b60038601558151610a5390846127f8565b8560040181905550505050505050565b335f908152600360209081526040808320858452909152812080548391908390610a8e908490613fb2565b90915550506001600160a01b0384165f90815260036020908152604080832086845290915281208054849290610ac5908490613fc5565b909155505060408051338082526020820185905285926001600160a01b038816927f1b3d7edb2e9c0b0e7c525b20aaaef0f5940d2ed71663c7d39266ecafac72885991015b60405180910390a45060015b9392505050565b5f8481526006602052604080822080549151639b22917d60e01b81526001600160c01b0390921660048301529082907f00000000000000000000000000000000000000000000000000000000000000006001600160a01b031690639b22917d9060240160c060405180830381865afa158015610b9b573d5f803e3d5ffd5b505050506040513d601f19601f82011682018060405250810190610bbf9190613d72565b5f88815260056020526040812054919250819003610d7c57861580610be2575085155b15610c19576040517f2c5211c600000000000000000000000000000000000000000000000000000000815260040160405180910390fd5b60408201515f906001600160a01b031615610cad5782604001516001600160a01b031663313ce5676040518163ffffffff1660e01b8152600401602060405180830381865afa158015610c6e573d5f803e3d5ffd5b505050506040513d601f19601f82011682018060405250810190610c929190613fd8565b610c9d906012613ff8565b610ca890600a6140f1565b610cb0565b60015b83519091505f906001600160a01b031615610d4357835f01516001600160a01b031663313ce5676040518163ffffffff1660e01b8152600401602060405180830381865afa158015610d04573d5f803e3d5ffd5b505050506040513d601f19601f82011682018060405250810190610d289190613fd8565b610d33906012613ff8565b610d3e90600a6140f1565b610d46565b60015b90505f610d53838b6140ff565b90505f610d60838b6140ff565b9050808211610d6f5780610d71565b815b975050505050610e7e565b5f80610d878a612100565b915091505f82604001518360200151845f0151610da49190613fc5565b610dae9190613fc5565b90505f82604001518360200151845f0151610dc99190613fc5565b610dd39190613fc5565b905081158015610de1575080155b15610df4575f9950899a508a9750610e79565b815f03610e1057610e068a8683612ad0565b97505f9a50610e79565b805f03610e2c57610e228b8684612ad0565b97505f9950610e79565b5f610e388c8785612ad0565b90505f610e468c8885612ad0565b905080821115610e6557809950610e5e848b89612aeb565b9c50610e76565b819950610e73838b89612aeb565b9b505b50505b505050505b84841015610e9f576040516307dd37f760e41b815260040160405180910390fd5b604082015134906001600160a01b0316610edc5787341015610ed457604051632a9ffab760e21b815260040160405180910390fd5b879003610ef6565b6040830151610ef6906001600160a01b031633308b612b0e565b82516001600160a01b0316610f2e5786341015610f2657604051632a9ffab760e21b815260040160405180910390fd5b869003610f45565b8251610f45906001600160a01b031633308a612b0e565b87846003015f828254610f589190613fc5565b9250508190555086846004015f828254610f729190613fc5565b90915550610f839050338a87612b81565b60028401546040517fa3a36f55000000000000000000000000000000000000000000000000000000008152336004820152602481018b905260448101879052606481018490526001600160a01b039091169063a3a36f55906084015f604051808303815f87803b158015610ff5575f80fd5b505af1158015611007573d5f803e3d5ffd5b5050604080518b8152602081018b90529081018890528b92503391507f1d43dbd7e59f8c9371169f5c49c01e100227d9ee5f5fe54665cf10e35042bb729060600160405180910390a38015611061576110615f3383612bb3565b50505050949350505050565b6040805160248101869052336044820152606480820186905282518083039091018152608490910182526020810180516001600160e01b03167fe27ff0ad0000000000000000000000000000000000000000000000000000000017905290517f9ca179980000000000000000000000000000000000000000000000000000000081525f9182917f00000000000000000000000000000000000000000000000000000000000000006001600160a01b031691639ca1799891611132913091600401614116565b5f604051808303815f875af115801561114d573d5f803e3d5ffd5b505050506040513d5f823e601f3d908101601f191682016040526111749190810190614137565b80602001905181019061118791906141c6565b90925090508382108061119957508281105b156111b7576040516307dd37f760e41b815260040160405180910390fd5b94509492505050565b6060336001600160a01b037f00000000000000000000000000000000000000000000000000000000000000001614611224576040517f4bd37f4300000000000000000000000000000000000000000000000000000000815260040160405180910390fd5b6001600160a01b0384163014611266576040517f66a7598c00000000000000000000000000000000000000000000000000000000815260040160405180910390fd5b5f80306001600160a01b031685856040516112829291906141e8565b5f604051808303815f865af19150503d805f81146112bb576040519150601f19603f3d011682016040523d82523d5f602084013e6112c0565b606091505b509150915081156112d4579150610b169050565b80515f0361130e576040517fa40afa3800000000000000000000000000000000000000000000000000000000815260040160405180910390fd5b805160208201fd5b5f818152600660205260409020600201548190600160a01b900460ff161561136a576040517f9e87fac800000000000000000000000000000000000000000000000000000000815260040160405180910390fd5b7f00000000000000000000000000000000000000000000000000000000000000006001600160a01b0316639ca179983063022dd4ef60e01b856040516024016113b591815260200190565b60408051601f198184030181529181526020820180516001600160e01b03166001600160e01b03199485161790525160e085901b90921682526113fb9291600401614116565b5f604051808303815f875af1158015611416573d5f803e3d5ffd5b505050506040513d5f823e601f3d908101601f1916820160405261143d9190810190614137565b505050565b335f8181526004602090815260408083206001600160a01b03881680855290835281842087855290925280832085905551919285927fb3fd5071835887567a0671151121894ddccc2842f1d10bedad13e0d17cace9a790610b0a9087815260200190565b335f8181526002602090815260408083206001600160a01b038716808552908352818420805460ff191687151590811790915591519182529293917fceb576d9f15e4e200fdb5096d64d5dfd667e16def20c1eefd14256d8e3faa267910160405180910390a350600192915050565b61151d612c95565b6115265f612cc1565b565b60015433906001600160a01b031681146115655760405163118cdaa760e01b81526001600160a01b03821660048201526024015b60405180910390fd5b61156e81612cc1565b50565b611579612c95565b5f9182526006602052604090912060020180546001600160a01b0319166001600160a01b03909216919091179055565b5f3330146115ca576040516314e1dbf760e11b815260040160405180910390fd5b6115fb6115da6020860186613b42565b6115ea6060880160408901613b42565b6001600160a01b0391821691161490565b801561162257506116226116156060860160408701613b42565b6115ea6020880188613b42565b611658576040517f27a4015200000000000000000000000000000000000000000000000000000000815260040160405180910390fd5b5f61166960a0870160808801613b42565b6001600160a01b031614158061169757505f61168b60a0860160808701613b42565b6001600160a01b031614155b156116ce576040517f9c9d882300000000000000000000000000000000000000000000000000000000815260040160405180910390fd5b6001600160a01b03821661170e576040517f4e236e9a00000000000000000000000000000000000000000000000000000000815260040160405180910390fd5b5f611726611721368890038801886141f7565b612cda565b90505f61173b611721368890038801886141f7565b604051632ad7b51960e11b81526001600160c01b03841660048201529091507f00000000000000000000000000000000000000000000000000000000000000006001600160a01b0316906355af6a3290602401602060405180830381865afa1580156117a9573d5f803e3d5ffd5b505050506040513d601f19601f820116820180604052508101906117cd9190614276565b61184b5760405163fefc7c5160e01b81526001600160a01b037f0000000000000000000000000000000000000000000000000000000000000000169063fefc7c519061181d908a90600401614330565b5f604051808303815f87803b158015611834575f80fd5b505af1158015611846573d5f803e3d5ffd5b505050505b604051632ad7b51960e11b81526001600160c01b03821660048201527f00000000000000000000000000000000000000000000000000000000000000006001600160a01b0316906355af6a3290602401602060405180830381865afa1580156118b6573d5f803e3d5ffd5b505050506040513d601f19601f820116820180604052508101906118da9190614276565b6119585760405163fefc7c5160e01b81526001600160a01b037f0000000000000000000000000000000000000000000000000000000000000000169063fefc7c519061192a908990600401614330565b5f604051808303815f87803b158015611941575f80fd5b505af1158015611953573d5f803e3d5ffd5b505050505b611963828287612d15565b5f818152600660205260409020600201549093506001600160a01b0316156119b7576040517f1da42b2600000000000000000000000000000000000000000000000000000000815260040160405180910390fd5b5f83815260066020908152604080832080546001600160c01b038781167fffffffffffffffff0000000000000000000000000000000000000000000000009283168117845560018401805492891692841683179055600290930180546001600160a01b038c166001600160a01b03199091168117909155838752600786528487208054841683179055818752958490208054909216831790915582518a8152938401949094529186917f66d8f0c63665a9bd1357e5d422d5f538805b225f260974cb408a66635040ec6c910160405180910390a45050949350505050565b5f80333014611ab7576040516314e1dbf760e11b815260040160405180910390fd5b5f85815260066020908152604080832060059092528220549091808080611ae08b878b886125f4565b60038a015460048b015494985092965090945092509085878c611b038786613fc5565b611b0d91906140ff565b611b179190614351565b611b219190613fc5565b995084878c611b308685613fc5565b611b3a91906140ff565b611b449190614351565b611b4e9190613fc5565b9850611b5b8c8e8d612d81565b60028801546040517fdb7c74b6000000000000000000000000000000000000000000000000000000008152336004820152602481018f9052604481018d9052606481018990526001600160a01b039091169063db7c74b6906084015f604051808303815f87803b158015611bcd575f80fd5b505af1158015611bdf573d5f803e3d5ffd5b5050604080518d8152602081018d90529081018e90528f92506001600160a01b038f1691507f974da0fadf774cec6d550cb40d607dc3a0b7dee97aa1cd03a2fa3f6603b943ab9060600160405180910390a38754604051639b22917d60e01b81526001600160c01b0390911660048201525f907f00000000000000000000000000000000000000000000000000000000000000006001600160a01b031690639b22917d9060240160c060405180830381865afa158015611ca1573d5f803e3d5ffd5b505050506040513d601f19601f82011682018060405250810190611cc59190613d72565b90508a15611ce6576040810151611ce6906001600160a01b03168e8d612bb3565b8915611d02578051611d02906001600160a01b03168e8c612bb3565b8a611d118260400151856127f8565b611d1b9190613fb2565b60038a015580518a90611d2e90846127f8565b611d389190613fb2565b8960040181905550505050505050505050935093915050565b611d59612c95565b5f81815260066020526040812090808080611d7786866001806125f4565b93509350935093508184611d8b9190613fc5565b856003015f828254611d9d9190613fc5565b90915550611dad90508184613fc5565b856004015f828254611dbf9190613fc5565b909155505060028501805460ff60a01b1916600160a01b1790556040516001815286907f7b28113e89c91a053d5a882b35e6538a40a9a286d71e232085b8290dc5aa85c79060200160405180910390a2505050505050565b611e1f612c95565b600180546001600160a01b0383166001600160a01b03199091168117909155611e4f5f546001600160a01b031690565b6001600160a01b03167f38d16b8cac22d99fc7c124b9cd0de2d3fa1faef420bfe791d8c362d765e2270060405160405180910390a350565b5f611e90612c95565b7f00000000000000000000000000000000000000000000000000000000000000006001600160a01b0316639ca179983063a1d5f13160e01b88888888604051602401611edf9493929190614370565b60408051601f198184030181529181526020820180516001600160e01b03166001600160e01b03199485161790525160e085901b9092168252611f259291600401614116565b5f604051808303815f875af1158015611f40573d5f803e3d5ffd5b505050506040513d5f823e601f3d908101601f19168201604052611f679190810190614137565b806020019051810190611f7a91906143ac565b95945050505050565b611fe26040518061010001604052805f6001600160c01b031681526020015f6001600160c01b031681526020015f6001600160a01b031681526020015f151581526020015f81526020015f815260200160608152602001606081525090565b5f8281526006602090815260409182902082516101008101845281546001600160c01b0390811682526001830154168184015260028201546001600160a01b03811682860152600160a01b900460ff161515606082015260038201546080820152600482015460a08201526005820180548551818602810186019096528086529194929360c0860193929083018282801561209a57602002820191905f5260205f20905b815481526020019060010190808311612086575b50505050508152602001600682018054806020026020016040519081016040528092919081815260200182805480156120f057602002820191905f5260205f20905b8154815260200190600101908083116120dc575b5050505050815250509050919050565b61212160405180606001604052805f81526020015f81526020015f81525090565b61214260405180606001604052805f81526020015f81526020015f81525090565b5f83815260066020908152604080832060038101548652600481015485526005810180548351818602810186019094528084529194939091908301828280156121a857602002820191905f5260205f20905b815481526020019060010190808311612194575b505050505090505f826006018054806020026020016040519081016040528092919081815260200182805480156121fc57602002820191905f5260205f20905b8154815260200190600101908083116121e8575b505050505090505f82511115612318578254604051639b22917d60e01b81526001600160c01b0390911660048201525f907f00000000000000000000000000000000000000000000000000000000000000006001600160a01b031690639b22917d9060240160c060405180830381865afa15801561227c573d5f803e3d5ffd5b505050506040513d601f19601f820116820180604052508101906122a09190613d72565b90505f5b8351811015612315575f806122db846060015185602001518886815181106122ce576122ce6143c3565b6020026020010151612da9565b9150915081896040018181516122f19190613fc5565b905250602088018051829190612308908390613fc5565b90525050506001016122a4565b50505b805115612421576001830154604051639b22917d60e01b81526001600160c01b0390911660048201525f907f00000000000000000000000000000000000000000000000000000000000000006001600160a01b031690639b22917d9060240160c060405180830381865afa158015612392573d5f803e3d5ffd5b505050506040513d601f19601f820116820180604052508101906123b69190613d72565b90505f5b825181101561241e575f806123e4846060015185602001518786815181106122ce576122ce6143c3565b9150915080896020018181516123fa9190613fc5565b905250604088018051839190612411908390613fc5565b90525050506001016123ba565b50505b505050915091565b612431612c95565b5f818152600660209081526040808320600201805460ff60a01b191690555191825282917f7b28113e89c91a053d5a882b35e6538a40a9a286d71e232085b8290dc5aa85c7910160405180910390a250565b5f336001600160a01b038616148015906124c057506001600160a01b0385165f90815260026020908152604080832033845290915290205460ff16155b15612530576001600160a01b0385165f90815260046020908152604080832033845282528083208684529091529020545f19811461252e576125028382613fb2565b6001600160a01b0387165f90815260046020908152604080832033845282528083208884529091529020555b505b6001600160a01b0385165f90815260036020908152604080832086845290915281208054849290612562908490613fb2565b90915550506001600160a01b0384165f90815260036020908152604080832086845290915281208054849290612599908490613fc5565b9091555050604080513381526020810184905284916001600160a01b0380881692908916917f1b3d7edb2e9c0b0e7c525b20aaaef0f5940d2ed71663c7d39266ecafac728859910160405180910390a4506001949350505050565b5f805f80612606876005018787612f08565b9094509050612619600688018787612f08565b604080518281526020810185905292955090935089917f1c29b938e5c165e4f17dcbaf854af84a6c529c3f0face137b12bda74606cca9e910160405180910390a2604080518581526020810185905289917f5721685080049ebad55f69ed0f4bf84a11d57cd2050e67986deab2323a9b2103910160405180910390a2945094509450949050565b5f5b82518110156127f2578281815181106126bd576126bd6143c3565b60200260200101516020015167ffffffffffffffff165f03156127ea575f7f00000000000000000000000000000000000000000000000000000000000000006001600160a01b0316631dbef488604051806080016040528088815260200187868151811061272d5761272d6143c3565b60200260200101515f015160020b8152602001878681518110612752576127526143c3565b60200260200101516020015167ffffffffffffffff1681526020015f6001600160a01b03168152506040518263ffffffff1660e01b815260040161279691906143d7565b60408051808303815f875af11580156127b1573d5f803e3d5ffd5b505050506040513d601f19601f820116820180604052508101906127d591906141c6565b5083546001810185555f858152602090200155505b6001016126a2565b50505050565b604051636a256b2960e01b81526001600160a01b0383811660048301525f917f000000000000000000000000000000000000000000000000000000000000000090911690636a256b29906024016020604051808303815f875af1158015612861573d5f803e3d5ffd5b505050506040513d601f19601f8201168201806040525081019061288591906143ac565b506040517f9611cf6c0000000000000000000000000000000000000000000000000000000081523060048201526001600160a01b0384811660248301525f917f000000000000000000000000000000000000000000000000000000000000000090911690639611cf6c90604401602060405180830381865afa15801561290d573d5f803e3d5ffd5b505050506040513d601f19601f8201168201806040525081019061293191906143ac565b90505f8113156129ea576040517fd9caed120000000000000000000000000000000000000000000000000000000081526001600160a01b038581166004830152306024830152604482018390527f0000000000000000000000000000000000000000000000000000000000000000169063d9caed12906064015f604051808303815f87803b1580156129c1575f80fd5b505af11580156129d3573d5f803e3d5ffd5b5050505080836129e39190613fc5565b9250612ac8565b612a287f0000000000000000000000000000000000000000000000000000000000000000612a178361448d565b6001600160a01b0387169190612bb3565b604051636a256b2960e01b81526001600160a01b0385811660048301527f00000000000000000000000000000000000000000000000000000000000000001690636a256b29906024016020604051808303815f875af1158015612a8d573d5f803e3d5ffd5b505050506040513d601f19601f82011682018060405250810190612ab191906143ac565b50612abb8161448d565b612ac59084613fb2565b92505b509092915050565b5f825f190484118302158202612ae4575f80fd5b5091020490565b5f825f190484118302158202612aff575f80fd5b50910281810615159190040190565b604080516001600160a01b0385811660248301528416604482015260648082018490528251808303909101815260849091019091526020810180516001600160e01b03167f23b872dd000000000000000000000000000000000000000000000000000000001790526127f290859061322f565b612b8c8383836132b4565b5f8281526005602052604081208054839290612ba9908490613fc5565b9091555050505050565b5f6001600160a01b038416612c08575f805f8085875af1905080612c03576040517ff4b3b1bc00000000000000000000000000000000000000000000000000000000815260040160405180910390fd5b6127f2565b6040517fa9059cbb0000000000000000000000000000000000000000000000000000000081526001600160a01b038416600482015282602482015260205f6044835f895af13d15601f3d1160015f5114161716915050806127f2576040517ff27f64e400000000000000000000000000000000000000000000000000000000815260040160405180910390fd5b5f546001600160a01b031633146115265760405163118cdaa760e01b815233600482015260240161155c565b600180546001600160a01b031916905561156e81613339565b5f8082604051602001612ced91906144c3565b60408051601f1981840301815291905280516020909101206001600160c01b03169392505050565b5f826001600160c01b0316846001600160c01b03161115612d34579192915b6040805167ffffffffffffffff1986831b811660208301529185901b9091166038820152605081018390526070016040516020818303038152906040528051906020012090509392505050565b612d8c838383613388565b5f8281526005602052604081208054839290612ba9908490613fb2565b5f805f7f00000000000000000000000000000000000000000000000000000000000000006001600160a01b031663d09ef241856040518263ffffffff1660e01b8152600401612dfa91815260200190565b606060405180830381865afa158015612e15573d5f803e3d5ffd5b505050506040513d601f19601f82011682018060405250810190612e39919061452a565b90508467ffffffffffffffff16816020015167ffffffffffffffff16612e5f91906140ff565b9250612ea28567ffffffffffffffff16826040015167ffffffffffffffff16612e8891906140ff565b5f612e988760281c62ffffff1690565b60020b9190613404565b9150612eb38662ffffff1660171c90565b15612ede575f612eca62ffffff881685600161342e565b9050612ed6818561459a565b935050612eff565b5f612eef62ffffff8816848361342e565b9050612efb81846145c1565b9250505b50935093915050565b5f805f85805480602002602001604051908101604052809291908181526020018280548015612f5457602002820191905f5260205f20905b815481526020019060010190808311612f40575b505050505090505f5b815181101561321c575f828281518110612f7957612f796143c3565b602002602001015190505f7f00000000000000000000000000000000000000000000000000000000000000006001600160a01b031663d09ef241836040518263ffffffff1660e01b8152600401612fd291815260200190565b606060405180830381865afa158015612fed573d5f803e3d5ffd5b505050506040513d601f19601f82011682018060405250810190613011919061452a565b604081015190915067ffffffffffffffff16156130e557604080517f38926b6d0000000000000000000000000000000000000000000000000000000081526004810184905260248101919091525f60448201527f00000000000000000000000000000000000000000000000000000000000000006001600160a01b0316906338926b6d906064016020604051808303815f875af11580156130b4573d5f803e3d5ffd5b505050506040513d601f19601f820116820180604052508101906130d891906143ac565b6130e29086613fc5565b94505b602081015167ffffffffffffffff1615613212577f00000000000000000000000000000000000000000000000000000000000000006001600160a01b03166314d6a9eb604051806040016040528085815260200161317f8b8d876020015167ffffffffffffffff1661315791906140ff565b6131619190614351565b866020015167ffffffffffffffff1661317a9190613fb2565b6134ae565b67ffffffffffffffff9081169091526040516001600160e01b031960e085901b16815282516004820152602090920151166024820152606060448201525f60648201526084016020604051808303815f875af11580156131e1573d5f803e3d5ffd5b505050506040513d601f19601f8201168201806040525081019061320591906143ac565b61320f9087613fc5565b95505b5050600101612f5d565b50848403612eff57505f90945593915050565b5f8060205f8451602086015f885af18061324e576040513d5f823e3d81fd5b50505f513d91508115613265578060011415613272565b6001600160a01b0384163b155b156127f2576040517f5274afe70000000000000000000000000000000000000000000000000000000081526001600160a01b038516600482015260240161155c565b6001600160a01b0383165f908152600360209081526040808320858452909152812080548392906132e6908490613fc5565b9091555050604080513381526020810183905283916001600160a01b038616915f917f1b3d7edb2e9c0b0e7c525b20aaaef0f5940d2ed71663c7d39266ecafac72885991015b60405180910390a4505050565b5f80546001600160a01b038381166001600160a01b0319831681178455604051919092169283917f8be0079c531659141344cd1fd0a4f28419497f9722a3daafe3b4186f6b6457e09190a35050565b6001600160a01b0383165f908152600360209081526040808320858452909152812080548392906133ba908490613fb2565b9091555050604080513381526020810183905283915f916001600160a01b038716917f1b3d7edb2e9c0b0e7c525b20aaaef0f5940d2ed71663c7d39266ecafac728859910161332c565b5f613426606084901b6134198660020b613501565b8082061515851691040190565b949350505050565b5f6207a11f19627fffff851601600281900b8212828161345057825f03613452565b825b62ffffff1690505f61348b61346783896140ff565b620f42408861347d578581830615151691040190565b808206151586151691040190565b9050826134a05761349b8161448d565b6134a2565b805b98975050505050505050565b5f67ffffffffffffffff8211156134fd57604080517f6dfcc65000000000000000000000000000000000000000000000000000000000815260048101919091526024810183905260440161155c565b5090565b5f61350b826137c9565b815f600282900b811361351e5781613527565b613527826145e7565b62ffffff811691506001161561354b576bfff97272373d413259a46990925061355c565b6c0100000000000000000000000092505b600281161561357b5760606bfff2e50f5f656932ef12357c8402901c92505b600481161561359a5760606bffe5caca7e10e4e61c3624ea8402901c92505b60088116156135b95760606bffcb9843d60f6159c9db58838402901c92505b60108116156135d85760606bff973b41fa98c081472e68968402901c92505b60208116156135f75760606bff2ea16466c96a3843ec78b38402901c92505b60408116156136165760606bfe5dee046a99a2a811c461f18402901c92505b60808116156136355760606bfcbe86c7900a88aedcffc83b8402901c92505b6101008116156136555760606bf987a7253ac413176f2b074c8402901c92505b6102008116156136755760606bf3392b0822b70005940c7a398402901c92505b6104008116156136955760606be7159475a2c29b7443b29c7f8402901c92505b6108008116156136b55760606bd097f3bdfd2022b8845ad8f78402901c92505b6110008116156136d55760606ba9f746462d870fdf8a65dc1f8402901c92505b6120008116156136f55760606b70d869a156d2a1b890bb3df68402901c92505b6140008116156137155760606b31be135f97d08fd9812315058402901c92505b6180008116156137355760606b09aa508b5b7a84e1c677de548402901c92505b620100008116156137555760606a5d6af8dedb81196699c3298402901c92505b62020000811615613774576060692216e584f5fa1ea926048402901c92505b6204000081161561379157606067048a170391f7dc428402901c92505b5f8260020b13156137c2576137bf837801000000000000000000000000000000000000000000000000614351565b92505b5050919050565b6207ffff600282900b13806137ee57506137e56207ffff6145e7565b60020b8160020b125b1561156e576040517fce8ef7fc00000000000000000000000000000000000000000000000000000000815260040160405180910390fd5b6001600160a01b038116811461156e575f80fd5b5f806040838503121561384a575f80fd5b823561385581613825565b946020939093013593505050565b5f60208284031215613873575f80fd5b81356001600160e01b031981168114610b16575f80fd5b5f6020828403121561389a575f80fd5b5035919050565b5f805f606084860312156138b3575f80fd5b83356138be81613825565b95602085013595506040909401359392505050565b5f805f80608085870312156138e6575f80fd5b5050823594602084013594506040840135936060013592509050565b5f805f60408486031215613914575f80fd5b833561391f81613825565b9250602084013567ffffffffffffffff8082111561393b575f80fd5b818601915086601f83011261394e575f80fd5b81358181111561395c575f80fd5b87602082850101111561396d575f80fd5b6020830194508093505050509250925092565b5f81518084528060208401602086015e5f602082860101526020601f19601f83011685010191505092915050565b602081525f610b166020830184613980565b801515811461156e575f80fd5b5f80604083850312156139de575f80fd5b82356139e981613825565b915060208301356139f9816139c0565b809150509250929050565b5f805f60608486031215613a16575f80fd5b8335613a2181613825565b92506020840135613a3181613825565b929592945050506040919091013590565b5f60208284031215613a52575f80fd5b81356001600160c01b0381168114610b16575f80fd5b5f8060408385031215613a79575f80fd5b8235915060208301356139f981613825565b5f60c08284031215613a9b575f80fd5b50919050565b5f805f806101c08587031215613ab5575f80fd5b613abf8686613a8b565b9350613ace8660c08701613a8b565b925061018085013591506101a0850135613ae781613825565b939692955090935050565b5f8060408385031215613b03575f80fd5b8235613b0e81613825565b915060208301356139f981613825565b5f805f60608486031215613b30575f80fd5b833592506020840135613a3181613825565b5f60208284031215613b52575f80fd5b8135610b1681613825565b5f815180845260208085019450602084015f5b83811015613b8c57815187529582019590820190600101613b70565b509495945050505050565b602081526001600160c01b0382511660208201525f6020830151613bc660408401826001600160c01b03169052565b5060408301516001600160a01b0381166060840152506060830151801515608084015250608083015160a083015260a083015160c083015260c08301516101008060e0850152613c1a610120850183613b5d565b915060e0850151601f198584030182860152613c368382613b5d565b9695505050505050565b8251815260208084015181830152604080850151818401528351606084015290830151608083015282015160a082015260c08101610b16565b5f805f8060808587031215613c8c575f80fd5b8435613c9781613825565b93506020850135613ca781613825565b93969395505050506040820135916060013590565b634e487b7160e01b5f52604160045260245ffd5b60405160c0810167ffffffffffffffff81118282101715613cf357613cf3613cbc565b60405290565b6040805190810167ffffffffffffffff81118282101715613cf357613cf3613cbc565b604051601f8201601f1916810167ffffffffffffffff81118282101715613d4557613d45613cbc565b604052919050565b67ffffffffffffffff8116811461156e575f80fd5b62ffffff8116811461156e575f80fd5b5f60c08284031215613d82575f80fd5b613d8a613cd0565b8251613d9581613825565b81526020830151613da581613d4d565b60208201526040830151613db881613825565b60408201526060830151613dcb81613d62565b60608201526080830151613dde81613825565b608082015260a0830151613df181613d62565b60a08201529392505050565b5f82601f830112613e0c575f80fd5b8151602067ffffffffffffffff821115613e2857613e28613cbc565b613e36818360051b01613d1c565b82815260069290921b84018101918181019086841115613e54575f80fd5b8286015b84811015613ea85760408189031215613e6f575f80fd5b613e77613cf9565b81518060020b8114613e87575f80fd5b815281850151613e9681613d4d565b81860152835291830191604001613e58565b509695505050505050565b5f8060408385031215613ec4575f80fd5b825167ffffffffffffffff80821115613edb575f80fd5b613ee786838701613dfd565b93506020850151915080821115613efc575f80fd5b50613f0985828601613dfd565b9150509250929050565b5f815180845260208085019450602084015f5b83811015613b8c578151805160020b885283015167ffffffffffffffff168388015260409096019590820190600101613f26565b6001600160a01b0385168152836020820152608060408201525f613f816080830185613f13565b8281036060840152613f938185613f13565b979650505050505050565b634e487b7160e01b5f52601160045260245ffd5b8181038181111561076357610763613f9e565b8082018082111561076357610763613f9e565b5f60208284031215613fe8575f80fd5b815160ff81168114610b16575f80fd5b60ff828116828216039081111561076357610763613f9e565b600181815b8085111561404b57815f190482111561403157614031613f9e565b8085161561403e57918102915b93841c9390800290614016565b509250929050565b5f8261406157506001610763565b8161406d57505f610763565b8160018114614083576002811461408d576140a9565b6001915050610763565b60ff84111561409e5761409e613f9e565b50506001821b610763565b5060208310610133831016604e8410600b84101617156140cc575081810a610763565b6140d68383614011565b805f19048211156140e9576140e9613f9e565b029392505050565b5f610b1660ff841683614053565b808202811582820484141761076357610763613f9e565b6001600160a01b0383168152604060208201525f6134266040830184613980565b5f6020808385031215614148575f80fd5b825167ffffffffffffffff8082111561415f575f80fd5b818501915085601f830112614172575f80fd5b81518181111561418457614184613cbc565b614196601f8201601f19168501613d1c565b915080825286848285010111156141ab575f80fd5b808484018584015e5f90820190930192909252509392505050565b5f80604083850312156141d7575f80fd5b505080516020909101519092909150565b818382375f9101908152919050565b5f60c08284031215614207575f80fd5b61420f613cd0565b823561421a81613825565b8152602083013561422a81613d4d565b6020820152604083013561423d81613825565b6040820152606083013561425081613d62565b6060820152608083013561426381613825565b608082015260a0830135613df181613d62565b5f60208284031215614286575f80fd5b8151610b16816139c0565b803561429c81613825565b6001600160a01b0390811683526020820135906142b882613d4d565b67ffffffffffffffff82166020850152604083013591506142d882613825565b90811660408401526060820135906142ef82613d62565b62ffffff918216606085015260808301359161430a83613825565b918116608085015260a08301359161432183613d62565b80831660a08601525050505050565b61433a8183614291565b60e060c082018190525f9082015261010001919050565b5f8261436b57634e487b7160e01b5f52601260045260245ffd5b500490565b6101c0810161437f8287614291565b61438c60c0830186614291565b836101808301526001600160a01b0383166101a083015295945050505050565b5f602082840312156143bc575f80fd5b5051919050565b634e487b7160e01b5f52603260045260245ffd5b5f61014061443f8385516001600160a01b0380825116835267ffffffffffffffff6020830151166020840152806040830151166040840152606082015162ffffff80821660608601528260808501511660808601528060a08501511660a08601525050505050565b602084015160020b60c0840152604084015167ffffffffffffffff1660e08401526060909301516001600160a01b03166101008301525061012081018290525f918101919091526101600190565b5f7f800000000000000000000000000000000000000000000000000000000000000082036144bd576144bd613f9e565b505f0390565b60c0810161076382846001600160a01b0380825116835267ffffffffffffffff6020830151166020840152806040830151166040840152606082015162ffffff80821660608601528260808501511660808601528060a08501511660a08601525050505050565b5f6060828403121561453a575f80fd5b6040516060810181811067ffffffffffffffff8211171561455d5761455d613cbc565b604052825161456b81613825565b8152602083015161457b81613d4d565b6020820152604083015161458e81613d4d565b60408201529392505050565b8082018281125f8312801582168215821617156145b9576145b9613f9e565b505092915050565b8181035f8312801583831316838312821617156145e0576145e0613f9e565b5092915050565b5f8160020b627fffff1981036145ff576145ff613f9e565b5f039291505056fea26469706673582212206bbfd707ceb5780e819ea39a0daabc87423e6f0da9cd2d164656ec0708bde44d64736f6c63430008190033",
  "devdoc": {
    "errors": {
      "OwnableInvalidOwner(address)": [
        {
          "details": "The owner is not a valid owner account. (eg. `address(0)`)"
        }
      ],
      "OwnableUnauthorizedAccount(address)": [
        {
          "details": "The caller account is not authorized to perform an operation."
        }
      ],
      "SafeCastOverflowedUintDowncast(uint8,uint256)": [
        {
          "details": "Value doesn't fit in an uint of `bits` size."
        }
      ],
      "SafeERC20FailedOperation(address)": [
        {
          "details": "An operation with an ERC-20 token failed."
        }
      ]
    },
    "kind": "dev",
    "methods": {
      "acceptOwnership()": {
        "details": "The new owner accepts the ownership transfer."
      },
      "lockAcquired(address,bytes)": {
        "params": {
          "data": "The data that was passed to the call to lock"
        },
        "returns": {
          "_0": "Any data that you want to be returned from the lock call"
        }
      },
      "owner()": {
        "details": "Returns the address of the current owner."
      },
      "pendingOwner()": {
        "details": "Returns the address of the pending owner."
      },
      "renounceOwnership()": {
        "details": "Leaves the contract without owner. It will not be possible to call `onlyOwner` functions. Can only be called by the current owner. NOTE: Renouncing ownership will leave the contract without an owner, thereby disabling any functionality that is only available to the owner."
      },
      "transferOwnership(address)": {
        "details": "Starts the ownership transfer of the contract to a new account. Replaces the pending transfer if there is one. Can only be called by the current owner. Setting `newOwner` to the zero address is allowed; this can be used to cancel an initiated ownership transfer."
      }
    },
    "version": 1
  },
  "userdoc": {
    "errors": {
      "ERC20TransferFailed()": [
        {
          "notice": "Thrown when an ERC20 transfer fails"
        }
      ],
      "NativeTransferFailed()": [
        {
          "notice": "Thrown when a native transfer fails"
        }
      ]
    },
    "kind": "user",
    "methods": {
      "lockAcquired(address,bytes)": {
        "notice": "Called by the book manager on `msg.sender` when a lock is acquired"
      }
    },
    "version": 1
  },
  "storageLayout": {
    "storage": [
      {
        "astId": 8,
        "contract": "src/Rebalancer.sol:Rebalancer",
        "label": "_owner",
        "offset": 0,
        "slot": "0",
        "type": "t_address"
      },
      {
        "astId": 156,
        "contract": "src/Rebalancer.sol:Rebalancer",
        "label": "_pendingOwner",
        "offset": 0,
        "slot": "1",
        "type": "t_address"
      },
      {
        "astId": 5842,
        "contract": "src/Rebalancer.sol:Rebalancer",
        "label": "isOperator",
        "offset": 0,
        "slot": "2",
        "type": "t_mapping(t_address,t_mapping(t_address,t_bool))"
      },
      {
        "astId": 5848,
        "contract": "src/Rebalancer.sol:Rebalancer",
        "label": "balanceOf",
        "offset": 0,
        "slot": "3",
        "type": "t_mapping(t_address,t_mapping(t_uint256,t_uint256))"
      },
      {
        "astId": 5856,
        "contract": "src/Rebalancer.sol:Rebalancer",
        "label": "allowance",
        "offset": 0,
        "slot": "4",
        "type": "t_mapping(t_address,t_mapping(t_address,t_mapping(t_uint256,t_uint256)))"
      },
      {
        "astId": 10715,
        "contract": "src/Rebalancer.sol:Rebalancer",
        "label": "totalSupply",
        "offset": 0,
        "slot": "5",
        "type": "t_mapping(t_uint256,t_uint256)"
      },
      {
        "astId": 6878,
        "contract": "src/Rebalancer.sol:Rebalancer",
        "label": "_pools",
        "offset": 0,
        "slot": "6",
        "type": "t_mapping(t_bytes32,t_struct(Pool)10284_storage)"
      },
      {
        "astId": 6884,
        "contract": "src/Rebalancer.sol:Rebalancer",
        "label": "bookPair",
        "offset": 0,
        "slot": "7",
        "type": "t_mapping(t_userDefinedValueType(BookId)4696,t_userDefinedValueType(BookId)4696)"
      }
    ],
    "types": {
      "t_address": {
        "encoding": "inplace",
        "label": "address",
        "numberOfBytes": "20"
      },
      "t_array(t_userDefinedValueType(OrderId)5131)dyn_storage": {
        "base": "t_userDefinedValueType(OrderId)5131",
        "encoding": "dynamic_array",
        "label": "OrderId[]",
        "numberOfBytes": "32"
      },
      "t_bool": {
        "encoding": "inplace",
        "label": "bool",
        "numberOfBytes": "1"
      },
      "t_bytes32": {
        "encoding": "inplace",
        "label": "bytes32",
        "numberOfBytes": "32"
      },
      "t_contract(IStrategy)10705": {
        "encoding": "inplace",
        "label": "contract IStrategy",
        "numberOfBytes": "20"
      },
      "t_mapping(t_address,t_bool)": {
        "encoding": "mapping",
        "key": "t_address",
        "label": "mapping(address => bool)",
        "numberOfBytes": "32",
        "value": "t_bool"
      },
      "t_mapping(t_address,t_mapping(t_address,t_bool))": {
        "encoding": "mapping",
        "key": "t_address",
        "label": "mapping(address => mapping(address => bool))",
        "numberOfBytes": "32",
        "value": "t_mapping(t_address,t_bool)"
      },
      "t_mapping(t_address,t_mapping(t_address,t_mapping(t_uint256,t_uint256)))": {
        "encoding": "mapping",
        "key": "t_address",
        "label": "mapping(address => mapping(address => mapping(uint256 => uint256)))",
        "numberOfBytes": "32",
        "value": "t_mapping(t_address,t_mapping(t_uint256,t_uint256))"
      },
      "t_mapping(t_address,t_mapping(t_uint256,t_uint256))": {
        "encoding": "mapping",
        "key": "t_address",
        "label": "mapping(address => mapping(uint256 => uint256))",
        "numberOfBytes": "32",
        "value": "t_mapping(t_uint256,t_uint256)"
      },
      "t_mapping(t_bytes32,t_struct(Pool)10284_storage)": {
        "encoding": "mapping",
        "key": "t_bytes32",
        "label": "mapping(bytes32 => struct IRebalancer.Pool)",
        "numberOfBytes": "32",
        "value": "t_struct(Pool)10284_storage"
      },
      "t_mapping(t_uint256,t_uint256)": {
        "encoding": "mapping",
        "key": "t_uint256",
        "label": "mapping(uint256 => uint256)",
        "numberOfBytes": "32",
        "value": "t_uint256"
      },
      "t_mapping(t_userDefinedValueType(BookId)4696,t_userDefinedValueType(BookId)4696)": {
        "encoding": "mapping",
        "key": "t_userDefinedValueType(BookId)4696",
        "label": "mapping(BookId => BookId)",
        "numberOfBytes": "32",
        "value": "t_userDefinedValueType(BookId)4696"
      },
      "t_struct(Pool)10284_storage": {
        "encoding": "inplace",
        "label": "struct IRebalancer.Pool",
        "members": [
          {
            "astId": 10263,
            "contract": "src/Rebalancer.sol:Rebalancer",
            "label": "bookIdA",
            "offset": 0,
            "slot": "0",
            "type": "t_userDefinedValueType(BookId)4696"
          },
          {
            "astId": 10266,
            "contract": "src/Rebalancer.sol:Rebalancer",
            "label": "bookIdB",
            "offset": 0,
            "slot": "1",
            "type": "t_userDefinedValueType(BookId)4696"
          },
          {
            "astId": 10269,
            "contract": "src/Rebalancer.sol:Rebalancer",
            "label": "strategy",
            "offset": 0,
            "slot": "2",
            "type": "t_contract(IStrategy)10705"
          },
          {
            "astId": 10271,
            "contract": "src/Rebalancer.sol:Rebalancer",
            "label": "paused",
            "offset": 20,
            "slot": "2",
            "type": "t_bool"
          },
          {
            "astId": 10273,
            "contract": "src/Rebalancer.sol:Rebalancer",
            "label": "reserveA",
            "offset": 0,
            "slot": "3",
            "type": "t_uint256"
          },
          {
            "astId": 10275,
            "contract": "src/Rebalancer.sol:Rebalancer",
            "label": "reserveB",
            "offset": 0,
            "slot": "4",
            "type": "t_uint256"
          },
          {
            "astId": 10279,
            "contract": "src/Rebalancer.sol:Rebalancer",
            "label": "orderListA",
            "offset": 0,
            "slot": "5",
            "type": "t_array(t_userDefinedValueType(OrderId)5131)dyn_storage"
          },
          {
            "astId": 10283,
            "contract": "src/Rebalancer.sol:Rebalancer",
            "label": "orderListB",
            "offset": 0,
            "slot": "6",
            "type": "t_array(t_userDefinedValueType(OrderId)5131)dyn_storage"
          }
        ],
        "numberOfBytes": "224"
      },
      "t_uint256": {
        "encoding": "inplace",
        "label": "uint256",
        "numberOfBytes": "32"
      },
      "t_userDefinedValueType(BookId)4696": {
        "encoding": "inplace",
        "label": "BookId",
        "numberOfBytes": "24"
      },
      "t_userDefinedValueType(OrderId)5131": {
        "encoding": "inplace",
        "label": "OrderId",
        "numberOfBytes": "32"
      }
    }
  }
}