{
  "address": "0x9aF36062bCF57Ef00477A03c522EB6e9b2Cd00aB",
  "abi": [
    {
      "inputs": [
        {
          "internalType": "contract IOracle",
          "name": "referenceOracle_",
          "type": "address"
        },
        {
          "internalType": "contract IRebalancer",
          "name": "rebalancer_",
          "type": "address"
        },
        {
          "internalType": "contract IBookManager",
          "name": "bookManager_",
          "type": "address"
        },
        {
          "internalType": "address",
          "name": "initialOwner",
          "type": "address"
        }
      ],
      "stateMutability": "nonpayable",
      "type": "constructor"
    },
    {
      "inputs": [],
      "name": "ExceedsThreshold",
      "type": "error"
    },
    {
      "inputs": [],
      "name": "InvalidAccess",
      "type": "error"
    },
    {
      "inputs": [],
      "name": "InvalidConfig",
      "type": "error"
    },
    {
      "inputs": [],
      "name": "InvalidPrice",
      "type": "error"
    },
    {
      "inputs": [],
      "name": "InvalidTick",
      "type": "error"
    },
    {
      "inputs": [],
      "name": "InvalidValue",
      "type": "error"
    },
    {
      "inputs": [],
      "name": "NotOperator",
      "type": "error"
    },
    {
      "inputs": [
        {
          "internalType": "address",
          "name": "owner",
          "type": "address"
        }
      ],
      "name": "OwnableInvalidOwner",
      "type": "error"
    },
    {
      "inputs": [
        {
          "internalType": "address",
          "name": "account",
          "type": "address"
        }
      ],
      "name": "OwnableUnauthorizedAccount",
      "type": "error"
    },
    {
      "inputs": [
        {
          "internalType": "uint8",
          "name": "bits",
          "type": "uint8"
        },
        {
          "internalType": "uint256",
          "name": "value",
          "type": "uint256"
        }
      ],
      "name": "SafeCastOverflowedUintDowncast",
      "type": "error"
    },
    {
      "anonymous": false,
      "inputs": [
        {
          "indexed": true,
          "internalType": "address",
          "name": "previousOwner",
          "type": "address"
        },
        {
          "indexed": true,
          "internalType": "address",
          "name": "newOwner",
          "type": "address"
        }
      ],
      "name": "OwnershipTransferStarted",
      "type": "event"
    },
    {
      "anonymous": false,
      "inputs": [
        {
          "indexed": true,
          "internalType": "address",
          "name": "previousOwner",
          "type": "address"
        },
        {
          "indexed": true,
          "internalType": "address",
          "name": "newOwner",
          "type": "address"
        }
      ],
      "name": "OwnershipTransferred",
      "type": "event"
    },
    {
      "anonymous": false,
      "inputs": [
        {
          "indexed": true,
          "internalType": "address",
          "name": "operator",
          "type": "address"
        },
        {
          "indexed": false,
          "internalType": "bool",
          "name": "status",
          "type": "bool"
        }
      ],
      "name": "SetOperator",
      "type": "event"
    },
    {
      "anonymous": false,
      "inputs": [
        {
          "indexed": true,
          "internalType": "bytes32",
          "name": "key",
          "type": "bytes32"
        },
        {
          "components": [
            {
              "internalType": "uint24",
              "name": "referenceThreshold",
              "type": "uint24"
            },
            {
              "internalType": "uint24",
              "name": "rebalanceThreshold",
              "type": "uint24"
            },
            {
              "internalType": "uint24",
              "name": "rateA",
              "type": "uint24"
            },
            {
              "internalType": "uint24",
              "name": "rateB",
              "type": "uint24"
            },
            {
              "internalType": "uint24",
              "name": "minRateA",
              "type": "uint24"
            },
            {
              "internalType": "uint24",
              "name": "minRateB",
              "type": "uint24"
            },
            {
              "internalType": "uint24",
              "name": "priceThresholdA",
              "type": "uint24"
            },
            {
              "internalType": "uint24",
              "name": "priceThresholdB",
              "type": "uint24"
            }
          ],
          "indexed": false,
          "internalType": "struct ISimpleOracleStrategy.Config",
          "name": "config",
          "type": "tuple"
        }
      ],
      "name": "UpdateConfig",
      "type": "event"
    },
    {
      "anonymous": false,
      "inputs": [
        {
          "indexed": true,
          "internalType": "bytes32",
          "name": "key",
          "type": "bytes32"
        },
        {
          "indexed": false,
          "internalType": "uint256",
          "name": "oraclePrice",
          "type": "uint256"
        },
        {
          "indexed": false,
          "internalType": "Tick",
          "name": "tickA",
          "type": "int24"
        },
        {
          "indexed": false,
          "internalType": "Tick",
          "name": "tickB",
          "type": "int24"
        },
        {
          "indexed": false,
          "internalType": "uint256",
          "name": "rate",
          "type": "uint256"
        }
      ],
      "name": "UpdatePosition",
      "type": "event"
    },
    {
      "inputs": [],
      "name": "LAST_RAW_AMOUNT_MASK",
      "outputs": [
        {
          "internalType": "uint256",
          "name": "",
          "type": "uint256"
        }
      ],
      "stateMutability": "view",
      "type": "function"
    },
    {
      "inputs": [],
      "name": "RATE_PRECISION",
      "outputs": [
        {
          "internalType": "uint256",
          "name": "",
          "type": "uint256"
        }
      ],
      "stateMutability": "view",
      "type": "function"
    },
    {
      "inputs": [],
      "name": "acceptOwnership",
      "outputs": [],
      "stateMutability": "nonpayable",
      "type": "function"
    },
    {
      "inputs": [],
      "name": "bookManager",
      "outputs": [
        {
          "internalType": "contract IBookManager",
          "name": "",
          "type": "address"
        }
      ],
      "stateMutability": "view",
      "type": "function"
    },
    {
      "inputs": [
        {
          "internalType": "address",
          "name": "",
          "type": "address"
        },
        {
          "internalType": "bytes32",
          "name": "key",
          "type": "bytes32"
        },
        {
          "internalType": "uint256",
          "name": "burnAmount",
          "type": "uint256"
        },
        {
          "internalType": "uint256",
          "name": "totalSupply",
          "type": "uint256"
        }
      ],
      "name": "burnHook",
      "outputs": [],
      "stateMutability": "nonpayable",
      "type": "function"
    },
    {
      "inputs": [
        {
          "internalType": "bytes32",
          "name": "key",
          "type": "bytes32"
        }
      ],
      "name": "computeOrders",
      "outputs": [
        {
          "components": [
            {
              "internalType": "Tick",
              "name": "tick",
              "type": "int24"
            },
            {
              "internalType": "uint64",
              "name": "rawAmount",
              "type": "uint64"
            }
          ],
          "internalType": "struct IStrategy.Order[]",
          "name": "ordersA",
          "type": "tuple[]"
        },
        {
          "components": [
            {
              "internalType": "Tick",
              "name": "tick",
              "type": "int24"
            },
            {
              "internalType": "uint64",
              "name": "rawAmount",
              "type": "uint64"
            }
          ],
          "internalType": "struct IStrategy.Order[]",
          "name": "ordersB",
          "type": "tuple[]"
        }
      ],
      "stateMutability": "view",
      "type": "function"
    },
    {
      "inputs": [
        {
          "internalType": "bytes32",
          "name": "key",
          "type": "bytes32"
        }
      ],
      "name": "getConfig",
      "outputs": [
        {
          "components": [
            {
              "internalType": "uint24",
              "name": "referenceThreshold",
              "type": "uint24"
            },
            {
              "internalType": "uint24",
              "name": "rebalanceThreshold",
              "type": "uint24"
            },
            {
              "internalType": "uint24",
              "name": "rateA",
              "type": "uint24"
            },
            {
              "internalType": "uint24",
              "name": "rateB",
              "type": "uint24"
            },
            {
              "internalType": "uint24",
              "name": "minRateA",
              "type": "uint24"
            },
            {
              "internalType": "uint24",
              "name": "minRateB",
              "type": "uint24"
            },
            {
              "internalType": "uint24",
              "name": "priceThresholdA",
              "type": "uint24"
            },
            {
              "internalType": "uint24",
              "name": "priceThresholdB",
              "type": "uint24"
            }
          ],
          "internalType": "struct ISimpleOracleStrategy.Config",
          "name": "",
          "type": "tuple"
        }
      ],
      "stateMutability": "view",
      "type": "function"
    },
    {
      "inputs": [
        {
          "internalType": "bytes32",
          "name": "key",
          "type": "bytes32"
        }
      ],
      "name": "getLastRawAmount",
      "outputs": [
        {
          "internalType": "uint256",
          "name": "",
          "type": "uint256"
        },
        {
          "internalType": "uint256",
          "name": "",
          "type": "uint256"
        }
      ],
      "stateMutability": "view",
      "type": "function"
    },
    {
      "inputs": [
        {
          "internalType": "bytes32",
          "name": "key",
          "type": "bytes32"
        }
      ],
      "name": "getPosition",
      "outputs": [
        {
          "components": [
            {
              "internalType": "uint184",
              "name": "oraclePrice",
              "type": "uint184"
            },
            {
              "internalType": "uint24",
              "name": "rate",
              "type": "uint24"
            },
            {
              "internalType": "Tick",
              "name": "tickA",
              "type": "int24"
            },
            {
              "internalType": "Tick",
              "name": "tickB",
              "type": "int24"
            }
          ],
          "internalType": "struct ISimpleOracleStrategy.Position",
          "name": "",
          "type": "tuple"
        }
      ],
      "stateMutability": "view",
      "type": "function"
    },
    {
      "inputs": [
        {
          "internalType": "address",
          "name": "",
          "type": "address"
        }
      ],
      "name": "isOperator",
      "outputs": [
        {
          "internalType": "bool",
          "name": "",
          "type": "bool"
        }
      ],
      "stateMutability": "view",
      "type": "function"
    },
    {
      "inputs": [
        {
          "internalType": "bytes32",
          "name": "key",
          "type": "bytes32"
        }
      ],
      "name": "isOraclePriceValid",
      "outputs": [
        {
          "internalType": "bool",
          "name": "",
          "type": "bool"
        }
      ],
      "stateMutability": "view",
      "type": "function"
    },
    {
      "inputs": [
        {
          "internalType": "address",
          "name": "",
          "type": "address"
        },
        {
          "internalType": "bytes32",
          "name": "",
          "type": "bytes32"
        },
        {
          "internalType": "uint256",
          "name": "",
          "type": "uint256"
        },
        {
          "internalType": "uint256",
          "name": "",
          "type": "uint256"
        }
      ],
      "name": "mintHook",
      "outputs": [],
      "stateMutability": "view",
      "type": "function"
    },
    {
      "inputs": [],
      "name": "owner",
      "outputs": [
        {
          "internalType": "address",
          "name": "",
          "type": "address"
        }
      ],
      "stateMutability": "view",
      "type": "function"
    },
    {
      "inputs": [],
      "name": "pendingOwner",
      "outputs": [
        {
          "internalType": "address",
          "name": "",
          "type": "address"
        }
      ],
      "stateMutability": "view",
      "type": "function"
    },
    {
      "inputs": [
        {
          "internalType": "address",
          "name": "",
          "type": "address"
        },
        {
          "internalType": "bytes32",
          "name": "key",
          "type": "bytes32"
        },
        {
          "components": [
            {
              "internalType": "Tick",
              "name": "tick",
              "type": "int24"
            },
            {
              "internalType": "uint64",
              "name": "rawAmount",
              "type": "uint64"
            }
          ],
          "internalType": "struct IStrategy.Order[]",
          "name": "liquidityA",
          "type": "tuple[]"
        },
        {
          "components": [
            {
              "internalType": "Tick",
              "name": "tick",
              "type": "int24"
            },
            {
              "internalType": "uint64",
              "name": "rawAmount",
              "type": "uint64"
            }
          ],
          "internalType": "struct IStrategy.Order[]",
          "name": "liquidityB",
          "type": "tuple[]"
        }
      ],
      "name": "rebalanceHook",
      "outputs": [],
      "stateMutability": "nonpayable",
      "type": "function"
    },
    {
      "inputs": [],
      "name": "rebalancer",
      "outputs": [
        {
          "internalType": "contract IRebalancer",
          "name": "",
          "type": "address"
        }
      ],
      "stateMutability": "view",
      "type": "function"
    },
    {
      "inputs": [],
      "name": "referenceOracle",
      "outputs": [
        {
          "internalType": "contract IOracle",
          "name": "",
          "type": "address"
        }
      ],
      "stateMutability": "view",
      "type": "function"
    },
    {
      "inputs": [],
      "name": "renounceOwnership",
      "outputs": [],
      "stateMutability": "nonpayable",
      "type": "function"
    },
    {
      "inputs": [
        {
          "internalType": "bytes32",
          "name": "key",
          "type": "bytes32"
        },
        {
          "components": [
            {
              "internalType": "uint24",
              "name": "referenceThreshold",
              "type": "uint24"
            },
            {
              "internalType": "uint24",
              "name": "rebalanceThreshold",
              "type": "uint24"
            },
            {
              "internalType": "uint24",
              "name": "rateA",
              "type": "uint24"
            },
            {
              "internalType": "uint24",
              "name": "rateB",
              "type": "uint24"
            },
            {
              "internalType": "uint24",
              "name": "minRateA",
              "type": "uint24"
            },
            {
              "internalType": "uint24",
              "name": "minRateB",
              "type": "uint24"
            },
            {
              "internalType": "uint24",
              "name": "priceThresholdA",
              "type": "uint24"
            },
            {
              "internalType": "uint24",
              "name": "priceThresholdB",
              "type": "uint24"
            }
          ],
          "internalType": "struct ISimpleOracleStrategy.Config",
          "name": "config",
          "type": "tuple"
        }
      ],
      "name": "setConfig",
      "outputs": [],
      "stateMutability": "nonpayable",
      "type": "function"
    },
    {
      "inputs": [
        {
          "internalType": "address",
          "name": "operator",
          "type": "address"
        },
        {
          "internalType": "bool",
          "name": "status",
          "type": "bool"
        }
      ],
      "name": "setOperator",
      "outputs": [],
      "stateMutability": "nonpayable",
      "type": "function"
    },
    {
      "inputs": [
        {
          "internalType": "address",
          "name": "newOwner",
          "type": "address"
        }
      ],
      "name": "transferOwnership",
      "outputs": [],
      "stateMutability": "nonpayable",
      "type": "function"
    },
    {
      "inputs": [
        {
          "internalType": "bytes32",
          "name": "key",
          "type": "bytes32"
        },
        {
          "internalType": "uint256",
          "name": "oraclePrice",
          "type": "uint256"
        },
        {
          "internalType": "Tick",
          "name": "tickA",
          "type": "int24"
        },
        {
          "internalType": "Tick",
          "name": "tickB",
          "type": "int24"
        },
        {
          "internalType": "uint24",
          "name": "rate",
          "type": "uint24"
        }
      ],
      "name": "updatePosition",
      "outputs": [],
      "stateMutability": "nonpayable",
      "type": "function"
    }
  ],
  "transactionHash": "0x13159024a1484968fc8bd94fd5a569852c9a6a0ee860822aa6d3670772d3ad49",
  "args": [
    "0xFcEd94a7D7fB4166255bEc36a7d43f62E00C94c7",
    "0x6A35651C455898021492d236149Afb7bF354bE1F",
    "0xAA9575d63dFC224b9583fC303dB3188C08d5C85A",
    "0x5F79EE8f8fA862E98201120d83c4eC39D9468D49"
  ],
  "numDeployments": 1,
  "solcInputHash": "98511e436d677feb2277e419c26fa08e",
  "bytecode": "0x60e060405234801561000f575f80fd5b50604051612fda380380612fda83398101604081905261002e91610103565b806001600160a01b03811661005c57604051631e4fbdf760e01b81525f600482015260240160405180910390fd5b61006581610084565b50506001600160a01b0392831660805290821660a0521660c05261015f565b600180546001600160a01b031916905561009d816100a0565b50565b5f80546001600160a01b038381166001600160a01b0319831681178455604051919092169283917f8be0079c531659141344cd1fd0a4f28419497f9722a3daafe3b4186f6b6457e09190a35050565b6001600160a01b038116811461009d575f80fd5b5f805f8060808587031215610116575f80fd5b8451610121816100ef565b6020860151909450610132816100ef565b6040860151909350610143816100ef565b6060860151909250610154816100ef565b939692955090935050565b60805160a05160c051612de86101f25f395f818161030f01528181610a3b01528181610acd01528181611318015261175901525f8181610182015281816109b001528181610b700152818161127c015281816116bd015281816118000152818161184f015261190901525f81816102c7015281816113d201528181611b5e01528181611bfb0152611e540152612de85ff3fe608060405234801561000f575f80fd5b5060043610610179575f3560e01c806379ba5097116100d2578063b5a562bd11610088578063edffdaaf11610063578063edffdaaf146104f1578063f2fde38b14610504578063f638923714610517575f80fd5b8063b5a562bd146104c2578063db7c74b6146104cd578063e30c3978146104e0575f80fd5b8063a0f15331116100b8578063a0f1533114610489578063a30416d31461049c578063a3a36f55146104af575f80fd5b806379ba5097146104715780638da5cb5b14610479575f80fd5b80633b93fabc116101325780636d70f7ae1161010d5780636d70f7ae146103445780636dd5b69d14610376578063715018a614610469575f80fd5b80633b93fabc146102e95780633f322bc91461030a578063558a729714610331575f80fd5b80631928b3cb116101625780631928b3cb146101d65780632b3ba681146102aa578063337cceb9146102c2575f80fd5b806301d22ccd1461017d578063063570bd146101c1575b5f80fd5b6101a47f000000000000000000000000000000000000000000000000000000000000000081565b6040516001600160a01b0390911681526020015b60405180910390f35b6101d46101cf36600461255e565b610559565b005b61025f6101e4366004612624565b60408051608080820183525f808352602080840182905283850182905260609384018290529481526004855283902083519182018452546001600160b81b0381168252600160b81b810462ffffff1694820194909452600160d01b8404600290810b93820193909352600160e81b90930490910b9082015290565b6040516101b891905f6080820190506001600160b81b03835116825262ffffff6020840151166020830152604083015160020b6040830152606083015160020b606083015292915050565b6102b4620f424081565b6040519081526020016101b8565b6101a47f000000000000000000000000000000000000000000000000000000000000000081565b6102fc6102f7366004612624565b610814565b6040516101b892919061268d565b6101a47f000000000000000000000000000000000000000000000000000000000000000081565b6101d461033f3660046126ce565b610f20565b610366610352366004612709565b60026020525f908152604090205460ff1681565b60405190151581526020016101b8565b61045c610384366004612624565b60408051610100810182525f80825260208201819052918101829052606081018290526080810182905260a0810182905260c0810182905260e0810191909152505f90815260036020908152604091829020825161010081018452905462ffffff808216835263010000008204811693830193909352660100000000000081048316938201939093526901000000000000000000830482166060820152600160601b830482166080820152600160781b8304821660a0820152600160901b8304821660c0820152600160a81b9092041660e082015290565b6040516101b8919061272b565b6101d4610f7f565b6101d4610f92565b5f546001600160a01b03166101a4565b6101d46104973660046127bf565b610fdb565b6103666104aa366004612624565b6115c1565b6101d46104bd366004612816565b6117f5565b6102b46001607f1b81565b6101d46104db366004612816565b611844565b6001546001600160a01b03166101a4565b6101d46104ff366004612920565b6118fe565b6101d4610512366004612709565b611a0a565b610544610525366004612624565b5f90815260056020526040902054608081901c916001607f1b90911690565b604080519283526020830191909152016101b8565b610561611a87565b620f4240815f015162ffffff1611806105855750620f4240816020015162ffffff16115b8061059b5750620f4240816040015162ffffff16115b806105b15750620f4240816060015162ffffff16115b806105c75750620f4240816080015162ffffff16115b806105dd5750620f42408160a0015162ffffff16115b806105f35750620f42408160c0015162ffffff16115b806106095750620f42408160e0015162ffffff16115b15610627576040516306b7c75960e31b815260040160405180910390fd5b806080015162ffffff16816040015162ffffff16108061065857508060a0015162ffffff16816060015162ffffff16105b15610676576040516306b7c75960e31b815260040160405180910390fd5b5f828152600360209081526040918290208351815492850151858501516060870151608088015160a089015160c08a015160e08b015162ffffff97881665ffffffffffff19909a1699909917630100000096881696909602959095176bffffffffffff00000000000019166601000000000000948716949094026bffffff000000000000000000191693909317690100000000000000000092861692909202919091177fffffffffffffffffffffffffffff000000000000ffffffffffffffffffffffff16600160601b918516919091027fffffffffffffffffffffffffffff000000ffffffffffffffffffffffffffffff1617600160781b91841691909102177fffffffffffffffff000000000000ffffffffffffffffffffffffffffffffffff16600160901b918316919091027fffffffffffffffff000000ffffffffffffffffffffffffffffffffffffffffff1617600160a81b91909316029190911790555182907fa6796aaa3e8df6d8ed1c3d26d8a54828d50465a6b4151685c28954b40e3be4c19061080890849061272b565b60405180910390a25050565b5f818152600360209081526040808320815161010081018352905462ffffff80821683526301000000820481168386015266010000000000008204811683850152690100000000000000000082048116606080850191909152600160601b83048216608080860191909152600160781b8404831660a080870191909152600160901b8504841660c080880191909152600160a81b909504841660e0870152898952600488528689208751808401895290546001600160b81b0381168252600160b81b8104909516818a0152600160d01b8504600290810b828a0152600160e81b90950490940b84840152865180860188528981528089018a90528088018a90528084018a90528083018a90528082018a9052875195860188528986528589018a90528588018a90528584018a90529185018990528401889052855180830187528881529687018890529486019690965285949293909290919061098e60405180606001604052805f81526020015f81526020015f81525090565b60405163c630ed7d60e01b8152600481018a90525f9081906001600160a01b037f0000000000000000000000000000000000000000000000000000000000000000169063c630ed7d906024016040805180830381865afa1580156109f4573d5f803e3d5ffd5b505050506040513d601f19601f82011682018060405250810190610a1891906129b1565b604051639b22917d60e01b81526001600160c01b038316600482015291935091507f00000000000000000000000000000000000000000000000000000000000000006001600160a01b031690639b22917d9060240160c060405180830381865afa158015610a88573d5f803e3d5ffd5b505050506040513d601f19601f82011682018060405250810190610aac91906129e2565b604051639b22917d60e01b81526001600160c01b03831660048201529096507f00000000000000000000000000000000000000000000000000000000000000006001600160a01b031690639b22917d9060240160c060405180830381865afa158015610b1a573d5f803e3d5ffd5b505050506040513d601f19601f82011682018060405250810190610b3e91906129e2565b6040517ffa6793d5000000000000000000000000000000000000000000000000000000008152600481018d90529095507f00000000000000000000000000000000000000000000000000000000000000006001600160a01b03169063fa6793d59060240160c060405180830381865afa158015610bbd573d5f803e3d5ffd5b505050506040513d601f19601f82011682018060405250810190610be19190612ae5565b5f8d8152600560209081526040909120548b820151918a01519397509195509091620f42409162ffffff1690610c259067ffffffffffffffff16608085901c612b23565b610c2f9190612b23565b610c399190612b3a565b85604001511180610c8e5750620f4240896020015162ffffff16876020015167ffffffffffffffff166001607f1b8416610c739190612b23565b610c7d9190612b23565b610c879190612b3a565b8460400151115b80610cbb57508751895160408901518951610cb9936001600160b81b03169262ffffff169190611ab3565b155b15610cce57505050505050505050915091565b5050505f80610d4384602001518560400151865f0151610cee9190612b59565b610cf89190612b59565b602085015160408601518651610d0e9190612b59565b610d189190612b59565b895f01516001600160b81b0316610d328a60400151611d23565b8a51610d3d90611d23565b8d611da1565b91509150610d5a866060015162ffffff1660171c90565b15610d77576060860151610d749062ffffff16835f61205f565b91505b610d8a856060015162ffffff1660171c90565b15610da7576060850151610da49062ffffff16825f61205f565b90505b60408051600180825281830190925290816020015b604080518082019091525f8082526020820152815260200190600190039081610dbc575050604080516001808252818301909252919b50602082015b604080518082019091525f8082526020820152815260200190600190039081610df85790505098506040518060400160405280886040015160020b8152602001610e7c620f4240896020015167ffffffffffffffff168b6020015162ffffff1687610e639190612b23565b610e6d9190612b3a565b610e779190612b3a565b6120a2565b67ffffffffffffffff168152508a5f81518110610e9b57610e9b612b6c565b60200260200101819052506040518060400160405280886060015160020b8152602001610ee9620f4240886020015167ffffffffffffffff168b6020015162ffffff1686610e639190612b23565b67ffffffffffffffff16815250895f81518110610f0857610f08612b6c565b60200260200101819052505050505050505050915091565b610f28611a87565b6001600160a01b0382165f81815260026020908152604091829020805460ff191685151590811790915591519182527f1618a22a3b00b9ac70fd5a82f1f5cdd8cb272bd0f1b740ddf7c26ab05881dd5b9101610808565b610f87611a87565b610f905f6120dc565b565b60015433906001600160a01b03168114610fcf5760405163118cdaa760e01b81526001600160a01b03821660048201526024015b60405180910390fd5b610fd8816120dc565b50565b335f9081526002602052604090205460ff16611023576040517f7c214f0400000000000000000000000000000000000000000000000000000000815260040160405180910390fd5b5f6110308460020b612102565b90505f61104761103f85612b80565b60020b612102565b9050808210611081576040517ebfc92100000000000000000000000000000000000000000000000000000000815260040160405180910390fd5b620f42408362ffffff1611156110c3576040517faa7feadc00000000000000000000000000000000000000000000000000000000815260040160405180910390fd5b5f87815260036020908152604091829020825161010081018452905462ffffff808216835263010000008204811693830193909352660100000000000081048316938201939093526901000000000000000000830482166060820152600160601b830482166080820152600160781b8304821660a0820152600160901b8304821660c08201819052600160a81b90930490911660e0820152908390620f42409061116d9082612b59565b611177908a612b23565b6111819190612b3a565b10806111bb575082620f42408260c0015162ffffff16620f42406111a59190612ba0565b6111af908a612b23565b6111b99190612b3a565b115b806111f4575081620f42408260e0015162ffffff16620f42406111de9190612b59565b6111e8908a612b23565b6111f29190612b3a565b105b8061122d575081620f42408260e0015162ffffff16620f42406112179190612ba0565b611221908a612b23565b61122b9190612b3a565b115b15611264576040517f107826c200000000000000000000000000000000000000000000000000000000815260040160405180910390fd5b60405163c630ed7d60e01b8152600481018990525f907f00000000000000000000000000000000000000000000000000000000000000006001600160a01b03169063c630ed7d906024016040805180830381865afa1580156112c8573d5f803e3d5ffd5b505050506040513d601f19601f820116820180604052508101906112ec91906129b1565b50604051639b22917d60e01b81526001600160c01b03821660048201529091505f906001600160a01b037f00000000000000000000000000000000000000000000000000000000000000001690639b22917d9060240160c060405180830381865afa15801561135d573d5f803e3d5ffd5b505050506040513d601f19601f8201168201806040525081019061138191906129e2565b90505f6113918260400151611d23565b90505f6113a0835f0151611d23565b90506113ad82600a612c93565b6113b882600a612c93565b6113c2908d612b23565b6113cc9190612b3a565b9a5060607f00000000000000000000000000000000000000000000000000000000000000006001600160a01b031663313ce5676040518163ffffffff1660e01b8152600401602060405180830381865afa15801561142c573d5f803e3d5ffd5b505050506040513d601f19601f820116820180604052508101906114509190612ca1565b61145b90600a612c93565b611465908d612b23565b901c9a50604051806080016040528061147d8d6123c1565b6001600160b81b031681526020018962ffffff1681526020018b60020b81526020018a60020b81525060045f8e81526020019081526020015f205f820151815f015f6101000a8154816001600160b81b0302191690836001600160b81b031602179055506020820151815f0160176101000a81548162ffffff021916908362ffffff1602179055506040820151815f01601a6101000a81548162ffffff021916908360020b62ffffff1602179055506060820151815f01601d6101000a81548162ffffff021916908360020b62ffffff1602179055509050508b7f6bfe82e0fc1c0e49aa5a610028c276fddb4bc3c4f8ae34f09277ce63597818f98c8c8c8c6040516115ab9493929190938452600292830b6020850152910b604083015262ffffff16606082015260800190565b60405180910390a2505050505050505050505050565b5f818152600360209081526040808320815161010081018352905462ffffff80821683526301000000820481168386015266010000000000008204811683850152690100000000000000000082048116606080850191909152600160601b83048216608080860191909152600160781b8404831660a0860152600160901b8404831660c0860152600160a81b909304821660e0850152878752600480875285882086519485018752546001600160b81b0381168552600160b81b810490931696840196909652600160d01b8204600290810b84870152600160e81b90920490910b90820152915163c630ed7d60e01b81529283018590529183907f00000000000000000000000000000000000000000000000000000000000000006001600160a01b03169063c630ed7d906024016040805180830381865afa158015611709573d5f803e3d5ffd5b505050506040513d601f19601f8201168201806040525081019061172d91906129b1565b50604051639b22917d60e01b81526001600160c01b03821660048201529091505f906001600160a01b037f00000000000000000000000000000000000000000000000000000000000000001690639b22917d9060240160c060405180830381865afa15801561179e573d5f803e3d5ffd5b505050506040513d601f19601f820116820180604052508101906117c291906129e2565b90506117eb835f01516001600160b81b0316855f015162ffffff168360400151845f0151611ab3565b9695505050505050565b336001600160a01b037f0000000000000000000000000000000000000000000000000000000000000000161461183e57604051633006171960e21b815260040160405180910390fd5b50505050565b336001600160a01b037f0000000000000000000000000000000000000000000000000000000000000000161461188d57604051633006171960e21b815260040160405180910390fd5b5f83815260056020526040902054816118ac846001607f1b8416612b23565b6118b69190612b3a565b6118c1906080612ba0565b826118d085608085901c612b23565b6118da9190612b3a565b6118e49083612ba0565b5f9586526005602052604090952094901b90935550505050565b336001600160a01b037f0000000000000000000000000000000000000000000000000000000000000000161461194757604051633006171960e21b815260040160405180910390fd5b5f805f5b8451811015611996575f85828151811061196757611967612b6c565b60200260200101519050806020015167ffffffffffffffff168461198b9190612b59565b93505060010161194b565b505f5b83518110156119e4575f8482815181106119b5576119b5612b6c565b60200260200101519050806020015167ffffffffffffffff16836119d99190612b59565b925050600101611999565b506119f0816080612b59565b5f958652600560205260409095209190941b905550505050565b611a12611a87565b600180546001600160a01b03831673ffffffffffffffffffffffffffffffffffffffff199091168117909155611a4f5f546001600160a01b031690565b6001600160a01b03167f38d16b8cac22d99fc7c124b9cd0de2d3fa1faef420bfe791d8c362d765e2270060405160405180910390a350565b5f546001600160a01b03163314610f905760405163118cdaa760e01b8152336004820152602401610fc6565b6040805160028082526060820183525f9283928392909160208301908036833701905050905084815f81518110611aec57611aec612b6c565b60200260200101906001600160a01b031690816001600160a01b0316815250508381600181518110611b2057611b20612b6c565b6001600160a01b0392831660209182029290920101526040517f9d23d9f20000000000000000000000000000000000000000000000000000000081527f000000000000000000000000000000000000000000000000000000000000000090911690639d23d9f290611b95908490600401612cc1565b5f60405180830381865afa925050508015611bd157506040513d5f823e601f3d908101601f19168201604052611bce9190810190612d0d565b60015b611bdf575f92505050611d1b565b805f81518110611bf157611bf1612b6c565b60200260200101517f00000000000000000000000000000000000000000000000000000000000000006001600160a01b031663313ce5676040518163ffffffff1660e01b8152600401602060405180830381865afa158015611c55573d5f803e3d5ffd5b505050506040513d601f19601f82011682018060405250810190611c799190612ca1565b611c8490600a612c93565b82600181518110611c9757611c97612b6c565b6020026020010151611ca99190612b23565b611cb39190612b3a565b92505086620f4240611cc58882612b59565b611ccf9085612b23565b611cd99190612b3a565b1080611d05575086620f4240611cef8882612ba0565b611cf99085612b23565b611d039190612b3a565b115b15611d14575f92505050611d1b565b6001925050505b949350505050565b5f6001600160a01b03821615611d9857816001600160a01b031663313ce5676040518163ffffffff1660e01b8152600401602060405180830381865afa158015611d6f573d5f803e3d5ffd5b505050506040513d601f19601f82011682018060405250810190611d939190612ca1565b611d9b565b60125b92915050565b5f808360ff168560ff161115611dd757611dbb8486612d99565b611dc690600a612c93565b611dd09088612b23565b9650611e07565b8360ff168560ff161015611e0757611def8585612d99565b611dfa90600a612c93565b611e049089612b23565b97505b620f4240836040015162ffffff1689611e209190612b23565b611e2a9190612b3a565b9150620f4240836060015162ffffff1688611e459190612b23565b611e4f9190612b3a565b90505f7f00000000000000000000000000000000000000000000000000000000000000006001600160a01b031663313ce5676040518163ffffffff1660e01b8152600401602060405180830381865afa158015611eae573d5f803e3d5ffd5b505050506040513d601f19601f82011682018060405250810190611ed29190612ca1565b611edd90600a612c93565b90505f611eea8285612b23565b90505f611ef78985612b23565b905080821115611f1e57611f0b8382612b3a565b9450611f178386612b23565b9150611f37565b611f288983612b3a565b9350611f348985612b23565b90505b82620f4240876080015162ffffff168d611f519190612b23565b611f5b9190612b3a565b611f659190612b23565b821015611f9257620f4240866080015162ffffff168c611f859190612b23565b611f8f9190612b3a565b94505b88620f42408760a0015162ffffff168c611fac9190612b23565b611fb69190612b3a565b611fc09190612b23565b811015611fed57620f42408660a0015162ffffff168b611fe09190612b23565b611fea9190612b3a565b93505b8660ff168860ff161115612021576120058789612d99565b61201090600a612c93565b61201a9085612b3a565b9350612051565b8660ff168860ff161015612051576120398888612d99565b61204490600a612c93565b61204e9086612b3a565b94505b505050965096945050505050565b5f6207a11f19627fffff85160181831561207957815f0391505b81620f42400190506117eb620f4240866120939190612b23565b82810615158616908390040190565b5f67ffffffffffffffff8211156120d857604080516306dfcc6560e41b8152600481019190915260248101839052604401610fc6565b5090565b6001805473ffffffffffffffffffffffffffffffffffffffff19169055610fd8816123f4565b5f61210c82612450565b815f600282900b811361211f5781612128565b61212882612b80565b62ffffff811691506001161561214c576bfff97272373d413259a469909250612154565b600160601b92505b60028116156121735760606bfff2e50f5f656932ef12357c8402901c92505b60048116156121925760606bffe5caca7e10e4e61c3624ea8402901c92505b60088116156121b15760606bffcb9843d60f6159c9db58838402901c92505b60108116156121d05760606bff973b41fa98c081472e68968402901c92505b60208116156121ef5760606bff2ea16466c96a3843ec78b38402901c92505b604081161561220e5760606bfe5dee046a99a2a811c461f18402901c92505b608081161561222d5760606bfcbe86c7900a88aedcffc83b8402901c92505b61010081161561224d5760606bf987a7253ac413176f2b074c8402901c92505b61020081161561226d5760606bf3392b0822b70005940c7a398402901c92505b61040081161561228d5760606be7159475a2c29b7443b29c7f8402901c92505b6108008116156122ad5760606bd097f3bdfd2022b8845ad8f78402901c92505b6110008116156122cd5760606ba9f746462d870fdf8a65dc1f8402901c92505b6120008116156122ed5760606b70d869a156d2a1b890bb3df68402901c92505b61400081161561230d5760606b31be135f97d08fd9812315058402901c92505b61800081161561232d5760606b09aa508b5b7a84e1c677de548402901c92505b6201000081161561234d5760606a5d6af8dedb81196699c3298402901c92505b6202000081161561236c576060692216e584f5fa1ea926048402901c92505b6204000081161561238957606067048a170391f7dc428402901c92505b5f8260020b13156123ba576123b7837801000000000000000000000000000000000000000000000000612b3a565b92505b5050919050565b5f6001600160b81b038211156120d8576040516306dfcc6560e41b815260b8600482015260248101839052604401610fc6565b5f80546001600160a01b0383811673ffffffffffffffffffffffffffffffffffffffff19831681178455604051919092169283917f8be0079c531659141344cd1fd0a4f28419497f9722a3daafe3b4186f6b6457e09190a35050565b6207ffff600282900b1380612475575061246c6207ffff612b80565b60020b8160020b125b15610fd8576040517fce8ef7fc00000000000000000000000000000000000000000000000000000000815260040160405180910390fd5b634e487b7160e01b5f52604160045260245ffd5b604051610100810167ffffffffffffffff811182821017156124e4576124e46124ac565b60405290565b6040805190810167ffffffffffffffff811182821017156124e4576124e46124ac565b604051601f8201601f1916810167ffffffffffffffff81118282101715612536576125366124ac565b604052919050565b62ffffff81168114610fd8575f80fd5b80356125598161253e565b919050565b5f80828403610120811215612571575f80fd5b8335925061010080601f1983011215612588575f80fd5b6125906124c0565b915060208501356125a08161253e565b82526125ae6040860161254e565b60208301526125bf6060860161254e565b60408301526125d06080860161254e565b60608301526125e160a0860161254e565b60808301526125f260c0860161254e565b60a083015261260360e0860161254e565b60c083015261261381860161254e565b60e083015250809150509250929050565b5f60208284031215612634575f80fd5b5035919050565b5f815180845260208085019450602084015f5b83811015612682578151805160020b885283015167ffffffffffffffff16838801526040909601959082019060010161264e565b509495945050505050565b604081525f61269f604083018561263b565b82810360208401526126b1818561263b565b95945050505050565b6001600160a01b0381168114610fd8575f80fd5b5f80604083850312156126df575f80fd5b82356126ea816126ba565b9150602083013580151581146126fe575f80fd5b809150509250929050565b5f60208284031215612719575f80fd5b8135612724816126ba565b9392505050565b5f6101008201905062ffffff8084511683528060208501511660208401528060408501511660408401528060608501511660608401528060808501511660808401528060a08501511660a08401525060c083015161279060c084018262ffffff169052565b5060e08301516127a760e084018262ffffff169052565b5092915050565b8035600281900b8114612559575f80fd5b5f805f805f60a086880312156127d3575f80fd5b85359450602086013593506127ea604087016127ae565b92506127f8606087016127ae565b915060808601356128088161253e565b809150509295509295909350565b5f805f8060808587031215612829575f80fd5b8435612834816126ba565b966020860135965060408601359560600135945092505050565b5f67ffffffffffffffff821115612867576128676124ac565b5060051b60200190565b67ffffffffffffffff81168114610fd8575f80fd5b5f82601f830112612895575f80fd5b813560206128aa6128a58361284e565b61250d565b82815260069290921b840181019181810190868411156128c8575f80fd5b8286015b8481101561291557604081890312156128e3575f80fd5b6128eb6124ea565b6128f4826127ae565b81528482013561290381612871565b818601528352918301916040016128cc565b509695505050505050565b5f805f8060808587031215612933575f80fd5b843561293e816126ba565b935060208501359250604085013567ffffffffffffffff80821115612961575f80fd5b61296d88838901612886565b93506060870135915080821115612982575f80fd5b5061298f87828801612886565b91505092959194509250565b80516001600160c01b0381168114612559575f80fd5b5f80604083850312156129c2575f80fd5b6129cb8361299b565b91506129d96020840161299b565b90509250929050565b5f60c082840312156129f2575f80fd5b60405160c0810181811067ffffffffffffffff82111715612a1557612a156124ac565b6040528251612a23816126ba565b81526020830151612a3381612871565b60208201526040830151612a46816126ba565b60408201526060830151612a598161253e565b60608201526080830151612a6c816126ba565b608082015260a0830151612a7f8161253e565b60a08201529392505050565b5f60608284031215612a9b575f80fd5b6040516060810181811067ffffffffffffffff82111715612abe57612abe6124ac565b80604052508091508251815260208301516020820152604083015160408201525092915050565b5f8060c08385031215612af6575f80fd5b612b008484612a8b565b91506129d98460608501612a8b565b634e487b7160e01b5f52601160045260245ffd5b8082028115828204841417611d9b57611d9b612b0f565b5f82612b5457634e487b7160e01b5f52601260045260245ffd5b500490565b80820180821115611d9b57611d9b612b0f565b634e487b7160e01b5f52603260045260245ffd5b5f8160020b627fffff198103612b9857612b98612b0f565b5f0392915050565b81810381811115611d9b57611d9b612b0f565b600181815b80851115612bed57815f1904821115612bd357612bd3612b0f565b80851615612be057918102915b93841c9390800290612bb8565b509250929050565b5f82612c0357506001611d9b565b81612c0f57505f611d9b565b8160018114612c255760028114612c2f57612c4b565b6001915050611d9b565b60ff841115612c4057612c40612b0f565b50506001821b611d9b565b5060208310610133831016604e8410600b8410161715612c6e575081810a611d9b565b612c788383612bb3565b805f1904821115612c8b57612c8b612b0f565b029392505050565b5f61272460ff841683612bf5565b5f60208284031215612cb1575f80fd5b815160ff81168114612724575f80fd5b602080825282518282018190525f9190848201906040850190845b81811015612d015783516001600160a01b031683529284019291840191600101612cdc565b50909695505050505050565b5f6020808385031215612d1e575f80fd5b825167ffffffffffffffff811115612d34575f80fd5b8301601f81018513612d44575f80fd5b8051612d526128a58261284e565b81815260059190911b82018301908381019087831115612d70575f80fd5b928401925b82841015612d8e57835182529284019290840190612d75565b979650505050505050565b60ff8281168282160390811115611d9b57611d9b612b0f56fea2646970667358221220f5e474068c27a3240f42f395ef6a8c4d948f03bf449a7b0ed9172d2155c7027f64736f6c63430008190033",
  "devdoc": {
    "errors": {
      "OwnableInvalidOwner(address)": [
        {
          "details": "The owner is not a valid owner account. (eg. `address(0)`)"
        }
      ],
      "OwnableUnauthorizedAccount(address)": [
        {
          "details": "The caller account is not authorized to perform an operation."
        }
      ],
      "SafeCastOverflowedUintDowncast(uint8,uint256)": [
        {
          "details": "Value doesn't fit in an uint of `bits` size."
        }
      ]
    },
    "kind": "dev",
    "methods": {
      "acceptOwnership()": {
        "details": "The new owner accepts the ownership transfer."
      },
      "owner()": {
        "details": "Returns the address of the current owner."
      },
      "pendingOwner()": {
        "details": "Returns the address of the pending owner."
      },
      "renounceOwnership()": {
        "details": "Leaves the contract without owner. It will not be possible to call `onlyOwner` functions. Can only be called by the current owner. NOTE: Renouncing ownership will leave the contract without an owner, thereby disabling any functionality that is only available to the owner."
      },
      "transferOwnership(address)": {
        "details": "Starts the ownership transfer of the contract to a new account. Replaces the pending transfer if there is one. Can only be called by the current owner. Setting `newOwner` to the zero address is allowed; this can be used to cancel an initiated ownership transfer."
      }
    },
    "version": 1
  },
  "userdoc": {
    "kind": "user",
    "methods": {},
    "version": 1
  },
  "storageLayout": {
    "storage": [
      {
        "astId": 8,
        "contract": "src/SimpleOracleStrategy.sol:SimpleOracleStrategy",
        "label": "_owner",
        "offset": 0,
        "slot": "0",
        "type": "t_address"
      },
      {
        "astId": 156,
        "contract": "src/SimpleOracleStrategy.sol:SimpleOracleStrategy",
        "label": "_pendingOwner",
        "offset": 0,
        "slot": "1",
        "type": "t_address"
      },
      {
        "astId": 4161,
        "contract": "src/SimpleOracleStrategy.sol:SimpleOracleStrategy",
        "label": "isOperator",
        "offset": 0,
        "slot": "2",
        "type": "t_mapping(t_address,t_bool)"
      },
      {
        "astId": 4166,
        "contract": "src/SimpleOracleStrategy.sol:SimpleOracleStrategy",
        "label": "_configs",
        "offset": 0,
        "slot": "3",
        "type": "t_mapping(t_bytes32,t_struct(Config)5704_storage)"
      },
      {
        "astId": 4171,
        "contract": "src/SimpleOracleStrategy.sol:SimpleOracleStrategy",
        "label": "_positions",
        "offset": 0,
        "slot": "4",
        "type": "t_mapping(t_bytes32,t_struct(Position)5715_storage)"
      },
      {
        "astId": 4175,
        "contract": "src/SimpleOracleStrategy.sol:SimpleOracleStrategy",
        "label": "_lastRawAmounts",
        "offset": 0,
        "slot": "5",
        "type": "t_mapping(t_bytes32,t_uint256)"
      }
    ],
    "types": {
      "t_address": {
        "encoding": "inplace",
        "label": "address",
        "numberOfBytes": "20"
      },
      "t_bool": {
        "encoding": "inplace",
        "label": "bool",
        "numberOfBytes": "1"
      },
      "t_bytes32": {
        "encoding": "inplace",
        "label": "bytes32",
        "numberOfBytes": "32"
      },
      "t_mapping(t_address,t_bool)": {
        "encoding": "mapping",
        "key": "t_address",
        "label": "mapping(address => bool)",
        "numberOfBytes": "32",
        "value": "t_bool"
      },
      "t_mapping(t_bytes32,t_struct(Config)5704_storage)": {
        "encoding": "mapping",
        "key": "t_bytes32",
        "label": "mapping(bytes32 => struct ISimpleOracleStrategy.Config)",
        "numberOfBytes": "32",
        "value": "t_struct(Config)5704_storage"
      },
      "t_mapping(t_bytes32,t_struct(Position)5715_storage)": {
        "encoding": "mapping",
        "key": "t_bytes32",
        "label": "mapping(bytes32 => struct ISimpleOracleStrategy.Position)",
        "numberOfBytes": "32",
        "value": "t_struct(Position)5715_storage"
      },
      "t_mapping(t_bytes32,t_uint256)": {
        "encoding": "mapping",
        "key": "t_bytes32",
        "label": "mapping(bytes32 => uint256)",
        "numberOfBytes": "32",
        "value": "t_uint256"
      },
      "t_struct(Config)5704_storage": {
        "encoding": "inplace",
        "label": "struct ISimpleOracleStrategy.Config",
        "members": [
          {
            "astId": 5689,
            "contract": "src/SimpleOracleStrategy.sol:SimpleOracleStrategy",
            "label": "referenceThreshold",
            "offset": 0,
            "slot": "0",
            "type": "t_uint24"
          },
          {
            "astId": 5691,
            "contract": "src/SimpleOracleStrategy.sol:SimpleOracleStrategy",
            "label": "rebalanceThreshold",
            "offset": 3,
            "slot": "0",
            "type": "t_uint24"
          },
          {
            "astId": 5693,
            "contract": "src/SimpleOracleStrategy.sol:SimpleOracleStrategy",
            "label": "rateA",
            "offset": 6,
            "slot": "0",
            "type": "t_uint24"
          },
          {
            "astId": 5695,
            "contract": "src/SimpleOracleStrategy.sol:SimpleOracleStrategy",
            "label": "rateB",
            "offset": 9,
            "slot": "0",
            "type": "t_uint24"
          },
          {
            "astId": 5697,
            "contract": "src/SimpleOracleStrategy.sol:SimpleOracleStrategy",
            "label": "minRateA",
            "offset": 12,
            "slot": "0",
            "type": "t_uint24"
          },
          {
            "astId": 5699,
            "contract": "src/SimpleOracleStrategy.sol:SimpleOracleStrategy",
            "label": "minRateB",
            "offset": 15,
            "slot": "0",
            "type": "t_uint24"
          },
          {
            "astId": 5701,
            "contract": "src/SimpleOracleStrategy.sol:SimpleOracleStrategy",
            "label": "priceThresholdA",
            "offset": 18,
            "slot": "0",
            "type": "t_uint24"
          },
          {
            "astId": 5703,
            "contract": "src/SimpleOracleStrategy.sol:SimpleOracleStrategy",
            "label": "priceThresholdB",
            "offset": 21,
            "slot": "0",
            "type": "t_uint24"
          }
        ],
        "numberOfBytes": "32"
      },
      "t_struct(Position)5715_storage": {
        "encoding": "inplace",
        "label": "struct ISimpleOracleStrategy.Position",
        "members": [
          {
            "astId": 5706,
            "contract": "src/SimpleOracleStrategy.sol:SimpleOracleStrategy",
            "label": "oraclePrice",
            "offset": 0,
            "slot": "0",
            "type": "t_uint184"
          },
          {
            "astId": 5708,
            "contract": "src/SimpleOracleStrategy.sol:SimpleOracleStrategy",
            "label": "rate",
            "offset": 23,
            "slot": "0",
            "type": "t_uint24"
          },
          {
            "astId": 5711,
            "contract": "src/SimpleOracleStrategy.sol:SimpleOracleStrategy",
            "label": "tickA",
            "offset": 26,
            "slot": "0",
            "type": "t_userDefinedValueType(Tick)3505"
          },
          {
            "astId": 5714,
            "contract": "src/SimpleOracleStrategy.sol:SimpleOracleStrategy",
            "label": "tickB",
            "offset": 29,
            "slot": "0",
            "type": "t_userDefinedValueType(Tick)3505"
          }
        ],
        "numberOfBytes": "32"
      },
      "t_uint184": {
        "encoding": "inplace",
        "label": "uint184",
        "numberOfBytes": "23"
      },
      "t_uint24": {
        "encoding": "inplace",
        "label": "uint24",
        "numberOfBytes": "3"
      },
      "t_uint256": {
        "encoding": "inplace",
        "label": "uint256",
        "numberOfBytes": "32"
      },
      "t_userDefinedValueType(Tick)3505": {
        "encoding": "inplace",
        "label": "Tick",
        "numberOfBytes": "3"
      }
    }
  }
}