{
  "address": "0x888E1fafb5f2574b901142f877D186DE6C5ef89d",
  "abi": [
    {
      "inputs": [
        {
          "internalType": "contract IOracle",
          "name": "referenceOracle_",
          "type": "address"
        },
        {
          "internalType": "contract IRebalancer",
          "name": "rebalancer_",
          "type": "address"
        },
        {
          "internalType": "contract IBookManager",
          "name": "bookManager_",
          "type": "address"
        },
        {
          "internalType": "address",
          "name": "initialOwner",
          "type": "address"
        }
      ],
      "stateMutability": "nonpayable",
      "type": "constructor"
    },
    {
      "inputs": [],
      "name": "ExceedsThreshold",
      "type": "error"
    },
    {
      "inputs": [],
      "name": "InvalidAccess",
      "type": "error"
    },
    {
      "inputs": [],
      "name": "InvalidConfig",
      "type": "error"
    },
    {
      "inputs": [],
      "name": "InvalidPrice",
      "type": "error"
    },
    {
      "inputs": [],
      "name": "InvalidTick",
      "type": "error"
    },
    {
      "inputs": [],
      "name": "InvalidValue",
      "type": "error"
    },
    {
      "inputs": [],
      "name": "NotOperator",
      "type": "error"
    },
    {
      "inputs": [
        {
          "internalType": "address",
          "name": "owner",
          "type": "address"
        }
      ],
      "name": "OwnableInvalidOwner",
      "type": "error"
    },
    {
      "inputs": [
        {
          "internalType": "address",
          "name": "account",
          "type": "address"
        }
      ],
      "name": "OwnableUnauthorizedAccount",
      "type": "error"
    },
    {
      "inputs": [
        {
          "internalType": "uint8",
          "name": "bits",
          "type": "uint8"
        },
        {
          "internalType": "uint256",
          "name": "value",
          "type": "uint256"
        }
      ],
      "name": "SafeCastOverflowedUintDowncast",
      "type": "error"
    },
    {
      "anonymous": false,
      "inputs": [
        {
          "indexed": true,
          "internalType": "address",
          "name": "previousOwner",
          "type": "address"
        },
        {
          "indexed": true,
          "internalType": "address",
          "name": "newOwner",
          "type": "address"
        }
      ],
      "name": "OwnershipTransferStarted",
      "type": "event"
    },
    {
      "anonymous": false,
      "inputs": [
        {
          "indexed": true,
          "internalType": "address",
          "name": "previousOwner",
          "type": "address"
        },
        {
          "indexed": true,
          "internalType": "address",
          "name": "newOwner",
          "type": "address"
        }
      ],
      "name": "OwnershipTransferred",
      "type": "event"
    },
    {
      "anonymous": false,
      "inputs": [
        {
          "indexed": true,
          "internalType": "address",
          "name": "operator",
          "type": "address"
        },
        {
          "indexed": false,
          "internalType": "bool",
          "name": "status",
          "type": "bool"
        }
      ],
      "name": "SetOperator",
      "type": "event"
    },
    {
      "anonymous": false,
      "inputs": [
        {
          "indexed": true,
          "internalType": "bytes32",
          "name": "key",
          "type": "bytes32"
        },
        {
          "components": [
            {
              "internalType": "uint24",
              "name": "referenceThreshold",
              "type": "uint24"
            },
            {
              "internalType": "uint24",
              "name": "rebalanceThreshold",
              "type": "uint24"
            },
            {
              "internalType": "uint24",
              "name": "rateA",
              "type": "uint24"
            },
            {
              "internalType": "uint24",
              "name": "rateB",
              "type": "uint24"
            },
            {
              "internalType": "uint24",
              "name": "minRateA",
              "type": "uint24"
            },
            {
              "internalType": "uint24",
              "name": "minRateB",
              "type": "uint24"
            },
            {
              "internalType": "uint24",
              "name": "priceThresholdA",
              "type": "uint24"
            },
            {
              "internalType": "uint24",
              "name": "priceThresholdB",
              "type": "uint24"
            }
          ],
          "indexed": false,
          "internalType": "struct ISimpleOracleStrategy.Config",
          "name": "config",
          "type": "tuple"
        }
      ],
      "name": "UpdateConfig",
      "type": "event"
    },
    {
      "anonymous": false,
      "inputs": [
        {
          "indexed": true,
          "internalType": "bytes32",
          "name": "key",
          "type": "bytes32"
        },
        {
          "indexed": false,
          "internalType": "uint256",
          "name": "oraclePrice",
          "type": "uint256"
        },
        {
          "indexed": false,
          "internalType": "Tick",
          "name": "tickA",
          "type": "int24"
        },
        {
          "indexed": false,
          "internalType": "Tick",
          "name": "tickB",
          "type": "int24"
        },
        {
          "indexed": false,
          "internalType": "uint256",
          "name": "alpha",
          "type": "uint256"
        }
      ],
      "name": "UpdatePrice",
      "type": "event"
    },
    {
      "inputs": [],
      "name": "RATE_PRECISION",
      "outputs": [
        {
          "internalType": "uint256",
          "name": "",
          "type": "uint256"
        }
      ],
      "stateMutability": "view",
      "type": "function"
    },
    {
      "inputs": [],
      "name": "acceptOwnership",
      "outputs": [],
      "stateMutability": "nonpayable",
      "type": "function"
    },
    {
      "inputs": [],
      "name": "bookManager",
      "outputs": [
        {
          "internalType": "contract IBookManager",
          "name": "",
          "type": "address"
        }
      ],
      "stateMutability": "view",
      "type": "function"
    },
    {
      "inputs": [
        {
          "internalType": "address",
          "name": "sender",
          "type": "address"
        },
        {
          "internalType": "bytes32",
          "name": "key",
          "type": "bytes32"
        },
        {
          "internalType": "uint256",
          "name": "burnAmount",
          "type": "uint256"
        },
        {
          "internalType": "uint256",
          "name": "totalSupply",
          "type": "uint256"
        }
      ],
      "name": "burnHook",
      "outputs": [],
      "stateMutability": "nonpayable",
      "type": "function"
    },
    {
      "inputs": [
        {
          "internalType": "bytes32",
          "name": "key",
          "type": "bytes32"
        }
      ],
      "name": "computeOrders",
      "outputs": [
        {
          "components": [
            {
              "internalType": "Tick",
              "name": "tick",
              "type": "int24"
            },
            {
              "internalType": "uint64",
              "name": "rawAmount",
              "type": "uint64"
            }
          ],
          "internalType": "struct IStrategy.Order[]",
          "name": "ordersA",
          "type": "tuple[]"
        },
        {
          "components": [
            {
              "internalType": "Tick",
              "name": "tick",
              "type": "int24"
            },
            {
              "internalType": "uint64",
              "name": "rawAmount",
              "type": "uint64"
            }
          ],
          "internalType": "struct IStrategy.Order[]",
          "name": "ordersB",
          "type": "tuple[]"
        }
      ],
      "stateMutability": "view",
      "type": "function"
    },
    {
      "inputs": [],
      "name": "getAlpha",
      "outputs": [
        {
          "internalType": "uint256",
          "name": "",
          "type": "uint256"
        }
      ],
      "stateMutability": "view",
      "type": "function"
    },
    {
      "inputs": [
        {
          "internalType": "bytes32",
          "name": "key",
          "type": "bytes32"
        }
      ],
      "name": "getConfig",
      "outputs": [
        {
          "components": [
            {
              "internalType": "uint24",
              "name": "referenceThreshold",
              "type": "uint24"
            },
            {
              "internalType": "uint24",
              "name": "rebalanceThreshold",
              "type": "uint24"
            },
            {
              "internalType": "uint24",
              "name": "rateA",
              "type": "uint24"
            },
            {
              "internalType": "uint24",
              "name": "rateB",
              "type": "uint24"
            },
            {
              "internalType": "uint24",
              "name": "minRateA",
              "type": "uint24"
            },
            {
              "internalType": "uint24",
              "name": "minRateB",
              "type": "uint24"
            },
            {
              "internalType": "uint24",
              "name": "priceThresholdA",
              "type": "uint24"
            },
            {
              "internalType": "uint24",
              "name": "priceThresholdB",
              "type": "uint24"
            }
          ],
          "internalType": "struct ISimpleOracleStrategy.Config",
          "name": "",
          "type": "tuple"
        }
      ],
      "stateMutability": "view",
      "type": "function"
    },
    {
      "inputs": [
        {
          "internalType": "bytes32",
          "name": "key",
          "type": "bytes32"
        }
      ],
      "name": "getPrice",
      "outputs": [
        {
          "components": [
            {
              "internalType": "uint208",
              "name": "oraclePrice",
              "type": "uint208"
            },
            {
              "internalType": "Tick",
              "name": "tickA",
              "type": "int24"
            },
            {
              "internalType": "Tick",
              "name": "tickB",
              "type": "int24"
            }
          ],
          "internalType": "struct ISimpleOracleStrategy.Price",
          "name": "",
          "type": "tuple"
        }
      ],
      "stateMutability": "view",
      "type": "function"
    },
    {
      "inputs": [
        {
          "internalType": "address",
          "name": "",
          "type": "address"
        }
      ],
      "name": "isOperator",
      "outputs": [
        {
          "internalType": "bool",
          "name": "",
          "type": "bool"
        }
      ],
      "stateMutability": "view",
      "type": "function"
    },
    {
      "inputs": [
        {
          "internalType": "bytes32",
          "name": "key",
          "type": "bytes32"
        }
      ],
      "name": "isOraclePriceValid",
      "outputs": [
        {
          "internalType": "bool",
          "name": "",
          "type": "bool"
        }
      ],
      "stateMutability": "view",
      "type": "function"
    },
    {
      "inputs": [
        {
          "internalType": "address",
          "name": "sender",
          "type": "address"
        },
        {
          "internalType": "bytes32",
          "name": "key",
          "type": "bytes32"
        },
        {
          "internalType": "uint256",
          "name": "mintAmount",
          "type": "uint256"
        },
        {
          "internalType": "uint256",
          "name": "totalSupply",
          "type": "uint256"
        }
      ],
      "name": "mintHook",
      "outputs": [],
      "stateMutability": "view",
      "type": "function"
    },
    {
      "inputs": [],
      "name": "owner",
      "outputs": [
        {
          "internalType": "address",
          "name": "",
          "type": "address"
        }
      ],
      "stateMutability": "view",
      "type": "function"
    },
    {
      "inputs": [],
      "name": "pendingOwner",
      "outputs": [
        {
          "internalType": "address",
          "name": "",
          "type": "address"
        }
      ],
      "stateMutability": "view",
      "type": "function"
    },
    {
      "inputs": [
        {
          "internalType": "address",
          "name": "sender",
          "type": "address"
        },
        {
          "internalType": "bytes32",
          "name": "key",
          "type": "bytes32"
        },
        {
          "components": [
            {
              "internalType": "Tick",
              "name": "tick",
              "type": "int24"
            },
            {
              "internalType": "uint64",
              "name": "rawAmount",
              "type": "uint64"
            }
          ],
          "internalType": "struct IStrategy.Order[]",
          "name": "liquidityA",
          "type": "tuple[]"
        },
        {
          "components": [
            {
              "internalType": "Tick",
              "name": "tick",
              "type": "int24"
            },
            {
              "internalType": "uint64",
              "name": "rawAmount",
              "type": "uint64"
            }
          ],
          "internalType": "struct IStrategy.Order[]",
          "name": "liquidityB",
          "type": "tuple[]"
        }
      ],
      "name": "rebalanceHook",
      "outputs": [],
      "stateMutability": "nonpayable",
      "type": "function"
    },
    {
      "inputs": [],
      "name": "rebalancer",
      "outputs": [
        {
          "internalType": "contract IRebalancer",
          "name": "",
          "type": "address"
        }
      ],
      "stateMutability": "view",
      "type": "function"
    },
    {
      "inputs": [],
      "name": "referenceOracle",
      "outputs": [
        {
          "internalType": "contract IOracle",
          "name": "",
          "type": "address"
        }
      ],
      "stateMutability": "view",
      "type": "function"
    },
    {
      "inputs": [],
      "name": "renounceOwnership",
      "outputs": [],
      "stateMutability": "nonpayable",
      "type": "function"
    },
    {
      "inputs": [
        {
          "internalType": "bytes32",
          "name": "key",
          "type": "bytes32"
        },
        {
          "components": [
            {
              "internalType": "uint24",
              "name": "referenceThreshold",
              "type": "uint24"
            },
            {
              "internalType": "uint24",
              "name": "rebalanceThreshold",
              "type": "uint24"
            },
            {
              "internalType": "uint24",
              "name": "rateA",
              "type": "uint24"
            },
            {
              "internalType": "uint24",
              "name": "rateB",
              "type": "uint24"
            },
            {
              "internalType": "uint24",
              "name": "minRateA",
              "type": "uint24"
            },
            {
              "internalType": "uint24",
              "name": "minRateB",
              "type": "uint24"
            },
            {
              "internalType": "uint24",
              "name": "priceThresholdA",
              "type": "uint24"
            },
            {
              "internalType": "uint24",
              "name": "priceThresholdB",
              "type": "uint24"
            }
          ],
          "internalType": "struct ISimpleOracleStrategy.Config",
          "name": "config",
          "type": "tuple"
        }
      ],
      "name": "setConfig",
      "outputs": [],
      "stateMutability": "nonpayable",
      "type": "function"
    },
    {
      "inputs": [
        {
          "internalType": "address",
          "name": "operator",
          "type": "address"
        },
        {
          "internalType": "bool",
          "name": "status",
          "type": "bool"
        }
      ],
      "name": "setOperator",
      "outputs": [],
      "stateMutability": "nonpayable",
      "type": "function"
    },
    {
      "inputs": [
        {
          "internalType": "address",
          "name": "newOwner",
          "type": "address"
        }
      ],
      "name": "transferOwnership",
      "outputs": [],
      "stateMutability": "nonpayable",
      "type": "function"
    },
    {
      "inputs": [
        {
          "internalType": "bytes32",
          "name": "key",
          "type": "bytes32"
        },
        {
          "internalType": "uint256",
          "name": "oraclePrice",
          "type": "uint256"
        },
        {
          "internalType": "Tick",
          "name": "tickA",
          "type": "int24"
        },
        {
          "internalType": "Tick",
          "name": "tickB",
          "type": "int24"
        },
        {
          "internalType": "uint256",
          "name": "alpha",
          "type": "uint256"
        }
      ],
      "name": "updatePrice",
      "outputs": [],
      "stateMutability": "nonpayable",
      "type": "function"
    }
  ],
  "transactionHash": "0xbc51d9d26c2c3be61e70b8f6702699554d22347513af9dabbab906c6743bc4fc",
  "args": [
    "0xFcEd94a7D7fB4166255bEc36a7d43f62E00C94c7",
    "0x6A35651C455898021492d236149Afb7bF354bE1F",
    "0xAA9575d63dFC224b9583fC303dB3188C08d5C85A",
    "0x5F79EE8f8fA862E98201120d83c4eC39D9468D49"
  ],
  "numDeployments": 1,
  "solcInputHash": "4f15247d42de0ebd5e8510493832a9f9",
  "bytecode": "0x60e060405234801561000f575f80fd5b50604051612e7b380380612e7b83398101604081905261002e91610103565b806001600160a01b03811661005c57604051631e4fbdf760e01b81525f600482015260240160405180910390fd5b61006581610084565b50506001600160a01b0392831660805290821660a0521660c05261015f565b600180546001600160a01b031916905561009d816100a0565b50565b5f80546001600160a01b038381166001600160a01b0319831681178455604051919092169283917f8be0079c531659141344cd1fd0a4f28419497f9722a3daafe3b4186f6b6457e09190a35050565b6001600160a01b038116811461009d575f80fd5b5f805f8060808587031215610116575f80fd5b8451610121816100ef565b6020860151909450610132816100ef565b6040860151909350610143816100ef565b6060860151909250610154816100ef565b939692955090935050565b60805160a05160c051612c896101f25f395f81816102d30152818161091d015281816109b101528181611026015261145501525f81816101770152818161088001528181610a2001528181610f8a015281816110cd015281816113b9015281816116dc01526117b901525f818161028b0152818161150f01528181611a0c01528181611aa90152611d020152612c895ff3fe608060405234801561000f575f80fd5b506004361061016e575f3560e01c8063715018a6116100d2578063ad7089f011610088578063edffdaaf11610063578063edffdaaf146104aa578063f2fde38b146104bd578063f4988a3d146104d0575f80fd5b8063ad7089f014610473578063db7c74b614610486578063e30c397814610499575f80fd5b80638da5cb5b116100b85780638da5cb5b1461043d578063a30416d31461044d578063a3a36f5514610460575f80fd5b8063715018a61461042d57806379ba509714610435575f80fd5b80633b93fabc11610127578063558a72971161010d578063558a7297146102f55780636d70f7ae146103085780636dd5b69d1461033a575f80fd5b80633b93fabc146102ad5780633f322bc9146102ce575f80fd5b80632b3ba681116101575780632b3ba681146101cb57806331d98b3f146101e3578063337cceb914610286575f80fd5b806301d22ccd14610172578063063570bd146101b6575b5f80fd5b6101997f000000000000000000000000000000000000000000000000000000000000000081565b6040516001600160a01b0390911681526020015b60405180910390f35b6101c96101c436600461240c565b6104d8565b005b6101d5620f424081565b6040519081526020016101ad565b6102506101f13660046124d2565b60408051606080820183525f8083526020808401829052928401819052938452600482529282902082519384018352546001600160d01b0381168452600160d01b8104600290810b92850192909252600160e81b9004900b9082015290565b6040805182516001600160d01b03168152602080840151600290810b918301919091529282015190920b908201526060016101ad565b6101997f000000000000000000000000000000000000000000000000000000000000000081565b6102c06102bb3660046124d2565b610793565b6040516101ad92919061253b565b6101997f000000000000000000000000000000000000000000000000000000000000000081565b6101c961030336600461257c565b610de7565b61032a6103163660046125b7565b60026020525f908152604090205460ff1681565b60405190151581526020016101ad565b6104206103483660046124d2565b60408051610100810182525f80825260208201819052918101829052606081018290526080810182905260a0810182905260c0810182905260e0810191909152505f90815260036020908152604091829020825161010081018452905462ffffff808216835263010000008204811693830193909352660100000000000081048316938201939093526901000000000000000000830482166060820152600160601b830482166080820152600160781b8304821660a0820152600160901b8304821660c0820152600160a81b9092041660e082015290565b6040516101ad91906125d9565b6101c9610e46565b6101c9610e59565b5f546001600160a01b0316610199565b61032a61045b3660046124d2565b610ea2565b6101c961046e36600461265c565b6110c2565b6101c96104813660046126a5565b611111565b6101c961049436600461265c565b6116d1565b6001546001600160a01b0316610199565b6101c96104b83660046127c1565b6117ae565b6101c96104cb3660046125b7565b6118b8565b6007546101d5565b6104e0611935565b620f4240815f015162ffffff1611806105045750620f4240816020015162ffffff16115b8061051a5750620f4240816040015162ffffff16115b806105305750620f4240816060015162ffffff16115b806105465750620f4240816080015162ffffff16115b8061055c5750620f42408160a0015162ffffff16115b806105725750620f42408160c0015162ffffff16115b806105885750620f42408160e0015162ffffff16115b156105a6576040516306b7c75960e31b815260040160405180910390fd5b806080015162ffffff16816040015162ffffff1610806105d757508060a0015162ffffff16816060015162ffffff16105b156105f5576040516306b7c75960e31b815260040160405180910390fd5b5f828152600360209081526040918290208351815492850151858501516060870151608088015160a089015160c08a015160e08b015162ffffff97881665ffffffffffff19909a1699909917630100000096881696909602959095176bffffffffffff00000000000019166601000000000000948716949094026bffffff000000000000000000191693909317690100000000000000000092861692909202919091177fffffffffffffffffffffffffffff000000000000ffffffffffffffffffffffff16600160601b918516919091027fffffffffffffffffffffffffffff000000ffffffffffffffffffffffffffffff1617600160781b91841691909102177fffffffffffffffff000000000000ffffffffffffffffffffffffffffffffffff16600160901b918316919091027fffffffffffffffff000000ffffffffffffffffffffffffffffffffffffffffff1617600160a81b91909316029190911790555182907fa6796aaa3e8df6d8ed1c3d26d8a54828d50465a6b4151685c28954b40e3be4c1906107879084906125d9565b60405180910390a25050565b5f818152600360209081526040808320815161010081018352905462ffffff80821683526301000000820481168386015266010000000000008204811683850152690100000000000000000082048116606080850191909152600160601b830482166080850152600160781b8304821660a0850152600160901b8304821660c0850152600160a81b9092041660e083015285855260048085528386208451808401865290546001600160d01b0381168252600160d01b8104600290810b97830197909752600160e81b900490950b85850152925163c630ed7d60e01b8152928301869052938493919281907f00000000000000000000000000000000000000000000000000000000000000006001600160a01b03169063c630ed7d906024016040805180830381865afa1580156108cc573d5f803e3d5ffd5b505050506040513d601f19601f820116820180604052508101906108f09190612852565b604051639b22917d60e01b81526001600160c01b038316600482015291935091505f906001600160a01b037f00000000000000000000000000000000000000000000000000000000000000001690639b22917d9060240160c060405180830381865afa158015610962573d5f803e3d5ffd5b505050506040513d601f19601f820116820180604052508101906109869190612883565b604051639b22917d60e01b81526001600160c01b03841660048201529091505f906001600160a01b037f00000000000000000000000000000000000000000000000000000000000000001690639b22917d9060240160c060405180830381865afa1580156109f6573d5f803e3d5ffd5b505050506040513d601f19601f82011682018060405250810190610a1a9190612883565b90505f807f00000000000000000000000000000000000000000000000000000000000000006001600160a01b031663fa6793d58c6040518263ffffffff1660e01b8152600401610a6c91815260200190565b60c060405180830381865afa158015610a87573d5f803e3d5ffd5b505050506040513d601f19601f82011682018060405250810190610aab9190612986565b91509150620f4240886020015162ffffff16856020015167ffffffffffffffff1660055f8f81526020019081526020015f2054610ae891906129c4565b610af291906129c4565b610afc91906129db565b82604001511180610b5c5750620f4240886020015162ffffff16846020015167ffffffffffffffff1660065f8f81526020019081526020015f2054610b4191906129c4565b610b4b91906129c4565b610b5591906129db565b8160400151115b15610b6e575050505050505050915091565b8651885160408601518651610b93936001600160d01b03169262ffffff169190611961565b610ba4575050505050505050915091565b60408051600180825281830190925290816020015b604080518082019091525f8082526020820152815260200190600190039081610bb9575050604080516001808252818301909252919b50602082015b604080518082019091525f8082526020820152815260200190600190039081610bf55790505098505f80610c8f84602001518560400151865f0151610c3a91906129fa565b610c4491906129fa565b602085015160408601518651610c5a91906129fa565b610c6491906129fa565b8b5f01516001600160d01b0316610c7e8a60400151611bd1565b8a51610c8990611bd1565b8f611c4f565b91509150610ca6866060015162ffffff1660171c90565b15610cc3576060860151610cc09062ffffff16835f611f0d565b91505b610cd6856060015162ffffff1660171c90565b15610cf3576060850151610cf09062ffffff16825f611f0d565b90505b60405180604001604052808a6020015160020b8152602001610d48620f4240896020015167ffffffffffffffff1660075487610d2f91906129c4565b610d3991906129db565b610d4391906129db565b611f50565b67ffffffffffffffff168152508c5f81518110610d6757610d67612a0d565b602002602001018190525060405180604001604052808a6040015160020b8152602001610dae620f4240886020015167ffffffffffffffff1660075486610d2f91906129c4565b67ffffffffffffffff168152508b5f81518110610dcd57610dcd612a0d565b602002602001018190525050505050505050505050915091565b610def611935565b6001600160a01b0382165f81815260026020908152604091829020805460ff191685151590811790915591519182527f1618a22a3b00b9ac70fd5a82f1f5cdd8cb272bd0f1b740ddf7c26ab05881dd5b9101610787565b610e4e611935565b610e575f611f8a565b565b60015433906001600160a01b03168114610e965760405163118cdaa760e01b81526001600160a01b03821660048201526024015b60405180910390fd5b610e9f81611f8a565b50565b5f818152600360209081526040808320815161010081018352905462ffffff80821683526301000000820481168386015266010000000000008204811683850152690100000000000000000082048116606080850191909152600160601b830482166080850152600160781b8304821660a0850152600160901b8304821660c0850152600160a81b9092041660e0830152858552600480855283862084519283018552546001600160d01b0381168352600160d01b8104600290810b96840196909652600160e81b900490940b81840152915163c630ed7d60e01b81529283018590529183907f00000000000000000000000000000000000000000000000000000000000000006001600160a01b03169063c630ed7d906024016040805180830381865afa158015610fd6573d5f803e3d5ffd5b505050506040513d601f19601f82011682018060405250810190610ffa9190612852565b50604051639b22917d60e01b81526001600160c01b03821660048201529091505f906001600160a01b037f00000000000000000000000000000000000000000000000000000000000000001690639b22917d9060240160c060405180830381865afa15801561106b573d5f803e3d5ffd5b505050506040513d601f19601f8201168201806040525081019061108f9190612883565b90506110b8835f01516001600160d01b0316855f015162ffffff168360400151845f0151611961565b9695505050505050565b336001600160a01b037f0000000000000000000000000000000000000000000000000000000000000000161461110b57604051633006171960e21b815260040160405180910390fd5b50505050565b335f9081526002602052604090205460ff16611159576040517f7c214f0400000000000000000000000000000000000000000000000000000000815260040160405180910390fd5b5f6111668460020b611fb0565b90505f61117d61117585612a21565b60020b611fb0565b90508082106111b7576040517ebfc92100000000000000000000000000000000000000000000000000000000815260040160405180910390fd5b620f42408311156111f4576040517faa7feadc00000000000000000000000000000000000000000000000000000000815260040160405180910390fd5b82156112005760078390555b5f87815260036020908152604091829020825161010081018452905462ffffff808216835263010000008204811693830193909352660100000000000081048316938201939093526901000000000000000000830482166060820152600160601b830482166080820152600160781b8304821660a0820152600160901b8304821660c08201819052600160a81b90930490911660e0820152908390620f4240906112aa90826129fa565b6112b4908a6129c4565b6112be91906129db565b10806112f8575082620f42408260c0015162ffffff16620f42406112e29190612a41565b6112ec908a6129c4565b6112f691906129db565b115b80611331575081620f42408260e0015162ffffff16620f424061131b91906129fa565b611325908a6129c4565b61132f91906129db565b105b8061136a575081620f42408260e0015162ffffff16620f42406113549190612a41565b61135e908a6129c4565b61136891906129db565b115b156113a1576040517f107826c200000000000000000000000000000000000000000000000000000000815260040160405180910390fd5b60405163c630ed7d60e01b8152600481018990525f907f00000000000000000000000000000000000000000000000000000000000000006001600160a01b03169063c630ed7d906024016040805180830381865afa158015611405573d5f803e3d5ffd5b505050506040513d601f19601f820116820180604052508101906114299190612852565b50604051639b22917d60e01b81526001600160c01b03821660048201529091505f906001600160a01b037f00000000000000000000000000000000000000000000000000000000000000001690639b22917d9060240160c060405180830381865afa15801561149a573d5f803e3d5ffd5b505050506040513d601f19601f820116820180604052508101906114be9190612883565b90505f6114ce8260400151611bd1565b90505f6114dd835f0151611bd1565b90506114ea82600a612b34565b6114f582600a612b34565b6114ff908d6129c4565b61150991906129db565b9a5060607f00000000000000000000000000000000000000000000000000000000000000006001600160a01b031663313ce5676040518163ffffffff1660e01b8152600401602060405180830381865afa158015611569573d5f803e3d5ffd5b505050506040513d601f19601f8201168201806040525081019061158d9190612b42565b61159890600a612b34565b6115a2908d6129c4565b901c9a5060405180606001604052806115ba8d61226f565b6001600160d01b031681526020018b60020b81526020018a60020b81525060045f8e81526020019081526020015f205f820151815f015f6101000a8154816001600160d01b0302191690836001600160d01b031602179055506020820151815f01601a6101000a81548162ffffff021916908360020b62ffffff1602179055506040820151815f01601d6101000a81548162ffffff021916908360020b62ffffff1602179055509050508b7fa58a25aeea90cec95a5caab4ed37b85e78f970caf68a3ba05c68c843e25683728c8c8c5f8d116116985760075461169a565b8c5b60408051948552600293840b60208601529190920b90830152606082015260800160405180910390a2505050505050505050505050565b336001600160a01b037f0000000000000000000000000000000000000000000000000000000000000000161461171a57604051633006171960e21b815260040160405180910390fd5b5f8381526005602052604090205481906117359084906129c4565b61173f91906129db565b5f848152600560205260408120805490919061175c908490612a41565b90915550505f83815260066020526040902054819061177c9084906129c4565b61178691906129db565b5f84815260066020526040812080549091906117a3908490612a41565b909155505050505050565b336001600160a01b037f000000000000000000000000000000000000000000000000000000000000000016146117f757604051633006171960e21b815260040160405180910390fd5b5f805f5b8451811015611846575f85828151811061181757611817612a0d565b60200260200101519050806020015167ffffffffffffffff168461183b91906129fa565b9350506001016117fb565b505f5b8351811015611894575f84828151811061186557611865612a0d565b60200260200101519050806020015167ffffffffffffffff168361188991906129fa565b925050600101611849565b505f9485526005602090815260408087209390935560069052932092909255505050565b6118c0611935565b600180546001600160a01b03831673ffffffffffffffffffffffffffffffffffffffff1990911681179091556118fd5f546001600160a01b031690565b6001600160a01b03167f38d16b8cac22d99fc7c124b9cd0de2d3fa1faef420bfe791d8c362d765e2270060405160405180910390a350565b5f546001600160a01b03163314610e575760405163118cdaa760e01b8152336004820152602401610e8d565b6040805160028082526060820183525f9283928392909160208301908036833701905050905084815f8151811061199a5761199a612a0d565b60200260200101906001600160a01b031690816001600160a01b03168152505083816001815181106119ce576119ce612a0d565b6001600160a01b0392831660209182029290920101526040517f9d23d9f20000000000000000000000000000000000000000000000000000000081527f000000000000000000000000000000000000000000000000000000000000000090911690639d23d9f290611a43908490600401612b62565b5f60405180830381865afa925050508015611a7f57506040513d5f823e601f3d908101601f19168201604052611a7c9190810190612bae565b60015b611a8d575f92505050611bc9565b805f81518110611a9f57611a9f612a0d565b60200260200101517f00000000000000000000000000000000000000000000000000000000000000006001600160a01b031663313ce5676040518163ffffffff1660e01b8152600401602060405180830381865afa158015611b03573d5f803e3d5ffd5b505050506040513d601f19601f82011682018060405250810190611b279190612b42565b611b3290600a612b34565b82600181518110611b4557611b45612a0d565b6020026020010151611b5791906129c4565b611b6191906129db565b92505086620f4240611b7388826129fa565b611b7d90856129c4565b611b8791906129db565b1080611bb3575086620f4240611b9d8882612a41565b611ba790856129c4565b611bb191906129db565b115b15611bc2575f92505050611bc9565b6001925050505b949350505050565b5f6001600160a01b03821615611c4657816001600160a01b031663313ce5676040518163ffffffff1660e01b8152600401602060405180830381865afa158015611c1d573d5f803e3d5ffd5b505050506040513d601f19601f82011682018060405250810190611c419190612b42565b611c49565b60125b92915050565b5f808360ff168560ff161115611c8557611c698486612c3a565b611c7490600a612b34565b611c7e90886129c4565b9650611cb5565b8360ff168560ff161015611cb557611c9d8585612c3a565b611ca890600a612b34565b611cb290896129c4565b97505b620f4240836040015162ffffff1689611cce91906129c4565b611cd891906129db565b9150620f4240836060015162ffffff1688611cf391906129c4565b611cfd91906129db565b90505f7f00000000000000000000000000000000000000000000000000000000000000006001600160a01b031663313ce5676040518163ffffffff1660e01b8152600401602060405180830381865afa158015611d5c573d5f803e3d5ffd5b505050506040513d601f19601f82011682018060405250810190611d809190612b42565b611d8b90600a612b34565b90505f611d9882856129c4565b90505f611da589856129c4565b905080821115611dcc57611db983826129db565b9450611dc583866129c4565b9150611de5565b611dd689836129db565b9350611de289856129c4565b90505b82620f4240876080015162ffffff168d611dff91906129c4565b611e0991906129db565b611e1391906129c4565b821015611e4057620f4240866080015162ffffff168c611e3391906129c4565b611e3d91906129db565b94505b88620f42408760a0015162ffffff168c611e5a91906129c4565b611e6491906129db565b611e6e91906129c4565b811015611e9b57620f42408660a0015162ffffff168b611e8e91906129c4565b611e9891906129db565b93505b8660ff168860ff161115611ecf57611eb38789612c3a565b611ebe90600a612b34565b611ec890856129db565b9350611eff565b8660ff168860ff161015611eff57611ee78888612c3a565b611ef290600a612b34565b611efc90866129db565b94505b505050965096945050505050565b5f6207a11f19627fffff851601818315611f2757815f0391505b81620f42400190506110b8620f424086611f4191906129c4565b82810615158616908390040190565b5f67ffffffffffffffff821115611f8657604080516306dfcc6560e41b8152600481019190915260248101839052604401610e8d565b5090565b6001805473ffffffffffffffffffffffffffffffffffffffff19169055610e9f816122a2565b5f611fba826122fe565b815f600282900b8113611fcd5781611fd6565b611fd682612a21565b62ffffff8116915060011615611ffa576bfff97272373d413259a469909250612002565b600160601b92505b60028116156120215760606bfff2e50f5f656932ef12357c8402901c92505b60048116156120405760606bffe5caca7e10e4e61c3624ea8402901c92505b600881161561205f5760606bffcb9843d60f6159c9db58838402901c92505b601081161561207e5760606bff973b41fa98c081472e68968402901c92505b602081161561209d5760606bff2ea16466c96a3843ec78b38402901c92505b60408116156120bc5760606bfe5dee046a99a2a811c461f18402901c92505b60808116156120db5760606bfcbe86c7900a88aedcffc83b8402901c92505b6101008116156120fb5760606bf987a7253ac413176f2b074c8402901c92505b61020081161561211b5760606bf3392b0822b70005940c7a398402901c92505b61040081161561213b5760606be7159475a2c29b7443b29c7f8402901c92505b61080081161561215b5760606bd097f3bdfd2022b8845ad8f78402901c92505b61100081161561217b5760606ba9f746462d870fdf8a65dc1f8402901c92505b61200081161561219b5760606b70d869a156d2a1b890bb3df68402901c92505b6140008116156121bb5760606b31be135f97d08fd9812315058402901c92505b6180008116156121db5760606b09aa508b5b7a84e1c677de548402901c92505b620100008116156121fb5760606a5d6af8dedb81196699c3298402901c92505b6202000081161561221a576060692216e584f5fa1ea926048402901c92505b6204000081161561223757606067048a170391f7dc428402901c92505b5f8260020b1315612268576122658378010000000000000000000000000000000000000000000000006129db565b92505b5050919050565b5f6001600160d01b03821115611f86576040516306dfcc6560e41b815260d0600482015260248101839052604401610e8d565b5f80546001600160a01b0383811673ffffffffffffffffffffffffffffffffffffffff19831681178455604051919092169283917f8be0079c531659141344cd1fd0a4f28419497f9722a3daafe3b4186f6b6457e09190a35050565b6207ffff600282900b1380612323575061231a6207ffff612a21565b60020b8160020b125b15610e9f576040517fce8ef7fc00000000000000000000000000000000000000000000000000000000815260040160405180910390fd5b634e487b7160e01b5f52604160045260245ffd5b604051610100810167ffffffffffffffff811182821017156123925761239261235a565b60405290565b6040805190810167ffffffffffffffff811182821017156123925761239261235a565b604051601f8201601f1916810167ffffffffffffffff811182821017156123e4576123e461235a565b604052919050565b62ffffff81168114610e9f575f80fd5b8035612407816123ec565b919050565b5f8082840361012081121561241f575f80fd5b8335925061010080601f1983011215612436575f80fd5b61243e61236e565b9150602085013561244e816123ec565b825261245c604086016123fc565b602083015261246d606086016123fc565b604083015261247e608086016123fc565b606083015261248f60a086016123fc565b60808301526124a060c086016123fc565b60a08301526124b160e086016123fc565b60c08301526124c18186016123fc565b60e083015250809150509250929050565b5f602082840312156124e2575f80fd5b5035919050565b5f815180845260208085019450602084015f5b83811015612530578151805160020b885283015167ffffffffffffffff1683880152604090960195908201906001016124fc565b509495945050505050565b604081525f61254d60408301856124e9565b828103602084015261255f81856124e9565b95945050505050565b6001600160a01b0381168114610e9f575f80fd5b5f806040838503121561258d575f80fd5b823561259881612568565b9150602083013580151581146125ac575f80fd5b809150509250929050565b5f602082840312156125c7575f80fd5b81356125d281612568565b9392505050565b5f6101008201905062ffffff8084511683528060208501511660208401528060408501511660408401528060608501511660608401528060808501511660808401528060a08501511660a08401525060c083015161263e60c084018262ffffff169052565b5060e083015161265560e084018262ffffff169052565b5092915050565b5f805f806080858703121561266f575f80fd5b843561267a81612568565b966020860135965060408601359560600135945092505050565b8035600281900b8114612407575f80fd5b5f805f805f60a086880312156126b9575f80fd5b85359450602086013593506126d060408701612694565b92506126de60608701612694565b949793965091946080013592915050565b5f67ffffffffffffffff8211156127085761270861235a565b5060051b60200190565b67ffffffffffffffff81168114610e9f575f80fd5b5f82601f830112612736575f80fd5b8135602061274b612746836126ef565b6123bb565b82815260069290921b84018101918181019086841115612769575f80fd5b8286015b848110156127b65760408189031215612784575f80fd5b61278c612398565b61279582612694565b8152848201356127a481612712565b8186015283529183019160400161276d565b509695505050505050565b5f805f80608085870312156127d4575f80fd5b84356127df81612568565b935060208501359250604085013567ffffffffffffffff80821115612802575f80fd5b61280e88838901612727565b93506060870135915080821115612823575f80fd5b5061283087828801612727565b91505092959194509250565b80516001600160c01b0381168114612407575f80fd5b5f8060408385031215612863575f80fd5b61286c8361283c565b915061287a6020840161283c565b90509250929050565b5f60c08284031215612893575f80fd5b60405160c0810181811067ffffffffffffffff821117156128b6576128b661235a565b60405282516128c481612568565b815260208301516128d481612712565b602082015260408301516128e781612568565b604082015260608301516128fa816123ec565b6060820152608083015161290d81612568565b608082015260a0830151612920816123ec565b60a08201529392505050565b5f6060828403121561293c575f80fd5b6040516060810181811067ffffffffffffffff8211171561295f5761295f61235a565b80604052508091508251815260208301516020820152604083015160408201525092915050565b5f8060c08385031215612997575f80fd5b6129a1848461292c565b915061287a846060850161292c565b634e487b7160e01b5f52601160045260245ffd5b8082028115828204841417611c4957611c496129b0565b5f826129f557634e487b7160e01b5f52601260045260245ffd5b500490565b80820180821115611c4957611c496129b0565b634e487b7160e01b5f52603260045260245ffd5b5f8160020b627fffff198103612a3957612a396129b0565b5f0392915050565b81810381811115611c4957611c496129b0565b600181815b80851115612a8e57815f1904821115612a7457612a746129b0565b80851615612a8157918102915b93841c9390800290612a59565b509250929050565b5f82612aa457506001611c49565b81612ab057505f611c49565b8160018114612ac65760028114612ad057612aec565b6001915050611c49565b60ff841115612ae157612ae16129b0565b50506001821b611c49565b5060208310610133831016604e8410600b8410161715612b0f575081810a611c49565b612b198383612a54565b805f1904821115612b2c57612b2c6129b0565b029392505050565b5f6125d260ff841683612a96565b5f60208284031215612b52575f80fd5b815160ff811681146125d2575f80fd5b602080825282518282018190525f9190848201906040850190845b81811015612ba25783516001600160a01b031683529284019291840191600101612b7d565b50909695505050505050565b5f6020808385031215612bbf575f80fd5b825167ffffffffffffffff811115612bd5575f80fd5b8301601f81018513612be5575f80fd5b8051612bf3612746826126ef565b81815260059190911b82018301908381019087831115612c11575f80fd5b928401925b82841015612c2f57835182529284019290840190612c16565b979650505050505050565b60ff8281168282160390811115611c4957611c496129b056fea2646970667358221220cbf2ae57a7a603c5dad56967ece4a4a715e2f4edde8f5e157f437de4972feab464736f6c63430008190033",
  "devdoc": {
    "errors": {
      "OwnableInvalidOwner(address)": [
        {
          "details": "The owner is not a valid owner account. (eg. `address(0)`)"
        }
      ],
      "OwnableUnauthorizedAccount(address)": [
        {
          "details": "The caller account is not authorized to perform an operation."
        }
      ],
      "SafeCastOverflowedUintDowncast(uint8,uint256)": [
        {
          "details": "Value doesn't fit in an uint of `bits` size."
        }
      ]
    },
    "kind": "dev",
    "methods": {
      "acceptOwnership()": {
        "details": "The new owner accepts the ownership transfer."
      },
      "owner()": {
        "details": "Returns the address of the current owner."
      },
      "pendingOwner()": {
        "details": "Returns the address of the pending owner."
      },
      "renounceOwnership()": {
        "details": "Leaves the contract without owner. It will not be possible to call `onlyOwner` functions. Can only be called by the current owner. NOTE: Renouncing ownership will leave the contract without an owner, thereby disabling any functionality that is only available to the owner."
      },
      "transferOwnership(address)": {
        "details": "Starts the ownership transfer of the contract to a new account. Replaces the pending transfer if there is one. Can only be called by the current owner. Setting `newOwner` to the zero address is allowed; this can be used to cancel an initiated ownership transfer."
      }
    },
    "version": 1
  },
  "userdoc": {
    "kind": "user",
    "methods": {},
    "version": 1
  },
  "storageLayout": {
    "storage": [
      {
        "astId": 8,
        "contract": "src/SimpleOracleStrategy.sol:SimpleOracleStrategy",
        "label": "_owner",
        "offset": 0,
        "slot": "0",
        "type": "t_address"
      },
      {
        "astId": 156,
        "contract": "src/SimpleOracleStrategy.sol:SimpleOracleStrategy",
        "label": "_pendingOwner",
        "offset": 0,
        "slot": "1",
        "type": "t_address"
      },
      {
        "astId": 4154,
        "contract": "src/SimpleOracleStrategy.sol:SimpleOracleStrategy",
        "label": "isOperator",
        "offset": 0,
        "slot": "2",
        "type": "t_mapping(t_address,t_bool)"
      },
      {
        "astId": 4159,
        "contract": "src/SimpleOracleStrategy.sol:SimpleOracleStrategy",
        "label": "_configs",
        "offset": 0,
        "slot": "3",
        "type": "t_mapping(t_bytes32,t_struct(Config)5672_storage)"
      },
      {
        "astId": 4164,
        "contract": "src/SimpleOracleStrategy.sol:SimpleOracleStrategy",
        "label": "_prices",
        "offset": 0,
        "slot": "4",
        "type": "t_mapping(t_bytes32,t_struct(Price)5681_storage)"
      },
      {
        "astId": 4168,
        "contract": "src/SimpleOracleStrategy.sol:SimpleOracleStrategy",
        "label": "_lastRawAmountsA",
        "offset": 0,
        "slot": "5",
        "type": "t_mapping(t_bytes32,t_uint256)"
      },
      {
        "astId": 4172,
        "contract": "src/SimpleOracleStrategy.sol:SimpleOracleStrategy",
        "label": "_lastRawAmountsB",
        "offset": 0,
        "slot": "6",
        "type": "t_mapping(t_bytes32,t_uint256)"
      },
      {
        "astId": 4174,
        "contract": "src/SimpleOracleStrategy.sol:SimpleOracleStrategy",
        "label": "_alpha",
        "offset": 0,
        "slot": "7",
        "type": "t_uint256"
      }
    ],
    "types": {
      "t_address": {
        "encoding": "inplace",
        "label": "address",
        "numberOfBytes": "20"
      },
      "t_bool": {
        "encoding": "inplace",
        "label": "bool",
        "numberOfBytes": "1"
      },
      "t_bytes32": {
        "encoding": "inplace",
        "label": "bytes32",
        "numberOfBytes": "32"
      },
      "t_mapping(t_address,t_bool)": {
        "encoding": "mapping",
        "key": "t_address",
        "label": "mapping(address => bool)",
        "numberOfBytes": "32",
        "value": "t_bool"
      },
      "t_mapping(t_bytes32,t_struct(Config)5672_storage)": {
        "encoding": "mapping",
        "key": "t_bytes32",
        "label": "mapping(bytes32 => struct ISimpleOracleStrategy.Config)",
        "numberOfBytes": "32",
        "value": "t_struct(Config)5672_storage"
      },
      "t_mapping(t_bytes32,t_struct(Price)5681_storage)": {
        "encoding": "mapping",
        "key": "t_bytes32",
        "label": "mapping(bytes32 => struct ISimpleOracleStrategy.Price)",
        "numberOfBytes": "32",
        "value": "t_struct(Price)5681_storage"
      },
      "t_mapping(t_bytes32,t_uint256)": {
        "encoding": "mapping",
        "key": "t_bytes32",
        "label": "mapping(bytes32 => uint256)",
        "numberOfBytes": "32",
        "value": "t_uint256"
      },
      "t_struct(Config)5672_storage": {
        "encoding": "inplace",
        "label": "struct ISimpleOracleStrategy.Config",
        "members": [
          {
            "astId": 5657,
            "contract": "src/SimpleOracleStrategy.sol:SimpleOracleStrategy",
            "label": "referenceThreshold",
            "offset": 0,
            "slot": "0",
            "type": "t_uint24"
          },
          {
            "astId": 5659,
            "contract": "src/SimpleOracleStrategy.sol:SimpleOracleStrategy",
            "label": "rebalanceThreshold",
            "offset": 3,
            "slot": "0",
            "type": "t_uint24"
          },
          {
            "astId": 5661,
            "contract": "src/SimpleOracleStrategy.sol:SimpleOracleStrategy",
            "label": "rateA",
            "offset": 6,
            "slot": "0",
            "type": "t_uint24"
          },
          {
            "astId": 5663,
            "contract": "src/SimpleOracleStrategy.sol:SimpleOracleStrategy",
            "label": "rateB",
            "offset": 9,
            "slot": "0",
            "type": "t_uint24"
          },
          {
            "astId": 5665,
            "contract": "src/SimpleOracleStrategy.sol:SimpleOracleStrategy",
            "label": "minRateA",
            "offset": 12,
            "slot": "0",
            "type": "t_uint24"
          },
          {
            "astId": 5667,
            "contract": "src/SimpleOracleStrategy.sol:SimpleOracleStrategy",
            "label": "minRateB",
            "offset": 15,
            "slot": "0",
            "type": "t_uint24"
          },
          {
            "astId": 5669,
            "contract": "src/SimpleOracleStrategy.sol:SimpleOracleStrategy",
            "label": "priceThresholdA",
            "offset": 18,
            "slot": "0",
            "type": "t_uint24"
          },
          {
            "astId": 5671,
            "contract": "src/SimpleOracleStrategy.sol:SimpleOracleStrategy",
            "label": "priceThresholdB",
            "offset": 21,
            "slot": "0",
            "type": "t_uint24"
          }
        ],
        "numberOfBytes": "32"
      },
      "t_struct(Price)5681_storage": {
        "encoding": "inplace",
        "label": "struct ISimpleOracleStrategy.Price",
        "members": [
          {
            "astId": 5674,
            "contract": "src/SimpleOracleStrategy.sol:SimpleOracleStrategy",
            "label": "oraclePrice",
            "offset": 0,
            "slot": "0",
            "type": "t_uint208"
          },
          {
            "astId": 5677,
            "contract": "src/SimpleOracleStrategy.sol:SimpleOracleStrategy",
            "label": "tickA",
            "offset": 26,
            "slot": "0",
            "type": "t_userDefinedValueType(Tick)3505"
          },
          {
            "astId": 5680,
            "contract": "src/SimpleOracleStrategy.sol:SimpleOracleStrategy",
            "label": "tickB",
            "offset": 29,
            "slot": "0",
            "type": "t_userDefinedValueType(Tick)3505"
          }
        ],
        "numberOfBytes": "32"
      },
      "t_uint208": {
        "encoding": "inplace",
        "label": "uint208",
        "numberOfBytes": "26"
      },
      "t_uint24": {
        "encoding": "inplace",
        "label": "uint24",
        "numberOfBytes": "3"
      },
      "t_uint256": {
        "encoding": "inplace",
        "label": "uint256",
        "numberOfBytes": "32"
      },
      "t_userDefinedValueType(Tick)3505": {
        "encoding": "inplace",
        "label": "Tick",
        "numberOfBytes": "3"
      }
    }
  }
}