{
  "address": "0x63e7566e0d2cABe72EfA78EBa07f995361f7Dd70",
  "abi": [
    {
      "inputs": [
        {
          "internalType": "contract IOracle",
          "name": "referenceOracle_",
          "type": "address"
        },
        {
          "internalType": "contract IRebalancer",
          "name": "rebalancer_",
          "type": "address"
        },
        {
          "internalType": "contract IBookManager",
          "name": "bookManager_",
          "type": "address"
        },
        {
          "internalType": "address",
          "name": "initialOwner",
          "type": "address"
        }
      ],
      "stateMutability": "nonpayable",
      "type": "constructor"
    },
    {
      "inputs": [],
      "name": "ExceedsThreshold",
      "type": "error"
    },
    {
      "inputs": [],
      "name": "InvalidConfig",
      "type": "error"
    },
    {
      "inputs": [],
      "name": "InvalidPrice",
      "type": "error"
    },
    {
      "inputs": [],
      "name": "InvalidTick",
      "type": "error"
    },
    {
      "inputs": [],
      "name": "NotOperator",
      "type": "error"
    },
    {
      "inputs": [
        {
          "internalType": "address",
          "name": "owner",
          "type": "address"
        }
      ],
      "name": "OwnableInvalidOwner",
      "type": "error"
    },
    {
      "inputs": [
        {
          "internalType": "address",
          "name": "account",
          "type": "address"
        }
      ],
      "name": "OwnableUnauthorizedAccount",
      "type": "error"
    },
    {
      "inputs": [
        {
          "internalType": "uint8",
          "name": "bits",
          "type": "uint8"
        },
        {
          "internalType": "uint256",
          "name": "value",
          "type": "uint256"
        }
      ],
      "name": "SafeCastOverflowedUintDowncast",
      "type": "error"
    },
    {
      "anonymous": false,
      "inputs": [
        {
          "indexed": true,
          "internalType": "address",
          "name": "previousOwner",
          "type": "address"
        },
        {
          "indexed": true,
          "internalType": "address",
          "name": "newOwner",
          "type": "address"
        }
      ],
      "name": "OwnershipTransferStarted",
      "type": "event"
    },
    {
      "anonymous": false,
      "inputs": [
        {
          "indexed": true,
          "internalType": "address",
          "name": "previousOwner",
          "type": "address"
        },
        {
          "indexed": true,
          "internalType": "address",
          "name": "newOwner",
          "type": "address"
        }
      ],
      "name": "OwnershipTransferred",
      "type": "event"
    },
    {
      "anonymous": false,
      "inputs": [
        {
          "indexed": true,
          "internalType": "address",
          "name": "operator",
          "type": "address"
        },
        {
          "indexed": false,
          "internalType": "bool",
          "name": "status",
          "type": "bool"
        }
      ],
      "name": "SetOperator",
      "type": "event"
    },
    {
      "anonymous": false,
      "inputs": [
        {
          "indexed": true,
          "internalType": "bytes32",
          "name": "key",
          "type": "bytes32"
        },
        {
          "components": [
            {
              "internalType": "uint24",
              "name": "referenceThreshold",
              "type": "uint24"
            },
            {
              "internalType": "uint24",
              "name": "rateA",
              "type": "uint24"
            },
            {
              "internalType": "uint24",
              "name": "rateB",
              "type": "uint24"
            },
            {
              "internalType": "uint24",
              "name": "minRateA",
              "type": "uint24"
            },
            {
              "internalType": "uint24",
              "name": "minRateB",
              "type": "uint24"
            },
            {
              "internalType": "uint24",
              "name": "priceThresholdA",
              "type": "uint24"
            },
            {
              "internalType": "uint24",
              "name": "priceThresholdB",
              "type": "uint24"
            }
          ],
          "indexed": false,
          "internalType": "struct ISimpleOracleStrategy.Config",
          "name": "config",
          "type": "tuple"
        }
      ],
      "name": "UpdateConfig",
      "type": "event"
    },
    {
      "anonymous": false,
      "inputs": [
        {
          "indexed": true,
          "internalType": "bytes32",
          "name": "key",
          "type": "bytes32"
        },
        {
          "indexed": false,
          "internalType": "uint256",
          "name": "oraclePrice",
          "type": "uint256"
        },
        {
          "indexed": false,
          "internalType": "Tick",
          "name": "tickA",
          "type": "int24"
        },
        {
          "indexed": false,
          "internalType": "Tick",
          "name": "tickB",
          "type": "int24"
        }
      ],
      "name": "UpdatePrice",
      "type": "event"
    },
    {
      "inputs": [],
      "name": "RATE_PRECISION",
      "outputs": [
        {
          "internalType": "uint256",
          "name": "",
          "type": "uint256"
        }
      ],
      "stateMutability": "view",
      "type": "function"
    },
    {
      "inputs": [],
      "name": "acceptOwnership",
      "outputs": [],
      "stateMutability": "nonpayable",
      "type": "function"
    },
    {
      "inputs": [],
      "name": "bookManager",
      "outputs": [
        {
          "internalType": "contract IBookManager",
          "name": "",
          "type": "address"
        }
      ],
      "stateMutability": "view",
      "type": "function"
    },
    {
      "inputs": [
        {
          "internalType": "bytes32",
          "name": "key",
          "type": "bytes32"
        },
        {
          "internalType": "uint256",
          "name": "amountA",
          "type": "uint256"
        },
        {
          "internalType": "uint256",
          "name": "amountB",
          "type": "uint256"
        }
      ],
      "name": "computeOrders",
      "outputs": [
        {
          "components": [
            {
              "internalType": "Tick",
              "name": "tick",
              "type": "int24"
            },
            {
              "internalType": "uint64",
              "name": "rawAmount",
              "type": "uint64"
            }
          ],
          "internalType": "struct IStrategy.Order[]",
          "name": "ordersA",
          "type": "tuple[]"
        },
        {
          "components": [
            {
              "internalType": "Tick",
              "name": "tick",
              "type": "int24"
            },
            {
              "internalType": "uint64",
              "name": "rawAmount",
              "type": "uint64"
            }
          ],
          "internalType": "struct IStrategy.Order[]",
          "name": "ordersB",
          "type": "tuple[]"
        }
      ],
      "stateMutability": "view",
      "type": "function"
    },
    {
      "inputs": [
        {
          "internalType": "bytes32",
          "name": "key",
          "type": "bytes32"
        }
      ],
      "name": "getConfig",
      "outputs": [
        {
          "components": [
            {
              "internalType": "uint24",
              "name": "referenceThreshold",
              "type": "uint24"
            },
            {
              "internalType": "uint24",
              "name": "rateA",
              "type": "uint24"
            },
            {
              "internalType": "uint24",
              "name": "rateB",
              "type": "uint24"
            },
            {
              "internalType": "uint24",
              "name": "minRateA",
              "type": "uint24"
            },
            {
              "internalType": "uint24",
              "name": "minRateB",
              "type": "uint24"
            },
            {
              "internalType": "uint24",
              "name": "priceThresholdA",
              "type": "uint24"
            },
            {
              "internalType": "uint24",
              "name": "priceThresholdB",
              "type": "uint24"
            }
          ],
          "internalType": "struct ISimpleOracleStrategy.Config",
          "name": "",
          "type": "tuple"
        }
      ],
      "stateMutability": "view",
      "type": "function"
    },
    {
      "inputs": [
        {
          "internalType": "bytes32",
          "name": "key",
          "type": "bytes32"
        }
      ],
      "name": "getPrice",
      "outputs": [
        {
          "components": [
            {
              "internalType": "uint208",
              "name": "oraclePrice",
              "type": "uint208"
            },
            {
              "internalType": "Tick",
              "name": "tickA",
              "type": "int24"
            },
            {
              "internalType": "Tick",
              "name": "tickB",
              "type": "int24"
            }
          ],
          "internalType": "struct ISimpleOracleStrategy.Price",
          "name": "",
          "type": "tuple"
        }
      ],
      "stateMutability": "view",
      "type": "function"
    },
    {
      "inputs": [
        {
          "internalType": "address",
          "name": "",
          "type": "address"
        }
      ],
      "name": "isOperator",
      "outputs": [
        {
          "internalType": "bool",
          "name": "",
          "type": "bool"
        }
      ],
      "stateMutability": "view",
      "type": "function"
    },
    {
      "inputs": [
        {
          "internalType": "bytes32",
          "name": "key",
          "type": "bytes32"
        }
      ],
      "name": "isOraclePriceValid",
      "outputs": [
        {
          "internalType": "bool",
          "name": "",
          "type": "bool"
        }
      ],
      "stateMutability": "view",
      "type": "function"
    },
    {
      "inputs": [],
      "name": "owner",
      "outputs": [
        {
          "internalType": "address",
          "name": "",
          "type": "address"
        }
      ],
      "stateMutability": "view",
      "type": "function"
    },
    {
      "inputs": [],
      "name": "pendingOwner",
      "outputs": [
        {
          "internalType": "address",
          "name": "",
          "type": "address"
        }
      ],
      "stateMutability": "view",
      "type": "function"
    },
    {
      "inputs": [],
      "name": "rebalancer",
      "outputs": [
        {
          "internalType": "contract IRebalancer",
          "name": "",
          "type": "address"
        }
      ],
      "stateMutability": "view",
      "type": "function"
    },
    {
      "inputs": [],
      "name": "referenceOracle",
      "outputs": [
        {
          "internalType": "contract IOracle",
          "name": "",
          "type": "address"
        }
      ],
      "stateMutability": "view",
      "type": "function"
    },
    {
      "inputs": [],
      "name": "renounceOwnership",
      "outputs": [],
      "stateMutability": "nonpayable",
      "type": "function"
    },
    {
      "inputs": [
        {
          "internalType": "bytes32",
          "name": "key",
          "type": "bytes32"
        },
        {
          "components": [
            {
              "internalType": "uint24",
              "name": "referenceThreshold",
              "type": "uint24"
            },
            {
              "internalType": "uint24",
              "name": "rateA",
              "type": "uint24"
            },
            {
              "internalType": "uint24",
              "name": "rateB",
              "type": "uint24"
            },
            {
              "internalType": "uint24",
              "name": "minRateA",
              "type": "uint24"
            },
            {
              "internalType": "uint24",
              "name": "minRateB",
              "type": "uint24"
            },
            {
              "internalType": "uint24",
              "name": "priceThresholdA",
              "type": "uint24"
            },
            {
              "internalType": "uint24",
              "name": "priceThresholdB",
              "type": "uint24"
            }
          ],
          "internalType": "struct ISimpleOracleStrategy.Config",
          "name": "config",
          "type": "tuple"
        }
      ],
      "name": "setConfig",
      "outputs": [],
      "stateMutability": "nonpayable",
      "type": "function"
    },
    {
      "inputs": [
        {
          "internalType": "address",
          "name": "operator",
          "type": "address"
        },
        {
          "internalType": "bool",
          "name": "status",
          "type": "bool"
        }
      ],
      "name": "setOperator",
      "outputs": [],
      "stateMutability": "nonpayable",
      "type": "function"
    },
    {
      "inputs": [
        {
          "internalType": "address",
          "name": "newOwner",
          "type": "address"
        }
      ],
      "name": "transferOwnership",
      "outputs": [],
      "stateMutability": "nonpayable",
      "type": "function"
    },
    {
      "inputs": [
        {
          "internalType": "bytes32",
          "name": "key",
          "type": "bytes32"
        },
        {
          "internalType": "uint256",
          "name": "oraclePrice",
          "type": "uint256"
        },
        {
          "internalType": "Tick",
          "name": "tickA",
          "type": "int24"
        },
        {
          "internalType": "Tick",
          "name": "tickB",
          "type": "int24"
        }
      ],
      "name": "updatePrice",
      "outputs": [],
      "stateMutability": "nonpayable",
      "type": "function"
    }
  ],
  "transactionHash": "0xedd994e68e8e442952a99d1825ce1fe3e92526393ee6518ae30e1066dc36d6aa",
  "args": [
    "0x1D48E06d9ed284285da43fAB84190368F85238Ec",
    "0x2ff23716b1CB9D414EFeFBDB4f4c711345035B6E",
    "0xC528b9ED5d56d1D0d3C18A2342954CE1069138a4",
    "0x5F79EE8f8fA862E98201120d83c4eC39D9468D49"
  ],
  "numDeployments": 1,
  "solcInputHash": "5ddc16c2f322caa059d8d7c4ac5e63ce",
  "bytecode": "0x60e060405234801561000f575f80fd5b506040516127a13803806127a183398101604081905261002e91610103565b806001600160a01b03811661005c57604051631e4fbdf760e01b81525f600482015260240160405180910390fd5b61006581610084565b50506001600160a01b0392831660805290821660a0521660c05261015f565b600180546001600160a01b031916905561009d816100a0565b50565b5f80546001600160a01b038381166001600160a01b0319831681178455604051919092169283917f8be0079c531659141344cd1fd0a4f28419497f9722a3daafe3b4186f6b6457e09190a35050565b6001600160a01b038116811461009d575f80fd5b5f805f8060808587031215610116575f80fd5b8451610121816100ef565b6020860151909450610132816100ef565b6040860151909350610143816100ef565b6060860151909250610154816100ef565b939692955090935050565b60805160a05160c0516125cb6101d65f395f818161027a0152818161076e01528181610ba901528181610c3b01526110fb01525f818161011e015281816106d201528181610b16015261105f01525f818161025301528181610828015281816118f00152818161198d0152611b6801526125cb5ff3fe608060405234801561000f575f80fd5b5060043610610115575f3560e01c80636d70f7ae116100ad5780638da5cb5b1161007d578063e30c397811610063578063e30c39781461044b578063f27a0e8a1461045c578063f2fde38b1461046f575f80fd5b80638da5cb5b14610428578063a30416d314610438575f80fd5b80636d70f7ae146102af5780636dd5b69d146102e1578063715018a61461041857806379ba509714610420575f80fd5b806331d98b3f116100e857806331d98b3f146101ab578063337cceb91461024e5780633f322bc914610275578063558a72971461029c575f80fd5b806301d22ccd146101195780631c667d811461015d5780631dc90f6d146101725780632b3ba68114610193575b5f80fd5b6101407f000000000000000000000000000000000000000000000000000000000000000081565b6040516001600160a01b0390911681526020015b60405180910390f35b61017061016b366004611f1e565b610482565b005b610185610180366004611f61565b6109da565b604051610154929190611fdc565b61019d620f424081565b604051908152602001610154565b6102186101b9366004612009565b60408051606080820183525f8083526020808401829052928401819052938452600482529282902082519384018352546001600160d01b0381168452600160d01b8104600290810b92850192909252600160e81b9004900b9082015290565b6040805182516001600160d01b03168152602080840151600290810b918301919091529282015190920b90820152606001610154565b6101407f000000000000000000000000000000000000000000000000000000000000000081565b6101407f000000000000000000000000000000000000000000000000000000000000000081565b6101706102aa366004612034565b610ec3565b6102d16102bd36600461206f565b60026020525f908152604090205460ff1681565b6040519015158152602001610154565b6103b06102ef366004612009565b6040805160e0810182525f80825260208201819052918101829052606081018290526080810182905260a0810182905260c0810191909152505f90815260036020908152604091829020825160e081018452905462ffffff808216835263010000008204811693830193909352660100000000000081048316938201939093526901000000000000000000830482166060820152600160601b830482166080820152600160781b8304821660a0820152600160901b9092041660c082015290565b60405161015491905f60e08201905062ffffff8084511683528060208501511660208401528060408501511660408401528060608501511660608401528060808501511660808401528060a08501511660a08401528060c08501511660c08401525092915050565b610170610f2a565b610170610f3d565b5f546001600160a01b0316610140565b6102d1610446366004612009565b610f86565b6001546001600160a01b0316610140565b61017061046a36600461211a565b611197565b61017061047d36600461206f565b611454565b335f9081526002602052604090205460ff166104ca576040517f7c214f0400000000000000000000000000000000000000000000000000000000815260040160405180910390fd5b5f6104d78360020b6114d1565b90505f6104ee6104e6846121e6565b60020b6114d1565b9050808210610528576040517ebfc92100000000000000000000000000000000000000000000000000000000815260040160405180910390fd5b5f86815260036020908152604091829020825160e081018452905462ffffff808216835263010000008204811693830193909352660100000000000081048316938201939093526901000000000000000000830482166060820152600160601b830482166080820152600160781b8304821660a08201819052600160901b90930490911660c0820152908390620f4240906105c39082612206565b6105cd9089612219565b6105d79190612230565b1080610611575082620f42408260a0015162ffffff16620f42406105fb919061224f565b6106059089612219565b61060f9190612230565b115b8061064a575081620f42408260c0015162ffffff16620f42406106349190612206565b61063e9089612219565b6106489190612230565b105b80610683575081620f42408260c0015162ffffff16620f424061066d919061224f565b6106779089612219565b6106819190612230565b115b156106ba576040517f107826c200000000000000000000000000000000000000000000000000000000815260040160405180910390fd5b60405163c630ed7d60e01b8152600481018890525f907f00000000000000000000000000000000000000000000000000000000000000006001600160a01b03169063c630ed7d906024016040805180830381865afa15801561071e573d5f803e3d5ffd5b505050506040513d601f19601f820116820180604052508101906107429190612278565b50604051639b22917d60e01b81526001600160c01b03821660048201529091505f906001600160a01b037f00000000000000000000000000000000000000000000000000000000000000001690639b22917d9060240160c060405180830381865afa1580156107b3573d5f803e3d5ffd5b505050506040513d601f19601f820116820180604052508101906107d791906122bf565b90505f6107e78260400151611790565b90505f6107f6835f0151611790565b905061080382600a61244d565b61080e82600a61244d565b610818908c612219565b6108229190612230565b995060607f00000000000000000000000000000000000000000000000000000000000000006001600160a01b031663313ce5676040518163ffffffff1660e01b8152600401602060405180830381865afa158015610882573d5f803e3d5ffd5b505050506040513d601f19601f820116820180604052508101906108a6919061245b565b6108b190600a61244d565b6108bb908c612219565b901c995060405180606001604052806108d38c61180e565b6001600160d01b03908116825260028c810b602080850191909152908c900b6040938401525f8f81526004825283902084518154928601519585015162ffffff908116600160e81b027cffffffffffffffffffffffffffffffffffffffffffffffffffffffffff91909716600160d01b027fffffff00000000000000000000000000000000000000000000000000000000009094169190941617919091179190911692909217909155518b907fe448d9e40a2b1c46bdff160055298a20c084ad56c6030de3c487892b8315459d906109c5908d908d908d90928352600291820b6020840152900b604082015260600190565b60405180910390a25050505050505050505050565b5f838152600360209081526040808320815160e081018352905462ffffff80821683526301000000820481168386015266010000000000008204811683850152690100000000000000000082048116606080850191909152600160601b83048216608080860191909152600160781b8404831660a080870191909152600160901b90940490921660c0808601919091528a885260048088528689208751808501895290546001600160d01b0381168252600160d01b8104600290810b838c0152600160e81b909104900b81890152875180840189528a8152808a018b90528089018b90528085018b90528086018b90528087018b9052885193840189528a84529883018a90528288018a90528284018a9052938201899052938101889052945163c630ed7d60e01b81529283018a9052958695939491939281907f00000000000000000000000000000000000000000000000000000000000000006001600160a01b03169063c630ed7d906024016040805180830381865afa158015610b62573d5f803e3d5ffd5b505050506040513d601f19601f82011682018060405250810190610b869190612278565b604051639b22917d60e01b81526001600160c01b038316600482015291935091507f00000000000000000000000000000000000000000000000000000000000000006001600160a01b031690639b22917d9060240160c060405180830381865afa158015610bf6573d5f803e3d5ffd5b505050506040513d601f19601f82011682018060405250810190610c1a91906122bf565b604051639b22917d60e01b81526001600160c01b03831660048201529094507f00000000000000000000000000000000000000000000000000000000000000006001600160a01b031690639b22917d9060240160c060405180830381865afa158015610c88573d5f803e3d5ffd5b505050506040513d601f19601f82011682018060405250810190610cac91906122bf565b92505050610cd7835f01516001600160d01b0316855f015162ffffff168460400151855f0151611845565b610ce45750505050610ebb565b60408051600180825281830190925290816020015b604080518082019091525f8082526020820152815260200190600190039081610cf9575050604080516001808252818301909252919750602082015b604080518082019091525f8082526020820152815260200190600190039081610d35579050509450610d8d8888855f01516001600160d01b0316610d7c8660400151611790565b8651610d8790611790565b89611ab5565b60608401519199509750610da69062ffffff1660171c90565b15610dc3576060820151610dc09062ffffff16895f611d73565b97505b610dd6816060015162ffffff1660171c90565b15610df3576060810151610df09062ffffff16885f611d73565b96505b6040518060400160405280846020015160020b8152602001610e2d846020015167ffffffffffffffff168b610e289190612230565b611dc8565b67ffffffffffffffff16815250865f81518110610e4c57610e4c61247b565b60200260200101819052506040518060400160405280846040015160020b8152602001610e8c836020015167ffffffffffffffff168a610e289190612230565b67ffffffffffffffff16815250855f81518110610eab57610eab61247b565b6020026020010181905250505050505b935093915050565b610ecb611dfe565b6001600160a01b0382165f81815260026020908152604091829020805460ff191685151590811790915591519182527f1618a22a3b00b9ac70fd5a82f1f5cdd8cb272bd0f1b740ddf7c26ab05881dd5b91015b60405180910390a25050565b610f32611dfe565b610f3b5f611e2a565b565b60015433906001600160a01b03168114610f7a5760405163118cdaa760e01b81526001600160a01b03821660048201526024015b60405180910390fd5b610f8381611e2a565b50565b5f818152600360209081526040808320815160e081018352905462ffffff80821683526301000000820481168386015266010000000000008204811683850152690100000000000000000082048116606080850191909152600160601b830482166080850152600160781b8304821660a0850152600160901b9092041660c0830152858552600480855283862084519283018552546001600160d01b0381168352600160d01b8104600290810b96840196909652600160e81b900490940b81840152915163c630ed7d60e01b81529283018590529183907f00000000000000000000000000000000000000000000000000000000000000006001600160a01b03169063c630ed7d906024016040805180830381865afa1580156110ab573d5f803e3d5ffd5b505050506040513d601f19601f820116820180604052508101906110cf9190612278565b50604051639b22917d60e01b81526001600160c01b03821660048201529091505f906001600160a01b037f00000000000000000000000000000000000000000000000000000000000000001690639b22917d9060240160c060405180830381865afa158015611140573d5f803e3d5ffd5b505050506040513d601f19601f8201168201806040525081019061116491906122bf565b905061118d835f01516001600160d01b0316855f015162ffffff168360400151845f0151611845565b9695505050505050565b61119f611dfe565b620f4240815f015162ffffff1611806111c35750620f4240816020015162ffffff16115b806111d95750620f4240816040015162ffffff16115b806111ef5750620f4240816060015162ffffff16115b806112055750620f4240816080015162ffffff16115b8061121b5750620f42408160a0015162ffffff16115b806112315750620f42408160c0015162ffffff16115b1561124f576040516306b7c75960e31b815260040160405180910390fd5b806060015162ffffff16816020015162ffffff1610806112805750806080015162ffffff16816040015162ffffff16105b1561129e576040516306b7c75960e31b815260040160405180910390fd5b5f828152600360209081526040918290208351815492850151848601516060870151608088015160a089015160c08a015162ffffff908116600160901b027fffffffffffffffffffffff000000ffffffffffffffffffffffffffffffffffff928216600160781b027fffffffffffffffffffffffffffff000000ffffffffffffffffffffffffffffff948316600160601b02949094167fffffffffffffffffffffffffffff000000000000ffffffffffffffffffffffff9583166901000000000000000000026bffffff00000000000000000019978416660100000000000002979097166bffffffffffff0000000000001998841663010000000265ffffffffffff19909c16939099169290921799909917959095169590951792909217169190911717169190911790555182907f9fb40f2c657ba02a2d8419d8962d85ff670afe7942128c803c133283ae93342490610f1e9084905f60e08201905062ffffff8084511683528060208501511660208401528060408501511660408401528060608501511660608401528060808501511660808401528060a08501511660a08401528060c08501511660c08401525092915050565b61145c611dfe565b600180546001600160a01b03831673ffffffffffffffffffffffffffffffffffffffff1990911681179091556114995f546001600160a01b031690565b6001600160a01b03167f38d16b8cac22d99fc7c124b9cd0de2d3fa1faef420bfe791d8c362d765e2270060405160405180910390a350565b5f6114db82611e50565b815f600282900b81136114ee57816114f7565b6114f7826121e6565b62ffffff811691506001161561151b576bfff97272373d413259a469909250611523565b600160601b92505b60028116156115425760606bfff2e50f5f656932ef12357c8402901c92505b60048116156115615760606bffe5caca7e10e4e61c3624ea8402901c92505b60088116156115805760606bffcb9843d60f6159c9db58838402901c92505b601081161561159f5760606bff973b41fa98c081472e68968402901c92505b60208116156115be5760606bff2ea16466c96a3843ec78b38402901c92505b60408116156115dd5760606bfe5dee046a99a2a811c461f18402901c92505b60808116156115fc5760606bfcbe86c7900a88aedcffc83b8402901c92505b61010081161561161c5760606bf987a7253ac413176f2b074c8402901c92505b61020081161561163c5760606bf3392b0822b70005940c7a398402901c92505b61040081161561165c5760606be7159475a2c29b7443b29c7f8402901c92505b61080081161561167c5760606bd097f3bdfd2022b8845ad8f78402901c92505b61100081161561169c5760606ba9f746462d870fdf8a65dc1f8402901c92505b6120008116156116bc5760606b70d869a156d2a1b890bb3df68402901c92505b6140008116156116dc5760606b31be135f97d08fd9812315058402901c92505b6180008116156116fc5760606b09aa508b5b7a84e1c677de548402901c92505b6201000081161561171c5760606a5d6af8dedb81196699c3298402901c92505b6202000081161561173b576060692216e584f5fa1ea926048402901c92505b6204000081161561175857606067048a170391f7dc428402901c92505b5f8260020b131561178957611786837801000000000000000000000000000000000000000000000000612230565b92505b5050919050565b5f6001600160a01b0382161561180557816001600160a01b031663313ce5676040518163ffffffff1660e01b8152600401602060405180830381865afa1580156117dc573d5f803e3d5ffd5b505050506040513d601f19601f82011682018060405250810190611800919061245b565b611808565b60125b92915050565b5f6001600160d01b03821115611841576040516306dfcc6560e41b815260d0600482015260248101839052604401610f71565b5090565b6040805160028082526060820183525f9283928392909160208301908036833701905050905084815f8151811061187e5761187e61247b565b60200260200101906001600160a01b031690816001600160a01b03168152505083816001815181106118b2576118b261247b565b6001600160a01b0392831660209182029290920101526040517f9d23d9f20000000000000000000000000000000000000000000000000000000081527f000000000000000000000000000000000000000000000000000000000000000090911690639d23d9f29061192790849060040161248f565b5f60405180830381865afa92505050801561196357506040513d5f823e601f3d908101601f1916820160405261196091908101906124db565b60015b611971575f92505050611aad565b805f815181106119835761198361247b565b60200260200101517f00000000000000000000000000000000000000000000000000000000000000006001600160a01b031663313ce5676040518163ffffffff1660e01b8152600401602060405180830381865afa1580156119e7573d5f803e3d5ffd5b505050506040513d601f19601f82011682018060405250810190611a0b919061245b565b611a1690600a61244d565b82600181518110611a2957611a2961247b565b6020026020010151611a3b9190612219565b611a459190612230565b92505086620f4240611a578882612206565b611a619085612219565b611a6b9190612230565b1080611a97575086620f4240611a81888261224f565b611a8b9085612219565b611a959190612230565b115b15611aa6575f92505050611aad565b6001925050505b949350505050565b5f808360ff168560ff161115611aeb57611acf848661257c565b611ada90600a61244d565b611ae49088612219565b9650611b1b565b8360ff168560ff161015611b1b57611b03858561257c565b611b0e90600a61244d565b611b189089612219565b97505b620f4240836020015162ffffff1689611b349190612219565b611b3e9190612230565b9150620f4240836040015162ffffff1688611b599190612219565b611b639190612230565b90505f7f00000000000000000000000000000000000000000000000000000000000000006001600160a01b031663313ce5676040518163ffffffff1660e01b8152600401602060405180830381865afa158015611bc2573d5f803e3d5ffd5b505050506040513d601f19601f82011682018060405250810190611be6919061245b565b611bf190600a61244d565b90505f611bfe8285612219565b90505f611c0b8985612219565b905080821115611c3257611c1f8382612230565b9450611c2b8386612219565b9150611c4b565b611c3c8983612230565b9350611c488985612219565b90505b82620f4240876060015162ffffff168d611c659190612219565b611c6f9190612230565b611c799190612219565b821015611ca657620f4240866060015162ffffff168c611c999190612219565b611ca39190612230565b94505b88620f4240876080015162ffffff168c611cc09190612219565b611cca9190612230565b611cd49190612219565b811015611d0157620f4240866080015162ffffff168b611cf49190612219565b611cfe9190612230565b93505b8660ff168860ff161115611d3557611d19878961257c565b611d2490600a61244d565b611d2e9085612230565b9350611d65565b8660ff168860ff161015611d6557611d4d888861257c565b611d5890600a61244d565b611d629086612230565b94505b505050965096945050505050565b5f6207a11f19627fffff851601600281900b8212828415611d9457825f0392505b82620f4240019050611dbd620f424087611dae9190612219565b82810615158416908390040190565b979650505050505050565b5f67ffffffffffffffff82111561184157604080516306dfcc6560e41b8152600481019190915260248101839052604401610f71565b5f546001600160a01b03163314610f3b5760405163118cdaa760e01b8152336004820152602401610f71565b6001805473ffffffffffffffffffffffffffffffffffffffff19169055610f8381611eac565b6207ffff600282900b1380611e755750611e6c6207ffff6121e6565b60020b8160020b125b15610f83576040517fce8ef7fc00000000000000000000000000000000000000000000000000000000815260040160405180910390fd5b5f80546001600160a01b0383811673ffffffffffffffffffffffffffffffffffffffff19831681178455604051919092169283917f8be0079c531659141344cd1fd0a4f28419497f9722a3daafe3b4186f6b6457e09190a35050565b8035600281900b8114611f19575f80fd5b919050565b5f805f8060808587031215611f31575f80fd5b8435935060208501359250611f4860408601611f08565b9150611f5660608601611f08565b905092959194509250565b5f805f60608486031215611f73575f80fd5b505081359360208301359350604090920135919050565b5f815180845260208085019450602084015f5b83811015611fd1578151805160020b885283015167ffffffffffffffff168388015260409096019590820190600101611f9d565b509495945050505050565b604081525f611fee6040830185611f8a565b82810360208401526120008185611f8a565b95945050505050565b5f60208284031215612019575f80fd5b5035919050565b6001600160a01b0381168114610f83575f80fd5b5f8060408385031215612045575f80fd5b823561205081612020565b915060208301358015158114612064575f80fd5b809150509250929050565b5f6020828403121561207f575f80fd5b813561208a81612020565b9392505050565b634e487b7160e01b5f52604160045260245ffd5b60405160e0810167ffffffffffffffff811182821017156120c8576120c8612091565b60405290565b604051601f8201601f1916810167ffffffffffffffff811182821017156120f7576120f7612091565b604052919050565b62ffffff81168114610f83575f80fd5b8035611f19816120ff565b5f8082840361010081121561212d575f80fd5b8335925060e0601f1982011215612142575f80fd5b5061214b6120a5565b6020840135612159816120ff565b81526040840135612169816120ff565b6020820152606084013561217c816120ff565b6040820152608084013561218f816120ff565b60608201526121a060a0850161210f565b60808201526121b160c0850161210f565b60a08201526121c260e0850161210f565b60c0820152809150509250929050565b634e487b7160e01b5f52601160045260245ffd5b5f8160020b627fffff1981036121fe576121fe6121d2565b5f0392915050565b80820180821115611808576118086121d2565b8082028115828204841417611808576118086121d2565b5f8261224a57634e487b7160e01b5f52601260045260245ffd5b500490565b81810381811115611808576118086121d2565b80516001600160c01b0381168114611f19575f80fd5b5f8060408385031215612289575f80fd5b61229283612262565b91506122a060208401612262565b90509250929050565b8051611f19816120ff565b8051611f1981612020565b5f60c082840312156122cf575f80fd5b60405160c0810167ffffffffffffffff82821081831117156122f3576122f3612091565b816040528451915061230482612020565b908252602084015190808216821461231a575f80fd5b506020820152604083015161232e81612020565b604082015261233f606084016122a9565b6060820152612350608084016122b4565b608082015261236160a084016122a9565b60a08201529392505050565b600181815b808511156123a757815f190482111561238d5761238d6121d2565b8085161561239a57918102915b93841c9390800290612372565b509250929050565b5f826123bd57506001611808565b816123c957505f611808565b81600181146123df57600281146123e957612405565b6001915050611808565b60ff8411156123fa576123fa6121d2565b50506001821b611808565b5060208310610133831016604e8410600b8410161715612428575081810a611808565b612432838361236d565b805f1904821115612445576124456121d2565b029392505050565b5f61208a60ff8416836123af565b5f6020828403121561246b575f80fd5b815160ff8116811461208a575f80fd5b634e487b7160e01b5f52603260045260245ffd5b602080825282518282018190525f9190848201906040850190845b818110156124cf5783516001600160a01b0316835292840192918401916001016124aa565b50909695505050505050565b5f60208083850312156124ec575f80fd5b825167ffffffffffffffff80821115612503575f80fd5b818501915085601f830112612516575f80fd5b81518181111561252857612528612091565b8060051b91506125398483016120ce565b8181529183018401918481019088841115612552575f80fd5b938501935b8385101561257057845182529385019390850190612557565b98975050505050505050565b60ff8281168282160390811115611808576118086121d256fea2646970667358221220d2962778e340534ea87aedcd92bc6e2edae9d11f70d4bbb3d5061afb1826592d64736f6c63430008190033",
  "devdoc": {
    "errors": {
      "OwnableInvalidOwner(address)": [
        {
          "details": "The owner is not a valid owner account. (eg. `address(0)`)"
        }
      ],
      "OwnableUnauthorizedAccount(address)": [
        {
          "details": "The caller account is not authorized to perform an operation."
        }
      ],
      "SafeCastOverflowedUintDowncast(uint8,uint256)": [
        {
          "details": "Value doesn't fit in an uint of `bits` size."
        }
      ]
    },
    "kind": "dev",
    "methods": {
      "acceptOwnership()": {
        "details": "The new owner accepts the ownership transfer."
      },
      "owner()": {
        "details": "Returns the address of the current owner."
      },
      "pendingOwner()": {
        "details": "Returns the address of the pending owner."
      },
      "renounceOwnership()": {
        "details": "Leaves the contract without owner. It will not be possible to call `onlyOwner` functions. Can only be called by the current owner. NOTE: Renouncing ownership will leave the contract without an owner, thereby disabling any functionality that is only available to the owner."
      },
      "transferOwnership(address)": {
        "details": "Starts the ownership transfer of the contract to a new account. Replaces the pending transfer if there is one. Can only be called by the current owner."
      }
    },
    "version": 1
  },
  "userdoc": {
    "kind": "user",
    "methods": {},
    "version": 1
  },
  "storageLayout": {
    "storage": [
      {
        "astId": 8,
        "contract": "src/SimpleOracleStrategy.sol:SimpleOracleStrategy",
        "label": "_owner",
        "offset": 0,
        "slot": "0",
        "type": "t_address"
      },
      {
        "astId": 156,
        "contract": "src/SimpleOracleStrategy.sol:SimpleOracleStrategy",
        "label": "_pendingOwner",
        "offset": 0,
        "slot": "1",
        "type": "t_address"
      },
      {
        "astId": 7790,
        "contract": "src/SimpleOracleStrategy.sol:SimpleOracleStrategy",
        "label": "isOperator",
        "offset": 0,
        "slot": "2",
        "type": "t_mapping(t_address,t_bool)"
      },
      {
        "astId": 7795,
        "contract": "src/SimpleOracleStrategy.sol:SimpleOracleStrategy",
        "label": "_configs",
        "offset": 0,
        "slot": "3",
        "type": "t_mapping(t_bytes32,t_struct(Config)9734_storage)"
      },
      {
        "astId": 7800,
        "contract": "src/SimpleOracleStrategy.sol:SimpleOracleStrategy",
        "label": "_prices",
        "offset": 0,
        "slot": "4",
        "type": "t_mapping(t_bytes32,t_struct(Price)9743_storage)"
      }
    ],
    "types": {
      "t_address": {
        "encoding": "inplace",
        "label": "address",
        "numberOfBytes": "20"
      },
      "t_bool": {
        "encoding": "inplace",
        "label": "bool",
        "numberOfBytes": "1"
      },
      "t_bytes32": {
        "encoding": "inplace",
        "label": "bytes32",
        "numberOfBytes": "32"
      },
      "t_mapping(t_address,t_bool)": {
        "encoding": "mapping",
        "key": "t_address",
        "label": "mapping(address => bool)",
        "numberOfBytes": "32",
        "value": "t_bool"
      },
      "t_mapping(t_bytes32,t_struct(Config)9734_storage)": {
        "encoding": "mapping",
        "key": "t_bytes32",
        "label": "mapping(bytes32 => struct ISimpleOracleStrategy.Config)",
        "numberOfBytes": "32",
        "value": "t_struct(Config)9734_storage"
      },
      "t_mapping(t_bytes32,t_struct(Price)9743_storage)": {
        "encoding": "mapping",
        "key": "t_bytes32",
        "label": "mapping(bytes32 => struct ISimpleOracleStrategy.Price)",
        "numberOfBytes": "32",
        "value": "t_struct(Price)9743_storage"
      },
      "t_struct(Config)9734_storage": {
        "encoding": "inplace",
        "label": "struct ISimpleOracleStrategy.Config",
        "members": [
          {
            "astId": 9721,
            "contract": "src/SimpleOracleStrategy.sol:SimpleOracleStrategy",
            "label": "referenceThreshold",
            "offset": 0,
            "slot": "0",
            "type": "t_uint24"
          },
          {
            "astId": 9723,
            "contract": "src/SimpleOracleStrategy.sol:SimpleOracleStrategy",
            "label": "rateA",
            "offset": 3,
            "slot": "0",
            "type": "t_uint24"
          },
          {
            "astId": 9725,
            "contract": "src/SimpleOracleStrategy.sol:SimpleOracleStrategy",
            "label": "rateB",
            "offset": 6,
            "slot": "0",
            "type": "t_uint24"
          },
          {
            "astId": 9727,
            "contract": "src/SimpleOracleStrategy.sol:SimpleOracleStrategy",
            "label": "minRateA",
            "offset": 9,
            "slot": "0",
            "type": "t_uint24"
          },
          {
            "astId": 9729,
            "contract": "src/SimpleOracleStrategy.sol:SimpleOracleStrategy",
            "label": "minRateB",
            "offset": 12,
            "slot": "0",
            "type": "t_uint24"
          },
          {
            "astId": 9731,
            "contract": "src/SimpleOracleStrategy.sol:SimpleOracleStrategy",
            "label": "priceThresholdA",
            "offset": 15,
            "slot": "0",
            "type": "t_uint24"
          },
          {
            "astId": 9733,
            "contract": "src/SimpleOracleStrategy.sol:SimpleOracleStrategy",
            "label": "priceThresholdB",
            "offset": 18,
            "slot": "0",
            "type": "t_uint24"
          }
        ],
        "numberOfBytes": "32"
      },
      "t_struct(Price)9743_storage": {
        "encoding": "inplace",
        "label": "struct ISimpleOracleStrategy.Price",
        "members": [
          {
            "astId": 9736,
            "contract": "src/SimpleOracleStrategy.sol:SimpleOracleStrategy",
            "label": "oraclePrice",
            "offset": 0,
            "slot": "0",
            "type": "t_uint208"
          },
          {
            "astId": 9739,
            "contract": "src/SimpleOracleStrategy.sol:SimpleOracleStrategy",
            "label": "tickA",
            "offset": 26,
            "slot": "0",
            "type": "t_userDefinedValueType(Tick)4314"
          },
          {
            "astId": 9742,
            "contract": "src/SimpleOracleStrategy.sol:SimpleOracleStrategy",
            "label": "tickB",
            "offset": 29,
            "slot": "0",
            "type": "t_userDefinedValueType(Tick)4314"
          }
        ],
        "numberOfBytes": "32"
      },
      "t_uint208": {
        "encoding": "inplace",
        "label": "uint208",
        "numberOfBytes": "26"
      },
      "t_uint24": {
        "encoding": "inplace",
        "label": "uint24",
        "numberOfBytes": "3"
      },
      "t_userDefinedValueType(Tick)4314": {
        "encoding": "inplace",
        "label": "Tick",
        "numberOfBytes": "3"
      }
    }
  }
}