{
  "address": "0x7494851D2311e63E7b6fa4D947d2F912278b42b7",
  "abi": [
    {
      "inputs": [
        {
          "internalType": "contract IOracle",
          "name": "referenceOracle_",
          "type": "address"
        },
        {
          "internalType": "contract IPoolStorage",
          "name": "poolStorage_",
          "type": "address"
        },
        {
          "internalType": "contract IBookManager",
          "name": "bookManager_",
          "type": "address"
        },
        {
          "internalType": "address",
          "name": "initialOwner",
          "type": "address"
        }
      ],
      "stateMutability": "nonpayable",
      "type": "constructor"
    },
    {
      "inputs": [],
      "name": "ExceedsThreshold",
      "type": "error"
    },
    {
      "inputs": [],
      "name": "InvalidConfig",
      "type": "error"
    },
    {
      "inputs": [],
      "name": "InvalidPrice",
      "type": "error"
    },
    {
      "inputs": [],
      "name": "InvalidTick",
      "type": "error"
    },
    {
      "inputs": [],
      "name": "InvalidValue",
      "type": "error"
    },
    {
      "inputs": [],
      "name": "NotOperator",
      "type": "error"
    },
    {
      "inputs": [
        {
          "internalType": "address",
          "name": "owner",
          "type": "address"
        }
      ],
      "name": "OwnableInvalidOwner",
      "type": "error"
    },
    {
      "inputs": [
        {
          "internalType": "address",
          "name": "account",
          "type": "address"
        }
      ],
      "name": "OwnableUnauthorizedAccount",
      "type": "error"
    },
    {
      "inputs": [
        {
          "internalType": "uint8",
          "name": "bits",
          "type": "uint8"
        },
        {
          "internalType": "uint256",
          "name": "value",
          "type": "uint256"
        }
      ],
      "name": "SafeCastOverflowedUintDowncast",
      "type": "error"
    },
    {
      "anonymous": false,
      "inputs": [
        {
          "indexed": true,
          "internalType": "address",
          "name": "previousOwner",
          "type": "address"
        },
        {
          "indexed": true,
          "internalType": "address",
          "name": "newOwner",
          "type": "address"
        }
      ],
      "name": "OwnershipTransferStarted",
      "type": "event"
    },
    {
      "anonymous": false,
      "inputs": [
        {
          "indexed": true,
          "internalType": "address",
          "name": "previousOwner",
          "type": "address"
        },
        {
          "indexed": true,
          "internalType": "address",
          "name": "newOwner",
          "type": "address"
        }
      ],
      "name": "OwnershipTransferred",
      "type": "event"
    },
    {
      "anonymous": false,
      "inputs": [
        {
          "indexed": true,
          "internalType": "address",
          "name": "operator",
          "type": "address"
        },
        {
          "indexed": false,
          "internalType": "bool",
          "name": "status",
          "type": "bool"
        }
      ],
      "name": "SetOperator",
      "type": "event"
    },
    {
      "anonymous": false,
      "inputs": [
        {
          "indexed": true,
          "internalType": "bytes32",
          "name": "key",
          "type": "bytes32"
        },
        {
          "components": [
            {
              "internalType": "uint24",
              "name": "referenceThreshold",
              "type": "uint24"
            },
            {
              "internalType": "uint24",
              "name": "rateA",
              "type": "uint24"
            },
            {
              "internalType": "uint24",
              "name": "rateB",
              "type": "uint24"
            },
            {
              "internalType": "uint24",
              "name": "minRateA",
              "type": "uint24"
            },
            {
              "internalType": "uint24",
              "name": "minRateB",
              "type": "uint24"
            },
            {
              "internalType": "uint24",
              "name": "priceThresholdA",
              "type": "uint24"
            },
            {
              "internalType": "uint24",
              "name": "priceThresholdB",
              "type": "uint24"
            }
          ],
          "indexed": false,
          "internalType": "struct ISimpleOracleStrategy.Config",
          "name": "config",
          "type": "tuple"
        }
      ],
      "name": "UpdateConfig",
      "type": "event"
    },
    {
      "anonymous": false,
      "inputs": [
        {
          "indexed": true,
          "internalType": "bytes32",
          "name": "key",
          "type": "bytes32"
        },
        {
          "indexed": false,
          "internalType": "uint256",
          "name": "oraclePrice",
          "type": "uint256"
        },
        {
          "indexed": false,
          "internalType": "Tick",
          "name": "tickA",
          "type": "int24"
        },
        {
          "indexed": false,
          "internalType": "Tick",
          "name": "tickB",
          "type": "int24"
        },
        {
          "indexed": false,
          "internalType": "uint256",
          "name": "alpha",
          "type": "uint256"
        }
      ],
      "name": "UpdatePrice",
      "type": "event"
    },
    {
      "inputs": [],
      "name": "RATE_PRECISION",
      "outputs": [
        {
          "internalType": "uint256",
          "name": "",
          "type": "uint256"
        }
      ],
      "stateMutability": "view",
      "type": "function"
    },
    {
      "inputs": [],
      "name": "acceptOwnership",
      "outputs": [],
      "stateMutability": "nonpayable",
      "type": "function"
    },
    {
      "inputs": [],
      "name": "bookManager",
      "outputs": [
        {
          "internalType": "contract IBookManager",
          "name": "",
          "type": "address"
        }
      ],
      "stateMutability": "view",
      "type": "function"
    },
    {
      "inputs": [
        {
          "internalType": "bytes32",
          "name": "key",
          "type": "bytes32"
        },
        {
          "internalType": "uint256",
          "name": "amountA",
          "type": "uint256"
        },
        {
          "internalType": "uint256",
          "name": "amountB",
          "type": "uint256"
        }
      ],
      "name": "computeOrders",
      "outputs": [
        {
          "components": [
            {
              "internalType": "Tick",
              "name": "tick",
              "type": "int24"
            },
            {
              "internalType": "uint64",
              "name": "rawAmount",
              "type": "uint64"
            }
          ],
          "internalType": "struct IStrategy.Order[]",
          "name": "ordersA",
          "type": "tuple[]"
        },
        {
          "components": [
            {
              "internalType": "Tick",
              "name": "tick",
              "type": "int24"
            },
            {
              "internalType": "uint64",
              "name": "rawAmount",
              "type": "uint64"
            }
          ],
          "internalType": "struct IStrategy.Order[]",
          "name": "ordersB",
          "type": "tuple[]"
        }
      ],
      "stateMutability": "view",
      "type": "function"
    },
    {
      "inputs": [],
      "name": "getAlpha",
      "outputs": [
        {
          "internalType": "uint256",
          "name": "",
          "type": "uint256"
        }
      ],
      "stateMutability": "view",
      "type": "function"
    },
    {
      "inputs": [
        {
          "internalType": "bytes32",
          "name": "key",
          "type": "bytes32"
        }
      ],
      "name": "getConfig",
      "outputs": [
        {
          "components": [
            {
              "internalType": "uint24",
              "name": "referenceThreshold",
              "type": "uint24"
            },
            {
              "internalType": "uint24",
              "name": "rateA",
              "type": "uint24"
            },
            {
              "internalType": "uint24",
              "name": "rateB",
              "type": "uint24"
            },
            {
              "internalType": "uint24",
              "name": "minRateA",
              "type": "uint24"
            },
            {
              "internalType": "uint24",
              "name": "minRateB",
              "type": "uint24"
            },
            {
              "internalType": "uint24",
              "name": "priceThresholdA",
              "type": "uint24"
            },
            {
              "internalType": "uint24",
              "name": "priceThresholdB",
              "type": "uint24"
            }
          ],
          "internalType": "struct ISimpleOracleStrategy.Config",
          "name": "",
          "type": "tuple"
        }
      ],
      "stateMutability": "view",
      "type": "function"
    },
    {
      "inputs": [
        {
          "internalType": "bytes32",
          "name": "key",
          "type": "bytes32"
        }
      ],
      "name": "getPrice",
      "outputs": [
        {
          "components": [
            {
              "internalType": "uint208",
              "name": "oraclePrice",
              "type": "uint208"
            },
            {
              "internalType": "Tick",
              "name": "tickA",
              "type": "int24"
            },
            {
              "internalType": "Tick",
              "name": "tickB",
              "type": "int24"
            }
          ],
          "internalType": "struct ISimpleOracleStrategy.Price",
          "name": "",
          "type": "tuple"
        }
      ],
      "stateMutability": "view",
      "type": "function"
    },
    {
      "inputs": [
        {
          "internalType": "address",
          "name": "",
          "type": "address"
        }
      ],
      "name": "isOperator",
      "outputs": [
        {
          "internalType": "bool",
          "name": "",
          "type": "bool"
        }
      ],
      "stateMutability": "view",
      "type": "function"
    },
    {
      "inputs": [
        {
          "internalType": "bytes32",
          "name": "key",
          "type": "bytes32"
        }
      ],
      "name": "isOraclePriceValid",
      "outputs": [
        {
          "internalType": "bool",
          "name": "",
          "type": "bool"
        }
      ],
      "stateMutability": "view",
      "type": "function"
    },
    {
      "inputs": [],
      "name": "owner",
      "outputs": [
        {
          "internalType": "address",
          "name": "",
          "type": "address"
        }
      ],
      "stateMutability": "view",
      "type": "function"
    },
    {
      "inputs": [],
      "name": "pendingOwner",
      "outputs": [
        {
          "internalType": "address",
          "name": "",
          "type": "address"
        }
      ],
      "stateMutability": "view",
      "type": "function"
    },
    {
      "inputs": [],
      "name": "poolStorage",
      "outputs": [
        {
          "internalType": "contract IPoolStorage",
          "name": "",
          "type": "address"
        }
      ],
      "stateMutability": "view",
      "type": "function"
    },
    {
      "inputs": [],
      "name": "referenceOracle",
      "outputs": [
        {
          "internalType": "contract IOracle",
          "name": "",
          "type": "address"
        }
      ],
      "stateMutability": "view",
      "type": "function"
    },
    {
      "inputs": [],
      "name": "renounceOwnership",
      "outputs": [],
      "stateMutability": "nonpayable",
      "type": "function"
    },
    {
      "inputs": [
        {
          "internalType": "bytes32",
          "name": "key",
          "type": "bytes32"
        },
        {
          "components": [
            {
              "internalType": "uint24",
              "name": "referenceThreshold",
              "type": "uint24"
            },
            {
              "internalType": "uint24",
              "name": "rateA",
              "type": "uint24"
            },
            {
              "internalType": "uint24",
              "name": "rateB",
              "type": "uint24"
            },
            {
              "internalType": "uint24",
              "name": "minRateA",
              "type": "uint24"
            },
            {
              "internalType": "uint24",
              "name": "minRateB",
              "type": "uint24"
            },
            {
              "internalType": "uint24",
              "name": "priceThresholdA",
              "type": "uint24"
            },
            {
              "internalType": "uint24",
              "name": "priceThresholdB",
              "type": "uint24"
            }
          ],
          "internalType": "struct ISimpleOracleStrategy.Config",
          "name": "config",
          "type": "tuple"
        }
      ],
      "name": "setConfig",
      "outputs": [],
      "stateMutability": "nonpayable",
      "type": "function"
    },
    {
      "inputs": [
        {
          "internalType": "address",
          "name": "operator",
          "type": "address"
        },
        {
          "internalType": "bool",
          "name": "status",
          "type": "bool"
        }
      ],
      "name": "setOperator",
      "outputs": [],
      "stateMutability": "nonpayable",
      "type": "function"
    },
    {
      "inputs": [
        {
          "internalType": "address",
          "name": "newOwner",
          "type": "address"
        }
      ],
      "name": "transferOwnership",
      "outputs": [],
      "stateMutability": "nonpayable",
      "type": "function"
    },
    {
      "inputs": [
        {
          "internalType": "bytes32",
          "name": "key",
          "type": "bytes32"
        },
        {
          "internalType": "uint256",
          "name": "oraclePrice",
          "type": "uint256"
        },
        {
          "internalType": "Tick",
          "name": "tickA",
          "type": "int24"
        },
        {
          "internalType": "Tick",
          "name": "tickB",
          "type": "int24"
        },
        {
          "internalType": "uint256",
          "name": "alpha",
          "type": "uint256"
        }
      ],
      "name": "updatePrice",
      "outputs": [],
      "stateMutability": "nonpayable",
      "type": "function"
    }
  ],
  "transactionHash": "0x2b23fa998bd655533557b6004cb78c9ed03eb80f4a2b6be0dc67645ef8c2fbbc",
  "args": [
    "0xFcEd94a7D7fB4166255bEc36a7d43f62E00C94c7",
    "0x6F1876d6D8593Ef1De1D7C5D1CCd1eD85717Ad99",
    "0xC528b9ED5d56d1D0d3C18A2342954CE1069138a4",
    "0x5F79EE8f8fA862E98201120d83c4eC39D9468D49"
  ],
  "numDeployments": 1,
  "solcInputHash": "4af6fedf5f4c13dae233d98a2b131c2c",
  "bytecode": "0x60e060405234801561000f575f80fd5b5060405161283738038061283783398101604081905261002e91610103565b806001600160a01b03811661005c57604051631e4fbdf760e01b81525f600482015260240160405180910390fd5b61006581610084565b50506001600160a01b0392831660805290821660a0521660c05261015f565b600180546001600160a01b031916905561009d816100a0565b50565b5f80546001600160a01b038381166001600160a01b0319831681178455604051919092169283917f8be0079c531659141344cd1fd0a4f28419497f9722a3daafe3b4186f6b6457e09190a35050565b6001600160a01b038116811461009d575f80fd5b5f805f8060808587031215610116575f80fd5b8451610121816100ef565b6020860151909450610132816100ef565b6040860151909350610143816100ef565b6060860151909250610154816100ef565b939692955090935050565b60805160a05160c0516126616101d65f395f818161025c015281816106770152818161070901528181610beb0152610fbc01525f8181610447015281816105e401528181610b4f0152610f2001525f818161021d015281816110760152818161161d015281816116ba015261191301526126615ff3fe608060405234801561000f575f80fd5b506004361061012f575f3560e01c806379ba5097116100ad578063bc81316f1161007d578063f27a0e8a11610063578063f27a0e8a1461047a578063f2fde38b1461048d578063f4988a3d146104a0575f80fd5b8063bc81316f14610442578063e30c397814610469575f80fd5b806379ba5097146104045780638da5cb5b1461040c578063a30416d31461041c578063ad7089f01461042f575f80fd5b80633f322bc9116101025780636d70f7ae116100e85780636d70f7ae146102935780636dd5b69d146102c5578063715018a6146103fc575f80fd5b80633f322bc914610257578063558a72971461027e575f80fd5b80631dc90f6d146101335780632b3ba6811461015d57806331d98b3f14610175578063337cceb914610218575b5f80fd5b610146610141366004611f97565b6104a8565b604051610154929190612012565b60405180910390f35b610167620f424081565b604051908152602001610154565b6101e261018336600461203f565b60408051606080820183525f8083526020808401829052928401819052938452600482529282902082519384018352546001600160d01b0381168452600160d01b8104600290810b92850192909252600160e81b9004900b9082015290565b6040805182516001600160d01b03168152602080840151600290810b918301919091529282015190920b90820152606001610154565b61023f7f000000000000000000000000000000000000000000000000000000000000000081565b6040516001600160a01b039091168152602001610154565b61023f7f000000000000000000000000000000000000000000000000000000000000000081565b61029161028c36600461206a565b6109b3565b005b6102b56102a13660046120a5565b60026020525f908152604090205460ff1681565b6040519015158152602001610154565b6103946102d336600461203f565b6040805160e0810182525f80825260208201819052918101829052606081018290526080810182905260a0810182905260c0810191909152505f90815260036020908152604091829020825160e081018452905462ffffff808216835263010000008204811693830193909352660100000000000081048316938201939093526901000000000000000000830482166060820152600160601b830482166080820152600160781b8304821660a0820152600160901b9092041660c082015290565b60405161015491905f60e08201905062ffffff8084511683528060208501511660208401528060408501511660408401528060608501511660608401528060808501511660808401528060a08501511660a08401528060c08501511660c08401525092915050565b610291610a1a565b610291610a2d565b5f546001600160a01b031661023f565b6102b561042a36600461203f565b610a76565b61029161043d3660046120dd565b610c87565b61023f7f000000000000000000000000000000000000000000000000000000000000000081565b6001546001600160a01b031661023f565b6102916104883660046121b0565b611238565b61029161049b3660046120a5565b6114f5565b600554610167565b5f838152600360209081526040808320815160e081018352905462ffffff80821683526301000000820481168386015266010000000000008204811683850152690100000000000000000082048116606080850191909152600160601b83048216608080860191909152600160781b8404831660a080870191909152600160901b90940490921660c0808601919091528a885260048088528689208751808501895290546001600160d01b0381168252600160d01b8104600290810b838c0152600160e81b909104900b81890152875180840189528a8152808a018b90528089018b90528085018b90528086018b90528087018b9052885193840189528a84529883018a90528288018a90528284018a9052938201899052938101889052945163c630ed7d60e01b81529283018a9052958695939491939281907f00000000000000000000000000000000000000000000000000000000000000006001600160a01b03169063c630ed7d906024016040805180830381865afa158015610630573d5f803e3d5ffd5b505050506040513d601f19601f82011682018060405250810190610654919061227e565b604051639b22917d60e01b81526001600160c01b038316600482015291935091507f00000000000000000000000000000000000000000000000000000000000000006001600160a01b031690639b22917d9060240160c060405180830381865afa1580156106c4573d5f803e3d5ffd5b505050506040513d601f19601f820116820180604052508101906106e891906122c5565b604051639b22917d60e01b81526001600160c01b03831660048201529094507f00000000000000000000000000000000000000000000000000000000000000006001600160a01b031690639b22917d9060240160c060405180830381865afa158015610756573d5f803e3d5ffd5b505050506040513d601f19601f8201168201806040525081019061077a91906122c5565b925050506107a5835f01516001600160d01b0316855f015162ffffff168460400151855f0151611572565b6107b257505050506109ab565b60408051600180825281830190925290816020015b604080518082019091525f80825260208201528152602001906001900390816107c7575050604080516001808252818301909252919750602082015b604080518082019091525f808252602082015281526020019060019003908161080357905050945061085b8888855f01516001600160d01b031661084a86604001516117e2565b8651610855906117e2565b89611860565b606084015191995097506108749062ffffff1660171c90565b1561089157606082015161088e9062ffffff16895f611b1e565b97505b6108a4816060015162ffffff1660171c90565b156108c15760608101516108be9062ffffff16885f611b1e565b96505b6040518060400160405280846020015160020b8152602001610916620f4240856020015167ffffffffffffffff166005548d6108fd9190612387565b610907919061239e565b610911919061239e565b611b61565b67ffffffffffffffff16815250865f81518110610935576109356123bd565b60200260200101819052506040518060400160405280846040015160020b815260200161097c620f4240846020015167ffffffffffffffff166005548c6108fd9190612387565b67ffffffffffffffff16815250855f8151811061099b5761099b6123bd565b6020026020010181905250505050505b935093915050565b6109bb611b9b565b6001600160a01b0382165f81815260026020908152604091829020805460ff191685151590811790915591519182527f1618a22a3b00b9ac70fd5a82f1f5cdd8cb272bd0f1b740ddf7c26ab05881dd5b91015b60405180910390a25050565b610a22611b9b565b610a2b5f611bc7565b565b60015433906001600160a01b03168114610a6a5760405163118cdaa760e01b81526001600160a01b03821660048201526024015b60405180910390fd5b610a7381611bc7565b50565b5f818152600360209081526040808320815160e081018352905462ffffff80821683526301000000820481168386015266010000000000008204811683850152690100000000000000000082048116606080850191909152600160601b830482166080850152600160781b8304821660a0850152600160901b9092041660c0830152858552600480855283862084519283018552546001600160d01b0381168352600160d01b8104600290810b96840196909652600160e81b900490940b81840152915163c630ed7d60e01b81529283018590529183907f00000000000000000000000000000000000000000000000000000000000000006001600160a01b03169063c630ed7d906024016040805180830381865afa158015610b9b573d5f803e3d5ffd5b505050506040513d601f19601f82011682018060405250810190610bbf919061227e565b50604051639b22917d60e01b81526001600160c01b03821660048201529091505f906001600160a01b037f00000000000000000000000000000000000000000000000000000000000000001690639b22917d9060240160c060405180830381865afa158015610c30573d5f803e3d5ffd5b505050506040513d601f19601f82011682018060405250810190610c5491906122c5565b9050610c7d835f01516001600160d01b0316855f015162ffffff168360400151845f0151611572565b9695505050505050565b335f9081526002602052604090205460ff16610ccf576040517f7c214f0400000000000000000000000000000000000000000000000000000000815260040160405180910390fd5b5f610cdc8460020b611bed565b90505f610cf3610ceb856123d1565b60020b611bed565b9050808210610d2d576040517ebfc92100000000000000000000000000000000000000000000000000000000815260040160405180910390fd5b620f4240831115610d6a576040517faa7feadc00000000000000000000000000000000000000000000000000000000815260040160405180910390fd5b8215610d765760058390555b5f87815260036020908152604091829020825160e081018452905462ffffff808216835263010000008204811693830193909352660100000000000081048316938201939093526901000000000000000000830482166060820152600160601b830482166080820152600160781b8304821660a08201819052600160901b90930490911660c0820152908390620f424090610e1190826123f1565b610e1b908a612387565b610e25919061239e565b1080610e5f575082620f42408260a0015162ffffff16620f4240610e499190612404565b610e53908a612387565b610e5d919061239e565b115b80610e98575081620f42408260c0015162ffffff16620f4240610e8291906123f1565b610e8c908a612387565b610e96919061239e565b105b80610ed1575081620f42408260c0015162ffffff16620f4240610ebb9190612404565b610ec5908a612387565b610ecf919061239e565b115b15610f08576040517f107826c200000000000000000000000000000000000000000000000000000000815260040160405180910390fd5b60405163c630ed7d60e01b8152600481018990525f907f00000000000000000000000000000000000000000000000000000000000000006001600160a01b03169063c630ed7d906024016040805180830381865afa158015610f6c573d5f803e3d5ffd5b505050506040513d601f19601f82011682018060405250810190610f90919061227e565b50604051639b22917d60e01b81526001600160c01b03821660048201529091505f906001600160a01b037f00000000000000000000000000000000000000000000000000000000000000001690639b22917d9060240160c060405180830381865afa158015611001573d5f803e3d5ffd5b505050506040513d601f19601f8201168201806040525081019061102591906122c5565b90505f61103582604001516117e2565b90505f611044835f01516117e2565b905061105182600a6124f7565b61105c82600a6124f7565b611066908d612387565b611070919061239e565b9a5060607f00000000000000000000000000000000000000000000000000000000000000006001600160a01b031663313ce5676040518163ffffffff1660e01b8152600401602060405180830381865afa1580156110d0573d5f803e3d5ffd5b505050506040513d601f19601f820116820180604052508101906110f49190612505565b6110ff90600a6124f7565b611109908d612387565b901c9a5060405180606001604052806111218d611eac565b6001600160d01b031681526020018b60020b81526020018a60020b81525060045f8e81526020019081526020015f205f820151815f015f6101000a8154816001600160d01b0302191690836001600160d01b031602179055506020820151815f01601a6101000a81548162ffffff021916908360020b62ffffff1602179055506040820151815f01601d6101000a81548162ffffff021916908360020b62ffffff1602179055509050508b7fa58a25aeea90cec95a5caab4ed37b85e78f970caf68a3ba05c68c843e25683728c8c8c5f8d116111ff57600554611201565b8c5b60408051948552600293840b60208601529190920b90830152606082015260800160405180910390a2505050505050505050505050565b611240611b9b565b620f4240815f015162ffffff1611806112645750620f4240816020015162ffffff16115b8061127a5750620f4240816040015162ffffff16115b806112905750620f4240816060015162ffffff16115b806112a65750620f4240816080015162ffffff16115b806112bc5750620f42408160a0015162ffffff16115b806112d25750620f42408160c0015162ffffff16115b156112f0576040516306b7c75960e31b815260040160405180910390fd5b806060015162ffffff16816020015162ffffff1610806113215750806080015162ffffff16816040015162ffffff16105b1561133f576040516306b7c75960e31b815260040160405180910390fd5b5f828152600360209081526040918290208351815492850151848601516060870151608088015160a089015160c08a015162ffffff908116600160901b027fffffffffffffffffffffff000000ffffffffffffffffffffffffffffffffffff928216600160781b027fffffffffffffffffffffffffffff000000ffffffffffffffffffffffffffffff948316600160601b02949094167fffffffffffffffffffffffffffff000000000000ffffffffffffffffffffffff9583166901000000000000000000026bffffff00000000000000000019978416660100000000000002979097166bffffffffffff0000000000001998841663010000000265ffffffffffff19909c16939099169290921799909917959095169590951792909217169190911717169190911790555182907f9fb40f2c657ba02a2d8419d8962d85ff670afe7942128c803c133283ae93342490610a0e9084905f60e08201905062ffffff8084511683528060208501511660208401528060408501511660408401528060608501511660608401528060808501511660808401528060a08501511660a08401528060c08501511660c08401525092915050565b6114fd611b9b565b600180546001600160a01b03831673ffffffffffffffffffffffffffffffffffffffff19909116811790915561153a5f546001600160a01b031690565b6001600160a01b03167f38d16b8cac22d99fc7c124b9cd0de2d3fa1faef420bfe791d8c362d765e2270060405160405180910390a350565b6040805160028082526060820183525f9283928392909160208301908036833701905050905084815f815181106115ab576115ab6123bd565b60200260200101906001600160a01b031690816001600160a01b03168152505083816001815181106115df576115df6123bd565b6001600160a01b0392831660209182029290920101526040517f9d23d9f20000000000000000000000000000000000000000000000000000000081527f000000000000000000000000000000000000000000000000000000000000000090911690639d23d9f290611654908490600401612525565b5f60405180830381865afa92505050801561169057506040513d5f823e601f3d908101601f1916820160405261168d9190810190612571565b60015b61169e575f925050506117da565b805f815181106116b0576116b06123bd565b60200260200101517f00000000000000000000000000000000000000000000000000000000000000006001600160a01b031663313ce5676040518163ffffffff1660e01b8152600401602060405180830381865afa158015611714573d5f803e3d5ffd5b505050506040513d601f19601f820116820180604052508101906117389190612505565b61174390600a6124f7565b82600181518110611756576117566123bd565b60200260200101516117689190612387565b611772919061239e565b92505086620f424061178488826123f1565b61178e9085612387565b611798919061239e565b10806117c4575086620f42406117ae8882612404565b6117b89085612387565b6117c2919061239e565b115b156117d3575f925050506117da565b6001925050505b949350505050565b5f6001600160a01b0382161561185757816001600160a01b031663313ce5676040518163ffffffff1660e01b8152600401602060405180830381865afa15801561182e573d5f803e3d5ffd5b505050506040513d601f19601f820116820180604052508101906118529190612505565b61185a565b60125b92915050565b5f808360ff168560ff1611156118965761187a8486612612565b61188590600a6124f7565b61188f9088612387565b96506118c6565b8360ff168560ff1610156118c6576118ae8585612612565b6118b990600a6124f7565b6118c39089612387565b97505b620f4240836020015162ffffff16896118df9190612387565b6118e9919061239e565b9150620f4240836040015162ffffff16886119049190612387565b61190e919061239e565b90505f7f00000000000000000000000000000000000000000000000000000000000000006001600160a01b031663313ce5676040518163ffffffff1660e01b8152600401602060405180830381865afa15801561196d573d5f803e3d5ffd5b505050506040513d601f19601f820116820180604052508101906119919190612505565b61199c90600a6124f7565b90505f6119a98285612387565b90505f6119b68985612387565b9050808211156119dd576119ca838261239e565b94506119d68386612387565b91506119f6565b6119e7898361239e565b93506119f38985612387565b90505b82620f4240876060015162ffffff168d611a109190612387565b611a1a919061239e565b611a249190612387565b821015611a5157620f4240866060015162ffffff168c611a449190612387565b611a4e919061239e565b94505b88620f4240876080015162ffffff168c611a6b9190612387565b611a75919061239e565b611a7f9190612387565b811015611aac57620f4240866080015162ffffff168b611a9f9190612387565b611aa9919061239e565b93505b8660ff168860ff161115611ae057611ac48789612612565b611acf90600a6124f7565b611ad9908561239e565b9350611b10565b8660ff168860ff161015611b1057611af88888612612565b611b0390600a6124f7565b611b0d908661239e565b94505b505050965096945050505050565b5f6207a11f19627fffff851601818315611b3857815f0391505b81620f4240019050610c7d620f424086611b529190612387565b82810615158616908390040190565b5f67ffffffffffffffff821115611b9757604080516306dfcc6560e41b8152600481019190915260248101839052604401610a61565b5090565b5f546001600160a01b03163314610a2b5760405163118cdaa760e01b8152336004820152602401610a61565b6001805473ffffffffffffffffffffffffffffffffffffffff19169055610a7381611edf565b5f611bf782611f3b565b815f600282900b8113611c0a5781611c13565b611c13826123d1565b62ffffff8116915060011615611c37576bfff97272373d413259a469909250611c3f565b600160601b92505b6002811615611c5e5760606bfff2e50f5f656932ef12357c8402901c92505b6004811615611c7d5760606bffe5caca7e10e4e61c3624ea8402901c92505b6008811615611c9c5760606bffcb9843d60f6159c9db58838402901c92505b6010811615611cbb5760606bff973b41fa98c081472e68968402901c92505b6020811615611cda5760606bff2ea16466c96a3843ec78b38402901c92505b6040811615611cf95760606bfe5dee046a99a2a811c461f18402901c92505b6080811615611d185760606bfcbe86c7900a88aedcffc83b8402901c92505b610100811615611d385760606bf987a7253ac413176f2b074c8402901c92505b610200811615611d585760606bf3392b0822b70005940c7a398402901c92505b610400811615611d785760606be7159475a2c29b7443b29c7f8402901c92505b610800811615611d985760606bd097f3bdfd2022b8845ad8f78402901c92505b611000811615611db85760606ba9f746462d870fdf8a65dc1f8402901c92505b612000811615611dd85760606b70d869a156d2a1b890bb3df68402901c92505b614000811615611df85760606b31be135f97d08fd9812315058402901c92505b618000811615611e185760606b09aa508b5b7a84e1c677de548402901c92505b62010000811615611e385760606a5d6af8dedb81196699c3298402901c92505b62020000811615611e57576060692216e584f5fa1ea926048402901c92505b62040000811615611e7457606067048a170391f7dc428402901c92505b5f8260020b1315611ea557611ea283780100000000000000000000000000000000000000000000000061239e565b92505b5050919050565b5f6001600160d01b03821115611b97576040516306dfcc6560e41b815260d0600482015260248101839052604401610a61565b5f80546001600160a01b0383811673ffffffffffffffffffffffffffffffffffffffff19831681178455604051919092169283917f8be0079c531659141344cd1fd0a4f28419497f9722a3daafe3b4186f6b6457e09190a35050565b6207ffff600282900b1380611f605750611f576207ffff6123d1565b60020b8160020b125b15610a73576040517fce8ef7fc00000000000000000000000000000000000000000000000000000000815260040160405180910390fd5b5f805f60608486031215611fa9575f80fd5b505081359360208301359350604090920135919050565b5f815180845260208085019450602084015f5b83811015612007578151805160020b885283015167ffffffffffffffff168388015260409096019590820190600101611fd3565b509495945050505050565b604081525f6120246040830185611fc0565b82810360208401526120368185611fc0565b95945050505050565b5f6020828403121561204f575f80fd5b5035919050565b6001600160a01b0381168114610a73575f80fd5b5f806040838503121561207b575f80fd5b823561208681612056565b91506020830135801515811461209a575f80fd5b809150509250929050565b5f602082840312156120b5575f80fd5b81356120c081612056565b9392505050565b8035600281900b81146120d8575f80fd5b919050565b5f805f805f60a086880312156120f1575f80fd5b8535945060208601359350612108604087016120c7565b9250612116606087016120c7565b949793965091946080013592915050565b634e487b7160e01b5f52604160045260245ffd5b60405160e0810167ffffffffffffffff8111828210171561215e5761215e612127565b60405290565b604051601f8201601f1916810167ffffffffffffffff8111828210171561218d5761218d612127565b604052919050565b62ffffff81168114610a73575f80fd5b80356120d881612195565b5f808284036101008112156121c3575f80fd5b8335925060e0601f19820112156121d8575f80fd5b506121e161213b565b60208401356121ef81612195565b815260408401356121ff81612195565b6020820152606084013561221281612195565b6040820152608084013561222581612195565b606082015261223660a085016121a5565b608082015261224760c085016121a5565b60a082015261225860e085016121a5565b60c0820152809150509250929050565b80516001600160c01b03811681146120d8575f80fd5b5f806040838503121561228f575f80fd5b61229883612268565b91506122a660208401612268565b90509250929050565b80516120d881612195565b80516120d881612056565b5f60c082840312156122d5575f80fd5b60405160c0810167ffffffffffffffff82821081831117156122f9576122f9612127565b816040528451915061230a82612056565b9082526020840151908082168214612320575f80fd5b506020820152604083015161233481612056565b6040820152612345606084016122af565b6060820152612356608084016122ba565b608082015261236760a084016122af565b60a08201529392505050565b634e487b7160e01b5f52601160045260245ffd5b808202811582820484141761185a5761185a612373565b5f826123b857634e487b7160e01b5f52601260045260245ffd5b500490565b634e487b7160e01b5f52603260045260245ffd5b5f8160020b627fffff1981036123e9576123e9612373565b5f0392915050565b8082018082111561185a5761185a612373565b8181038181111561185a5761185a612373565b600181815b8085111561245157815f190482111561243757612437612373565b8085161561244457918102915b93841c939080029061241c565b509250929050565b5f826124675750600161185a565b8161247357505f61185a565b81600181146124895760028114612493576124af565b600191505061185a565b60ff8411156124a4576124a4612373565b50506001821b61185a565b5060208310610133831016604e8410600b84101617156124d2575081810a61185a565b6124dc8383612417565b805f19048211156124ef576124ef612373565b029392505050565b5f6120c060ff841683612459565b5f60208284031215612515575f80fd5b815160ff811681146120c0575f80fd5b602080825282518282018190525f9190848201906040850190845b818110156125655783516001600160a01b031683529284019291840191600101612540565b50909695505050505050565b5f6020808385031215612582575f80fd5b825167ffffffffffffffff80821115612599575f80fd5b818501915085601f8301126125ac575f80fd5b8151818111156125be576125be612127565b8060051b91506125cf848301612164565b81815291830184019184810190888411156125e8575f80fd5b938501935b83851015612606578451825293850193908501906125ed565b98975050505050505050565b60ff828116828216039081111561185a5761185a61237356fea26469706673582212205d79414a1ee23ecefef5863325d564248e0ef989893ca9ea11959a3f8a290e3564736f6c63430008190033",
  "devdoc": {
    "errors": {
      "OwnableInvalidOwner(address)": [
        {
          "details": "The owner is not a valid owner account. (eg. `address(0)`)"
        }
      ],
      "OwnableUnauthorizedAccount(address)": [
        {
          "details": "The caller account is not authorized to perform an operation."
        }
      ],
      "SafeCastOverflowedUintDowncast(uint8,uint256)": [
        {
          "details": "Value doesn't fit in an uint of `bits` size."
        }
      ]
    },
    "kind": "dev",
    "methods": {
      "acceptOwnership()": {
        "details": "The new owner accepts the ownership transfer."
      },
      "owner()": {
        "details": "Returns the address of the current owner."
      },
      "pendingOwner()": {
        "details": "Returns the address of the pending owner."
      },
      "renounceOwnership()": {
        "details": "Leaves the contract without owner. It will not be possible to call `onlyOwner` functions. Can only be called by the current owner. NOTE: Renouncing ownership will leave the contract without an owner, thereby disabling any functionality that is only available to the owner."
      },
      "transferOwnership(address)": {
        "details": "Starts the ownership transfer of the contract to a new account. Replaces the pending transfer if there is one. Can only be called by the current owner. Setting `newOwner` to the zero address is allowed; this can be used to cancel an initiated ownership transfer."
      }
    },
    "version": 1
  },
  "userdoc": {
    "kind": "user",
    "methods": {},
    "version": 1
  },
  "storageLayout": {
    "storage": [
      {
        "astId": 8,
        "contract": "src/SimpleOracleStrategy.sol:SimpleOracleStrategy",
        "label": "_owner",
        "offset": 0,
        "slot": "0",
        "type": "t_address"
      },
      {
        "astId": 156,
        "contract": "src/SimpleOracleStrategy.sol:SimpleOracleStrategy",
        "label": "_pendingOwner",
        "offset": 0,
        "slot": "1",
        "type": "t_address"
      },
      {
        "astId": 9807,
        "contract": "src/SimpleOracleStrategy.sol:SimpleOracleStrategy",
        "label": "isOperator",
        "offset": 0,
        "slot": "2",
        "type": "t_mapping(t_address,t_bool)"
      },
      {
        "astId": 9812,
        "contract": "src/SimpleOracleStrategy.sol:SimpleOracleStrategy",
        "label": "_configs",
        "offset": 0,
        "slot": "3",
        "type": "t_mapping(t_bytes32,t_struct(Config)11861_storage)"
      },
      {
        "astId": 9817,
        "contract": "src/SimpleOracleStrategy.sol:SimpleOracleStrategy",
        "label": "_prices",
        "offset": 0,
        "slot": "4",
        "type": "t_mapping(t_bytes32,t_struct(Price)11870_storage)"
      },
      {
        "astId": 9819,
        "contract": "src/SimpleOracleStrategy.sol:SimpleOracleStrategy",
        "label": "_alpha",
        "offset": 0,
        "slot": "5",
        "type": "t_uint256"
      }
    ],
    "types": {
      "t_address": {
        "encoding": "inplace",
        "label": "address",
        "numberOfBytes": "20"
      },
      "t_bool": {
        "encoding": "inplace",
        "label": "bool",
        "numberOfBytes": "1"
      },
      "t_bytes32": {
        "encoding": "inplace",
        "label": "bytes32",
        "numberOfBytes": "32"
      },
      "t_mapping(t_address,t_bool)": {
        "encoding": "mapping",
        "key": "t_address",
        "label": "mapping(address => bool)",
        "numberOfBytes": "32",
        "value": "t_bool"
      },
      "t_mapping(t_bytes32,t_struct(Config)11861_storage)": {
        "encoding": "mapping",
        "key": "t_bytes32",
        "label": "mapping(bytes32 => struct ISimpleOracleStrategy.Config)",
        "numberOfBytes": "32",
        "value": "t_struct(Config)11861_storage"
      },
      "t_mapping(t_bytes32,t_struct(Price)11870_storage)": {
        "encoding": "mapping",
        "key": "t_bytes32",
        "label": "mapping(bytes32 => struct ISimpleOracleStrategy.Price)",
        "numberOfBytes": "32",
        "value": "t_struct(Price)11870_storage"
      },
      "t_struct(Config)11861_storage": {
        "encoding": "inplace",
        "label": "struct ISimpleOracleStrategy.Config",
        "members": [
          {
            "astId": 11848,
            "contract": "src/SimpleOracleStrategy.sol:SimpleOracleStrategy",
            "label": "referenceThreshold",
            "offset": 0,
            "slot": "0",
            "type": "t_uint24"
          },
          {
            "astId": 11850,
            "contract": "src/SimpleOracleStrategy.sol:SimpleOracleStrategy",
            "label": "rateA",
            "offset": 3,
            "slot": "0",
            "type": "t_uint24"
          },
          {
            "astId": 11852,
            "contract": "src/SimpleOracleStrategy.sol:SimpleOracleStrategy",
            "label": "rateB",
            "offset": 6,
            "slot": "0",
            "type": "t_uint24"
          },
          {
            "astId": 11854,
            "contract": "src/SimpleOracleStrategy.sol:SimpleOracleStrategy",
            "label": "minRateA",
            "offset": 9,
            "slot": "0",
            "type": "t_uint24"
          },
          {
            "astId": 11856,
            "contract": "src/SimpleOracleStrategy.sol:SimpleOracleStrategy",
            "label": "minRateB",
            "offset": 12,
            "slot": "0",
            "type": "t_uint24"
          },
          {
            "astId": 11858,
            "contract": "src/SimpleOracleStrategy.sol:SimpleOracleStrategy",
            "label": "priceThresholdA",
            "offset": 15,
            "slot": "0",
            "type": "t_uint24"
          },
          {
            "astId": 11860,
            "contract": "src/SimpleOracleStrategy.sol:SimpleOracleStrategy",
            "label": "priceThresholdB",
            "offset": 18,
            "slot": "0",
            "type": "t_uint24"
          }
        ],
        "numberOfBytes": "32"
      },
      "t_struct(Price)11870_storage": {
        "encoding": "inplace",
        "label": "struct ISimpleOracleStrategy.Price",
        "members": [
          {
            "astId": 11863,
            "contract": "src/SimpleOracleStrategy.sol:SimpleOracleStrategy",
            "label": "oraclePrice",
            "offset": 0,
            "slot": "0",
            "type": "t_uint208"
          },
          {
            "astId": 11866,
            "contract": "src/SimpleOracleStrategy.sol:SimpleOracleStrategy",
            "label": "tickA",
            "offset": 26,
            "slot": "0",
            "type": "t_userDefinedValueType(Tick)5411"
          },
          {
            "astId": 11869,
            "contract": "src/SimpleOracleStrategy.sol:SimpleOracleStrategy",
            "label": "tickB",
            "offset": 29,
            "slot": "0",
            "type": "t_userDefinedValueType(Tick)5411"
          }
        ],
        "numberOfBytes": "32"
      },
      "t_uint208": {
        "encoding": "inplace",
        "label": "uint208",
        "numberOfBytes": "26"
      },
      "t_uint24": {
        "encoding": "inplace",
        "label": "uint24",
        "numberOfBytes": "3"
      },
      "t_uint256": {
        "encoding": "inplace",
        "label": "uint256",
        "numberOfBytes": "32"
      },
      "t_userDefinedValueType(Tick)5411": {
        "encoding": "inplace",
        "label": "Tick",
        "numberOfBytes": "3"
      }
    }
  }
}