{
  "address": "0x43e252105ce8C4ffd10Da539C95C154469EC946c",
  "abi": [
    {
      "inputs": [
        {
          "internalType": "contract IOracle",
          "name": "referenceOracle_",
          "type": "address"
        },
        {
          "internalType": "contract IRebalancer",
          "name": "rebalancer_",
          "type": "address"
        },
        {
          "internalType": "contract IBookManager",
          "name": "bookManager_",
          "type": "address"
        },
        {
          "internalType": "address",
          "name": "initialOwner",
          "type": "address"
        }
      ],
      "stateMutability": "nonpayable",
      "type": "constructor"
    },
    {
      "inputs": [],
      "name": "ExceedsThreshold",
      "type": "error"
    },
    {
      "inputs": [],
      "name": "InvalidAccess",
      "type": "error"
    },
    {
      "inputs": [],
      "name": "InvalidConfig",
      "type": "error"
    },
    {
      "inputs": [],
      "name": "InvalidOraclePrice",
      "type": "error"
    },
    {
      "inputs": [],
      "name": "InvalidPrice",
      "type": "error"
    },
    {
      "inputs": [],
      "name": "InvalidTick",
      "type": "error"
    },
    {
      "inputs": [],
      "name": "InvalidValue",
      "type": "error"
    },
    {
      "inputs": [],
      "name": "NotOperator",
      "type": "error"
    },
    {
      "inputs": [
        {
          "internalType": "address",
          "name": "owner",
          "type": "address"
        }
      ],
      "name": "OwnableInvalidOwner",
      "type": "error"
    },
    {
      "inputs": [
        {
          "internalType": "address",
          "name": "account",
          "type": "address"
        }
      ],
      "name": "OwnableUnauthorizedAccount",
      "type": "error"
    },
    {
      "inputs": [
        {
          "internalType": "uint8",
          "name": "bits",
          "type": "uint8"
        },
        {
          "internalType": "uint256",
          "name": "value",
          "type": "uint256"
        }
      ],
      "name": "SafeCastOverflowedUintDowncast",
      "type": "error"
    },
    {
      "anonymous": false,
      "inputs": [
        {
          "indexed": true,
          "internalType": "address",
          "name": "previousOwner",
          "type": "address"
        },
        {
          "indexed": true,
          "internalType": "address",
          "name": "newOwner",
          "type": "address"
        }
      ],
      "name": "OwnershipTransferStarted",
      "type": "event"
    },
    {
      "anonymous": false,
      "inputs": [
        {
          "indexed": true,
          "internalType": "address",
          "name": "previousOwner",
          "type": "address"
        },
        {
          "indexed": true,
          "internalType": "address",
          "name": "newOwner",
          "type": "address"
        }
      ],
      "name": "OwnershipTransferred",
      "type": "event"
    },
    {
      "anonymous": false,
      "inputs": [
        {
          "indexed": true,
          "internalType": "address",
          "name": "operator",
          "type": "address"
        },
        {
          "indexed": false,
          "internalType": "bool",
          "name": "status",
          "type": "bool"
        }
      ],
      "name": "SetOperator",
      "type": "event"
    },
    {
      "anonymous": false,
      "inputs": [
        {
          "indexed": true,
          "internalType": "bytes32",
          "name": "key",
          "type": "bytes32"
        },
        {
          "components": [
            {
              "internalType": "uint24",
              "name": "referenceThreshold",
              "type": "uint24"
            },
            {
              "internalType": "uint24",
              "name": "rebalanceThreshold",
              "type": "uint24"
            },
            {
              "internalType": "uint24",
              "name": "rateA",
              "type": "uint24"
            },
            {
              "internalType": "uint24",
              "name": "rateB",
              "type": "uint24"
            },
            {
              "internalType": "uint24",
              "name": "minRateA",
              "type": "uint24"
            },
            {
              "internalType": "uint24",
              "name": "minRateB",
              "type": "uint24"
            },
            {
              "internalType": "uint24",
              "name": "priceThresholdA",
              "type": "uint24"
            },
            {
              "internalType": "uint24",
              "name": "priceThresholdB",
              "type": "uint24"
            }
          ],
          "indexed": false,
          "internalType": "struct ISimpleOracleStrategy.Config",
          "name": "config",
          "type": "tuple"
        }
      ],
      "name": "UpdateConfig",
      "type": "event"
    },
    {
      "anonymous": false,
      "inputs": [
        {
          "indexed": true,
          "internalType": "bytes32",
          "name": "key",
          "type": "bytes32"
        },
        {
          "indexed": false,
          "internalType": "uint256",
          "name": "oraclePrice",
          "type": "uint256"
        },
        {
          "indexed": false,
          "internalType": "Tick",
          "name": "tickA",
          "type": "int24"
        },
        {
          "indexed": false,
          "internalType": "Tick",
          "name": "tickB",
          "type": "int24"
        },
        {
          "indexed": false,
          "internalType": "uint256",
          "name": "rate",
          "type": "uint256"
        }
      ],
      "name": "UpdatePosition",
      "type": "event"
    },
    {
      "inputs": [],
      "name": "LAST_RAW_AMOUNT_MASK",
      "outputs": [
        {
          "internalType": "uint256",
          "name": "",
          "type": "uint256"
        }
      ],
      "stateMutability": "view",
      "type": "function"
    },
    {
      "inputs": [],
      "name": "RATE_PRECISION",
      "outputs": [
        {
          "internalType": "uint256",
          "name": "",
          "type": "uint256"
        }
      ],
      "stateMutability": "view",
      "type": "function"
    },
    {
      "inputs": [],
      "name": "acceptOwnership",
      "outputs": [],
      "stateMutability": "nonpayable",
      "type": "function"
    },
    {
      "inputs": [],
      "name": "bookManager",
      "outputs": [
        {
          "internalType": "contract IBookManager",
          "name": "",
          "type": "address"
        }
      ],
      "stateMutability": "view",
      "type": "function"
    },
    {
      "inputs": [
        {
          "internalType": "address",
          "name": "",
          "type": "address"
        },
        {
          "internalType": "bytes32",
          "name": "key",
          "type": "bytes32"
        },
        {
          "internalType": "uint256",
          "name": "burnAmount",
          "type": "uint256"
        },
        {
          "internalType": "uint256",
          "name": "totalSupply",
          "type": "uint256"
        }
      ],
      "name": "burnHook",
      "outputs": [],
      "stateMutability": "nonpayable",
      "type": "function"
    },
    {
      "inputs": [
        {
          "internalType": "bytes32",
          "name": "key",
          "type": "bytes32"
        }
      ],
      "name": "computeOrders",
      "outputs": [
        {
          "components": [
            {
              "internalType": "Tick",
              "name": "tick",
              "type": "int24"
            },
            {
              "internalType": "uint64",
              "name": "rawAmount",
              "type": "uint64"
            }
          ],
          "internalType": "struct IStrategy.Order[]",
          "name": "ordersA",
          "type": "tuple[]"
        },
        {
          "components": [
            {
              "internalType": "Tick",
              "name": "tick",
              "type": "int24"
            },
            {
              "internalType": "uint64",
              "name": "rawAmount",
              "type": "uint64"
            }
          ],
          "internalType": "struct IStrategy.Order[]",
          "name": "ordersB",
          "type": "tuple[]"
        }
      ],
      "stateMutability": "view",
      "type": "function"
    },
    {
      "inputs": [
        {
          "internalType": "bytes32",
          "name": "key",
          "type": "bytes32"
        }
      ],
      "name": "getConfig",
      "outputs": [
        {
          "components": [
            {
              "internalType": "uint24",
              "name": "referenceThreshold",
              "type": "uint24"
            },
            {
              "internalType": "uint24",
              "name": "rebalanceThreshold",
              "type": "uint24"
            },
            {
              "internalType": "uint24",
              "name": "rateA",
              "type": "uint24"
            },
            {
              "internalType": "uint24",
              "name": "rateB",
              "type": "uint24"
            },
            {
              "internalType": "uint24",
              "name": "minRateA",
              "type": "uint24"
            },
            {
              "internalType": "uint24",
              "name": "minRateB",
              "type": "uint24"
            },
            {
              "internalType": "uint24",
              "name": "priceThresholdA",
              "type": "uint24"
            },
            {
              "internalType": "uint24",
              "name": "priceThresholdB",
              "type": "uint24"
            }
          ],
          "internalType": "struct ISimpleOracleStrategy.Config",
          "name": "",
          "type": "tuple"
        }
      ],
      "stateMutability": "view",
      "type": "function"
    },
    {
      "inputs": [
        {
          "internalType": "bytes32",
          "name": "key",
          "type": "bytes32"
        }
      ],
      "name": "getLastRawAmount",
      "outputs": [
        {
          "internalType": "uint256",
          "name": "",
          "type": "uint256"
        },
        {
          "internalType": "uint256",
          "name": "",
          "type": "uint256"
        }
      ],
      "stateMutability": "view",
      "type": "function"
    },
    {
      "inputs": [
        {
          "internalType": "bytes32",
          "name": "key",
          "type": "bytes32"
        }
      ],
      "name": "getPosition",
      "outputs": [
        {
          "components": [
            {
              "internalType": "uint184",
              "name": "oraclePrice",
              "type": "uint184"
            },
            {
              "internalType": "uint24",
              "name": "rate",
              "type": "uint24"
            },
            {
              "internalType": "Tick",
              "name": "tickA",
              "type": "int24"
            },
            {
              "internalType": "Tick",
              "name": "tickB",
              "type": "int24"
            }
          ],
          "internalType": "struct ISimpleOracleStrategy.Position",
          "name": "",
          "type": "tuple"
        }
      ],
      "stateMutability": "view",
      "type": "function"
    },
    {
      "inputs": [
        {
          "internalType": "address",
          "name": "",
          "type": "address"
        }
      ],
      "name": "isOperator",
      "outputs": [
        {
          "internalType": "bool",
          "name": "",
          "type": "bool"
        }
      ],
      "stateMutability": "view",
      "type": "function"
    },
    {
      "inputs": [
        {
          "internalType": "bytes32",
          "name": "key",
          "type": "bytes32"
        }
      ],
      "name": "isOraclePriceValid",
      "outputs": [
        {
          "internalType": "bool",
          "name": "",
          "type": "bool"
        }
      ],
      "stateMutability": "view",
      "type": "function"
    },
    {
      "inputs": [
        {
          "internalType": "address",
          "name": "",
          "type": "address"
        },
        {
          "internalType": "bytes32",
          "name": "",
          "type": "bytes32"
        },
        {
          "internalType": "uint256",
          "name": "",
          "type": "uint256"
        },
        {
          "internalType": "uint256",
          "name": "",
          "type": "uint256"
        }
      ],
      "name": "mintHook",
      "outputs": [],
      "stateMutability": "view",
      "type": "function"
    },
    {
      "inputs": [],
      "name": "owner",
      "outputs": [
        {
          "internalType": "address",
          "name": "",
          "type": "address"
        }
      ],
      "stateMutability": "view",
      "type": "function"
    },
    {
      "inputs": [],
      "name": "pendingOwner",
      "outputs": [
        {
          "internalType": "address",
          "name": "",
          "type": "address"
        }
      ],
      "stateMutability": "view",
      "type": "function"
    },
    {
      "inputs": [
        {
          "internalType": "address",
          "name": "",
          "type": "address"
        },
        {
          "internalType": "bytes32",
          "name": "key",
          "type": "bytes32"
        },
        {
          "components": [
            {
              "internalType": "Tick",
              "name": "tick",
              "type": "int24"
            },
            {
              "internalType": "uint64",
              "name": "rawAmount",
              "type": "uint64"
            }
          ],
          "internalType": "struct IStrategy.Order[]",
          "name": "liquidityA",
          "type": "tuple[]"
        },
        {
          "components": [
            {
              "internalType": "Tick",
              "name": "tick",
              "type": "int24"
            },
            {
              "internalType": "uint64",
              "name": "rawAmount",
              "type": "uint64"
            }
          ],
          "internalType": "struct IStrategy.Order[]",
          "name": "liquidityB",
          "type": "tuple[]"
        }
      ],
      "name": "rebalanceHook",
      "outputs": [],
      "stateMutability": "nonpayable",
      "type": "function"
    },
    {
      "inputs": [],
      "name": "rebalancer",
      "outputs": [
        {
          "internalType": "contract IRebalancer",
          "name": "",
          "type": "address"
        }
      ],
      "stateMutability": "view",
      "type": "function"
    },
    {
      "inputs": [],
      "name": "referenceOracle",
      "outputs": [
        {
          "internalType": "contract IOracle",
          "name": "",
          "type": "address"
        }
      ],
      "stateMutability": "view",
      "type": "function"
    },
    {
      "inputs": [],
      "name": "renounceOwnership",
      "outputs": [],
      "stateMutability": "nonpayable",
      "type": "function"
    },
    {
      "inputs": [
        {
          "internalType": "bytes32",
          "name": "key",
          "type": "bytes32"
        },
        {
          "components": [
            {
              "internalType": "uint24",
              "name": "referenceThreshold",
              "type": "uint24"
            },
            {
              "internalType": "uint24",
              "name": "rebalanceThreshold",
              "type": "uint24"
            },
            {
              "internalType": "uint24",
              "name": "rateA",
              "type": "uint24"
            },
            {
              "internalType": "uint24",
              "name": "rateB",
              "type": "uint24"
            },
            {
              "internalType": "uint24",
              "name": "minRateA",
              "type": "uint24"
            },
            {
              "internalType": "uint24",
              "name": "minRateB",
              "type": "uint24"
            },
            {
              "internalType": "uint24",
              "name": "priceThresholdA",
              "type": "uint24"
            },
            {
              "internalType": "uint24",
              "name": "priceThresholdB",
              "type": "uint24"
            }
          ],
          "internalType": "struct ISimpleOracleStrategy.Config",
          "name": "config",
          "type": "tuple"
        }
      ],
      "name": "setConfig",
      "outputs": [],
      "stateMutability": "nonpayable",
      "type": "function"
    },
    {
      "inputs": [
        {
          "internalType": "address",
          "name": "operator",
          "type": "address"
        },
        {
          "internalType": "bool",
          "name": "status",
          "type": "bool"
        }
      ],
      "name": "setOperator",
      "outputs": [],
      "stateMutability": "nonpayable",
      "type": "function"
    },
    {
      "inputs": [
        {
          "internalType": "address",
          "name": "newOwner",
          "type": "address"
        }
      ],
      "name": "transferOwnership",
      "outputs": [],
      "stateMutability": "nonpayable",
      "type": "function"
    },
    {
      "inputs": [
        {
          "internalType": "bytes32",
          "name": "key",
          "type": "bytes32"
        },
        {
          "internalType": "uint256",
          "name": "oraclePrice",
          "type": "uint256"
        },
        {
          "internalType": "Tick",
          "name": "tickA",
          "type": "int24"
        },
        {
          "internalType": "Tick",
          "name": "tickB",
          "type": "int24"
        },
        {
          "internalType": "uint24",
          "name": "rate",
          "type": "uint24"
        }
      ],
      "name": "updatePosition",
      "outputs": [],
      "stateMutability": "nonpayable",
      "type": "function"
    }
  ],
  "transactionHash": "0x8e3eeb26157e73fcc50d98ed437facf44be3c35a3803266a3c2041fc1d316b5b",
  "args": [
    "0x6BAB446256CDBD4749DB8BbD1302c40286f3FBF5",
    "0xcE0275DdAAE25494Cf1e4D9255b2ACB3e689afcd",
    "0x382CCccbD3b142D7DA063bF68cd0c89634767F76",
    "0xfb976Bae0b3Ef71843F1c6c63da7Df2e44B3836d"
  ],
  "numDeployments": 1,
  "solcInputHash": "f934c106884cdf203782e75507707682",
  "bytecode": "0x60e060405234801561000f575f80fd5b5060405161303838038061303883398101604081905261002e91610103565b806001600160a01b03811661005c57604051631e4fbdf760e01b81525f600482015260240160405180910390fd5b61006581610084565b50506001600160a01b0392831660805290821660a0521660c05261015f565b600180546001600160a01b031916905561009d816100a0565b50565b5f80546001600160a01b038381166001600160a01b0319831681178455604051919092169283917f8be0079c531659141344cd1fd0a4f28419497f9722a3daafe3b4186f6b6457e09190a35050565b6001600160a01b038116811461009d575f80fd5b5f805f8060808587031215610116575f80fd5b8451610121816100ef565b6020860151909450610132816100ef565b6040860151909350610143816100ef565b6060860151909250610154816100ef565b939692955090935050565b60805160a05160c051612e466101f25f395f818161030f01528181610a5301528181610ae50152818161136a01526117ab01525f8181610182015281816109c801528181610b88015281816112ce0152818161170f01528181611852015281816118a1015261196501525f81816102c70152818161142401528181611bbc01528181611c590152611eb20152612e465ff3fe608060405234801561000f575f80fd5b5060043610610179575f3560e01c806379ba5097116100d2578063b5a562bd11610088578063edffdaaf11610063578063edffdaaf146104fd578063f2fde38b14610510578063f638923714610523575f80fd5b8063b5a562bd146104c2578063db7c74b6146104d9578063e30c3978146104ec575f80fd5b8063a0f15331116100b8578063a0f1533114610489578063a30416d31461049c578063a3a36f55146104af575f80fd5b806379ba5097146104715780638da5cb5b14610479575f80fd5b80633b93fabc116101325780636d70f7ae1161010d5780636d70f7ae146103445780636dd5b69d14610376578063715018a614610469575f80fd5b80633b93fabc146102e95780633f322bc91461030a578063558a729714610331575f80fd5b80631928b3cb116101625780631928b3cb146101d65780632b3ba681146102aa578063337cceb9146102c2575f80fd5b806301d22ccd1461017d578063063570bd146101c1575b5f80fd5b6101a47f000000000000000000000000000000000000000000000000000000000000000081565b6040516001600160a01b0390911681526020015b60405180910390f35b6101d46101cf3660046125bc565b610571565b005b61025f6101e4366004612682565b60408051608080820183525f808352602080840182905283850182905260609384018290529481526004855283902083519182018452546001600160b81b0381168252600160b81b810462ffffff1694820194909452600160d01b8404600290810b93820193909352600160e81b90930490910b9082015290565b6040516101b891905f6080820190506001600160b81b03835116825262ffffff6020840151166020830152604083015160020b6040830152606083015160020b606083015292915050565b6102b4620f424081565b6040519081526020016101b8565b6101a47f000000000000000000000000000000000000000000000000000000000000000081565b6102fc6102f7366004612682565b61082c565b6040516101b89291906126eb565b6101a47f000000000000000000000000000000000000000000000000000000000000000081565b6101d461033f36600461272c565b610f72565b610366610352366004612767565b60026020525f908152604090205460ff1681565b60405190151581526020016101b8565b61045c610384366004612682565b60408051610100810182525f80825260208201819052918101829052606081018290526080810182905260a0810182905260c0810182905260e0810191909152505f90815260036020908152604091829020825161010081018452905462ffffff808216835263010000008204811693830193909352660100000000000081048316938201939093526901000000000000000000830482166060820152600160601b830482166080820152600160781b8304821660a0820152600160901b8304821660c0820152600160a81b9092041660e082015290565b6040516101b89190612789565b6101d4610fd1565b6101d4610fe4565b5f546001600160a01b03166101a4565b6101d461049736600461281d565b61102d565b6103666104aa366004612682565b611613565b6101d46104bd366004612874565b611847565b6102b46fffffffffffffffffffffffffffffffff81565b6101d46104e7366004612874565b611896565b6001546001600160a01b03166101a4565b6101d461050b36600461297e565b61195a565b6101d461051e366004612767565b611a68565b61055c610531366004612682565b5f90815260056020526040902054608081901c916fffffffffffffffffffffffffffffffff90911690565b604080519283526020830191909152016101b8565b610579611ae5565b620f4240815f015162ffffff16118061059d5750620f4240816020015162ffffff16115b806105b35750620f4240816040015162ffffff16115b806105c95750620f4240816060015162ffffff16115b806105df5750620f4240816080015162ffffff16115b806105f55750620f42408160a0015162ffffff16115b8061060b5750620f42408160c0015162ffffff16115b806106215750620f42408160e0015162ffffff16115b1561063f576040516306b7c75960e31b815260040160405180910390fd5b806080015162ffffff16816040015162ffffff16108061067057508060a0015162ffffff16816060015162ffffff16105b1561068e576040516306b7c75960e31b815260040160405180910390fd5b5f828152600360209081526040918290208351815492850151858501516060870151608088015160a089015160c08a015160e08b015162ffffff97881665ffffffffffff19909a1699909917630100000096881696909602959095176bffffffffffff00000000000019166601000000000000948716949094026bffffff000000000000000000191693909317690100000000000000000092861692909202919091177fffffffffffffffffffffffffffff000000000000ffffffffffffffffffffffff16600160601b918516919091027fffffffffffffffffffffffffffff000000ffffffffffffffffffffffffffffff1617600160781b91841691909102177fffffffffffffffff000000000000ffffffffffffffffffffffffffffffffffff16600160901b918316919091027fffffffffffffffff000000ffffffffffffffffffffffffffffffffffffffffff1617600160a81b91909316029190911790555182907fa6796aaa3e8df6d8ed1c3d26d8a54828d50465a6b4151685c28954b40e3be4c190610820908490612789565b60405180910390a25050565b5f818152600360209081526040808320815161010081018352905462ffffff80821683526301000000820481168386015266010000000000008204811683850152690100000000000000000082048116606080850191909152600160601b83048216608080860191909152600160781b8404831660a080870191909152600160901b8504841660c080880191909152600160a81b909504841660e0870152898952600488528689208751808401895290546001600160b81b0381168252600160b81b8104909516818a0152600160d01b8504600290810b828a0152600160e81b90950490940b84840152865180860188528981528089018a90528088018a90528084018a90528083018a90528082018a9052875195860188528986528589018a90528588018a90528584018a9052918501899052840188905285518083018752888152968701889052948601969096528594929390929091906109a660405180606001604052805f81526020015f81526020015f81525090565b60405163c630ed7d60e01b8152600481018a90525f9081906001600160a01b037f0000000000000000000000000000000000000000000000000000000000000000169063c630ed7d906024016040805180830381865afa158015610a0c573d5f803e3d5ffd5b505050506040513d601f19601f82011682018060405250810190610a309190612a0f565b604051639b22917d60e01b81526001600160c01b038316600482015291935091507f00000000000000000000000000000000000000000000000000000000000000006001600160a01b031690639b22917d9060240160c060405180830381865afa158015610aa0573d5f803e3d5ffd5b505050506040513d601f19601f82011682018060405250810190610ac49190612a40565b604051639b22917d60e01b81526001600160c01b03831660048201529096507f00000000000000000000000000000000000000000000000000000000000000006001600160a01b031690639b22917d9060240160c060405180830381865afa158015610b32573d5f803e3d5ffd5b505050506040513d601f19601f82011682018060405250810190610b569190612a40565b6040517ffa6793d5000000000000000000000000000000000000000000000000000000008152600481018d90529095507f00000000000000000000000000000000000000000000000000000000000000006001600160a01b03169063fa6793d59060240160c060405180830381865afa158015610bd5573d5f803e3d5ffd5b505050506040513d601f19601f82011682018060405250810190610bf99190612b43565b5f8d8152600560209081526040909120548b820151918a01519397509195509091620f42409162ffffff1690610c3d9067ffffffffffffffff16608085901c612b81565b610c479190612b81565b610c519190612b98565b85604001511180610cb25750620f4240896020015162ffffff16876020015167ffffffffffffffff166fffffffffffffffffffffffffffffffff8416610c979190612b81565b610ca19190612b81565b610cab9190612b98565b8460400151115b15610cc557505050505050505050915091565b8751895160408901518951610cea936001600160b81b03169262ffffff169190611b11565b610d20576040517f1f8f95a000000000000000000000000000000000000000000000000000000000815260040160405180910390fd5b5050505f80610d9584602001518560400151865f0151610d409190612bb7565b610d4a9190612bb7565b602085015160408601518651610d609190612bb7565b610d6a9190612bb7565b895f01516001600160b81b0316610d848a60400151611d81565b8a51610d8f90611d81565b8d611dff565b91509150610dac866060015162ffffff1660171c90565b15610dc9576060860151610dc69062ffffff16835f6120bd565b91505b610ddc856060015162ffffff1660171c90565b15610df9576060850151610df69062ffffff16825f6120bd565b90505b60408051600180825281830190925290816020015b604080518082019091525f8082526020820152815260200190600190039081610e0e575050604080516001808252818301909252919b50602082015b604080518082019091525f8082526020820152815260200190600190039081610e4a5790505098506040518060400160405280886040015160020b8152602001610ece620f4240896020015167ffffffffffffffff168b6020015162ffffff1687610eb59190612b81565b610ebf9190612b98565b610ec99190612b98565b612100565b67ffffffffffffffff168152508a5f81518110610eed57610eed612bca565b60200260200101819052506040518060400160405280886060015160020b8152602001610f3b620f4240886020015167ffffffffffffffff168b6020015162ffffff1686610eb59190612b81565b67ffffffffffffffff16815250895f81518110610f5a57610f5a612bca565b60200260200101819052505050505050505050915091565b610f7a611ae5565b6001600160a01b0382165f81815260026020908152604091829020805460ff191685151590811790915591519182527f1618a22a3b00b9ac70fd5a82f1f5cdd8cb272bd0f1b740ddf7c26ab05881dd5b9101610820565b610fd9611ae5565b610fe25f61213a565b565b60015433906001600160a01b031681146110215760405163118cdaa760e01b81526001600160a01b03821660048201526024015b60405180910390fd5b61102a8161213a565b50565b335f9081526002602052604090205460ff16611075576040517f7c214f0400000000000000000000000000000000000000000000000000000000815260040160405180910390fd5b5f6110828460020b612160565b90505f61109961109185612bde565b60020b612160565b90508082106110d3576040517ebfc92100000000000000000000000000000000000000000000000000000000815260040160405180910390fd5b620f42408362ffffff161115611115576040517faa7feadc00000000000000000000000000000000000000000000000000000000815260040160405180910390fd5b5f87815260036020908152604091829020825161010081018452905462ffffff808216835263010000008204811693830193909352660100000000000081048316938201939093526901000000000000000000830482166060820152600160601b830482166080820152600160781b8304821660a0820152600160901b8304821660c08201819052600160a81b90930490911660e0820152908390620f4240906111bf9082612bb7565b6111c9908a612b81565b6111d39190612b98565b108061120d575082620f42408260c0015162ffffff16620f42406111f79190612bfe565b611201908a612b81565b61120b9190612b98565b115b80611246575081620f42408260e0015162ffffff16620f42406112309190612bb7565b61123a908a612b81565b6112449190612b98565b105b8061127f575081620f42408260e0015162ffffff16620f42406112699190612bfe565b611273908a612b81565b61127d9190612b98565b115b156112b6576040517f107826c200000000000000000000000000000000000000000000000000000000815260040160405180910390fd5b60405163c630ed7d60e01b8152600481018990525f907f00000000000000000000000000000000000000000000000000000000000000006001600160a01b03169063c630ed7d906024016040805180830381865afa15801561131a573d5f803e3d5ffd5b505050506040513d601f19601f8201168201806040525081019061133e9190612a0f565b50604051639b22917d60e01b81526001600160c01b03821660048201529091505f906001600160a01b037f00000000000000000000000000000000000000000000000000000000000000001690639b22917d9060240160c060405180830381865afa1580156113af573d5f803e3d5ffd5b505050506040513d601f19601f820116820180604052508101906113d39190612a40565b90505f6113e38260400151611d81565b90505f6113f2835f0151611d81565b90506113ff82600a612cf1565b61140a82600a612cf1565b611414908d612b81565b61141e9190612b98565b9a5060607f00000000000000000000000000000000000000000000000000000000000000006001600160a01b031663313ce5676040518163ffffffff1660e01b8152600401602060405180830381865afa15801561147e573d5f803e3d5ffd5b505050506040513d601f19601f820116820180604052508101906114a29190612cff565b6114ad90600a612cf1565b6114b7908d612b81565b901c9a5060405180608001604052806114cf8d61241f565b6001600160b81b031681526020018962ffffff1681526020018b60020b81526020018a60020b81525060045f8e81526020019081526020015f205f820151815f015f6101000a8154816001600160b81b0302191690836001600160b81b031602179055506020820151815f0160176101000a81548162ffffff021916908362ffffff1602179055506040820151815f01601a6101000a81548162ffffff021916908360020b62ffffff1602179055506060820151815f01601d6101000a81548162ffffff021916908360020b62ffffff1602179055509050508b7f6bfe82e0fc1c0e49aa5a610028c276fddb4bc3c4f8ae34f09277ce63597818f98c8c8c8c6040516115fd9493929190938452600292830b6020850152910b604083015262ffffff16606082015260800190565b60405180910390a2505050505050505050505050565b5f818152600360209081526040808320815161010081018352905462ffffff80821683526301000000820481168386015266010000000000008204811683850152690100000000000000000082048116606080850191909152600160601b83048216608080860191909152600160781b8404831660a0860152600160901b8404831660c0860152600160a81b909304821660e0850152878752600480875285882086519485018752546001600160b81b0381168552600160b81b810490931696840196909652600160d01b8204600290810b84870152600160e81b90920490910b90820152915163c630ed7d60e01b81529283018590529183907f00000000000000000000000000000000000000000000000000000000000000006001600160a01b03169063c630ed7d906024016040805180830381865afa15801561175b573d5f803e3d5ffd5b505050506040513d601f19601f8201168201806040525081019061177f9190612a0f565b50604051639b22917d60e01b81526001600160c01b03821660048201529091505f906001600160a01b037f00000000000000000000000000000000000000000000000000000000000000001690639b22917d9060240160c060405180830381865afa1580156117f0573d5f803e3d5ffd5b505050506040513d601f19601f820116820180604052508101906118149190612a40565b905061183d835f01516001600160b81b0316855f015162ffffff168360400151845f0151611b11565b9695505050505050565b336001600160a01b037f0000000000000000000000000000000000000000000000000000000000000000161461189057604051633006171960e21b815260040160405180910390fd5b50505050565b336001600160a01b037f000000000000000000000000000000000000000000000000000000000000000016146118df57604051633006171960e21b815260040160405180910390fd5b5f838152600560205260409020548161190a846fffffffffffffffffffffffffffffffff8416612b81565b6119149190612b98565b6080836119238685841c612b81565b61192d9190612b98565b611938911b83612bfe565b6119429190612bfe565b5f948552600560205260409094209390935550505050565b336001600160a01b037f000000000000000000000000000000000000000000000000000000000000000016146119a357604051633006171960e21b815260040160405180910390fd5b5f805f5b84518110156119f2575f8582815181106119c3576119c3612bca565b60200260200101519050806020015167ffffffffffffffff16846119e79190612bb7565b9350506001016119a7565b505f5b8351811015611a40575f848281518110611a1157611a11612bca565b60200260200101519050806020015167ffffffffffffffff1683611a359190612bb7565b9250506001016119f5565b50611a4f81608084901b612bb7565b5f95865260056020526040909520949094555050505050565b611a70611ae5565b600180546001600160a01b03831673ffffffffffffffffffffffffffffffffffffffff199091168117909155611aad5f546001600160a01b031690565b6001600160a01b03167f38d16b8cac22d99fc7c124b9cd0de2d3fa1faef420bfe791d8c362d765e2270060405160405180910390a350565b5f546001600160a01b03163314610fe25760405163118cdaa760e01b8152336004820152602401611018565b6040805160028082526060820183525f9283928392909160208301908036833701905050905084815f81518110611b4a57611b4a612bca565b60200260200101906001600160a01b031690816001600160a01b0316815250508381600181518110611b7e57611b7e612bca565b6001600160a01b0392831660209182029290920101526040517f9d23d9f20000000000000000000000000000000000000000000000000000000081527f000000000000000000000000000000000000000000000000000000000000000090911690639d23d9f290611bf3908490600401612d1f565b5f60405180830381865afa925050508015611c2f57506040513d5f823e601f3d908101601f19168201604052611c2c9190810190612d6b565b60015b611c3d575f92505050611d79565b805f81518110611c4f57611c4f612bca565b60200260200101517f00000000000000000000000000000000000000000000000000000000000000006001600160a01b031663313ce5676040518163ffffffff1660e01b8152600401602060405180830381865afa158015611cb3573d5f803e3d5ffd5b505050506040513d601f19601f82011682018060405250810190611cd79190612cff565b611ce290600a612cf1565b82600181518110611cf557611cf5612bca565b6020026020010151611d079190612b81565b611d119190612b98565b92505086620f4240611d238882612bb7565b611d2d9085612b81565b611d379190612b98565b1080611d63575086620f4240611d4d8882612bfe565b611d579085612b81565b611d619190612b98565b115b15611d72575f92505050611d79565b6001925050505b949350505050565b5f6001600160a01b03821615611df657816001600160a01b031663313ce5676040518163ffffffff1660e01b8152600401602060405180830381865afa158015611dcd573d5f803e3d5ffd5b505050506040513d601f19601f82011682018060405250810190611df19190612cff565b611df9565b60125b92915050565b5f808360ff168560ff161115611e3557611e198486612df7565b611e2490600a612cf1565b611e2e9088612b81565b9650611e65565b8360ff168560ff161015611e6557611e4d8585612df7565b611e5890600a612cf1565b611e629089612b81565b97505b620f4240836040015162ffffff1689611e7e9190612b81565b611e889190612b98565b9150620f4240836060015162ffffff1688611ea39190612b81565b611ead9190612b98565b90505f7f00000000000000000000000000000000000000000000000000000000000000006001600160a01b031663313ce5676040518163ffffffff1660e01b8152600401602060405180830381865afa158015611f0c573d5f803e3d5ffd5b505050506040513d601f19601f82011682018060405250810190611f309190612cff565b611f3b90600a612cf1565b90505f611f488285612b81565b90505f611f558985612b81565b905080821115611f7c57611f698382612b98565b9450611f758386612b81565b9150611f95565b611f868983612b98565b9350611f928985612b81565b90505b82620f4240876080015162ffffff168d611faf9190612b81565b611fb99190612b98565b611fc39190612b81565b821015611ff057620f4240866080015162ffffff168c611fe39190612b81565b611fed9190612b98565b94505b88620f42408760a0015162ffffff168c61200a9190612b81565b6120149190612b98565b61201e9190612b81565b81101561204b57620f42408660a0015162ffffff168b61203e9190612b81565b6120489190612b98565b93505b8660ff168860ff16111561207f576120638789612df7565b61206e90600a612cf1565b6120789085612b98565b93506120af565b8660ff168860ff1610156120af576120978888612df7565b6120a290600a612cf1565b6120ac9086612b98565b94505b505050965096945050505050565b5f6207a11f19627fffff8516018183156120d757815f0391505b81620f424001905061183d620f4240866120f19190612b81565b82810615158616908390040190565b5f67ffffffffffffffff82111561213657604080516306dfcc6560e41b8152600481019190915260248101839052604401611018565b5090565b6001805473ffffffffffffffffffffffffffffffffffffffff1916905561102a81612452565b5f61216a826124ae565b815f600282900b811361217d5781612186565b61218682612bde565b62ffffff81169150600116156121aa576bfff97272373d413259a4699092506121b2565b600160601b92505b60028116156121d15760606bfff2e50f5f656932ef12357c8402901c92505b60048116156121f05760606bffe5caca7e10e4e61c3624ea8402901c92505b600881161561220f5760606bffcb9843d60f6159c9db58838402901c92505b601081161561222e5760606bff973b41fa98c081472e68968402901c92505b602081161561224d5760606bff2ea16466c96a3843ec78b38402901c92505b604081161561226c5760606bfe5dee046a99a2a811c461f18402901c92505b608081161561228b5760606bfcbe86c7900a88aedcffc83b8402901c92505b6101008116156122ab5760606bf987a7253ac413176f2b074c8402901c92505b6102008116156122cb5760606bf3392b0822b70005940c7a398402901c92505b6104008116156122eb5760606be7159475a2c29b7443b29c7f8402901c92505b61080081161561230b5760606bd097f3bdfd2022b8845ad8f78402901c92505b61100081161561232b5760606ba9f746462d870fdf8a65dc1f8402901c92505b61200081161561234b5760606b70d869a156d2a1b890bb3df68402901c92505b61400081161561236b5760606b31be135f97d08fd9812315058402901c92505b61800081161561238b5760606b09aa508b5b7a84e1c677de548402901c92505b620100008116156123ab5760606a5d6af8dedb81196699c3298402901c92505b620200008116156123ca576060692216e584f5fa1ea926048402901c92505b620400008116156123e757606067048a170391f7dc428402901c92505b5f8260020b131561241857612415837801000000000000000000000000000000000000000000000000612b98565b92505b5050919050565b5f6001600160b81b03821115612136576040516306dfcc6560e41b815260b8600482015260248101839052604401611018565b5f80546001600160a01b0383811673ffffffffffffffffffffffffffffffffffffffff19831681178455604051919092169283917f8be0079c531659141344cd1fd0a4f28419497f9722a3daafe3b4186f6b6457e09190a35050565b6207ffff600282900b13806124d357506124ca6207ffff612bde565b60020b8160020b125b1561102a576040517fce8ef7fc00000000000000000000000000000000000000000000000000000000815260040160405180910390fd5b634e487b7160e01b5f52604160045260245ffd5b604051610100810167ffffffffffffffff811182821017156125425761254261250a565b60405290565b6040805190810167ffffffffffffffff811182821017156125425761254261250a565b604051601f8201601f1916810167ffffffffffffffff811182821017156125945761259461250a565b604052919050565b62ffffff8116811461102a575f80fd5b80356125b78161259c565b919050565b5f808284036101208112156125cf575f80fd5b8335925061010080601f19830112156125e6575f80fd5b6125ee61251e565b915060208501356125fe8161259c565b825261260c604086016125ac565b602083015261261d606086016125ac565b604083015261262e608086016125ac565b606083015261263f60a086016125ac565b608083015261265060c086016125ac565b60a083015261266160e086016125ac565b60c08301526126718186016125ac565b60e083015250809150509250929050565b5f60208284031215612692575f80fd5b5035919050565b5f815180845260208085019450602084015f5b838110156126e0578151805160020b885283015167ffffffffffffffff1683880152604090960195908201906001016126ac565b509495945050505050565b604081525f6126fd6040830185612699565b828103602084015261270f8185612699565b95945050505050565b6001600160a01b038116811461102a575f80fd5b5f806040838503121561273d575f80fd5b823561274881612718565b91506020830135801515811461275c575f80fd5b809150509250929050565b5f60208284031215612777575f80fd5b813561278281612718565b9392505050565b5f6101008201905062ffffff8084511683528060208501511660208401528060408501511660408401528060608501511660608401528060808501511660808401528060a08501511660a08401525060c08301516127ee60c084018262ffffff169052565b5060e083015161280560e084018262ffffff169052565b5092915050565b8035600281900b81146125b7575f80fd5b5f805f805f60a08688031215612831575f80fd5b85359450602086013593506128486040870161280c565b92506128566060870161280c565b915060808601356128668161259c565b809150509295509295909350565b5f805f8060808587031215612887575f80fd5b843561289281612718565b966020860135965060408601359560600135945092505050565b5f67ffffffffffffffff8211156128c5576128c561250a565b5060051b60200190565b67ffffffffffffffff8116811461102a575f80fd5b5f82601f8301126128f3575f80fd5b81356020612908612903836128ac565b61256b565b82815260069290921b84018101918181019086841115612926575f80fd5b8286015b848110156129735760408189031215612941575f80fd5b612949612548565b6129528261280c565b815284820135612961816128cf565b8186015283529183019160400161292a565b509695505050505050565b5f805f8060808587031215612991575f80fd5b843561299c81612718565b935060208501359250604085013567ffffffffffffffff808211156129bf575f80fd5b6129cb888389016128e4565b935060608701359150808211156129e0575f80fd5b506129ed878288016128e4565b91505092959194509250565b80516001600160c01b03811681146125b7575f80fd5b5f8060408385031215612a20575f80fd5b612a29836129f9565b9150612a37602084016129f9565b90509250929050565b5f60c08284031215612a50575f80fd5b60405160c0810181811067ffffffffffffffff82111715612a7357612a7361250a565b6040528251612a8181612718565b81526020830151612a91816128cf565b60208201526040830151612aa481612718565b60408201526060830151612ab78161259c565b60608201526080830151612aca81612718565b608082015260a0830151612add8161259c565b60a08201529392505050565b5f60608284031215612af9575f80fd5b6040516060810181811067ffffffffffffffff82111715612b1c57612b1c61250a565b80604052508091508251815260208301516020820152604083015160408201525092915050565b5f8060c08385031215612b54575f80fd5b612b5e8484612ae9565b9150612a378460608501612ae9565b634e487b7160e01b5f52601160045260245ffd5b8082028115828204841417611df957611df9612b6d565b5f82612bb257634e487b7160e01b5f52601260045260245ffd5b500490565b80820180821115611df957611df9612b6d565b634e487b7160e01b5f52603260045260245ffd5b5f8160020b627fffff198103612bf657612bf6612b6d565b5f0392915050565b81810381811115611df957611df9612b6d565b600181815b80851115612c4b57815f1904821115612c3157612c31612b6d565b80851615612c3e57918102915b93841c9390800290612c16565b509250929050565b5f82612c6157506001611df9565b81612c6d57505f611df9565b8160018114612c835760028114612c8d57612ca9565b6001915050611df9565b60ff841115612c9e57612c9e612b6d565b50506001821b611df9565b5060208310610133831016604e8410600b8410161715612ccc575081810a611df9565b612cd68383612c11565b805f1904821115612ce957612ce9612b6d565b029392505050565b5f61278260ff841683612c53565b5f60208284031215612d0f575f80fd5b815160ff81168114612782575f80fd5b602080825282518282018190525f9190848201906040850190845b81811015612d5f5783516001600160a01b031683529284019291840191600101612d3a565b50909695505050505050565b5f6020808385031215612d7c575f80fd5b825167ffffffffffffffff811115612d92575f80fd5b8301601f81018513612da2575f80fd5b8051612db0612903826128ac565b81815260059190911b82018301908381019087831115612dce575f80fd5b928401925b82841015612dec57835182529284019290840190612dd3565b979650505050505050565b60ff8281168282160390811115611df957611df9612b6d56fea2646970667358221220f2cfdf1e90e943ba5eec986e0060f679cbcb774ca2e1522ecbcfaee01c13717864736f6c63430008190033",
  "devdoc": {
    "errors": {
      "OwnableInvalidOwner(address)": [
        {
          "details": "The owner is not a valid owner account. (eg. `address(0)`)"
        }
      ],
      "OwnableUnauthorizedAccount(address)": [
        {
          "details": "The caller account is not authorized to perform an operation."
        }
      ],
      "SafeCastOverflowedUintDowncast(uint8,uint256)": [
        {
          "details": "Value doesn't fit in an uint of `bits` size."
        }
      ]
    },
    "kind": "dev",
    "methods": {
      "acceptOwnership()": {
        "details": "The new owner accepts the ownership transfer."
      },
      "owner()": {
        "details": "Returns the address of the current owner."
      },
      "pendingOwner()": {
        "details": "Returns the address of the pending owner."
      },
      "renounceOwnership()": {
        "details": "Leaves the contract without owner. It will not be possible to call `onlyOwner` functions. Can only be called by the current owner. NOTE: Renouncing ownership will leave the contract without an owner, thereby disabling any functionality that is only available to the owner."
      },
      "transferOwnership(address)": {
        "details": "Starts the ownership transfer of the contract to a new account. Replaces the pending transfer if there is one. Can only be called by the current owner. Setting `newOwner` to the zero address is allowed; this can be used to cancel an initiated ownership transfer."
      }
    },
    "version": 1
  },
  "userdoc": {
    "kind": "user",
    "methods": {},
    "version": 1
  },
  "storageLayout": {
    "storage": [
      {
        "astId": 8,
        "contract": "src/SimpleOracleStrategy.sol:SimpleOracleStrategy",
        "label": "_owner",
        "offset": 0,
        "slot": "0",
        "type": "t_address"
      },
      {
        "astId": 156,
        "contract": "src/SimpleOracleStrategy.sol:SimpleOracleStrategy",
        "label": "_pendingOwner",
        "offset": 0,
        "slot": "1",
        "type": "t_address"
      },
      {
        "astId": 4162,
        "contract": "src/SimpleOracleStrategy.sol:SimpleOracleStrategy",
        "label": "isOperator",
        "offset": 0,
        "slot": "2",
        "type": "t_mapping(t_address,t_bool)"
      },
      {
        "astId": 4167,
        "contract": "src/SimpleOracleStrategy.sol:SimpleOracleStrategy",
        "label": "_configs",
        "offset": 0,
        "slot": "3",
        "type": "t_mapping(t_bytes32,t_struct(Config)5710_storage)"
      },
      {
        "astId": 4172,
        "contract": "src/SimpleOracleStrategy.sol:SimpleOracleStrategy",
        "label": "_positions",
        "offset": 0,
        "slot": "4",
        "type": "t_mapping(t_bytes32,t_struct(Position)5721_storage)"
      },
      {
        "astId": 4176,
        "contract": "src/SimpleOracleStrategy.sol:SimpleOracleStrategy",
        "label": "_lastRawAmounts",
        "offset": 0,
        "slot": "5",
        "type": "t_mapping(t_bytes32,t_uint256)"
      }
    ],
    "types": {
      "t_address": {
        "encoding": "inplace",
        "label": "address",
        "numberOfBytes": "20"
      },
      "t_bool": {
        "encoding": "inplace",
        "label": "bool",
        "numberOfBytes": "1"
      },
      "t_bytes32": {
        "encoding": "inplace",
        "label": "bytes32",
        "numberOfBytes": "32"
      },
      "t_mapping(t_address,t_bool)": {
        "encoding": "mapping",
        "key": "t_address",
        "label": "mapping(address => bool)",
        "numberOfBytes": "32",
        "value": "t_bool"
      },
      "t_mapping(t_bytes32,t_struct(Config)5710_storage)": {
        "encoding": "mapping",
        "key": "t_bytes32",
        "label": "mapping(bytes32 => struct ISimpleOracleStrategy.Config)",
        "numberOfBytes": "32",
        "value": "t_struct(Config)5710_storage"
      },
      "t_mapping(t_bytes32,t_struct(Position)5721_storage)": {
        "encoding": "mapping",
        "key": "t_bytes32",
        "label": "mapping(bytes32 => struct ISimpleOracleStrategy.Position)",
        "numberOfBytes": "32",
        "value": "t_struct(Position)5721_storage"
      },
      "t_mapping(t_bytes32,t_uint256)": {
        "encoding": "mapping",
        "key": "t_bytes32",
        "label": "mapping(bytes32 => uint256)",
        "numberOfBytes": "32",
        "value": "t_uint256"
      },
      "t_struct(Config)5710_storage": {
        "encoding": "inplace",
        "label": "struct ISimpleOracleStrategy.Config",
        "members": [
          {
            "astId": 5695,
            "contract": "src/SimpleOracleStrategy.sol:SimpleOracleStrategy",
            "label": "referenceThreshold",
            "offset": 0,
            "slot": "0",
            "type": "t_uint24"
          },
          {
            "astId": 5697,
            "contract": "src/SimpleOracleStrategy.sol:SimpleOracleStrategy",
            "label": "rebalanceThreshold",
            "offset": 3,
            "slot": "0",
            "type": "t_uint24"
          },
          {
            "astId": 5699,
            "contract": "src/SimpleOracleStrategy.sol:SimpleOracleStrategy",
            "label": "rateA",
            "offset": 6,
            "slot": "0",
            "type": "t_uint24"
          },
          {
            "astId": 5701,
            "contract": "src/SimpleOracleStrategy.sol:SimpleOracleStrategy",
            "label": "rateB",
            "offset": 9,
            "slot": "0",
            "type": "t_uint24"
          },
          {
            "astId": 5703,
            "contract": "src/SimpleOracleStrategy.sol:SimpleOracleStrategy",
            "label": "minRateA",
            "offset": 12,
            "slot": "0",
            "type": "t_uint24"
          },
          {
            "astId": 5705,
            "contract": "src/SimpleOracleStrategy.sol:SimpleOracleStrategy",
            "label": "minRateB",
            "offset": 15,
            "slot": "0",
            "type": "t_uint24"
          },
          {
            "astId": 5707,
            "contract": "src/SimpleOracleStrategy.sol:SimpleOracleStrategy",
            "label": "priceThresholdA",
            "offset": 18,
            "slot": "0",
            "type": "t_uint24"
          },
          {
            "astId": 5709,
            "contract": "src/SimpleOracleStrategy.sol:SimpleOracleStrategy",
            "label": "priceThresholdB",
            "offset": 21,
            "slot": "0",
            "type": "t_uint24"
          }
        ],
        "numberOfBytes": "32"
      },
      "t_struct(Position)5721_storage": {
        "encoding": "inplace",
        "label": "struct ISimpleOracleStrategy.Position",
        "members": [
          {
            "astId": 5712,
            "contract": "src/SimpleOracleStrategy.sol:SimpleOracleStrategy",
            "label": "oraclePrice",
            "offset": 0,
            "slot": "0",
            "type": "t_uint184"
          },
          {
            "astId": 5714,
            "contract": "src/SimpleOracleStrategy.sol:SimpleOracleStrategy",
            "label": "rate",
            "offset": 23,
            "slot": "0",
            "type": "t_uint24"
          },
          {
            "astId": 5717,
            "contract": "src/SimpleOracleStrategy.sol:SimpleOracleStrategy",
            "label": "tickA",
            "offset": 26,
            "slot": "0",
            "type": "t_userDefinedValueType(Tick)3505"
          },
          {
            "astId": 5720,
            "contract": "src/SimpleOracleStrategy.sol:SimpleOracleStrategy",
            "label": "tickB",
            "offset": 29,
            "slot": "0",
            "type": "t_userDefinedValueType(Tick)3505"
          }
        ],
        "numberOfBytes": "32"
      },
      "t_uint184": {
        "encoding": "inplace",
        "label": "uint184",
        "numberOfBytes": "23"
      },
      "t_uint24": {
        "encoding": "inplace",
        "label": "uint24",
        "numberOfBytes": "3"
      },
      "t_uint256": {
        "encoding": "inplace",
        "label": "uint256",
        "numberOfBytes": "32"
      },
      "t_userDefinedValueType(Tick)3505": {
        "encoding": "inplace",
        "label": "Tick",
        "numberOfBytes": "3"
      }
    }
  }
}